{
	"game_pactice/game_practice_imp2.sol": {
		"RPS": {
			"abi": [
				{
					"inputs": [],
					"stateMutability": "payable",
					"type": "constructor"
				},
				{
					"anonymous": false,
					"inputs": [
						{
							"indexed": false,
							"internalType": "address",
							"name": "originator",
							"type": "address"
						},
						{
							"indexed": false,
							"internalType": "uint256",
							"name": "originator_bet",
							"type": "uint256"
						},
						{
							"indexed": false,
							"internalType": "uint256",
							"name": "room_num",
							"type": "uint256"
						},
						{
							"indexed": false,
							"internalType": "uint256",
							"name": "betAmount",
							"type": "uint256"
						}
					],
					"name": "gameCreated",
					"type": "event"
				},
				{
					"anonymous": false,
					"inputs": [
						{
							"indexed": false,
							"internalType": "address",
							"name": "originator",
							"type": "address"
						},
						{
							"indexed": false,
							"internalType": "address",
							"name": "taker",
							"type": "address"
						},
						{
							"indexed": false,
							"internalType": "uint256",
							"name": "originator_bet",
							"type": "uint256"
						},
						{
							"indexed": false,
							"internalType": "uint256",
							"name": "taker_bet",
							"type": "uint256"
						},
						{
							"indexed": false,
							"internalType": "uint256",
							"name": "betAmount",
							"type": "uint256"
						}
					],
					"name": "gameJoined",
					"type": "event"
				},
				{
					"anonymous": false,
					"inputs": [
						{
							"indexed": false,
							"internalType": "address",
							"name": "originator",
							"type": "address"
						},
						{
							"indexed": false,
							"internalType": "address",
							"name": "taker",
							"type": "address"
						},
						{
							"indexed": false,
							"internalType": "uint256",
							"name": "betAmount",
							"type": "uint256"
						}
					],
					"name": "originatorWin",
					"type": "event"
				},
				{
					"anonymous": false,
					"inputs": [
						{
							"indexed": false,
							"internalType": "address",
							"name": "originator",
							"type": "address"
						},
						{
							"indexed": false,
							"internalType": "address",
							"name": "taker",
							"type": "address"
						},
						{
							"indexed": false,
							"internalType": "uint256",
							"name": "betAmount",
							"type": "uint256"
						}
					],
					"name": "takerWin",
					"type": "event"
				},
				{
					"inputs": [
						{
							"internalType": "enum RPS.Hand",
							"name": "_hand",
							"type": "uint8"
						}
					],
					"name": "createRoom",
					"outputs": [
						{
							"internalType": "uint256",
							"name": "roomNum",
							"type": "uint256"
						}
					],
					"stateMutability": "payable",
					"type": "function"
				},
				{
					"inputs": [
						{
							"internalType": "uint256",
							"name": "roomNum",
							"type": "uint256"
						},
						{
							"internalType": "enum RPS.Hand",
							"name": "_hand",
							"type": "uint8"
						}
					],
					"name": "joinRoom",
					"outputs": [],
					"stateMutability": "payable",
					"type": "function"
				},
				{
					"inputs": [
						{
							"internalType": "uint256",
							"name": "roomNum",
							"type": "uint256"
						}
					],
					"name": "payout",
					"outputs": [],
					"stateMutability": "nonpayable",
					"type": "function"
				}
			],
			"devdoc": {
				"kind": "dev",
				"methods": {},
				"version": 1
			},
			"evm": {
				"assembly": "    /* \"game_pactice/game_practice_imp2.sol\":61:5451  contract RPS {... */\n  mstore(0x40, 0x80)\n    /* \"game_pactice/game_practice_imp2.sol\":1152:1153  0 */\n  0x00\n    /* \"game_pactice/game_practice_imp2.sol\":1137:1153  uint roomLen = 0 */\n  0x01\n  sstore\n    /* \"game_pactice/game_practice_imp2.sol\":61:5451  contract RPS {... */\n  dataSize(sub_0)\n  dup1\n  dataOffset(sub_0)\n  0x00\n  codecopy\n  0x00\n  return\nstop\n\nsub_0: assembly {\n        /* \"game_pactice/game_practice_imp2.sol\":61:5451  contract RPS {... */\n      mstore(0x40, 0x80)\n      jumpi(tag_1, lt(calldatasize, 0x04))\n      shr(0xe0, calldataload(0x00))\n      dup1\n      0x0f36f3b5\n      eq\n      tag_2\n      jumpi\n      dup1\n      0x79b15776\n      eq\n      tag_3\n      jumpi\n      dup1\n      0xe1152343\n      eq\n      tag_4\n      jumpi\n    tag_1:\n      0x00\n      dup1\n      revert\n        /* \"game_pactice/game_practice_imp2.sol\":1555:2438  function createRoom (Hand _hand) public payable isValidHand(_hand) returns (uint roomNum) {... */\n    tag_2:\n      tag_5\n      0x04\n      dup1\n      calldatasize\n      sub\n      dup2\n      add\n      swap1\n      tag_6\n      swap2\n      swap1\n      tag_7\n      jump\t// in\n    tag_6:\n      tag_8\n      jump\t// in\n    tag_5:\n      mload(0x40)\n      tag_9\n      swap2\n      swap1\n      tag_10\n      jump\t// in\n    tag_9:\n      mload(0x40)\n      dup1\n      swap2\n      sub\n      swap1\n      return\n        /* \"game_pactice/game_practice_imp2.sol\":2445:2977  function joinRoom(uint roomNum, Hand _hand) public payable isValidHand(_hand){... */\n    tag_3:\n      tag_11\n      0x04\n      dup1\n      calldatasize\n      sub\n      dup2\n      add\n      swap1\n      tag_12\n      swap2\n      swap1\n      tag_13\n      jump\t// in\n    tag_12:\n      tag_14\n      jump\t// in\n    tag_11:\n      stop\n        /* \"game_pactice/game_practice_imp2.sol\":4171:5448  function payout(uint roomNum) public isPlayer(roomNum, msg.sender) {... */\n    tag_4:\n      callvalue\n      dup1\n      iszero\n      tag_15\n      jumpi\n      0x00\n      dup1\n      revert\n    tag_15:\n      pop\n      tag_16\n      0x04\n      dup1\n      calldatasize\n      sub\n      dup2\n      add\n      swap1\n      tag_17\n      swap2\n      swap1\n      tag_18\n      jump\t// in\n    tag_17:\n      tag_19\n      jump\t// in\n    tag_16:\n      stop\n        /* \"game_pactice/game_practice_imp2.sol\":1555:2438  function createRoom (Hand _hand) public payable isValidHand(_hand) returns (uint roomNum) {... */\n    tag_8:\n        /* \"game_pactice/game_practice_imp2.sol\":1631:1643  uint roomNum */\n      0x00\n        /* \"game_pactice/game_practice_imp2.sol\":1615:1620  _hand */\n      dup2\n        /* \"game_pactice/game_practice_imp2.sol\":1222:1231  Hand.rock */\n      0x00\n        /* \"game_pactice/game_practice_imp2.sol\":1213:1231  _hand == Hand.rock */\n      0x02\n      dup2\n      gt\n      iszero\n      tag_21\n      jumpi\n      tag_22\n      tag_23\n      jump\t// in\n    tag_22:\n    tag_21:\n        /* \"game_pactice/game_practice_imp2.sol\":1213:1218  _hand */\n      dup2\n        /* \"game_pactice/game_practice_imp2.sol\":1213:1231  _hand == Hand.rock */\n      0x02\n      dup2\n      gt\n      iszero\n      tag_24\n      jumpi\n      tag_25\n      tag_23\n      jump\t// in\n    tag_25:\n    tag_24:\n      eq\n        /* \"game_pactice/game_practice_imp2.sol\":1212:1257  (_hand == Hand.rock) || (_hand == Hand.paper) */\n      dup1\n      tag_26\n      jumpi\n      pop\n        /* \"game_pactice/game_practice_imp2.sol\":1246:1256  Hand.paper */\n      0x01\n        /* \"game_pactice/game_practice_imp2.sol\":1237:1256  _hand == Hand.paper */\n      0x02\n      dup2\n      gt\n      iszero\n      tag_27\n      jumpi\n      tag_28\n      tag_23\n      jump\t// in\n    tag_28:\n    tag_27:\n        /* \"game_pactice/game_practice_imp2.sol\":1237:1242  _hand */\n      dup2\n        /* \"game_pactice/game_practice_imp2.sol\":1237:1256  _hand == Hand.paper */\n      0x02\n      dup2\n      gt\n      iszero\n      tag_29\n      jumpi\n      tag_30\n      tag_23\n      jump\t// in\n    tag_30:\n    tag_29:\n      eq\n        /* \"game_pactice/game_practice_imp2.sol\":1212:1257  (_hand == Hand.rock) || (_hand == Hand.paper) */\n    tag_26:\n        /* \"game_pactice/game_practice_imp2.sol\":1212:1285  (_hand == Hand.rock) || (_hand == Hand.paper) || (_hand == Hand.scissors) */\n      dup1\n      tag_31\n      jumpi\n      pop\n        /* \"game_pactice/game_practice_imp2.sol\":1271:1284  Hand.scissors */\n      0x02\n        /* \"game_pactice/game_practice_imp2.sol\":1262:1284  _hand == Hand.scissors */\n      dup1\n      dup2\n      gt\n      iszero\n      tag_32\n      jumpi\n      tag_33\n      tag_23\n      jump\t// in\n    tag_33:\n    tag_32:\n        /* \"game_pactice/game_practice_imp2.sol\":1262:1267  _hand */\n      dup2\n        /* \"game_pactice/game_practice_imp2.sol\":1262:1284  _hand == Hand.scissors */\n      0x02\n      dup2\n      gt\n      iszero\n      tag_34\n      jumpi\n      tag_35\n      tag_23\n      jump\t// in\n    tag_35:\n    tag_34:\n      eq\n        /* \"game_pactice/game_practice_imp2.sol\":1212:1285  (_hand == Hand.rock) || (_hand == Hand.paper) || (_hand == Hand.scissors) */\n    tag_31:\n        /* \"game_pactice/game_practice_imp2.sol\":1204:1286  require((_hand == Hand.rock) || (_hand == Hand.paper) || (_hand == Hand.scissors)) */\n      tag_36\n      jumpi\n      0x00\n      dup1\n      revert\n    tag_36:\n        /* \"game_pactice/game_practice_imp2.sol\":1715:2290  Game({... */\n      mload(0x40)\n      dup1\n      0x80\n      add\n      0x40\n      mstore\n      dup1\n        /* \"game_pactice/game_practice_imp2.sol\":1745:1754  msg.value */\n      callvalue\n        /* \"game_pactice/game_practice_imp2.sol\":1715:2290  Game({... */\n      dup2\n      mstore\n      0x20\n      add\n        /* \"game_pactice/game_practice_imp2.sol\":1835:2032  Player({... */\n      mload(0x40)\n      dup1\n      0x80\n      add\n      0x40\n      mstore\n      dup1\n        /* \"game_pactice/game_practice_imp2.sol\":1903:1913  msg.sender */\n      caller\n        /* \"game_pactice/game_practice_imp2.sol\":1835:2032  Player({... */\n      0xffffffffffffffffffffffffffffffffffffffff\n      and\n      dup2\n      mstore\n      0x20\n      add\n        /* \"game_pactice/game_practice_imp2.sol\":2008:2017  msg.value */\n      callvalue\n        /* \"game_pactice/game_practice_imp2.sol\":1835:2032  Player({... */\n      dup2\n      mstore\n      0x20\n      add\n        /* \"game_pactice/game_practice_imp2.sol\":1866:1871  _hand */\n      dup7\n        /* \"game_pactice/game_practice_imp2.sol\":1835:2032  Player({... */\n      0x02\n      dup2\n      gt\n      iszero\n      tag_38\n      jumpi\n      tag_39\n      tag_23\n      jump\t// in\n    tag_39:\n    tag_38:\n      dup2\n      mstore\n      0x20\n      add\n        /* \"game_pactice/game_practice_imp2.sol\":1946:1973  PlayerStatus.STATUS_PENDING */\n      0x03\n        /* \"game_pactice/game_practice_imp2.sol\":1835:2032  Player({... */\n      dup1\n      dup2\n      gt\n      iszero\n      tag_40\n      jumpi\n      tag_41\n      tag_23\n      jump\t// in\n    tag_41:\n    tag_40:\n      dup2\n      mstore\n      pop\n        /* \"game_pactice/game_practice_imp2.sol\":1715:2290  Game({... */\n      dup2\n      mstore\n      0x20\n      add\n        /* \"game_pactice/game_practice_imp2.sol\":2085:2279  Player({... */\n      mload(0x40)\n      dup1\n      0x80\n      add\n      0x40\n      mstore\n      dup1\n        /* \"game_pactice/game_practice_imp2.sol\":2157:2167  msg.sender */\n      caller\n        /* \"game_pactice/game_practice_imp2.sol\":2085:2279  Player({... */\n      0xffffffffffffffffffffffffffffffffffffffff\n      and\n      dup2\n      mstore\n      0x20\n      add\n        /* \"game_pactice/game_practice_imp2.sol\":2263:2264  0 */\n      0x00\n        /* \"game_pactice/game_practice_imp2.sol\":2085:2279  Player({... */\n      dup2\n      mstore\n      0x20\n      add\n        /* \"game_pactice/game_practice_imp2.sol\":2116:2125  Hand.rock */\n      0x00\n        /* \"game_pactice/game_practice_imp2.sol\":2085:2279  Player({... */\n      0x02\n      dup2\n      gt\n      iszero\n      tag_42\n      jumpi\n      tag_43\n      tag_23\n      jump\t// in\n    tag_43:\n    tag_42:\n      dup2\n      mstore\n      0x20\n      add\n        /* \"game_pactice/game_practice_imp2.sol\":2200:2227  PlayerStatus.STATUS_PENDING */\n      0x03\n        /* \"game_pactice/game_practice_imp2.sol\":2085:2279  Player({... */\n      dup1\n      dup2\n      gt\n      iszero\n      tag_44\n      jumpi\n      tag_45\n      tag_23\n      jump\t// in\n    tag_45:\n    tag_44:\n      dup2\n      mstore\n      pop\n        /* \"game_pactice/game_practice_imp2.sol\":1715:2290  Game({... */\n      dup2\n      mstore\n      0x20\n      add\n        /* \"game_pactice/game_practice_imp2.sol\":1780:1809  GameStatus.STATUS_NOT_STARTED */\n      0x00\n        /* \"game_pactice/game_practice_imp2.sol\":1715:2290  Game({... */\n      0x03\n      dup2\n      gt\n      iszero\n      tag_46\n      jumpi\n      tag_47\n      tag_23\n      jump\t// in\n    tag_47:\n    tag_46:\n      dup2\n      mstore\n      pop\n        /* \"game_pactice/game_practice_imp2.sol\":1698:1703  rooms */\n      0x00\n        /* \"game_pactice/game_practice_imp2.sol\":1698:1712  rooms[roomLen] */\n      dup1\n        /* \"game_pactice/game_practice_imp2.sol\":1704:1711  roomLen */\n      sload(0x01)\n        /* \"game_pactice/game_practice_imp2.sol\":1698:1712  rooms[roomLen] */\n      dup2\n      mstore\n      0x20\n      add\n      swap1\n      dup2\n      mstore\n      0x20\n      add\n      0x00\n      keccak256\n        /* \"game_pactice/game_practice_imp2.sol\":1698:2290  rooms[roomLen] = Game({... */\n      0x00\n      dup3\n      add\n      mload\n      dup2\n      0x00\n      add\n      sstore\n      0x20\n      dup3\n      add\n      mload\n      dup2\n      0x01\n      add\n      0x00\n      dup3\n      add\n      mload\n      dup2\n      0x00\n      add\n      exp(0x0100, 0x00)\n      dup2\n      sload\n      dup2\n      0xffffffffffffffffffffffffffffffffffffffff\n      mul\n      not\n      and\n      swap1\n      dup4\n      0xffffffffffffffffffffffffffffffffffffffff\n      and\n      mul\n      or\n      swap1\n      sstore\n      pop\n      0x20\n      dup3\n      add\n      mload\n      dup2\n      0x01\n      add\n      sstore\n      0x40\n      dup3\n      add\n      mload\n      dup2\n      0x02\n      add\n      exp(0x0100, 0x00)\n      dup2\n      sload\n      dup2\n      0xff\n      mul\n      not\n      and\n      swap1\n      dup4\n      0x02\n      dup2\n      gt\n      iszero\n      tag_48\n      jumpi\n      tag_49\n      tag_23\n      jump\t// in\n    tag_49:\n    tag_48:\n      mul\n      or\n      swap1\n      sstore\n      pop\n      0x60\n      dup3\n      add\n      mload\n      dup2\n      0x02\n      add\n      exp(0x0100, 0x01)\n      dup2\n      sload\n      dup2\n      0xff\n      mul\n      not\n      and\n      swap1\n      dup4\n      0x03\n      dup2\n      gt\n      iszero\n      tag_50\n      jumpi\n      tag_51\n      tag_23\n      jump\t// in\n    tag_51:\n    tag_50:\n      mul\n      or\n      swap1\n      sstore\n      pop\n      pop\n      pop\n      0x40\n      dup3\n      add\n      mload\n      dup2\n      0x04\n      add\n      0x00\n      dup3\n      add\n      mload\n      dup2\n      0x00\n      add\n      exp(0x0100, 0x00)\n      dup2\n      sload\n      dup2\n      0xffffffffffffffffffffffffffffffffffffffff\n      mul\n      not\n      and\n      swap1\n      dup4\n      0xffffffffffffffffffffffffffffffffffffffff\n      and\n      mul\n      or\n      swap1\n      sstore\n      pop\n      0x20\n      dup3\n      add\n      mload\n      dup2\n      0x01\n      add\n      sstore\n      0x40\n      dup3\n      add\n      mload\n      dup2\n      0x02\n      add\n      exp(0x0100, 0x00)\n      dup2\n      sload\n      dup2\n      0xff\n      mul\n      not\n      and\n      swap1\n      dup4\n      0x02\n      dup2\n      gt\n      iszero\n      tag_52\n      jumpi\n      tag_53\n      tag_23\n      jump\t// in\n    tag_53:\n    tag_52:\n      mul\n      or\n      swap1\n      sstore\n      pop\n      0x60\n      dup3\n      add\n      mload\n      dup2\n      0x02\n      add\n      exp(0x0100, 0x01)\n      dup2\n      sload\n      dup2\n      0xff\n      mul\n      not\n      and\n      swap1\n      dup4\n      0x03\n      dup2\n      gt\n      iszero\n      tag_54\n      jumpi\n      tag_55\n      tag_23\n      jump\t// in\n    tag_55:\n    tag_54:\n      mul\n      or\n      swap1\n      sstore\n      pop\n      pop\n      pop\n      0x60\n      dup3\n      add\n      mload\n      dup2\n      0x07\n      add\n      exp(0x0100, 0x00)\n      dup2\n      sload\n      dup2\n      0xff\n      mul\n      not\n      and\n      swap1\n      dup4\n      0x03\n      dup2\n      gt\n      iszero\n      tag_56\n      jumpi\n      tag_57\n      tag_23\n      jump\t// in\n    tag_57:\n    tag_56:\n      mul\n      or\n      swap1\n      sstore\n      pop\n      swap1\n      pop\n      pop\n        /* \"game_pactice/game_practice_imp2.sol\":2310:2317  roomLen */\n      sload(0x01)\n        /* \"game_pactice/game_practice_imp2.sol\":2300:2317  roomNum = roomLen */\n      swap2\n      pop\n        /* \"game_pactice/game_practice_imp2.sol\":2345:2346  1 */\n      0x01\n        /* \"game_pactice/game_practice_imp2.sol\":2337:2344  roomLen */\n      dup1\n      sload\n        /* \"game_pactice/game_practice_imp2.sol\":2337:2346  roomLen+1 */\n      tag_58\n      swap2\n      swap1\n      tag_59\n      jump\t// in\n    tag_58:\n        /* \"game_pactice/game_practice_imp2.sol\":2327:2334  roomLen */\n      0x01\n        /* \"game_pactice/game_practice_imp2.sol\":2327:2346  roomLen = roomLen+1 */\n      dup2\n      swap1\n      sstore\n      pop\n        /* \"game_pactice/game_practice_imp2.sol\":2362:2431  gameCreated(msg.sender, msg.value, roomNum, rooms[roomNum].betAmount) */\n      0xe9ab5080ecc6336987633f10106b3545fcbe2a24b37a90d48ad5b6cb6be5baf7\n        /* \"game_pactice/game_practice_imp2.sol\":2374:2384  msg.sender */\n      caller\n        /* \"game_pactice/game_practice_imp2.sol\":2386:2395  msg.value */\n      callvalue\n        /* \"game_pactice/game_practice_imp2.sol\":2397:2404  roomNum */\n      dup5\n        /* \"game_pactice/game_practice_imp2.sol\":2406:2411  rooms */\n      0x00\n        /* \"game_pactice/game_practice_imp2.sol\":2406:2420  rooms[roomNum] */\n      dup1\n        /* \"game_pactice/game_practice_imp2.sol\":2412:2419  roomNum */\n      dup8\n        /* \"game_pactice/game_practice_imp2.sol\":2406:2420  rooms[roomNum] */\n      dup2\n      mstore\n      0x20\n      add\n      swap1\n      dup2\n      mstore\n      0x20\n      add\n      0x00\n      keccak256\n        /* \"game_pactice/game_practice_imp2.sol\":2406:2430  rooms[roomNum].betAmount */\n      0x00\n      add\n      sload\n        /* \"game_pactice/game_practice_imp2.sol\":2362:2431  gameCreated(msg.sender, msg.value, roomNum, rooms[roomNum].betAmount) */\n      mload(0x40)\n      tag_60\n      swap5\n      swap4\n      swap3\n      swap2\n      swap1\n      tag_61\n      jump\t// in\n    tag_60:\n      mload(0x40)\n      dup1\n      swap2\n      sub\n      swap1\n      log1\n        /* \"game_pactice/game_practice_imp2.sol\":1555:2438  function createRoom (Hand _hand) public payable isValidHand(_hand) returns (uint roomNum) {... */\n      pop\n      swap2\n      swap1\n      pop\n      jump\t// out\n        /* \"game_pactice/game_practice_imp2.sol\":2445:2977  function joinRoom(uint roomNum, Hand _hand) public payable isValidHand(_hand){... */\n    tag_14:\n        /* \"game_pactice/game_practice_imp2.sol\":2516:2521  _hand */\n      dup1\n        /* \"game_pactice/game_practice_imp2.sol\":1222:1231  Hand.rock */\n      0x00\n        /* \"game_pactice/game_practice_imp2.sol\":1213:1231  _hand == Hand.rock */\n      0x02\n      dup2\n      gt\n      iszero\n      tag_63\n      jumpi\n      tag_64\n      tag_23\n      jump\t// in\n    tag_64:\n    tag_63:\n        /* \"game_pactice/game_practice_imp2.sol\":1213:1218  _hand */\n      dup2\n        /* \"game_pactice/game_practice_imp2.sol\":1213:1231  _hand == Hand.rock */\n      0x02\n      dup2\n      gt\n      iszero\n      tag_65\n      jumpi\n      tag_66\n      tag_23\n      jump\t// in\n    tag_66:\n    tag_65:\n      eq\n        /* \"game_pactice/game_practice_imp2.sol\":1212:1257  (_hand == Hand.rock) || (_hand == Hand.paper) */\n      dup1\n      tag_67\n      jumpi\n      pop\n        /* \"game_pactice/game_practice_imp2.sol\":1246:1256  Hand.paper */\n      0x01\n        /* \"game_pactice/game_practice_imp2.sol\":1237:1256  _hand == Hand.paper */\n      0x02\n      dup2\n      gt\n      iszero\n      tag_68\n      jumpi\n      tag_69\n      tag_23\n      jump\t// in\n    tag_69:\n    tag_68:\n        /* \"game_pactice/game_practice_imp2.sol\":1237:1242  _hand */\n      dup2\n        /* \"game_pactice/game_practice_imp2.sol\":1237:1256  _hand == Hand.paper */\n      0x02\n      dup2\n      gt\n      iszero\n      tag_70\n      jumpi\n      tag_71\n      tag_23\n      jump\t// in\n    tag_71:\n    tag_70:\n      eq\n        /* \"game_pactice/game_practice_imp2.sol\":1212:1257  (_hand == Hand.rock) || (_hand == Hand.paper) */\n    tag_67:\n        /* \"game_pactice/game_practice_imp2.sol\":1212:1285  (_hand == Hand.rock) || (_hand == Hand.paper) || (_hand == Hand.scissors) */\n      dup1\n      tag_72\n      jumpi\n      pop\n        /* \"game_pactice/game_practice_imp2.sol\":1271:1284  Hand.scissors */\n      0x02\n        /* \"game_pactice/game_practice_imp2.sol\":1262:1284  _hand == Hand.scissors */\n      dup1\n      dup2\n      gt\n      iszero\n      tag_73\n      jumpi\n      tag_74\n      tag_23\n      jump\t// in\n    tag_74:\n    tag_73:\n        /* \"game_pactice/game_practice_imp2.sol\":1262:1267  _hand */\n      dup2\n        /* \"game_pactice/game_practice_imp2.sol\":1262:1284  _hand == Hand.scissors */\n      0x02\n      dup2\n      gt\n      iszero\n      tag_75\n      jumpi\n      tag_76\n      tag_23\n      jump\t// in\n    tag_76:\n    tag_75:\n      eq\n        /* \"game_pactice/game_practice_imp2.sol\":1212:1285  (_hand == Hand.rock) || (_hand == Hand.paper) || (_hand == Hand.scissors) */\n    tag_72:\n        /* \"game_pactice/game_practice_imp2.sol\":1204:1286  require((_hand == Hand.rock) || (_hand == Hand.paper) || (_hand == Hand.scissors)) */\n      tag_77\n      jumpi\n      0x00\n      dup1\n      revert\n    tag_77:\n        /* \"game_pactice/game_practice_imp2.sol\":2537:2654  gameJoined(rooms[roomNum].originator.addr, msg.sender, rooms[roomNum].betAmount, msg.value, rooms[roomNum].betAmount) */\n      0x825188cfa44a4b20e051b1c19cb3328b895cd48b12678ee53f998d558892d092\n        /* \"game_pactice/game_practice_imp2.sol\":2548:2553  rooms */\n      0x00\n        /* \"game_pactice/game_practice_imp2.sol\":2548:2562  rooms[roomNum] */\n      dup1\n        /* \"game_pactice/game_practice_imp2.sol\":2554:2561  roomNum */\n      dup6\n        /* \"game_pactice/game_practice_imp2.sol\":2548:2562  rooms[roomNum] */\n      dup2\n      mstore\n      0x20\n      add\n      swap1\n      dup2\n      mstore\n      0x20\n      add\n      0x00\n      keccak256\n        /* \"game_pactice/game_practice_imp2.sol\":2548:2573  rooms[roomNum].originator */\n      0x01\n      add\n        /* \"game_pactice/game_practice_imp2.sol\":2548:2578  rooms[roomNum].originator.addr */\n      0x00\n      add\n      0x00\n      swap1\n      sload\n      swap1\n      0x0100\n      exp\n      swap1\n      div\n      0xffffffffffffffffffffffffffffffffffffffff\n      and\n        /* \"game_pactice/game_practice_imp2.sol\":2580:2590  msg.sender */\n      caller\n        /* \"game_pactice/game_practice_imp2.sol\":2592:2597  rooms */\n      0x00\n        /* \"game_pactice/game_practice_imp2.sol\":2592:2606  rooms[roomNum] */\n      dup1\n        /* \"game_pactice/game_practice_imp2.sol\":2598:2605  roomNum */\n      dup8\n        /* \"game_pactice/game_practice_imp2.sol\":2592:2606  rooms[roomNum] */\n      dup2\n      mstore\n      0x20\n      add\n      swap1\n      dup2\n      mstore\n      0x20\n      add\n      0x00\n      keccak256\n        /* \"game_pactice/game_practice_imp2.sol\":2592:2616  rooms[roomNum].betAmount */\n      0x00\n      add\n      sload\n        /* \"game_pactice/game_practice_imp2.sol\":2618:2627  msg.value */\n      callvalue\n        /* \"game_pactice/game_practice_imp2.sol\":2629:2634  rooms */\n      0x00\n        /* \"game_pactice/game_practice_imp2.sol\":2629:2643  rooms[roomNum] */\n      dup1\n        /* \"game_pactice/game_practice_imp2.sol\":2635:2642  roomNum */\n      dup10\n        /* \"game_pactice/game_practice_imp2.sol\":2629:2643  rooms[roomNum] */\n      dup2\n      mstore\n      0x20\n      add\n      swap1\n      dup2\n      mstore\n      0x20\n      add\n      0x00\n      keccak256\n        /* \"game_pactice/game_practice_imp2.sol\":2629:2653  rooms[roomNum].betAmount */\n      0x00\n      add\n      sload\n        /* \"game_pactice/game_practice_imp2.sol\":2537:2654  gameJoined(rooms[roomNum].originator.addr, msg.sender, rooms[roomNum].betAmount, msg.value, rooms[roomNum].betAmount) */\n      mload(0x40)\n      tag_79\n      swap6\n      swap5\n      swap4\n      swap3\n      swap2\n      swap1\n      tag_80\n      jump\t// in\n    tag_79:\n      mload(0x40)\n      dup1\n      swap2\n      sub\n      swap1\n      log1\n        /* \"game_pactice/game_practice_imp2.sol\":2688:2865  Player({... */\n      mload(0x40)\n      dup1\n      0x80\n      add\n      0x40\n      mstore\n      dup1\n        /* \"game_pactice/game_practice_imp2.sol\":2748:2758  msg.sender */\n      caller\n        /* \"game_pactice/game_practice_imp2.sol\":2688:2865  Player({... */\n      0xffffffffffffffffffffffffffffffffffffffff\n      and\n      dup2\n      mstore\n      0x20\n      add\n        /* \"game_pactice/game_practice_imp2.sol\":2845:2854  msg.value */\n      callvalue\n        /* \"game_pactice/game_practice_imp2.sol\":2688:2865  Player({... */\n      dup2\n      mstore\n      0x20\n      add\n        /* \"game_pactice/game_practice_imp2.sol\":2715:2720  _hand */\n      dup4\n        /* \"game_pactice/game_practice_imp2.sol\":2688:2865  Player({... */\n      0x02\n      dup2\n      gt\n      iszero\n      tag_81\n      jumpi\n      tag_82\n      tag_23\n      jump\t// in\n    tag_82:\n    tag_81:\n      dup2\n      mstore\n      0x20\n      add\n        /* \"game_pactice/game_practice_imp2.sol\":2787:2814  PlayerStatus.STATUS_PENDING */\n      0x03\n        /* \"game_pactice/game_practice_imp2.sol\":2688:2865  Player({... */\n      dup1\n      dup2\n      gt\n      iszero\n      tag_83\n      jumpi\n      tag_84\n      tag_23\n      jump\t// in\n    tag_84:\n    tag_83:\n      dup2\n      mstore\n      pop\n        /* \"game_pactice/game_practice_imp2.sol\":2665:2670  rooms */\n      0x00\n        /* \"game_pactice/game_practice_imp2.sol\":2665:2679  rooms[roomNum] */\n      dup1\n        /* \"game_pactice/game_practice_imp2.sol\":2671:2678  roomNum */\n      dup6\n        /* \"game_pactice/game_practice_imp2.sol\":2665:2679  rooms[roomNum] */\n      dup2\n      mstore\n      0x20\n      add\n      swap1\n      dup2\n      mstore\n      0x20\n      add\n      0x00\n      keccak256\n        /* \"game_pactice/game_practice_imp2.sol\":2665:2685  rooms[roomNum].taker */\n      0x04\n      add\n        /* \"game_pactice/game_practice_imp2.sol\":2665:2865  rooms[roomNum].taker = Player({... */\n      0x00\n      dup3\n      add\n      mload\n      dup2\n      0x00\n      add\n      exp(0x0100, 0x00)\n      dup2\n      sload\n      dup2\n      0xffffffffffffffffffffffffffffffffffffffff\n      mul\n      not\n      and\n      swap1\n      dup4\n      0xffffffffffffffffffffffffffffffffffffffff\n      and\n      mul\n      or\n      swap1\n      sstore\n      pop\n      0x20\n      dup3\n      add\n      mload\n      dup2\n      0x01\n      add\n      sstore\n      0x40\n      dup3\n      add\n      mload\n      dup2\n      0x02\n      add\n      exp(0x0100, 0x00)\n      dup2\n      sload\n      dup2\n      0xff\n      mul\n      not\n      and\n      swap1\n      dup4\n      0x02\n      dup2\n      gt\n      iszero\n      tag_85\n      jumpi\n      tag_86\n      tag_23\n      jump\t// in\n    tag_86:\n    tag_85:\n      mul\n      or\n      swap1\n      sstore\n      pop\n      0x60\n      dup3\n      add\n      mload\n      dup2\n      0x02\n      add\n      exp(0x0100, 0x01)\n      dup2\n      sload\n      dup2\n      0xff\n      mul\n      not\n      and\n      swap1\n      dup4\n      0x03\n      dup2\n      gt\n      iszero\n      tag_87\n      jumpi\n      tag_88\n      tag_23\n      jump\t// in\n    tag_88:\n    tag_87:\n      mul\n      or\n      swap1\n      sstore\n      pop\n      swap1\n      pop\n      pop\n        /* \"game_pactice/game_practice_imp2.sol\":2930:2939  msg.value */\n      callvalue\n        /* \"game_pactice/game_practice_imp2.sol\":2903:2908  rooms */\n      0x00\n        /* \"game_pactice/game_practice_imp2.sol\":2903:2917  rooms[roomNum] */\n      dup1\n        /* \"game_pactice/game_practice_imp2.sol\":2909:2916  roomNum */\n      dup6\n        /* \"game_pactice/game_practice_imp2.sol\":2903:2917  rooms[roomNum] */\n      dup2\n      mstore\n      0x20\n      add\n      swap1\n      dup2\n      mstore\n      0x20\n      add\n      0x00\n      keccak256\n        /* \"game_pactice/game_practice_imp2.sol\":2903:2927  rooms[roomNum].betAmount */\n      0x00\n      add\n      sload\n        /* \"game_pactice/game_practice_imp2.sol\":2903:2939  rooms[roomNum].betAmount + msg.value */\n      tag_89\n      swap2\n      swap1\n      tag_59\n      jump\t// in\n    tag_89:\n        /* \"game_pactice/game_practice_imp2.sol\":2876:2881  rooms */\n      0x00\n        /* \"game_pactice/game_practice_imp2.sol\":2876:2890  rooms[roomNum] */\n      dup1\n        /* \"game_pactice/game_practice_imp2.sol\":2882:2889  roomNum */\n      dup6\n        /* \"game_pactice/game_practice_imp2.sol\":2876:2890  rooms[roomNum] */\n      dup2\n      mstore\n      0x20\n      add\n      swap1\n      dup2\n      mstore\n      0x20\n      add\n      0x00\n      keccak256\n        /* \"game_pactice/game_practice_imp2.sol\":2876:2900  rooms[roomNum].betAmount */\n      0x00\n      add\n        /* \"game_pactice/game_practice_imp2.sol\":2876:2939  rooms[roomNum].betAmount = rooms[roomNum].betAmount + msg.value */\n      dup2\n      swap1\n      sstore\n      pop\n        /* \"game_pactice/game_practice_imp2.sol\":2949:2970  compareHands(roomNum) */\n      tag_90\n        /* \"game_pactice/game_practice_imp2.sol\":2962:2969  roomNum */\n      dup4\n        /* \"game_pactice/game_practice_imp2.sol\":2949:2961  compareHands */\n      tag_91\n        /* \"game_pactice/game_practice_imp2.sol\":2949:2970  compareHands(roomNum) */\n      jump\t// in\n    tag_90:\n        /* \"game_pactice/game_practice_imp2.sol\":2445:2977  function joinRoom(uint roomNum, Hand _hand) public payable isValidHand(_hand){... */\n      pop\n      pop\n      pop\n      jump\t// out\n        /* \"game_pactice/game_practice_imp2.sol\":4171:5448  function payout(uint roomNum) public isPlayer(roomNum, msg.sender) {... */\n    tag_19:\n        /* \"game_pactice/game_practice_imp2.sol\":4217:4224  roomNum */\n      dup1\n        /* \"game_pactice/game_practice_imp2.sol\":4226:4236  msg.sender */\n      caller\n        /* \"game_pactice/game_practice_imp2.sol\":1387:1392  rooms */\n      0x00\n        /* \"game_pactice/game_practice_imp2.sol\":1387:1401  rooms[roomNum] */\n      dup1\n        /* \"game_pactice/game_practice_imp2.sol\":1393:1400  roomNum */\n      dup4\n        /* \"game_pactice/game_practice_imp2.sol\":1387:1401  rooms[roomNum] */\n      dup2\n      mstore\n      0x20\n      add\n      swap1\n      dup2\n      mstore\n      0x20\n      add\n      0x00\n      keccak256\n        /* \"game_pactice/game_practice_imp2.sol\":1387:1412  rooms[roomNum].originator */\n      0x01\n      add\n        /* \"game_pactice/game_practice_imp2.sol\":1387:1417  rooms[roomNum].originator.addr */\n      0x00\n      add\n      0x00\n      swap1\n      sload\n      swap1\n      0x0100\n      exp\n      swap1\n      div\n      0xffffffffffffffffffffffffffffffffffffffff\n      and\n        /* \"game_pactice/game_practice_imp2.sol\":1377:1417  sender == rooms[roomNum].originator.addr */\n      0xffffffffffffffffffffffffffffffffffffffff\n      and\n        /* \"game_pactice/game_practice_imp2.sol\":1377:1383  sender */\n      dup2\n        /* \"game_pactice/game_practice_imp2.sol\":1377:1417  sender == rooms[roomNum].originator.addr */\n      0xffffffffffffffffffffffffffffffffffffffff\n      and\n      eq\n        /* \"game_pactice/game_practice_imp2.sol\":1377:1456  sender == rooms[roomNum].originator.addr || sender == rooms[roomNum].taker.addr */\n      dup1\n      tag_93\n      jumpi\n      pop\n        /* \"game_pactice/game_practice_imp2.sol\":1431:1436  rooms */\n      0x00\n        /* \"game_pactice/game_practice_imp2.sol\":1431:1445  rooms[roomNum] */\n      dup1\n        /* \"game_pactice/game_practice_imp2.sol\":1437:1444  roomNum */\n      dup4\n        /* \"game_pactice/game_practice_imp2.sol\":1431:1445  rooms[roomNum] */\n      dup2\n      mstore\n      0x20\n      add\n      swap1\n      dup2\n      mstore\n      0x20\n      add\n      0x00\n      keccak256\n        /* \"game_pactice/game_practice_imp2.sol\":1431:1451  rooms[roomNum].taker */\n      0x04\n      add\n        /* \"game_pactice/game_practice_imp2.sol\":1431:1456  rooms[roomNum].taker.addr */\n      0x00\n      add\n      0x00\n      swap1\n      sload\n      swap1\n      0x0100\n      exp\n      swap1\n      div\n      0xffffffffffffffffffffffffffffffffffffffff\n      and\n        /* \"game_pactice/game_practice_imp2.sol\":1421:1456  sender == rooms[roomNum].taker.addr */\n      0xffffffffffffffffffffffffffffffffffffffff\n      and\n        /* \"game_pactice/game_practice_imp2.sol\":1421:1427  sender */\n      dup2\n        /* \"game_pactice/game_practice_imp2.sol\":1421:1456  sender == rooms[roomNum].taker.addr */\n      0xffffffffffffffffffffffffffffffffffffffff\n      and\n      eq\n        /* \"game_pactice/game_practice_imp2.sol\":1377:1456  sender == rooms[roomNum].originator.addr || sender == rooms[roomNum].taker.addr */\n    tag_93:\n        /* \"game_pactice/game_practice_imp2.sol\":1369:1457  require(sender == rooms[roomNum].originator.addr || sender == rooms[roomNum].taker.addr) */\n      tag_94\n      jumpi\n      0x00\n      dup1\n      revert\n    tag_94:\n        /* \"game_pactice/game_practice_imp2.sol\":4293:4316  PlayerStatus.STATUS_TIE */\n      0x02\n        /* \"game_pactice/game_practice_imp2.sol\":4251:4316  rooms[roomNum].originator.playerStatus == PlayerStatus.STATUS_TIE */\n      0x03\n      dup2\n      gt\n      iszero\n      tag_96\n      jumpi\n      tag_97\n      tag_23\n      jump\t// in\n    tag_97:\n    tag_96:\n        /* \"game_pactice/game_practice_imp2.sol\":4251:4256  rooms */\n      0x00\n        /* \"game_pactice/game_practice_imp2.sol\":4251:4265  rooms[roomNum] */\n      dup1\n        /* \"game_pactice/game_practice_imp2.sol\":4257:4264  roomNum */\n      dup6\n        /* \"game_pactice/game_practice_imp2.sol\":4251:4265  rooms[roomNum] */\n      dup2\n      mstore\n      0x20\n      add\n      swap1\n      dup2\n      mstore\n      0x20\n      add\n      0x00\n      keccak256\n        /* \"game_pactice/game_practice_imp2.sol\":4251:4276  rooms[roomNum].originator */\n      0x01\n      add\n        /* \"game_pactice/game_practice_imp2.sol\":4251:4289  rooms[roomNum].originator.playerStatus */\n      0x02\n      add\n      0x01\n      swap1\n      sload\n      swap1\n      0x0100\n      exp\n      swap1\n      div\n      0xff\n      and\n        /* \"game_pactice/game_practice_imp2.sol\":4251:4316  rooms[roomNum].originator.playerStatus == PlayerStatus.STATUS_TIE */\n      0x03\n      dup2\n      gt\n      iszero\n      tag_98\n      jumpi\n      tag_99\n      tag_23\n      jump\t// in\n    tag_99:\n    tag_98:\n      eq\n        /* \"game_pactice/game_practice_imp2.sol\":4251:4380  rooms[roomNum].originator.playerStatus == PlayerStatus.STATUS_TIE && rooms[roomNum].taker.playerStatus == PlayerStatus.STATUS_TIE */\n      dup1\n      iszero\n      tag_100\n      jumpi\n      pop\n        /* \"game_pactice/game_practice_imp2.sol\":4357:4380  PlayerStatus.STATUS_TIE */\n      0x02\n        /* \"game_pactice/game_practice_imp2.sol\":4320:4380  rooms[roomNum].taker.playerStatus == PlayerStatus.STATUS_TIE */\n      0x03\n      dup2\n      gt\n      iszero\n      tag_101\n      jumpi\n      tag_102\n      tag_23\n      jump\t// in\n    tag_102:\n    tag_101:\n        /* \"game_pactice/game_practice_imp2.sol\":4320:4325  rooms */\n      0x00\n        /* \"game_pactice/game_practice_imp2.sol\":4320:4334  rooms[roomNum] */\n      dup1\n        /* \"game_pactice/game_practice_imp2.sol\":4326:4333  roomNum */\n      dup6\n        /* \"game_pactice/game_practice_imp2.sol\":4320:4334  rooms[roomNum] */\n      dup2\n      mstore\n      0x20\n      add\n      swap1\n      dup2\n      mstore\n      0x20\n      add\n      0x00\n      keccak256\n        /* \"game_pactice/game_practice_imp2.sol\":4320:4340  rooms[roomNum].taker */\n      0x04\n      add\n        /* \"game_pactice/game_practice_imp2.sol\":4320:4353  rooms[roomNum].taker.playerStatus */\n      0x02\n      add\n      0x01\n      swap1\n      sload\n      swap1\n      0x0100\n      exp\n      swap1\n      div\n      0xff\n      and\n        /* \"game_pactice/game_practice_imp2.sol\":4320:4380  rooms[roomNum].taker.playerStatus == PlayerStatus.STATUS_TIE */\n      0x03\n      dup2\n      gt\n      iszero\n      tag_103\n      jumpi\n      tag_104\n      tag_23\n      jump\t// in\n    tag_104:\n    tag_103:\n      eq\n        /* \"game_pactice/game_practice_imp2.sol\":4251:4380  rooms[roomNum].originator.playerStatus == PlayerStatus.STATUS_TIE && rooms[roomNum].taker.playerStatus == PlayerStatus.STATUS_TIE */\n    tag_100:\n        /* \"game_pactice/game_practice_imp2.sol\":4248:5378  if(rooms[roomNum].originator.playerStatus == PlayerStatus.STATUS_TIE && rooms[roomNum].taker.playerStatus == PlayerStatus.STATUS_TIE){... */\n      iszero\n      tag_105\n      jumpi\n        /* \"game_pactice/game_practice_imp2.sol\":4395:4400  rooms */\n      0x00\n        /* \"game_pactice/game_practice_imp2.sol\":4395:4409  rooms[roomNum] */\n      dup1\n        /* \"game_pactice/game_practice_imp2.sol\":4401:4408  roomNum */\n      dup5\n        /* \"game_pactice/game_practice_imp2.sol\":4395:4409  rooms[roomNum] */\n      dup2\n      mstore\n      0x20\n      add\n      swap1\n      dup2\n      mstore\n      0x20\n      add\n      0x00\n      keccak256\n        /* \"game_pactice/game_practice_imp2.sol\":4395:4420  rooms[roomNum].originator */\n      0x01\n      add\n        /* \"game_pactice/game_practice_imp2.sol\":4395:4425  rooms[roomNum].originator.addr */\n      0x00\n      add\n      0x00\n      swap1\n      sload\n      swap1\n      0x0100\n      exp\n      swap1\n      div\n      0xffffffffffffffffffffffffffffffffffffffff\n      and\n        /* \"game_pactice/game_practice_imp2.sol\":4395:4434  rooms[roomNum].originator.addr.transfer */\n      0xffffffffffffffffffffffffffffffffffffffff\n      and\n        /* \"game_pactice/game_practice_imp2.sol\":4395:4477  rooms[roomNum].originator.addr.transfer(rooms[roomNum].originator.playerBetAmount) */\n      0x08fc\n        /* \"game_pactice/game_practice_imp2.sol\":4435:4440  rooms */\n      0x00\n        /* \"game_pactice/game_practice_imp2.sol\":4435:4449  rooms[roomNum] */\n      dup1\n        /* \"game_pactice/game_practice_imp2.sol\":4441:4448  roomNum */\n      dup7\n        /* \"game_pactice/game_practice_imp2.sol\":4435:4449  rooms[roomNum] */\n      dup2\n      mstore\n      0x20\n      add\n      swap1\n      dup2\n      mstore\n      0x20\n      add\n      0x00\n      keccak256\n        /* \"game_pactice/game_practice_imp2.sol\":4435:4460  rooms[roomNum].originator */\n      0x01\n      add\n        /* \"game_pactice/game_practice_imp2.sol\":4435:4476  rooms[roomNum].originator.playerBetAmount */\n      0x01\n      add\n      sload\n        /* \"game_pactice/game_practice_imp2.sol\":4395:4477  rooms[roomNum].originator.addr.transfer(rooms[roomNum].originator.playerBetAmount) */\n      swap1\n      dup2\n      iszero\n      mul\n      swap1\n      mload(0x40)\n      0x00\n      mload(0x40)\n      dup1\n      dup4\n      sub\n      dup2\n      dup6\n      dup9\n      dup9\n      call\n      swap4\n      pop\n      pop\n      pop\n      pop\n      iszero\n      dup1\n      iszero\n      tag_107\n      jumpi\n      returndatasize\n      0x00\n      dup1\n      returndatacopy\n      revert(0x00, returndatasize)\n    tag_107:\n      pop\n        /* \"game_pactice/game_practice_imp2.sol\":4491:4496  rooms */\n      0x00\n        /* \"game_pactice/game_practice_imp2.sol\":4491:4505  rooms[roomNum] */\n      dup1\n        /* \"game_pactice/game_practice_imp2.sol\":4497:4504  roomNum */\n      dup5\n        /* \"game_pactice/game_practice_imp2.sol\":4491:4505  rooms[roomNum] */\n      dup2\n      mstore\n      0x20\n      add\n      swap1\n      dup2\n      mstore\n      0x20\n      add\n      0x00\n      keccak256\n        /* \"game_pactice/game_practice_imp2.sol\":4491:4511  rooms[roomNum].taker */\n      0x04\n      add\n        /* \"game_pactice/game_practice_imp2.sol\":4491:4516  rooms[roomNum].taker.addr */\n      0x00\n      add\n      0x00\n      swap1\n      sload\n      swap1\n      0x0100\n      exp\n      swap1\n      div\n      0xffffffffffffffffffffffffffffffffffffffff\n      and\n        /* \"game_pactice/game_practice_imp2.sol\":4491:4525  rooms[roomNum].taker.addr.transfer */\n      0xffffffffffffffffffffffffffffffffffffffff\n      and\n        /* \"game_pactice/game_practice_imp2.sol\":4491:4563  rooms[roomNum].taker.addr.transfer(rooms[roomNum].taker.playerBetAmount) */\n      0x08fc\n        /* \"game_pactice/game_practice_imp2.sol\":4526:4531  rooms */\n      0x00\n        /* \"game_pactice/game_practice_imp2.sol\":4526:4540  rooms[roomNum] */\n      dup1\n        /* \"game_pactice/game_practice_imp2.sol\":4532:4539  roomNum */\n      dup7\n        /* \"game_pactice/game_practice_imp2.sol\":4526:4540  rooms[roomNum] */\n      dup2\n      mstore\n      0x20\n      add\n      swap1\n      dup2\n      mstore\n      0x20\n      add\n      0x00\n      keccak256\n        /* \"game_pactice/game_practice_imp2.sol\":4526:4546  rooms[roomNum].taker */\n      0x04\n      add\n        /* \"game_pactice/game_practice_imp2.sol\":4526:4562  rooms[roomNum].taker.playerBetAmount */\n      0x01\n      add\n      sload\n        /* \"game_pactice/game_practice_imp2.sol\":4491:4563  rooms[roomNum].taker.addr.transfer(rooms[roomNum].taker.playerBetAmount) */\n      swap1\n      dup2\n      iszero\n      mul\n      swap1\n      mload(0x40)\n      0x00\n      mload(0x40)\n      dup1\n      dup4\n      sub\n      dup2\n      dup6\n      dup9\n      dup9\n      call\n      swap4\n      pop\n      pop\n      pop\n      pop\n      iszero\n      dup1\n      iszero\n      tag_109\n      jumpi\n      returndatasize\n      0x00\n      dup1\n      returndatacopy\n      revert(0x00, returndatasize)\n    tag_109:\n      pop\n        /* \"game_pactice/game_practice_imp2.sol\":4248:5378  if(rooms[roomNum].originator.playerStatus == PlayerStatus.STATUS_TIE && rooms[roomNum].taker.playerStatus == PlayerStatus.STATUS_TIE){... */\n      jump(tag_110)\n    tag_105:\n        /* \"game_pactice/game_practice_imp2.sol\":4639:4662  PlayerStatus.STATUS_WIN */\n      0x00\n        /* \"game_pactice/game_practice_imp2.sol\":4597:4662  rooms[roomNum].originator.playerStatus == PlayerStatus.STATUS_WIN */\n      0x03\n      dup2\n      gt\n      iszero\n      tag_111\n      jumpi\n      tag_112\n      tag_23\n      jump\t// in\n    tag_112:\n    tag_111:\n        /* \"game_pactice/game_practice_imp2.sol\":4597:4602  rooms */\n      0x00\n        /* \"game_pactice/game_practice_imp2.sol\":4597:4611  rooms[roomNum] */\n      dup1\n        /* \"game_pactice/game_practice_imp2.sol\":4603:4610  roomNum */\n      dup6\n        /* \"game_pactice/game_practice_imp2.sol\":4597:4611  rooms[roomNum] */\n      dup2\n      mstore\n      0x20\n      add\n      swap1\n      dup2\n      mstore\n      0x20\n      add\n      0x00\n      keccak256\n        /* \"game_pactice/game_practice_imp2.sol\":4597:4622  rooms[roomNum].originator */\n      0x01\n      add\n        /* \"game_pactice/game_practice_imp2.sol\":4597:4635  rooms[roomNum].originator.playerStatus */\n      0x02\n      add\n      0x01\n      swap1\n      sload\n      swap1\n      0x0100\n      exp\n      swap1\n      div\n      0xff\n      and\n        /* \"game_pactice/game_practice_imp2.sol\":4597:4662  rooms[roomNum].originator.playerStatus == PlayerStatus.STATUS_WIN */\n      0x03\n      dup2\n      gt\n      iszero\n      tag_113\n      jumpi\n      tag_114\n      tag_23\n      jump\t// in\n    tag_114:\n    tag_113:\n      eq\n        /* \"game_pactice/game_practice_imp2.sol\":4594:5368  if(rooms[roomNum].originator.playerStatus == PlayerStatus.STATUS_WIN){... */\n      iszero\n      tag_115\n      jumpi\n        /* \"game_pactice/game_practice_imp2.sol\":4686:4784  originatorWin(rooms[roomNum].originator.addr, rooms[roomNum].taker.addr, rooms[roomNum].betAmount) */\n      0xa3c6f6e8cde56e9b82473a30f47448ceec603e425f8c8f445ae20c7466ba2deb\n        /* \"game_pactice/game_practice_imp2.sol\":4700:4705  rooms */\n      0x00\n        /* \"game_pactice/game_practice_imp2.sol\":4700:4714  rooms[roomNum] */\n      dup1\n        /* \"game_pactice/game_practice_imp2.sol\":4706:4713  roomNum */\n      dup6\n        /* \"game_pactice/game_practice_imp2.sol\":4700:4714  rooms[roomNum] */\n      dup2\n      mstore\n      0x20\n      add\n      swap1\n      dup2\n      mstore\n      0x20\n      add\n      0x00\n      keccak256\n        /* \"game_pactice/game_practice_imp2.sol\":4700:4725  rooms[roomNum].originator */\n      0x01\n      add\n        /* \"game_pactice/game_practice_imp2.sol\":4700:4730  rooms[roomNum].originator.addr */\n      0x00\n      add\n      0x00\n      swap1\n      sload\n      swap1\n      0x0100\n      exp\n      swap1\n      div\n      0xffffffffffffffffffffffffffffffffffffffff\n      and\n        /* \"game_pactice/game_practice_imp2.sol\":4732:4737  rooms */\n      0x00\n        /* \"game_pactice/game_practice_imp2.sol\":4732:4746  rooms[roomNum] */\n      dup1\n        /* \"game_pactice/game_practice_imp2.sol\":4738:4745  roomNum */\n      dup7\n        /* \"game_pactice/game_practice_imp2.sol\":4732:4746  rooms[roomNum] */\n      dup2\n      mstore\n      0x20\n      add\n      swap1\n      dup2\n      mstore\n      0x20\n      add\n      0x00\n      keccak256\n        /* \"game_pactice/game_practice_imp2.sol\":4732:4752  rooms[roomNum].taker */\n      0x04\n      add\n        /* \"game_pactice/game_practice_imp2.sol\":4732:4757  rooms[roomNum].taker.addr */\n      0x00\n      add\n      0x00\n      swap1\n      sload\n      swap1\n      0x0100\n      exp\n      swap1\n      div\n      0xffffffffffffffffffffffffffffffffffffffff\n      and\n        /* \"game_pactice/game_practice_imp2.sol\":4759:4764  rooms */\n      0x00\n        /* \"game_pactice/game_practice_imp2.sol\":4759:4773  rooms[roomNum] */\n      dup1\n        /* \"game_pactice/game_practice_imp2.sol\":4765:4772  roomNum */\n      dup8\n        /* \"game_pactice/game_practice_imp2.sol\":4759:4773  rooms[roomNum] */\n      dup2\n      mstore\n      0x20\n      add\n      swap1\n      dup2\n      mstore\n      0x20\n      add\n      0x00\n      keccak256\n        /* \"game_pactice/game_practice_imp2.sol\":4759:4783  rooms[roomNum].betAmount */\n      0x00\n      add\n      sload\n        /* \"game_pactice/game_practice_imp2.sol\":4686:4784  originatorWin(rooms[roomNum].originator.addr, rooms[roomNum].taker.addr, rooms[roomNum].betAmount) */\n      mload(0x40)\n      tag_116\n      swap4\n      swap3\n      swap2\n      swap1\n      tag_117\n      jump\t// in\n    tag_116:\n      mload(0x40)\n      dup1\n      swap2\n      sub\n      swap1\n      log1\n        /* \"game_pactice/game_practice_imp2.sol\":4802:4807  rooms */\n      0x00\n        /* \"game_pactice/game_practice_imp2.sol\":4802:4816  rooms[roomNum] */\n      dup1\n        /* \"game_pactice/game_practice_imp2.sol\":4808:4815  roomNum */\n      dup5\n        /* \"game_pactice/game_practice_imp2.sol\":4802:4816  rooms[roomNum] */\n      dup2\n      mstore\n      0x20\n      add\n      swap1\n      dup2\n      mstore\n      0x20\n      add\n      0x00\n      keccak256\n        /* \"game_pactice/game_practice_imp2.sol\":4802:4827  rooms[roomNum].originator */\n      0x01\n      add\n        /* \"game_pactice/game_practice_imp2.sol\":4802:4832  rooms[roomNum].originator.addr */\n      0x00\n      add\n      0x00\n      swap1\n      sload\n      swap1\n      0x0100\n      exp\n      swap1\n      div\n      0xffffffffffffffffffffffffffffffffffffffff\n      and\n        /* \"game_pactice/game_practice_imp2.sol\":4802:4841  rooms[roomNum].originator.addr.transfer */\n      0xffffffffffffffffffffffffffffffffffffffff\n      and\n        /* \"game_pactice/game_practice_imp2.sol\":4802:4867  rooms[roomNum].originator.addr.transfer(rooms[roomNum].betAmount) */\n      0x08fc\n        /* \"game_pactice/game_practice_imp2.sol\":4842:4847  rooms */\n      0x00\n        /* \"game_pactice/game_practice_imp2.sol\":4842:4856  rooms[roomNum] */\n      dup1\n        /* \"game_pactice/game_practice_imp2.sol\":4848:4855  roomNum */\n      dup7\n        /* \"game_pactice/game_practice_imp2.sol\":4842:4856  rooms[roomNum] */\n      dup2\n      mstore\n      0x20\n      add\n      swap1\n      dup2\n      mstore\n      0x20\n      add\n      0x00\n      keccak256\n        /* \"game_pactice/game_practice_imp2.sol\":4842:4866  rooms[roomNum].betAmount */\n      0x00\n      add\n      sload\n        /* \"game_pactice/game_practice_imp2.sol\":4802:4867  rooms[roomNum].originator.addr.transfer(rooms[roomNum].betAmount) */\n      swap1\n      dup2\n      iszero\n      mul\n      swap1\n      mload(0x40)\n      0x00\n      mload(0x40)\n      dup1\n      dup4\n      sub\n      dup2\n      dup6\n      dup9\n      dup9\n      call\n      swap4\n      pop\n      pop\n      pop\n      pop\n      iszero\n      dup1\n      iszero\n      tag_119\n      jumpi\n      returndatasize\n      0x00\n      dup1\n      returndatacopy\n      revert(0x00, returndatasize)\n    tag_119:\n      pop\n        /* \"game_pactice/game_practice_imp2.sol\":4594:5368  if(rooms[roomNum].originator.playerStatus == PlayerStatus.STATUS_WIN){... */\n      jump(tag_120)\n    tag_115:\n        /* \"game_pactice/game_practice_imp2.sol\":4927:4950  PlayerStatus.STATUS_WIN */\n      0x00\n        /* \"game_pactice/game_practice_imp2.sol\":4890:4950  rooms[roomNum].taker.playerStatus == PlayerStatus.STATUS_WIN */\n      0x03\n      dup2\n      gt\n      iszero\n      tag_121\n      jumpi\n      tag_122\n      tag_23\n      jump\t// in\n    tag_122:\n    tag_121:\n        /* \"game_pactice/game_practice_imp2.sol\":4890:4895  rooms */\n      0x00\n        /* \"game_pactice/game_practice_imp2.sol\":4890:4904  rooms[roomNum] */\n      dup1\n        /* \"game_pactice/game_practice_imp2.sol\":4896:4903  roomNum */\n      dup6\n        /* \"game_pactice/game_practice_imp2.sol\":4890:4904  rooms[roomNum] */\n      dup2\n      mstore\n      0x20\n      add\n      swap1\n      dup2\n      mstore\n      0x20\n      add\n      0x00\n      keccak256\n        /* \"game_pactice/game_practice_imp2.sol\":4890:4910  rooms[roomNum].taker */\n      0x04\n      add\n        /* \"game_pactice/game_practice_imp2.sol\":4890:4923  rooms[roomNum].taker.playerStatus */\n      0x02\n      add\n      0x01\n      swap1\n      sload\n      swap1\n      0x0100\n      exp\n      swap1\n      div\n      0xff\n      and\n        /* \"game_pactice/game_practice_imp2.sol\":4890:4950  rooms[roomNum].taker.playerStatus == PlayerStatus.STATUS_WIN */\n      0x03\n      dup2\n      gt\n      iszero\n      tag_123\n      jumpi\n      tag_124\n      tag_23\n      jump\t// in\n    tag_124:\n    tag_123:\n      eq\n        /* \"game_pactice/game_practice_imp2.sol\":4887:5368  if(rooms[roomNum].taker.playerStatus == PlayerStatus.STATUS_WIN){... */\n      iszero\n      tag_125\n      jumpi\n        /* \"game_pactice/game_practice_imp2.sol\":4974:5066  takerWin(rooms[roomNum].originator.addr, rooms[roomNum].taker.addr,rooms[roomNum].betAmount) */\n      0x879131dc2c2fe7a02e1e8f4c22b533dc7a8e3837e40cec2dd9c147b75ed5afd1\n        /* \"game_pactice/game_practice_imp2.sol\":4983:4988  rooms */\n      0x00\n        /* \"game_pactice/game_practice_imp2.sol\":4983:4997  rooms[roomNum] */\n      dup1\n        /* \"game_pactice/game_practice_imp2.sol\":4989:4996  roomNum */\n      dup6\n        /* \"game_pactice/game_practice_imp2.sol\":4983:4997  rooms[roomNum] */\n      dup2\n      mstore\n      0x20\n      add\n      swap1\n      dup2\n      mstore\n      0x20\n      add\n      0x00\n      keccak256\n        /* \"game_pactice/game_practice_imp2.sol\":4983:5008  rooms[roomNum].originator */\n      0x01\n      add\n        /* \"game_pactice/game_practice_imp2.sol\":4983:5013  rooms[roomNum].originator.addr */\n      0x00\n      add\n      0x00\n      swap1\n      sload\n      swap1\n      0x0100\n      exp\n      swap1\n      div\n      0xffffffffffffffffffffffffffffffffffffffff\n      and\n        /* \"game_pactice/game_practice_imp2.sol\":5015:5020  rooms */\n      0x00\n        /* \"game_pactice/game_practice_imp2.sol\":5015:5029  rooms[roomNum] */\n      dup1\n        /* \"game_pactice/game_practice_imp2.sol\":5021:5028  roomNum */\n      dup7\n        /* \"game_pactice/game_practice_imp2.sol\":5015:5029  rooms[roomNum] */\n      dup2\n      mstore\n      0x20\n      add\n      swap1\n      dup2\n      mstore\n      0x20\n      add\n      0x00\n      keccak256\n        /* \"game_pactice/game_practice_imp2.sol\":5015:5035  rooms[roomNum].taker */\n      0x04\n      add\n        /* \"game_pactice/game_practice_imp2.sol\":5015:5040  rooms[roomNum].taker.addr */\n      0x00\n      add\n      0x00\n      swap1\n      sload\n      swap1\n      0x0100\n      exp\n      swap1\n      div\n      0xffffffffffffffffffffffffffffffffffffffff\n      and\n        /* \"game_pactice/game_practice_imp2.sol\":5041:5046  rooms */\n      0x00\n        /* \"game_pactice/game_practice_imp2.sol\":5041:5055  rooms[roomNum] */\n      dup1\n        /* \"game_pactice/game_practice_imp2.sol\":5047:5054  roomNum */\n      dup8\n        /* \"game_pactice/game_practice_imp2.sol\":5041:5055  rooms[roomNum] */\n      dup2\n      mstore\n      0x20\n      add\n      swap1\n      dup2\n      mstore\n      0x20\n      add\n      0x00\n      keccak256\n        /* \"game_pactice/game_practice_imp2.sol\":5041:5065  rooms[roomNum].betAmount */\n      0x00\n      add\n      sload\n        /* \"game_pactice/game_practice_imp2.sol\":4974:5066  takerWin(rooms[roomNum].originator.addr, rooms[roomNum].taker.addr,rooms[roomNum].betAmount) */\n      mload(0x40)\n      tag_126\n      swap4\n      swap3\n      swap2\n      swap1\n      tag_117\n      jump\t// in\n    tag_126:\n      mload(0x40)\n      dup1\n      swap2\n      sub\n      swap1\n      log1\n        /* \"game_pactice/game_practice_imp2.sol\":5084:5089  rooms */\n      0x00\n        /* \"game_pactice/game_practice_imp2.sol\":5084:5098  rooms[roomNum] */\n      dup1\n        /* \"game_pactice/game_practice_imp2.sol\":5090:5097  roomNum */\n      dup5\n        /* \"game_pactice/game_practice_imp2.sol\":5084:5098  rooms[roomNum] */\n      dup2\n      mstore\n      0x20\n      add\n      swap1\n      dup2\n      mstore\n      0x20\n      add\n      0x00\n      keccak256\n        /* \"game_pactice/game_practice_imp2.sol\":5084:5104  rooms[roomNum].taker */\n      0x04\n      add\n        /* \"game_pactice/game_practice_imp2.sol\":5084:5109  rooms[roomNum].taker.addr */\n      0x00\n      add\n      0x00\n      swap1\n      sload\n      swap1\n      0x0100\n      exp\n      swap1\n      div\n      0xffffffffffffffffffffffffffffffffffffffff\n      and\n        /* \"game_pactice/game_practice_imp2.sol\":5084:5118  rooms[roomNum].taker.addr.transfer */\n      0xffffffffffffffffffffffffffffffffffffffff\n      and\n        /* \"game_pactice/game_practice_imp2.sol\":5084:5144  rooms[roomNum].taker.addr.transfer(rooms[roomNum].betAmount) */\n      0x08fc\n        /* \"game_pactice/game_practice_imp2.sol\":5119:5124  rooms */\n      0x00\n        /* \"game_pactice/game_practice_imp2.sol\":5119:5133  rooms[roomNum] */\n      dup1\n        /* \"game_pactice/game_practice_imp2.sol\":5125:5132  roomNum */\n      dup7\n        /* \"game_pactice/game_practice_imp2.sol\":5119:5133  rooms[roomNum] */\n      dup2\n      mstore\n      0x20\n      add\n      swap1\n      dup2\n      mstore\n      0x20\n      add\n      0x00\n      keccak256\n        /* \"game_pactice/game_practice_imp2.sol\":5119:5143  rooms[roomNum].betAmount */\n      0x00\n      add\n      sload\n        /* \"game_pactice/game_practice_imp2.sol\":5084:5144  rooms[roomNum].taker.addr.transfer(rooms[roomNum].betAmount) */\n      swap1\n      dup2\n      iszero\n      mul\n      swap1\n      mload(0x40)\n      0x00\n      mload(0x40)\n      dup1\n      dup4\n      sub\n      dup2\n      dup6\n      dup9\n      dup9\n      call\n      swap4\n      pop\n      pop\n      pop\n      pop\n      iszero\n      dup1\n      iszero\n      tag_128\n      jumpi\n      returndatasize\n      0x00\n      dup1\n      returndatacopy\n      revert(0x00, returndatasize)\n    tag_128:\n      pop\n        /* \"game_pactice/game_practice_imp2.sol\":4887:5368  if(rooms[roomNum].taker.playerStatus == PlayerStatus.STATUS_WIN){... */\n      jump(tag_129)\n    tag_125:\n        /* \"game_pactice/game_practice_imp2.sol\":5181:5186  rooms */\n      0x00\n        /* \"game_pactice/game_practice_imp2.sol\":5181:5195  rooms[roomNum] */\n      dup1\n        /* \"game_pactice/game_practice_imp2.sol\":5187:5194  roomNum */\n      dup5\n        /* \"game_pactice/game_practice_imp2.sol\":5181:5195  rooms[roomNum] */\n      dup2\n      mstore\n      0x20\n      add\n      swap1\n      dup2\n      mstore\n      0x20\n      add\n      0x00\n      keccak256\n        /* \"game_pactice/game_practice_imp2.sol\":5181:5206  rooms[roomNum].originator */\n      0x01\n      add\n        /* \"game_pactice/game_practice_imp2.sol\":5181:5211  rooms[roomNum].originator.addr */\n      0x00\n      add\n      0x00\n      swap1\n      sload\n      swap1\n      0x0100\n      exp\n      swap1\n      div\n      0xffffffffffffffffffffffffffffffffffffffff\n      and\n        /* \"game_pactice/game_practice_imp2.sol\":5181:5220  rooms[roomNum].originator.addr.transfer */\n      0xffffffffffffffffffffffffffffffffffffffff\n      and\n        /* \"game_pactice/game_practice_imp2.sol\":5181:5263  rooms[roomNum].originator.addr.transfer(rooms[roomNum].originator.playerBetAmount) */\n      0x08fc\n        /* \"game_pactice/game_practice_imp2.sol\":5221:5226  rooms */\n      0x00\n        /* \"game_pactice/game_practice_imp2.sol\":5221:5235  rooms[roomNum] */\n      dup1\n        /* \"game_pactice/game_practice_imp2.sol\":5227:5234  roomNum */\n      dup7\n        /* \"game_pactice/game_practice_imp2.sol\":5221:5235  rooms[roomNum] */\n      dup2\n      mstore\n      0x20\n      add\n      swap1\n      dup2\n      mstore\n      0x20\n      add\n      0x00\n      keccak256\n        /* \"game_pactice/game_practice_imp2.sol\":5221:5246  rooms[roomNum].originator */\n      0x01\n      add\n        /* \"game_pactice/game_practice_imp2.sol\":5221:5262  rooms[roomNum].originator.playerBetAmount */\n      0x01\n      add\n      sload\n        /* \"game_pactice/game_practice_imp2.sol\":5181:5263  rooms[roomNum].originator.addr.transfer(rooms[roomNum].originator.playerBetAmount) */\n      swap1\n      dup2\n      iszero\n      mul\n      swap1\n      mload(0x40)\n      0x00\n      mload(0x40)\n      dup1\n      dup4\n      sub\n      dup2\n      dup6\n      dup9\n      dup9\n      call\n      swap4\n      pop\n      pop\n      pop\n      pop\n      iszero\n      dup1\n      iszero\n      tag_131\n      jumpi\n      returndatasize\n      0x00\n      dup1\n      returndatacopy\n      revert(0x00, returndatasize)\n    tag_131:\n      pop\n        /* \"game_pactice/game_practice_imp2.sol\":5281:5286  rooms */\n      0x00\n        /* \"game_pactice/game_practice_imp2.sol\":5281:5295  rooms[roomNum] */\n      dup1\n        /* \"game_pactice/game_practice_imp2.sol\":5287:5294  roomNum */\n      dup5\n        /* \"game_pactice/game_practice_imp2.sol\":5281:5295  rooms[roomNum] */\n      dup2\n      mstore\n      0x20\n      add\n      swap1\n      dup2\n      mstore\n      0x20\n      add\n      0x00\n      keccak256\n        /* \"game_pactice/game_practice_imp2.sol\":5281:5301  rooms[roomNum].taker */\n      0x04\n      add\n        /* \"game_pactice/game_practice_imp2.sol\":5281:5306  rooms[roomNum].taker.addr */\n      0x00\n      add\n      0x00\n      swap1\n      sload\n      swap1\n      0x0100\n      exp\n      swap1\n      div\n      0xffffffffffffffffffffffffffffffffffffffff\n      and\n        /* \"game_pactice/game_practice_imp2.sol\":5281:5315  rooms[roomNum].taker.addr.transfer */\n      0xffffffffffffffffffffffffffffffffffffffff\n      and\n        /* \"game_pactice/game_practice_imp2.sol\":5281:5353  rooms[roomNum].taker.addr.transfer(rooms[roomNum].taker.playerBetAmount) */\n      0x08fc\n        /* \"game_pactice/game_practice_imp2.sol\":5316:5321  rooms */\n      0x00\n        /* \"game_pactice/game_practice_imp2.sol\":5316:5330  rooms[roomNum] */\n      dup1\n        /* \"game_pactice/game_practice_imp2.sol\":5322:5329  roomNum */\n      dup7\n        /* \"game_pactice/game_practice_imp2.sol\":5316:5330  rooms[roomNum] */\n      dup2\n      mstore\n      0x20\n      add\n      swap1\n      dup2\n      mstore\n      0x20\n      add\n      0x00\n      keccak256\n        /* \"game_pactice/game_practice_imp2.sol\":5316:5336  rooms[roomNum].taker */\n      0x04\n      add\n        /* \"game_pactice/game_practice_imp2.sol\":5316:5352  rooms[roomNum].taker.playerBetAmount */\n      0x01\n      add\n      sload\n        /* \"game_pactice/game_practice_imp2.sol\":5281:5353  rooms[roomNum].taker.addr.transfer(rooms[roomNum].taker.playerBetAmount) */\n      swap1\n      dup2\n      iszero\n      mul\n      swap1\n      mload(0x40)\n      0x00\n      mload(0x40)\n      dup1\n      dup4\n      sub\n      dup2\n      dup6\n      dup9\n      dup9\n      call\n      swap4\n      pop\n      pop\n      pop\n      pop\n      iszero\n      dup1\n      iszero\n      tag_133\n      jumpi\n      returndatasize\n      0x00\n      dup1\n      returndatacopy\n      revert(0x00, returndatasize)\n    tag_133:\n      pop\n        /* \"game_pactice/game_practice_imp2.sol\":4887:5368  if(rooms[roomNum].taker.playerStatus == PlayerStatus.STATUS_WIN){... */\n    tag_129:\n        /* \"game_pactice/game_practice_imp2.sol\":4594:5368  if(rooms[roomNum].originator.playerStatus == PlayerStatus.STATUS_WIN){... */\n    tag_120:\n        /* \"game_pactice/game_practice_imp2.sol\":4248:5378  if(rooms[roomNum].originator.playerStatus == PlayerStatus.STATUS_TIE && rooms[roomNum].taker.playerStatus == PlayerStatus.STATUS_TIE){... */\n    tag_110:\n        /* \"game_pactice/game_practice_imp2.sol\":5415:5441  GameStatus.STATUS_COMPLETE */\n      0x02\n        /* \"game_pactice/game_practice_imp2.sol\":5387:5392  rooms */\n      0x00\n        /* \"game_pactice/game_practice_imp2.sol\":5387:5401  rooms[roomNum] */\n      dup1\n        /* \"game_pactice/game_practice_imp2.sol\":5393:5400  roomNum */\n      dup6\n        /* \"game_pactice/game_practice_imp2.sol\":5387:5401  rooms[roomNum] */\n      dup2\n      mstore\n      0x20\n      add\n      swap1\n      dup2\n      mstore\n      0x20\n      add\n      0x00\n      keccak256\n        /* \"game_pactice/game_practice_imp2.sol\":5387:5412  rooms[roomNum].gameStatus */\n      0x07\n      add\n      0x00\n        /* \"game_pactice/game_practice_imp2.sol\":5387:5441  rooms[roomNum].gameStatus = GameStatus.STATUS_COMPLETE */\n      0x0100\n      exp\n      dup2\n      sload\n      dup2\n      0xff\n      mul\n      not\n      and\n      swap1\n      dup4\n      0x03\n      dup2\n      gt\n      iszero\n      tag_134\n      jumpi\n      tag_135\n      tag_23\n      jump\t// in\n    tag_135:\n    tag_134:\n      mul\n      or\n      swap1\n      sstore\n      pop\n        /* \"game_pactice/game_practice_imp2.sol\":4171:5448  function payout(uint roomNum) public isPlayer(roomNum, msg.sender) {... */\n      pop\n      pop\n      pop\n      jump\t// out\n        /* \"game_pactice/game_practice_imp2.sol\":2983:4164  function compareHands(uint roomNum) private{... */\n    tag_91:\n        /* \"game_pactice/game_practice_imp2.sol\":3036:3052  uint8 originator */\n      0x00\n        /* \"game_pactice/game_practice_imp2.sol\":3061:3066  rooms */\n      dup1\n        /* \"game_pactice/game_practice_imp2.sol\":3061:3075  rooms[roomNum] */\n      0x00\n        /* \"game_pactice/game_practice_imp2.sol\":3067:3074  roomNum */\n      dup4\n        /* \"game_pactice/game_practice_imp2.sol\":3061:3075  rooms[roomNum] */\n      dup2\n      mstore\n      0x20\n      add\n      swap1\n      dup2\n      mstore\n      0x20\n      add\n      0x00\n      keccak256\n        /* \"game_pactice/game_practice_imp2.sol\":3061:3086  rooms[roomNum].originator */\n      0x01\n      add\n        /* \"game_pactice/game_practice_imp2.sol\":3061:3091  rooms[roomNum].originator.hand */\n      0x02\n      add\n      0x00\n      swap1\n      sload\n      swap1\n      0x0100\n      exp\n      swap1\n      div\n      0xff\n      and\n        /* \"game_pactice/game_practice_imp2.sol\":3055:3092  uint8(rooms[roomNum].originator.hand) */\n      0x02\n      dup2\n      gt\n      iszero\n      tag_137\n      jumpi\n      tag_138\n      tag_23\n      jump\t// in\n    tag_138:\n    tag_137:\n        /* \"game_pactice/game_practice_imp2.sol\":3036:3092  uint8 originator = uint8(rooms[roomNum].originator.hand) */\n      swap1\n      pop\n        /* \"game_pactice/game_practice_imp2.sol\":3102:3113  uint8 taker */\n      0x00\n        /* \"game_pactice/game_practice_imp2.sol\":3122:3127  rooms */\n      dup1\n        /* \"game_pactice/game_practice_imp2.sol\":3122:3136  rooms[roomNum] */\n      0x00\n        /* \"game_pactice/game_practice_imp2.sol\":3128:3135  roomNum */\n      dup5\n        /* \"game_pactice/game_practice_imp2.sol\":3122:3136  rooms[roomNum] */\n      dup2\n      mstore\n      0x20\n      add\n      swap1\n      dup2\n      mstore\n      0x20\n      add\n      0x00\n      keccak256\n        /* \"game_pactice/game_practice_imp2.sol\":3122:3142  rooms[roomNum].taker */\n      0x04\n      add\n        /* \"game_pactice/game_practice_imp2.sol\":3122:3147  rooms[roomNum].taker.hand */\n      0x02\n      add\n      0x00\n      swap1\n      sload\n      swap1\n      0x0100\n      exp\n      swap1\n      div\n      0xff\n      and\n        /* \"game_pactice/game_practice_imp2.sol\":3116:3148  uint8(rooms[roomNum].taker.hand) */\n      0x02\n      dup2\n      gt\n      iszero\n      tag_139\n      jumpi\n      tag_140\n      tag_23\n      jump\t// in\n    tag_140:\n    tag_139:\n        /* \"game_pactice/game_practice_imp2.sol\":3102:3148  uint8 taker = uint8(rooms[roomNum].taker.hand) */\n      swap1\n      pop\n        /* \"game_pactice/game_practice_imp2.sol\":3187:3212  GameStatus.STATUS_STARTED */\n      0x01\n        /* \"game_pactice/game_practice_imp2.sol\":3159:3164  rooms */\n      0x00\n        /* \"game_pactice/game_practice_imp2.sol\":3159:3173  rooms[roomNum] */\n      dup1\n        /* \"game_pactice/game_practice_imp2.sol\":3165:3172  roomNum */\n      dup6\n        /* \"game_pactice/game_practice_imp2.sol\":3159:3173  rooms[roomNum] */\n      dup2\n      mstore\n      0x20\n      add\n      swap1\n      dup2\n      mstore\n      0x20\n      add\n      0x00\n      keccak256\n        /* \"game_pactice/game_practice_imp2.sol\":3159:3184  rooms[roomNum].gameStatus */\n      0x07\n      add\n      0x00\n        /* \"game_pactice/game_practice_imp2.sol\":3159:3212  rooms[roomNum].gameStatus = GameStatus.STATUS_STARTED */\n      0x0100\n      exp\n      dup2\n      sload\n      dup2\n      0xff\n      mul\n      not\n      and\n      swap1\n      dup4\n      0x03\n      dup2\n      gt\n      iszero\n      tag_141\n      jumpi\n      tag_142\n      tag_23\n      jump\t// in\n    tag_142:\n    tag_141:\n      mul\n      or\n      swap1\n      sstore\n      pop\n        /* \"game_pactice/game_practice_imp2.sol\":3244:3254  originator */\n      dup2\n        /* \"game_pactice/game_practice_imp2.sol\":3226:3254  (taker +1) % 3 == originator */\n      0xff\n      and\n        /* \"game_pactice/game_practice_imp2.sol\":3239:3240  3 */\n      0x03\n        /* \"game_pactice/game_practice_imp2.sol\":3234:3235  1 */\n      0x01\n        /* \"game_pactice/game_practice_imp2.sol\":3227:3232  taker */\n      dup4\n        /* \"game_pactice/game_practice_imp2.sol\":3227:3235  taker +1 */\n      tag_143\n      swap2\n      swap1\n      tag_144\n      jump\t// in\n    tag_143:\n        /* \"game_pactice/game_practice_imp2.sol\":3226:3240  (taker +1) % 3 */\n      tag_145\n      swap2\n      swap1\n      tag_146\n      jump\t// in\n    tag_145:\n        /* \"game_pactice/game_practice_imp2.sol\":3226:3254  (taker +1) % 3 == originator */\n      0xff\n      and\n      eq\n        /* \"game_pactice/game_practice_imp2.sol\":3223:4158  if((taker +1) % 3 == originator){// originator win!... */\n      iszero\n      tag_147\n      jumpi\n        /* \"game_pactice/game_practice_imp2.sol\":3328:3351  PlayerStatus.STATUS_WIN */\n      0x00\n        /* \"game_pactice/game_practice_imp2.sol\":3287:3292  rooms */\n      dup1\n        /* \"game_pactice/game_practice_imp2.sol\":3287:3301  rooms[roomNum] */\n      0x00\n        /* \"game_pactice/game_practice_imp2.sol\":3293:3300  roomNum */\n      dup6\n        /* \"game_pactice/game_practice_imp2.sol\":3287:3301  rooms[roomNum] */\n      dup2\n      mstore\n      0x20\n      add\n      swap1\n      dup2\n      mstore\n      0x20\n      add\n      0x00\n      keccak256\n        /* \"game_pactice/game_practice_imp2.sol\":3287:3312  rooms[roomNum].originator */\n      0x01\n      add\n        /* \"game_pactice/game_practice_imp2.sol\":3287:3325  rooms[roomNum].originator.playerStatus */\n      0x02\n      add\n      0x01\n        /* \"game_pactice/game_practice_imp2.sol\":3287:3351  rooms[roomNum].originator.playerStatus = PlayerStatus.STATUS_WIN */\n      0x0100\n      exp\n      dup2\n      sload\n      dup2\n      0xff\n      mul\n      not\n      and\n      swap1\n      dup4\n      0x03\n      dup2\n      gt\n      iszero\n      tag_148\n      jumpi\n      tag_149\n      tag_23\n      jump\t// in\n    tag_149:\n    tag_148:\n      mul\n      or\n      swap1\n      sstore\n      pop\n        /* \"game_pactice/game_practice_imp2.sol\":3401:3425  PlayerStatus.STATUS_LOSE */\n      0x01\n        /* \"game_pactice/game_practice_imp2.sol\":3365:3370  rooms */\n      0x00\n        /* \"game_pactice/game_practice_imp2.sol\":3365:3379  rooms[roomNum] */\n      dup1\n        /* \"game_pactice/game_practice_imp2.sol\":3371:3378  roomNum */\n      dup6\n        /* \"game_pactice/game_practice_imp2.sol\":3365:3379  rooms[roomNum] */\n      dup2\n      mstore\n      0x20\n      add\n      swap1\n      dup2\n      mstore\n      0x20\n      add\n      0x00\n      keccak256\n        /* \"game_pactice/game_practice_imp2.sol\":3365:3385  rooms[roomNum].taker */\n      0x04\n      add\n        /* \"game_pactice/game_practice_imp2.sol\":3365:3398  rooms[roomNum].taker.playerStatus */\n      0x02\n      add\n      0x01\n        /* \"game_pactice/game_practice_imp2.sol\":3365:3425  rooms[roomNum].taker.playerStatus = PlayerStatus.STATUS_LOSE */\n      0x0100\n      exp\n      dup2\n      sload\n      dup2\n      0xff\n      mul\n      not\n      and\n      swap1\n      dup4\n      0x03\n      dup2\n      gt\n      iszero\n      tag_150\n      jumpi\n      tag_151\n      tag_23\n      jump\t// in\n    tag_151:\n    tag_150:\n      mul\n      or\n      swap1\n      sstore\n      pop\n        /* \"game_pactice/game_practice_imp2.sol\":3445:3543  originatorWin(rooms[roomNum].originator.addr, rooms[roomNum].taker.addr, rooms[roomNum].betAmount) */\n      0xa3c6f6e8cde56e9b82473a30f47448ceec603e425f8c8f445ae20c7466ba2deb\n        /* \"game_pactice/game_practice_imp2.sol\":3459:3464  rooms */\n      0x00\n        /* \"game_pactice/game_practice_imp2.sol\":3459:3473  rooms[roomNum] */\n      dup1\n        /* \"game_pactice/game_practice_imp2.sol\":3465:3472  roomNum */\n      dup6\n        /* \"game_pactice/game_practice_imp2.sol\":3459:3473  rooms[roomNum] */\n      dup2\n      mstore\n      0x20\n      add\n      swap1\n      dup2\n      mstore\n      0x20\n      add\n      0x00\n      keccak256\n        /* \"game_pactice/game_practice_imp2.sol\":3459:3484  rooms[roomNum].originator */\n      0x01\n      add\n        /* \"game_pactice/game_practice_imp2.sol\":3459:3489  rooms[roomNum].originator.addr */\n      0x00\n      add\n      0x00\n      swap1\n      sload\n      swap1\n      0x0100\n      exp\n      swap1\n      div\n      0xffffffffffffffffffffffffffffffffffffffff\n      and\n        /* \"game_pactice/game_practice_imp2.sol\":3491:3496  rooms */\n      0x00\n        /* \"game_pactice/game_practice_imp2.sol\":3491:3505  rooms[roomNum] */\n      dup1\n        /* \"game_pactice/game_practice_imp2.sol\":3497:3504  roomNum */\n      dup7\n        /* \"game_pactice/game_practice_imp2.sol\":3491:3505  rooms[roomNum] */\n      dup2\n      mstore\n      0x20\n      add\n      swap1\n      dup2\n      mstore\n      0x20\n      add\n      0x00\n      keccak256\n        /* \"game_pactice/game_practice_imp2.sol\":3491:3511  rooms[roomNum].taker */\n      0x04\n      add\n        /* \"game_pactice/game_practice_imp2.sol\":3491:3516  rooms[roomNum].taker.addr */\n      0x00\n      add\n      0x00\n      swap1\n      sload\n      swap1\n      0x0100\n      exp\n      swap1\n      div\n      0xffffffffffffffffffffffffffffffffffffffff\n      and\n        /* \"game_pactice/game_practice_imp2.sol\":3518:3523  rooms */\n      0x00\n        /* \"game_pactice/game_practice_imp2.sol\":3518:3532  rooms[roomNum] */\n      dup1\n        /* \"game_pactice/game_practice_imp2.sol\":3524:3531  roomNum */\n      dup8\n        /* \"game_pactice/game_practice_imp2.sol\":3518:3532  rooms[roomNum] */\n      dup2\n      mstore\n      0x20\n      add\n      swap1\n      dup2\n      mstore\n      0x20\n      add\n      0x00\n      keccak256\n        /* \"game_pactice/game_practice_imp2.sol\":3518:3542  rooms[roomNum].betAmount */\n      0x00\n      add\n      sload\n        /* \"game_pactice/game_practice_imp2.sol\":3445:3543  originatorWin(rooms[roomNum].originator.addr, rooms[roomNum].taker.addr, rooms[roomNum].betAmount) */\n      mload(0x40)\n      tag_152\n      swap4\n      swap3\n      swap2\n      swap1\n      tag_117\n      jump\t// in\n    tag_152:\n      mload(0x40)\n      dup1\n      swap2\n      sub\n      swap1\n      log1\n        /* \"game_pactice/game_practice_imp2.sol\":3223:4158  if((taker +1) % 3 == originator){// originator win!... */\n      jump(tag_153)\n    tag_147:\n        /* \"game_pactice/game_practice_imp2.sol\":3572:3582  originator */\n      dup2\n        /* \"game_pactice/game_practice_imp2.sol\":3563:3582  taker == originator */\n      0xff\n      and\n        /* \"game_pactice/game_practice_imp2.sol\":3563:3568  taker */\n      dup2\n        /* \"game_pactice/game_practice_imp2.sol\":3563:3582  taker == originator */\n      0xff\n      and\n      eq\n        /* \"game_pactice/game_practice_imp2.sol\":3559:4158  if (taker == originator ){// same... */\n      iszero\n      tag_154\n      jumpi\n        /* \"game_pactice/game_practice_imp2.sol\":3646:3669  PlayerStatus.STATUS_TIE */\n      0x02\n        /* \"game_pactice/game_practice_imp2.sol\":3605:3610  rooms */\n      0x00\n        /* \"game_pactice/game_practice_imp2.sol\":3605:3619  rooms[roomNum] */\n      dup1\n        /* \"game_pactice/game_practice_imp2.sol\":3611:3618  roomNum */\n      dup6\n        /* \"game_pactice/game_practice_imp2.sol\":3605:3619  rooms[roomNum] */\n      dup2\n      mstore\n      0x20\n      add\n      swap1\n      dup2\n      mstore\n      0x20\n      add\n      0x00\n      keccak256\n        /* \"game_pactice/game_practice_imp2.sol\":3605:3630  rooms[roomNum].originator */\n      0x01\n      add\n        /* \"game_pactice/game_practice_imp2.sol\":3605:3643  rooms[roomNum].originator.playerStatus */\n      0x02\n      add\n      0x01\n        /* \"game_pactice/game_practice_imp2.sol\":3605:3669  rooms[roomNum].originator.playerStatus = PlayerStatus.STATUS_TIE */\n      0x0100\n      exp\n      dup2\n      sload\n      dup2\n      0xff\n      mul\n      not\n      and\n      swap1\n      dup4\n      0x03\n      dup2\n      gt\n      iszero\n      tag_155\n      jumpi\n      tag_156\n      tag_23\n      jump\t// in\n    tag_156:\n    tag_155:\n      mul\n      or\n      swap1\n      sstore\n      pop\n        /* \"game_pactice/game_practice_imp2.sol\":3719:3742  PlayerStatus.STATUS_TIE */\n      0x02\n        /* \"game_pactice/game_practice_imp2.sol\":3683:3688  rooms */\n      0x00\n        /* \"game_pactice/game_practice_imp2.sol\":3683:3697  rooms[roomNum] */\n      dup1\n        /* \"game_pactice/game_practice_imp2.sol\":3689:3696  roomNum */\n      dup6\n        /* \"game_pactice/game_practice_imp2.sol\":3683:3697  rooms[roomNum] */\n      dup2\n      mstore\n      0x20\n      add\n      swap1\n      dup2\n      mstore\n      0x20\n      add\n      0x00\n      keccak256\n        /* \"game_pactice/game_practice_imp2.sol\":3683:3703  rooms[roomNum].taker */\n      0x04\n      add\n        /* \"game_pactice/game_practice_imp2.sol\":3683:3716  rooms[roomNum].taker.playerStatus */\n      0x02\n      add\n      0x01\n        /* \"game_pactice/game_practice_imp2.sol\":3683:3742  rooms[roomNum].taker.playerStatus = PlayerStatus.STATUS_TIE */\n      0x0100\n      exp\n      dup2\n      sload\n      dup2\n      0xff\n      mul\n      not\n      and\n      swap1\n      dup4\n      0x03\n      dup2\n      gt\n      iszero\n      tag_157\n      jumpi\n      tag_158\n      tag_23\n      jump\t// in\n    tag_158:\n    tag_157:\n      mul\n      or\n      swap1\n      sstore\n      pop\n        /* \"game_pactice/game_practice_imp2.sol\":3559:4158  if (taker == originator ){// same... */\n      jump(tag_159)\n    tag_154:\n        /* \"game_pactice/game_practice_imp2.sol\":3784:3789  taker */\n      dup1\n        /* \"game_pactice/game_practice_imp2.sol\":3762:3789  (originator+1) % 3 == taker */\n      0xff\n      and\n        /* \"game_pactice/game_practice_imp2.sol\":3779:3780  3 */\n      0x03\n        /* \"game_pactice/game_practice_imp2.sol\":3774:3775  1 */\n      0x01\n        /* \"game_pactice/game_practice_imp2.sol\":3763:3773  originator */\n      dup5\n        /* \"game_pactice/game_practice_imp2.sol\":3763:3775  originator+1 */\n      tag_160\n      swap2\n      swap1\n      tag_144\n      jump\t// in\n    tag_160:\n        /* \"game_pactice/game_practice_imp2.sol\":3762:3780  (originator+1) % 3 */\n      tag_161\n      swap2\n      swap1\n      tag_146\n      jump\t// in\n    tag_161:\n        /* \"game_pactice/game_practice_imp2.sol\":3762:3789  (originator+1) % 3 == taker */\n      0xff\n      and\n      eq\n        /* \"game_pactice/game_practice_imp2.sol\":3758:4158  if ((originator+1) % 3 == taker){// taker win!... */\n      iszero\n      tag_162\n      jumpi\n        /* \"game_pactice/game_practice_imp2.sol\":3858:3882  PlayerStatus.STATUS_LOSE */\n      0x01\n        /* \"game_pactice/game_practice_imp2.sol\":3817:3822  rooms */\n      0x00\n        /* \"game_pactice/game_practice_imp2.sol\":3817:3831  rooms[roomNum] */\n      dup1\n        /* \"game_pactice/game_practice_imp2.sol\":3823:3830  roomNum */\n      dup6\n        /* \"game_pactice/game_practice_imp2.sol\":3817:3831  rooms[roomNum] */\n      dup2\n      mstore\n      0x20\n      add\n      swap1\n      dup2\n      mstore\n      0x20\n      add\n      0x00\n      keccak256\n        /* \"game_pactice/game_practice_imp2.sol\":3817:3842  rooms[roomNum].originator */\n      0x01\n      add\n        /* \"game_pactice/game_practice_imp2.sol\":3817:3855  rooms[roomNum].originator.playerStatus */\n      0x02\n      add\n      0x01\n        /* \"game_pactice/game_practice_imp2.sol\":3817:3882  rooms[roomNum].originator.playerStatus = PlayerStatus.STATUS_LOSE */\n      0x0100\n      exp\n      dup2\n      sload\n      dup2\n      0xff\n      mul\n      not\n      and\n      swap1\n      dup4\n      0x03\n      dup2\n      gt\n      iszero\n      tag_163\n      jumpi\n      tag_164\n      tag_23\n      jump\t// in\n    tag_164:\n    tag_163:\n      mul\n      or\n      swap1\n      sstore\n      pop\n        /* \"game_pactice/game_practice_imp2.sol\":3932:3955  PlayerStatus.STATUS_WIN */\n      0x00\n        /* \"game_pactice/game_practice_imp2.sol\":3896:3901  rooms */\n      dup1\n        /* \"game_pactice/game_practice_imp2.sol\":3896:3910  rooms[roomNum] */\n      0x00\n        /* \"game_pactice/game_practice_imp2.sol\":3902:3909  roomNum */\n      dup6\n        /* \"game_pactice/game_practice_imp2.sol\":3896:3910  rooms[roomNum] */\n      dup2\n      mstore\n      0x20\n      add\n      swap1\n      dup2\n      mstore\n      0x20\n      add\n      0x00\n      keccak256\n        /* \"game_pactice/game_practice_imp2.sol\":3896:3916  rooms[roomNum].taker */\n      0x04\n      add\n        /* \"game_pactice/game_practice_imp2.sol\":3896:3929  rooms[roomNum].taker.playerStatus */\n      0x02\n      add\n      0x01\n        /* \"game_pactice/game_practice_imp2.sol\":3896:3955  rooms[roomNum].taker.playerStatus = PlayerStatus.STATUS_WIN */\n      0x0100\n      exp\n      dup2\n      sload\n      dup2\n      0xff\n      mul\n      not\n      and\n      swap1\n      dup4\n      0x03\n      dup2\n      gt\n      iszero\n      tag_165\n      jumpi\n      tag_166\n      tag_23\n      jump\t// in\n    tag_166:\n    tag_165:\n      mul\n      or\n      swap1\n      sstore\n      pop\n        /* \"game_pactice/game_practice_imp2.sol\":3975:4067  takerWin(rooms[roomNum].originator.addr, rooms[roomNum].taker.addr,rooms[roomNum].betAmount) */\n      0x879131dc2c2fe7a02e1e8f4c22b533dc7a8e3837e40cec2dd9c147b75ed5afd1\n        /* \"game_pactice/game_practice_imp2.sol\":3984:3989  rooms */\n      0x00\n        /* \"game_pactice/game_practice_imp2.sol\":3984:3998  rooms[roomNum] */\n      dup1\n        /* \"game_pactice/game_practice_imp2.sol\":3990:3997  roomNum */\n      dup6\n        /* \"game_pactice/game_practice_imp2.sol\":3984:3998  rooms[roomNum] */\n      dup2\n      mstore\n      0x20\n      add\n      swap1\n      dup2\n      mstore\n      0x20\n      add\n      0x00\n      keccak256\n        /* \"game_pactice/game_practice_imp2.sol\":3984:4009  rooms[roomNum].originator */\n      0x01\n      add\n        /* \"game_pactice/game_practice_imp2.sol\":3984:4014  rooms[roomNum].originator.addr */\n      0x00\n      add\n      0x00\n      swap1\n      sload\n      swap1\n      0x0100\n      exp\n      swap1\n      div\n      0xffffffffffffffffffffffffffffffffffffffff\n      and\n        /* \"game_pactice/game_practice_imp2.sol\":4016:4021  rooms */\n      0x00\n        /* \"game_pactice/game_practice_imp2.sol\":4016:4030  rooms[roomNum] */\n      dup1\n        /* \"game_pactice/game_practice_imp2.sol\":4022:4029  roomNum */\n      dup7\n        /* \"game_pactice/game_practice_imp2.sol\":4016:4030  rooms[roomNum] */\n      dup2\n      mstore\n      0x20\n      add\n      swap1\n      dup2\n      mstore\n      0x20\n      add\n      0x00\n      keccak256\n        /* \"game_pactice/game_practice_imp2.sol\":4016:4036  rooms[roomNum].taker */\n      0x04\n      add\n        /* \"game_pactice/game_practice_imp2.sol\":4016:4041  rooms[roomNum].taker.addr */\n      0x00\n      add\n      0x00\n      swap1\n      sload\n      swap1\n      0x0100\n      exp\n      swap1\n      div\n      0xffffffffffffffffffffffffffffffffffffffff\n      and\n        /* \"game_pactice/game_practice_imp2.sol\":4042:4047  rooms */\n      0x00\n        /* \"game_pactice/game_practice_imp2.sol\":4042:4056  rooms[roomNum] */\n      dup1\n        /* \"game_pactice/game_practice_imp2.sol\":4048:4055  roomNum */\n      dup8\n        /* \"game_pactice/game_practice_imp2.sol\":4042:4056  rooms[roomNum] */\n      dup2\n      mstore\n      0x20\n      add\n      swap1\n      dup2\n      mstore\n      0x20\n      add\n      0x00\n      keccak256\n        /* \"game_pactice/game_practice_imp2.sol\":4042:4066  rooms[roomNum].betAmount */\n      0x00\n      add\n      sload\n        /* \"game_pactice/game_practice_imp2.sol\":3975:4067  takerWin(rooms[roomNum].originator.addr, rooms[roomNum].taker.addr,rooms[roomNum].betAmount) */\n      mload(0x40)\n      tag_167\n      swap4\n      swap3\n      swap2\n      swap1\n      tag_117\n      jump\t// in\n    tag_167:\n      mload(0x40)\n      dup1\n      swap2\n      sub\n      swap1\n      log1\n        /* \"game_pactice/game_practice_imp2.sol\":3758:4158  if ((originator+1) % 3 == taker){// taker win!... */\n      jump(tag_168)\n    tag_162:\n        /* \"game_pactice/game_practice_imp2.sol\":4124:4147  GameStatus.STATUS_ERROR */\n      0x03\n        /* \"game_pactice/game_practice_imp2.sol\":4096:4101  rooms */\n      0x00\n        /* \"game_pactice/game_practice_imp2.sol\":4096:4110  rooms[roomNum] */\n      dup1\n        /* \"game_pactice/game_practice_imp2.sol\":4102:4109  roomNum */\n      dup6\n        /* \"game_pactice/game_practice_imp2.sol\":4096:4110  rooms[roomNum] */\n      dup2\n      mstore\n      0x20\n      add\n      swap1\n      dup2\n      mstore\n      0x20\n      add\n      0x00\n      keccak256\n        /* \"game_pactice/game_practice_imp2.sol\":4096:4121  rooms[roomNum].gameStatus */\n      0x07\n      add\n      0x00\n        /* \"game_pactice/game_practice_imp2.sol\":4096:4147  rooms[roomNum].gameStatus = GameStatus.STATUS_ERROR */\n      0x0100\n      exp\n      dup2\n      sload\n      dup2\n      0xff\n      mul\n      not\n      and\n      swap1\n      dup4\n      0x03\n      dup2\n      gt\n      iszero\n      tag_169\n      jumpi\n      tag_170\n      tag_23\n      jump\t// in\n    tag_170:\n    tag_169:\n      mul\n      or\n      swap1\n      sstore\n      pop\n        /* \"game_pactice/game_practice_imp2.sol\":3758:4158  if ((originator+1) % 3 == taker){// taker win!... */\n    tag_168:\n        /* \"game_pactice/game_practice_imp2.sol\":3559:4158  if (taker == originator ){// same... */\n    tag_159:\n        /* \"game_pactice/game_practice_imp2.sol\":3223:4158  if((taker +1) % 3 == originator){// originator win!... */\n    tag_153:\n        /* \"game_pactice/game_practice_imp2.sol\":3026:4164  {... */\n      pop\n      pop\n        /* \"game_pactice/game_practice_imp2.sol\":2983:4164  function compareHands(uint roomNum) private{... */\n      pop\n      jump\t// out\n        /* \"#utility.yul\":7:160   */\n    tag_172:\n        /* \"#utility.yul\":60:65   */\n      0x00\n        /* \"#utility.yul\":98:104   */\n      dup2\n        /* \"#utility.yul\":85:105   */\n      calldataload\n        /* \"#utility.yul\":76:105   */\n      swap1\n      pop\n        /* \"#utility.yul\":114:154   */\n      tag_174\n        /* \"#utility.yul\":148:153   */\n      dup2\n        /* \"#utility.yul\":114:154   */\n      tag_175\n      jump\t// in\n    tag_174:\n        /* \"#utility.yul\":7:160   */\n      swap3\n      swap2\n      pop\n      pop\n      jump\t// out\n        /* \"#utility.yul\":166:305   */\n    tag_176:\n        /* \"#utility.yul\":212:217   */\n      0x00\n        /* \"#utility.yul\":250:256   */\n      dup2\n        /* \"#utility.yul\":237:257   */\n      calldataload\n        /* \"#utility.yul\":228:257   */\n      swap1\n      pop\n        /* \"#utility.yul\":266:299   */\n      tag_178\n        /* \"#utility.yul\":293:298   */\n      dup2\n        /* \"#utility.yul\":266:299   */\n      tag_179\n      jump\t// in\n    tag_178:\n        /* \"#utility.yul\":166:305   */\n      swap3\n      swap2\n      pop\n      pop\n      jump\t// out\n        /* \"#utility.yul\":311:654   */\n    tag_7:\n        /* \"#utility.yul\":377:383   */\n      0x00\n        /* \"#utility.yul\":426:428   */\n      0x20\n        /* \"#utility.yul\":414:423   */\n      dup3\n        /* \"#utility.yul\":405:412   */\n      dup5\n        /* \"#utility.yul\":401:424   */\n      sub\n        /* \"#utility.yul\":397:429   */\n      slt\n        /* \"#utility.yul\":394:513   */\n      iszero\n      tag_181\n      jumpi\n        /* \"#utility.yul\":432:511   */\n      tag_182\n      tag_183\n      jump\t// in\n    tag_182:\n        /* \"#utility.yul\":394:513   */\n    tag_181:\n        /* \"#utility.yul\":552:553   */\n      0x00\n        /* \"#utility.yul\":577:637   */\n      tag_184\n        /* \"#utility.yul\":629:636   */\n      dup5\n        /* \"#utility.yul\":620:626   */\n      dup3\n        /* \"#utility.yul\":609:618   */\n      dup6\n        /* \"#utility.yul\":605:627   */\n      add\n        /* \"#utility.yul\":577:637   */\n      tag_172\n      jump\t// in\n    tag_184:\n        /* \"#utility.yul\":567:637   */\n      swap2\n      pop\n        /* \"#utility.yul\":523:647   */\n      pop\n        /* \"#utility.yul\":311:654   */\n      swap3\n      swap2\n      pop\n      pop\n      jump\t// out\n        /* \"#utility.yul\":660:989   */\n    tag_18:\n        /* \"#utility.yul\":719:725   */\n      0x00\n        /* \"#utility.yul\":768:770   */\n      0x20\n        /* \"#utility.yul\":756:765   */\n      dup3\n        /* \"#utility.yul\":747:754   */\n      dup5\n        /* \"#utility.yul\":743:766   */\n      sub\n        /* \"#utility.yul\":739:771   */\n      slt\n        /* \"#utility.yul\":736:855   */\n      iszero\n      tag_186\n      jumpi\n        /* \"#utility.yul\":774:853   */\n      tag_187\n      tag_183\n      jump\t// in\n    tag_187:\n        /* \"#utility.yul\":736:855   */\n    tag_186:\n        /* \"#utility.yul\":894:895   */\n      0x00\n        /* \"#utility.yul\":919:972   */\n      tag_188\n        /* \"#utility.yul\":964:971   */\n      dup5\n        /* \"#utility.yul\":955:961   */\n      dup3\n        /* \"#utility.yul\":944:953   */\n      dup6\n        /* \"#utility.yul\":940:962   */\n      add\n        /* \"#utility.yul\":919:972   */\n      tag_176\n      jump\t// in\n    tag_188:\n        /* \"#utility.yul\":909:972   */\n      swap2\n      pop\n        /* \"#utility.yul\":865:982   */\n      pop\n        /* \"#utility.yul\":660:989   */\n      swap3\n      swap2\n      pop\n      pop\n      jump\t// out\n        /* \"#utility.yul\":995:1483   */\n    tag_13:\n        /* \"#utility.yul\":1070:1076   */\n      0x00\n        /* \"#utility.yul\":1078:1084   */\n      dup1\n        /* \"#utility.yul\":1127:1129   */\n      0x40\n        /* \"#utility.yul\":1115:1124   */\n      dup4\n        /* \"#utility.yul\":1106:1113   */\n      dup6\n        /* \"#utility.yul\":1102:1125   */\n      sub\n        /* \"#utility.yul\":1098:1130   */\n      slt\n        /* \"#utility.yul\":1095:1214   */\n      iszero\n      tag_190\n      jumpi\n        /* \"#utility.yul\":1133:1212   */\n      tag_191\n      tag_183\n      jump\t// in\n    tag_191:\n        /* \"#utility.yul\":1095:1214   */\n    tag_190:\n        /* \"#utility.yul\":1253:1254   */\n      0x00\n        /* \"#utility.yul\":1278:1331   */\n      tag_192\n        /* \"#utility.yul\":1323:1330   */\n      dup6\n        /* \"#utility.yul\":1314:1320   */\n      dup3\n        /* \"#utility.yul\":1303:1312   */\n      dup7\n        /* \"#utility.yul\":1299:1321   */\n      add\n        /* \"#utility.yul\":1278:1331   */\n      tag_176\n      jump\t// in\n    tag_192:\n        /* \"#utility.yul\":1268:1331   */\n      swap3\n      pop\n        /* \"#utility.yul\":1224:1341   */\n      pop\n        /* \"#utility.yul\":1380:1382   */\n      0x20\n        /* \"#utility.yul\":1406:1466   */\n      tag_193\n        /* \"#utility.yul\":1458:1465   */\n      dup6\n        /* \"#utility.yul\":1449:1455   */\n      dup3\n        /* \"#utility.yul\":1438:1447   */\n      dup7\n        /* \"#utility.yul\":1434:1456   */\n      add\n        /* \"#utility.yul\":1406:1466   */\n      tag_172\n      jump\t// in\n    tag_193:\n        /* \"#utility.yul\":1396:1466   */\n      swap2\n      pop\n        /* \"#utility.yul\":1351:1476   */\n      pop\n        /* \"#utility.yul\":995:1483   */\n      swap3\n      pop\n      swap3\n      swap1\n      pop\n      jump\t// out\n        /* \"#utility.yul\":1489:1636   */\n    tag_194:\n        /* \"#utility.yul\":1584:1629   */\n      tag_196\n        /* \"#utility.yul\":1623:1628   */\n      dup2\n        /* \"#utility.yul\":1584:1629   */\n      tag_197\n      jump\t// in\n    tag_196:\n        /* \"#utility.yul\":1579:1582   */\n      dup3\n        /* \"#utility.yul\":1572:1630   */\n      mstore\n        /* \"#utility.yul\":1489:1636   */\n      pop\n      pop\n      jump\t// out\n        /* \"#utility.yul\":1642:1760   */\n    tag_198:\n        /* \"#utility.yul\":1729:1753   */\n      tag_200\n        /* \"#utility.yul\":1747:1752   */\n      dup2\n        /* \"#utility.yul\":1729:1753   */\n      tag_201\n      jump\t// in\n    tag_200:\n        /* \"#utility.yul\":1724:1727   */\n      dup3\n        /* \"#utility.yul\":1717:1754   */\n      mstore\n        /* \"#utility.yul\":1642:1760   */\n      pop\n      pop\n      jump\t// out\n        /* \"#utility.yul\":1766:1884   */\n    tag_202:\n        /* \"#utility.yul\":1853:1877   */\n      tag_204\n        /* \"#utility.yul\":1871:1876   */\n      dup2\n        /* \"#utility.yul\":1853:1877   */\n      tag_205\n      jump\t// in\n    tag_204:\n        /* \"#utility.yul\":1848:1851   */\n      dup3\n        /* \"#utility.yul\":1841:1878   */\n      mstore\n        /* \"#utility.yul\":1766:1884   */\n      pop\n      pop\n      jump\t// out\n        /* \"#utility.yul\":1890:2364   */\n    tag_117:\n        /* \"#utility.yul\":2055:2059   */\n      0x00\n        /* \"#utility.yul\":2093:2095   */\n      0x60\n        /* \"#utility.yul\":2082:2091   */\n      dup3\n        /* \"#utility.yul\":2078:2096   */\n      add\n        /* \"#utility.yul\":2070:2096   */\n      swap1\n      pop\n        /* \"#utility.yul\":2106:2185   */\n      tag_207\n        /* \"#utility.yul\":2182:2183   */\n      0x00\n        /* \"#utility.yul\":2171:2180   */\n      dup4\n        /* \"#utility.yul\":2167:2184   */\n      add\n        /* \"#utility.yul\":2158:2164   */\n      dup7\n        /* \"#utility.yul\":2106:2185   */\n      tag_194\n      jump\t// in\n    tag_207:\n        /* \"#utility.yul\":2195:2275   */\n      tag_208\n        /* \"#utility.yul\":2271:2273   */\n      0x20\n        /* \"#utility.yul\":2260:2269   */\n      dup4\n        /* \"#utility.yul\":2256:2274   */\n      add\n        /* \"#utility.yul\":2247:2253   */\n      dup6\n        /* \"#utility.yul\":2195:2275   */\n      tag_194\n      jump\t// in\n    tag_208:\n        /* \"#utility.yul\":2285:2357   */\n      tag_209\n        /* \"#utility.yul\":2353:2355   */\n      0x40\n        /* \"#utility.yul\":2342:2351   */\n      dup4\n        /* \"#utility.yul\":2338:2356   */\n      add\n        /* \"#utility.yul\":2329:2335   */\n      dup5\n        /* \"#utility.yul\":2285:2357   */\n      tag_202\n      jump\t// in\n    tag_209:\n        /* \"#utility.yul\":1890:2364   */\n      swap5\n      swap4\n      pop\n      pop\n      pop\n      pop\n      jump\t// out\n        /* \"#utility.yul\":2370:3050   */\n    tag_80:\n        /* \"#utility.yul\":2583:2587   */\n      0x00\n        /* \"#utility.yul\":2621:2624   */\n      0xa0\n        /* \"#utility.yul\":2610:2619   */\n      dup3\n        /* \"#utility.yul\":2606:2625   */\n      add\n        /* \"#utility.yul\":2598:2625   */\n      swap1\n      pop\n        /* \"#utility.yul\":2635:2714   */\n      tag_211\n        /* \"#utility.yul\":2711:2712   */\n      0x00\n        /* \"#utility.yul\":2700:2709   */\n      dup4\n        /* \"#utility.yul\":2696:2713   */\n      add\n        /* \"#utility.yul\":2687:2693   */\n      dup9\n        /* \"#utility.yul\":2635:2714   */\n      tag_194\n      jump\t// in\n    tag_211:\n        /* \"#utility.yul\":2724:2796   */\n      tag_212\n        /* \"#utility.yul\":2792:2794   */\n      0x20\n        /* \"#utility.yul\":2781:2790   */\n      dup4\n        /* \"#utility.yul\":2777:2795   */\n      add\n        /* \"#utility.yul\":2768:2774   */\n      dup8\n        /* \"#utility.yul\":2724:2796   */\n      tag_198\n      jump\t// in\n    tag_212:\n        /* \"#utility.yul\":2806:2878   */\n      tag_213\n        /* \"#utility.yul\":2874:2876   */\n      0x40\n        /* \"#utility.yul\":2863:2872   */\n      dup4\n        /* \"#utility.yul\":2859:2877   */\n      add\n        /* \"#utility.yul\":2850:2856   */\n      dup7\n        /* \"#utility.yul\":2806:2878   */\n      tag_202\n      jump\t// in\n    tag_213:\n        /* \"#utility.yul\":2888:2960   */\n      tag_214\n        /* \"#utility.yul\":2956:2958   */\n      0x60\n        /* \"#utility.yul\":2945:2954   */\n      dup4\n        /* \"#utility.yul\":2941:2959   */\n      add\n        /* \"#utility.yul\":2932:2938   */\n      dup6\n        /* \"#utility.yul\":2888:2960   */\n      tag_202\n      jump\t// in\n    tag_214:\n        /* \"#utility.yul\":2970:3043   */\n      tag_215\n        /* \"#utility.yul\":3038:3041   */\n      0x80\n        /* \"#utility.yul\":3027:3036   */\n      dup4\n        /* \"#utility.yul\":3023:3042   */\n      add\n        /* \"#utility.yul\":3014:3020   */\n      dup5\n        /* \"#utility.yul\":2970:3043   */\n      tag_202\n      jump\t// in\n    tag_215:\n        /* \"#utility.yul\":2370:3050   */\n      swap7\n      swap6\n      pop\n      pop\n      pop\n      pop\n      pop\n      pop\n      jump\t// out\n        /* \"#utility.yul\":3056:3609   */\n    tag_61:\n        /* \"#utility.yul\":3233:3237   */\n      0x00\n        /* \"#utility.yul\":3271:3274   */\n      0x80\n        /* \"#utility.yul\":3260:3269   */\n      dup3\n        /* \"#utility.yul\":3256:3275   */\n      add\n        /* \"#utility.yul\":3248:3275   */\n      swap1\n      pop\n        /* \"#utility.yul\":3285:3356   */\n      tag_217\n        /* \"#utility.yul\":3353:3354   */\n      0x00\n        /* \"#utility.yul\":3342:3351   */\n      dup4\n        /* \"#utility.yul\":3338:3355   */\n      add\n        /* \"#utility.yul\":3329:3335   */\n      dup8\n        /* \"#utility.yul\":3285:3356   */\n      tag_198\n      jump\t// in\n    tag_217:\n        /* \"#utility.yul\":3366:3438   */\n      tag_218\n        /* \"#utility.yul\":3434:3436   */\n      0x20\n        /* \"#utility.yul\":3423:3432   */\n      dup4\n        /* \"#utility.yul\":3419:3437   */\n      add\n        /* \"#utility.yul\":3410:3416   */\n      dup7\n        /* \"#utility.yul\":3366:3438   */\n      tag_202\n      jump\t// in\n    tag_218:\n        /* \"#utility.yul\":3448:3520   */\n      tag_219\n        /* \"#utility.yul\":3516:3518   */\n      0x40\n        /* \"#utility.yul\":3505:3514   */\n      dup4\n        /* \"#utility.yul\":3501:3519   */\n      add\n        /* \"#utility.yul\":3492:3498   */\n      dup6\n        /* \"#utility.yul\":3448:3520   */\n      tag_202\n      jump\t// in\n    tag_219:\n        /* \"#utility.yul\":3530:3602   */\n      tag_220\n        /* \"#utility.yul\":3598:3600   */\n      0x60\n        /* \"#utility.yul\":3587:3596   */\n      dup4\n        /* \"#utility.yul\":3583:3601   */\n      add\n        /* \"#utility.yul\":3574:3580   */\n      dup5\n        /* \"#utility.yul\":3530:3602   */\n      tag_202\n      jump\t// in\n    tag_220:\n        /* \"#utility.yul\":3056:3609   */\n      swap6\n      swap5\n      pop\n      pop\n      pop\n      pop\n      pop\n      jump\t// out\n        /* \"#utility.yul\":3615:3837   */\n    tag_10:\n        /* \"#utility.yul\":3708:3712   */\n      0x00\n        /* \"#utility.yul\":3746:3748   */\n      0x20\n        /* \"#utility.yul\":3735:3744   */\n      dup3\n        /* \"#utility.yul\":3731:3749   */\n      add\n        /* \"#utility.yul\":3723:3749   */\n      swap1\n      pop\n        /* \"#utility.yul\":3759:3830   */\n      tag_222\n        /* \"#utility.yul\":3827:3828   */\n      0x00\n        /* \"#utility.yul\":3816:3825   */\n      dup4\n        /* \"#utility.yul\":3812:3829   */\n      add\n        /* \"#utility.yul\":3803:3809   */\n      dup5\n        /* \"#utility.yul\":3759:3830   */\n      tag_202\n      jump\t// in\n    tag_222:\n        /* \"#utility.yul\":3615:3837   */\n      swap3\n      swap2\n      pop\n      pop\n      jump\t// out\n        /* \"#utility.yul\":3924:4229   */\n    tag_59:\n        /* \"#utility.yul\":3964:3967   */\n      0x00\n        /* \"#utility.yul\":3983:4003   */\n      tag_226\n        /* \"#utility.yul\":4001:4002   */\n      dup3\n        /* \"#utility.yul\":3983:4003   */\n      tag_205\n      jump\t// in\n    tag_226:\n        /* \"#utility.yul\":3978:4003   */\n      swap2\n      pop\n        /* \"#utility.yul\":4017:4037   */\n      tag_227\n        /* \"#utility.yul\":4035:4036   */\n      dup4\n        /* \"#utility.yul\":4017:4037   */\n      tag_205\n      jump\t// in\n    tag_227:\n        /* \"#utility.yul\":4012:4037   */\n      swap3\n      pop\n        /* \"#utility.yul\":4171:4172   */\n      dup3\n        /* \"#utility.yul\":4103:4169   */\n      0xffffffffffffffffffffffffffffffffffffffffffffffffffffffffffffffff\n        /* \"#utility.yul\":4099:4173   */\n      sub\n        /* \"#utility.yul\":4096:4097   */\n      dup3\n        /* \"#utility.yul\":4093:4174   */\n      gt\n        /* \"#utility.yul\":4090:4197   */\n      iszero\n      tag_228\n      jumpi\n        /* \"#utility.yul\":4177:4195   */\n      tag_229\n      tag_230\n      jump\t// in\n    tag_229:\n        /* \"#utility.yul\":4090:4197   */\n    tag_228:\n        /* \"#utility.yul\":4221:4222   */\n      dup3\n        /* \"#utility.yul\":4218:4219   */\n      dup3\n        /* \"#utility.yul\":4214:4223   */\n      add\n        /* \"#utility.yul\":4207:4223   */\n      swap1\n      pop\n        /* \"#utility.yul\":3924:4229   */\n      swap3\n      swap2\n      pop\n      pop\n      jump\t// out\n        /* \"#utility.yul\":4235:4472   */\n    tag_144:\n        /* \"#utility.yul\":4273:4276   */\n      0x00\n        /* \"#utility.yul\":4292:4310   */\n      tag_232\n        /* \"#utility.yul\":4308:4309   */\n      dup3\n        /* \"#utility.yul\":4292:4310   */\n      tag_233\n      jump\t// in\n    tag_232:\n        /* \"#utility.yul\":4287:4310   */\n      swap2\n      pop\n        /* \"#utility.yul\":4324:4342   */\n      tag_234\n        /* \"#utility.yul\":4340:4341   */\n      dup4\n        /* \"#utility.yul\":4324:4342   */\n      tag_233\n      jump\t// in\n    tag_234:\n        /* \"#utility.yul\":4319:4342   */\n      swap3\n      pop\n        /* \"#utility.yul\":4414:4415   */\n      dup3\n        /* \"#utility.yul\":4408:4412   */\n      0xff\n        /* \"#utility.yul\":4404:4416   */\n      sub\n        /* \"#utility.yul\":4401:4402   */\n      dup3\n        /* \"#utility.yul\":4398:4417   */\n      gt\n        /* \"#utility.yul\":4395:4440   */\n      iszero\n      tag_235\n      jumpi\n        /* \"#utility.yul\":4420:4438   */\n      tag_236\n      tag_230\n      jump\t// in\n    tag_236:\n        /* \"#utility.yul\":4395:4440   */\n    tag_235:\n        /* \"#utility.yul\":4464:4465   */\n      dup3\n        /* \"#utility.yul\":4461:4462   */\n      dup3\n        /* \"#utility.yul\":4457:4466   */\n      add\n        /* \"#utility.yul\":4450:4466   */\n      swap1\n      pop\n        /* \"#utility.yul\":4235:4472   */\n      swap3\n      swap2\n      pop\n      pop\n      jump\t// out\n        /* \"#utility.yul\":4478:4574   */\n    tag_201:\n        /* \"#utility.yul\":4515:4522   */\n      0x00\n        /* \"#utility.yul\":4544:4568   */\n      tag_238\n        /* \"#utility.yul\":4562:4567   */\n      dup3\n        /* \"#utility.yul\":4544:4568   */\n      tag_239\n      jump\t// in\n    tag_238:\n        /* \"#utility.yul\":4533:4568   */\n      swap1\n      pop\n        /* \"#utility.yul\":4478:4574   */\n      swap2\n      swap1\n      pop\n      jump\t// out\n        /* \"#utility.yul\":4580:4706   */\n    tag_239:\n        /* \"#utility.yul\":4617:4624   */\n      0x00\n        /* \"#utility.yul\":4657:4699   */\n      0xffffffffffffffffffffffffffffffffffffffff\n        /* \"#utility.yul\":4650:4655   */\n      dup3\n        /* \"#utility.yul\":4646:4700   */\n      and\n        /* \"#utility.yul\":4635:4700   */\n      swap1\n      pop\n        /* \"#utility.yul\":4580:4706   */\n      swap2\n      swap1\n      pop\n      jump\t// out\n        /* \"#utility.yul\":4712:4789   */\n    tag_205:\n        /* \"#utility.yul\":4749:4756   */\n      0x00\n        /* \"#utility.yul\":4778:4783   */\n      dup2\n        /* \"#utility.yul\":4767:4783   */\n      swap1\n      pop\n        /* \"#utility.yul\":4712:4789   */\n      swap2\n      swap1\n      pop\n      jump\t// out\n        /* \"#utility.yul\":4795:4881   */\n    tag_233:\n        /* \"#utility.yul\":4830:4837   */\n      0x00\n        /* \"#utility.yul\":4870:4874   */\n      0xff\n        /* \"#utility.yul\":4863:4868   */\n      dup3\n        /* \"#utility.yul\":4859:4875   */\n      and\n        /* \"#utility.yul\":4848:4875   */\n      swap1\n      pop\n        /* \"#utility.yul\":4795:4881   */\n      swap2\n      swap1\n      pop\n      jump\t// out\n        /* \"#utility.yul\":4887:5021   */\n    tag_197:\n        /* \"#utility.yul\":4945:4954   */\n      0x00\n        /* \"#utility.yul\":4978:5015   */\n      tag_244\n        /* \"#utility.yul\":5009:5014   */\n      dup3\n        /* \"#utility.yul\":4978:5015   */\n      tag_245\n      jump\t// in\n    tag_244:\n        /* \"#utility.yul\":4965:5015   */\n      swap1\n      pop\n        /* \"#utility.yul\":4887:5021   */\n      swap2\n      swap1\n      pop\n      jump\t// out\n        /* \"#utility.yul\":5027:5153   */\n    tag_245:\n        /* \"#utility.yul\":5077:5086   */\n      0x00\n        /* \"#utility.yul\":5110:5147   */\n      tag_247\n        /* \"#utility.yul\":5141:5146   */\n      dup3\n        /* \"#utility.yul\":5110:5147   */\n      tag_248\n      jump\t// in\n    tag_247:\n        /* \"#utility.yul\":5097:5147   */\n      swap1\n      pop\n        /* \"#utility.yul\":5027:5153   */\n      swap2\n      swap1\n      pop\n      jump\t// out\n        /* \"#utility.yul\":5159:5272   */\n    tag_248:\n        /* \"#utility.yul\":5209:5218   */\n      0x00\n        /* \"#utility.yul\":5242:5266   */\n      tag_250\n        /* \"#utility.yul\":5260:5265   */\n      dup3\n        /* \"#utility.yul\":5242:5266   */\n      tag_239\n      jump\t// in\n    tag_250:\n        /* \"#utility.yul\":5229:5266   */\n      swap1\n      pop\n        /* \"#utility.yul\":5159:5272   */\n      swap2\n      swap1\n      pop\n      jump\t// out\n        /* \"#utility.yul\":5278:5448   */\n    tag_146:\n        /* \"#utility.yul\":5308:5309   */\n      0x00\n        /* \"#utility.yul\":5325:5343   */\n      tag_252\n        /* \"#utility.yul\":5341:5342   */\n      dup3\n        /* \"#utility.yul\":5325:5343   */\n      tag_233\n      jump\t// in\n    tag_252:\n        /* \"#utility.yul\":5320:5343   */\n      swap2\n      pop\n        /* \"#utility.yul\":5357:5375   */\n      tag_253\n        /* \"#utility.yul\":5373:5374   */\n      dup4\n        /* \"#utility.yul\":5357:5375   */\n      tag_233\n      jump\t// in\n    tag_253:\n        /* \"#utility.yul\":5352:5375   */\n      swap3\n      pop\n        /* \"#utility.yul\":5394:5395   */\n      dup3\n        /* \"#utility.yul\":5384:5419   */\n      tag_254\n      jumpi\n        /* \"#utility.yul\":5399:5417   */\n      tag_255\n      tag_256\n      jump\t// in\n    tag_255:\n        /* \"#utility.yul\":5384:5419   */\n    tag_254:\n        /* \"#utility.yul\":5440:5441   */\n      dup3\n        /* \"#utility.yul\":5437:5438   */\n      dup3\n        /* \"#utility.yul\":5433:5442   */\n      mod\n        /* \"#utility.yul\":5428:5442   */\n      swap1\n      pop\n        /* \"#utility.yul\":5278:5448   */\n      swap3\n      swap2\n      pop\n      pop\n      jump\t// out\n        /* \"#utility.yul\":5454:5634   */\n    tag_230:\n        /* \"#utility.yul\":5502:5579   */\n      0x4e487b7100000000000000000000000000000000000000000000000000000000\n        /* \"#utility.yul\":5499:5500   */\n      0x00\n        /* \"#utility.yul\":5492:5580   */\n      mstore\n        /* \"#utility.yul\":5599:5603   */\n      0x11\n        /* \"#utility.yul\":5596:5597   */\n      0x04\n        /* \"#utility.yul\":5589:5604   */\n      mstore\n        /* \"#utility.yul\":5623:5627   */\n      0x24\n        /* \"#utility.yul\":5620:5621   */\n      0x00\n        /* \"#utility.yul\":5613:5628   */\n      revert\n        /* \"#utility.yul\":5640:5820   */\n    tag_256:\n        /* \"#utility.yul\":5688:5765   */\n      0x4e487b7100000000000000000000000000000000000000000000000000000000\n        /* \"#utility.yul\":5685:5686   */\n      0x00\n        /* \"#utility.yul\":5678:5766   */\n      mstore\n        /* \"#utility.yul\":5785:5789   */\n      0x12\n        /* \"#utility.yul\":5782:5783   */\n      0x04\n        /* \"#utility.yul\":5775:5790   */\n      mstore\n        /* \"#utility.yul\":5809:5813   */\n      0x24\n        /* \"#utility.yul\":5806:5807   */\n      0x00\n        /* \"#utility.yul\":5799:5814   */\n      revert\n        /* \"#utility.yul\":5826:6006   */\n    tag_23:\n        /* \"#utility.yul\":5874:5951   */\n      0x4e487b7100000000000000000000000000000000000000000000000000000000\n        /* \"#utility.yul\":5871:5872   */\n      0x00\n        /* \"#utility.yul\":5864:5952   */\n      mstore\n        /* \"#utility.yul\":5971:5975   */\n      0x21\n        /* \"#utility.yul\":5968:5969   */\n      0x04\n        /* \"#utility.yul\":5961:5976   */\n      mstore\n        /* \"#utility.yul\":5995:5999   */\n      0x24\n        /* \"#utility.yul\":5992:5993   */\n      0x00\n        /* \"#utility.yul\":5985:6000   */\n      revert\n        /* \"#utility.yul\":6135:6252   */\n    tag_183:\n        /* \"#utility.yul\":6244:6245   */\n      0x00\n        /* \"#utility.yul\":6241:6242   */\n      dup1\n        /* \"#utility.yul\":6234:6246   */\n      revert\n        /* \"#utility.yul\":6258:6364   */\n    tag_175:\n        /* \"#utility.yul\":6338:6339   */\n      0x03\n        /* \"#utility.yul\":6331:6336   */\n      dup2\n        /* \"#utility.yul\":6328:6340   */\n      lt\n        /* \"#utility.yul\":6318:6358   */\n      tag_264\n      jumpi\n        /* \"#utility.yul\":6354:6355   */\n      0x00\n        /* \"#utility.yul\":6351:6352   */\n      dup1\n        /* \"#utility.yul\":6344:6356   */\n      revert\n        /* \"#utility.yul\":6318:6358   */\n    tag_264:\n        /* \"#utility.yul\":6258:6364   */\n      pop\n      jump\t// out\n        /* \"#utility.yul\":6370:6492   */\n    tag_179:\n        /* \"#utility.yul\":6443:6467   */\n      tag_266\n        /* \"#utility.yul\":6461:6466   */\n      dup2\n        /* \"#utility.yul\":6443:6467   */\n      tag_205\n      jump\t// in\n    tag_266:\n        /* \"#utility.yul\":6436:6441   */\n      dup2\n        /* \"#utility.yul\":6433:6468   */\n      eq\n        /* \"#utility.yul\":6423:6486   */\n      tag_267\n      jumpi\n        /* \"#utility.yul\":6482:6483   */\n      0x00\n        /* \"#utility.yul\":6479:6480   */\n      dup1\n        /* \"#utility.yul\":6472:6484   */\n      revert\n        /* \"#utility.yul\":6423:6486   */\n    tag_267:\n        /* \"#utility.yul\":6370:6492   */\n      pop\n      jump\t// out\n\n    auxdata: 0xa26469706673582212201b2e2ac9e3b92971caee4e59e81b4300b783ea71e47185a51f3dacedbc304d9264736f6c63430008070033\n}\n",
				"bytecode": {
					"linkReferences": {},
					"object": "608060405260006001556116f5806100186000396000f3fe6080604052600436106100345760003560e01c80630f36f3b51461003957806379b1577614610069578063e115234314610085575b600080fd5b610053600480360381019061004e9190611318565b6100ae565b60405161006091906114ae565b60405180910390f35b610083600480360381019061007e9190611372565b610463565b005b34801561009157600080fd5b506100ac60048036038101906100a79190611345565b6106ff565b005b600081600060028111156100c5576100c4611664565b5b8160028111156100d8576100d7611664565b5b14806101085750600160028111156100f3576100f2611664565b5b81600281111561010657610105611664565b5b145b80610136575060028081111561012157610120611664565b5b81600281111561013457610133611664565b5b145b61013f57600080fd5b604051806080016040528034815260200160405180608001604052803373ffffffffffffffffffffffffffffffffffffffff1681526020013481526020018660028111156101905761018f611664565b5b81526020016003808111156101a8576101a7611664565b5b815250815260200160405180608001604052803373ffffffffffffffffffffffffffffffffffffffff16815260200160008152602001600060028111156101f2576101f1611664565b5b815260200160038081111561020a57610209611664565b5b81525081526020016000600381111561022657610225611664565b5b81525060008060015481526020019081526020016000206000820151816000015560208201518160010160008201518160000160006101000a81548173ffffffffffffffffffffffffffffffffffffffff021916908373ffffffffffffffffffffffffffffffffffffffff1602179055506020820151816001015560408201518160020160006101000a81548160ff021916908360028111156102cc576102cb611664565b5b021790555060608201518160020160016101000a81548160ff021916908360038111156102fc576102fb611664565b5b0217905550505060408201518160040160008201518160000160006101000a81548173ffffffffffffffffffffffffffffffffffffffff021916908373ffffffffffffffffffffffffffffffffffffffff1602179055506020820151816001015560408201518160020160006101000a81548160ff0219169083600281111561038857610387611664565b5b021790555060608201518160020160016101000a81548160ff021916908360038111156103b8576103b7611664565b5b0217905550505060608201518160070160006101000a81548160ff021916908360038111156103ea576103e9611664565b5b021790555090505060015491506001805461040591906114c9565b6001819055507fe9ab5080ecc6336987633f10106b3545fcbe2a24b37a90d48ad5b6cb6be5baf7333484600080878152602001908152602001600020600001546040516104559493929190611469565b60405180910390a150919050565b806000600281111561047857610477611664565b5b81600281111561048b5761048a611664565b5b14806104bb5750600160028111156104a6576104a5611664565b5b8160028111156104b9576104b8611664565b5b145b806104e957506002808111156104d4576104d3611664565b5b8160028111156104e7576104e6611664565b5b145b6104f257600080fd5b7f825188cfa44a4b20e051b1c19cb3328b895cd48b12678ee53f998d558892d09260008085815260200190815260200160002060010160000160009054906101000a900473ffffffffffffffffffffffffffffffffffffffff163360008087815260200190815260200160002060000154346000808981526020019081526020016000206000015460405161058b959493929190611416565b60405180910390a160405180608001604052803373ffffffffffffffffffffffffffffffffffffffff1681526020013481526020018360028111156105d3576105d2611664565b5b81526020016003808111156105eb576105ea611664565b5b81525060008085815260200190815260200160002060040160008201518160000160006101000a81548173ffffffffffffffffffffffffffffffffffffffff021916908373ffffffffffffffffffffffffffffffffffffffff1602179055506020820151816001015560408201518160020160006101000a81548160ff0219169083600281111561067f5761067e611664565b5b021790555060608201518160020160016101000a81548160ff021916908360038111156106af576106ae611664565b5b021790555090505034600080858152602001908152602001600020600001546106d891906114c9565b600080858152602001908152602001600020600001819055506106fa83610e83565b505050565b803360008083815260200190815260200160002060010160000160009054906101000a900473ffffffffffffffffffffffffffffffffffffffff1673ffffffffffffffffffffffffffffffffffffffff168173ffffffffffffffffffffffffffffffffffffffff1614806107d6575060008083815260200190815260200160002060040160000160009054906101000a900473ffffffffffffffffffffffffffffffffffffffff1673ffffffffffffffffffffffffffffffffffffffff168173ffffffffffffffffffffffffffffffffffffffff16145b6107df57600080fd5b600260038111156107f3576107f2611664565b5b60008085815260200190815260200160002060010160020160019054906101000a900460ff16600381111561082b5761082a611664565b5b14801561088157506002600381111561084757610846611664565b5b60008085815260200190815260200160002060040160020160019054906101000a900460ff16600381111561087f5761087e611664565b5b145b156109b95760008084815260200190815260200160002060010160000160009054906101000a900473ffffffffffffffffffffffffffffffffffffffff1673ffffffffffffffffffffffffffffffffffffffff166108fc600080868152602001908152602001600020600101600101549081150290604051600060405180830381858888f1935050505015801561091c573d6000803e3d6000fd5b5060008084815260200190815260200160002060040160000160009054906101000a900473ffffffffffffffffffffffffffffffffffffffff1673ffffffffffffffffffffffffffffffffffffffff166108fc600080868152602001908152602001600020600401600101549081150290604051600060405180830381858888f193505050501580156109b3573d6000803e3d6000fd5b50610e40565b600060038111156109cd576109cc611664565b5b60008085815260200190815260200160002060010160020160019054906101000a900460ff166003811115610a0557610a04611664565b5b1415610b64577fa3c6f6e8cde56e9b82473a30f47448ceec603e425f8c8f445ae20c7466ba2deb60008085815260200190815260200160002060010160000160009054906101000a900473ffffffffffffffffffffffffffffffffffffffff1660008086815260200190815260200160002060040160000160009054906101000a900473ffffffffffffffffffffffffffffffffffffffff1660008087815260200190815260200160002060000154604051610ac3939291906113df565b60405180910390a160008084815260200190815260200160002060010160000160009054906101000a900473ffffffffffffffffffffffffffffffffffffffff1673ffffffffffffffffffffffffffffffffffffffff166108fc600080868152602001908152602001600020600001549081150290604051600060405180830381858888f19350505050158015610b5e573d6000803e3d6000fd5b50610e3f565b60006003811115610b7857610b77611664565b5b60008085815260200190815260200160002060040160020160019054906101000a900460ff166003811115610bb057610baf611664565b5b1415610d0f577f879131dc2c2fe7a02e1e8f4c22b533dc7a8e3837e40cec2dd9c147b75ed5afd160008085815260200190815260200160002060010160000160009054906101000a900473ffffffffffffffffffffffffffffffffffffffff1660008086815260200190815260200160002060040160000160009054906101000a900473ffffffffffffffffffffffffffffffffffffffff1660008087815260200190815260200160002060000154604051610c6e939291906113df565b60405180910390a160008084815260200190815260200160002060040160000160009054906101000a900473ffffffffffffffffffffffffffffffffffffffff1673ffffffffffffffffffffffffffffffffffffffff166108fc600080868152602001908152602001600020600001549081150290604051600060405180830381858888f19350505050158015610d09573d6000803e3d6000fd5b50610e3e565b60008084815260200190815260200160002060010160000160009054906101000a900473ffffffffffffffffffffffffffffffffffffffff1673ffffffffffffffffffffffffffffffffffffffff166108fc600080868152602001908152602001600020600101600101549081150290604051600060405180830381858888f19350505050158015610da5573d6000803e3d6000fd5b5060008084815260200190815260200160002060040160000160009054906101000a900473ffffffffffffffffffffffffffffffffffffffff1673ffffffffffffffffffffffffffffffffffffffff166108fc600080868152602001908152602001600020600401600101549081150290604051600060405180830381858888f19350505050158015610e3c573d6000803e3d6000fd5b505b5b5b600260008085815260200190815260200160002060070160006101000a81548160ff02191690836003811115610e7957610e78611664565b5b0217905550505050565b600080600083815260200190815260200160002060010160020160009054906101000a900460ff166002811115610ebd57610ebc611664565b5b9050600080600084815260200190815260200160002060040160020160009054906101000a900460ff166002811115610ef957610ef8611664565b5b9050600160008085815260200190815260200160002060070160006101000a81548160ff02191690836003811115610f3457610f33611664565b5b02179055508160ff166003600183610f4c919061151f565b610f5691906115d5565b60ff1614156110a657600080600085815260200190815260200160002060010160020160016101000a81548160ff02191690836003811115610f9b57610f9a611664565b5b0217905550600160008085815260200190815260200160002060040160020160016101000a81548160ff02191690836003811115610fdc57610fdb611664565b5b02179055507fa3c6f6e8cde56e9b82473a30f47448ceec603e425f8c8f445ae20c7466ba2deb60008085815260200190815260200160002060010160000160009054906101000a900473ffffffffffffffffffffffffffffffffffffffff1660008086815260200190815260200160002060040160000160009054906101000a900473ffffffffffffffffffffffffffffffffffffffff1660008087815260200190815260200160002060000154604051611099939291906113df565b60405180910390a16112e9565b8160ff168160ff16141561113b57600260008085815260200190815260200160002060010160020160016101000a81548160ff021916908360038111156110f0576110ef611664565b5b0217905550600260008085815260200190815260200160002060040160020160016101000a81548160ff0219169083600381111561113157611130611664565b5b02179055506112e8565b8060ff16600360018461114e919061151f565b61115891906115d5565b60ff1614156112a857600160008085815260200190815260200160002060010160020160016101000a81548160ff0219169083600381111561119d5761119c611664565b5b0217905550600080600085815260200190815260200160002060040160020160016101000a81548160ff021916908360038111156111de576111dd611664565b5b02179055507f879131dc2c2fe7a02e1e8f4c22b533dc7a8e3837e40cec2dd9c147b75ed5afd160008085815260200190815260200160002060010160000160009054906101000a900473ffffffffffffffffffffffffffffffffffffffff1660008086815260200190815260200160002060040160000160009054906101000a900473ffffffffffffffffffffffffffffffffffffffff166000808781526020019081526020016000206000015460405161129b939291906113df565b60405180910390a16112e7565b600360008085815260200190815260200160002060070160006101000a81548160ff021916908360038111156112e1576112e0611664565b5b02179055505b5b5b505050565b6000813590506112fd81611698565b92915050565b600081359050611312816116a8565b92915050565b60006020828403121561132e5761132d611693565b5b600061133c848285016112ee565b91505092915050565b60006020828403121561135b5761135a611693565b5b600061136984828501611303565b91505092915050565b6000806040838503121561138957611388611693565b5b600061139785828601611303565b92505060206113a8858286016112ee565b9150509250929050565b6113bb8161159f565b82525050565b6113ca81611556565b82525050565b6113d981611588565b82525050565b60006060820190506113f460008301866113b2565b61140160208301856113b2565b61140e60408301846113d0565b949350505050565b600060a08201905061142b60008301886113b2565b61143860208301876113c1565b61144560408301866113d0565b61145260608301856113d0565b61145f60808301846113d0565b9695505050505050565b600060808201905061147e60008301876113c1565b61148b60208301866113d0565b61149860408301856113d0565b6114a560608301846113d0565b95945050505050565b60006020820190506114c360008301846113d0565b92915050565b60006114d482611588565b91506114df83611588565b9250827fffffffffffffffffffffffffffffffffffffffffffffffffffffffffffffffff0382111561151457611513611606565b5b828201905092915050565b600061152a82611592565b915061153583611592565b92508260ff0382111561154b5761154a611606565b5b828201905092915050565b600061156182611568565b9050919050565b600073ffffffffffffffffffffffffffffffffffffffff82169050919050565b6000819050919050565b600060ff82169050919050565b60006115aa826115b1565b9050919050565b60006115bc826115c3565b9050919050565b60006115ce82611568565b9050919050565b60006115e082611592565b91506115eb83611592565b9250826115fb576115fa611635565b5b828206905092915050565b7f4e487b7100000000000000000000000000000000000000000000000000000000600052601160045260246000fd5b7f4e487b7100000000000000000000000000000000000000000000000000000000600052601260045260246000fd5b7f4e487b7100000000000000000000000000000000000000000000000000000000600052602160045260246000fd5b600080fd5b600381106116a557600080fd5b50565b6116b181611588565b81146116bc57600080fd5b5056fea26469706673582212201b2e2ac9e3b92971caee4e59e81b4300b783ea71e47185a51f3dacedbc304d9264736f6c63430008070033",
					"opcodes": "PUSH1 0x80 PUSH1 0x40 MSTORE PUSH1 0x0 PUSH1 0x1 SSTORE PUSH2 0x16F5 DUP1 PUSH2 0x18 PUSH1 0x0 CODECOPY PUSH1 0x0 RETURN INVALID PUSH1 0x80 PUSH1 0x40 MSTORE PUSH1 0x4 CALLDATASIZE LT PUSH2 0x34 JUMPI PUSH1 0x0 CALLDATALOAD PUSH1 0xE0 SHR DUP1 PUSH4 0xF36F3B5 EQ PUSH2 0x39 JUMPI DUP1 PUSH4 0x79B15776 EQ PUSH2 0x69 JUMPI DUP1 PUSH4 0xE1152343 EQ PUSH2 0x85 JUMPI JUMPDEST PUSH1 0x0 DUP1 REVERT JUMPDEST PUSH2 0x53 PUSH1 0x4 DUP1 CALLDATASIZE SUB DUP2 ADD SWAP1 PUSH2 0x4E SWAP2 SWAP1 PUSH2 0x1318 JUMP JUMPDEST PUSH2 0xAE JUMP JUMPDEST PUSH1 0x40 MLOAD PUSH2 0x60 SWAP2 SWAP1 PUSH2 0x14AE JUMP JUMPDEST PUSH1 0x40 MLOAD DUP1 SWAP2 SUB SWAP1 RETURN JUMPDEST PUSH2 0x83 PUSH1 0x4 DUP1 CALLDATASIZE SUB DUP2 ADD SWAP1 PUSH2 0x7E SWAP2 SWAP1 PUSH2 0x1372 JUMP JUMPDEST PUSH2 0x463 JUMP JUMPDEST STOP JUMPDEST CALLVALUE DUP1 ISZERO PUSH2 0x91 JUMPI PUSH1 0x0 DUP1 REVERT JUMPDEST POP PUSH2 0xAC PUSH1 0x4 DUP1 CALLDATASIZE SUB DUP2 ADD SWAP1 PUSH2 0xA7 SWAP2 SWAP1 PUSH2 0x1345 JUMP JUMPDEST PUSH2 0x6FF JUMP JUMPDEST STOP JUMPDEST PUSH1 0x0 DUP2 PUSH1 0x0 PUSH1 0x2 DUP2 GT ISZERO PUSH2 0xC5 JUMPI PUSH2 0xC4 PUSH2 0x1664 JUMP JUMPDEST JUMPDEST DUP2 PUSH1 0x2 DUP2 GT ISZERO PUSH2 0xD8 JUMPI PUSH2 0xD7 PUSH2 0x1664 JUMP JUMPDEST JUMPDEST EQ DUP1 PUSH2 0x108 JUMPI POP PUSH1 0x1 PUSH1 0x2 DUP2 GT ISZERO PUSH2 0xF3 JUMPI PUSH2 0xF2 PUSH2 0x1664 JUMP JUMPDEST JUMPDEST DUP2 PUSH1 0x2 DUP2 GT ISZERO PUSH2 0x106 JUMPI PUSH2 0x105 PUSH2 0x1664 JUMP JUMPDEST JUMPDEST EQ JUMPDEST DUP1 PUSH2 0x136 JUMPI POP PUSH1 0x2 DUP1 DUP2 GT ISZERO PUSH2 0x121 JUMPI PUSH2 0x120 PUSH2 0x1664 JUMP JUMPDEST JUMPDEST DUP2 PUSH1 0x2 DUP2 GT ISZERO PUSH2 0x134 JUMPI PUSH2 0x133 PUSH2 0x1664 JUMP JUMPDEST JUMPDEST EQ JUMPDEST PUSH2 0x13F JUMPI PUSH1 0x0 DUP1 REVERT JUMPDEST PUSH1 0x40 MLOAD DUP1 PUSH1 0x80 ADD PUSH1 0x40 MSTORE DUP1 CALLVALUE DUP2 MSTORE PUSH1 0x20 ADD PUSH1 0x40 MLOAD DUP1 PUSH1 0x80 ADD PUSH1 0x40 MSTORE DUP1 CALLER PUSH20 0xFFFFFFFFFFFFFFFFFFFFFFFFFFFFFFFFFFFFFFFF AND DUP2 MSTORE PUSH1 0x20 ADD CALLVALUE DUP2 MSTORE PUSH1 0x20 ADD DUP7 PUSH1 0x2 DUP2 GT ISZERO PUSH2 0x190 JUMPI PUSH2 0x18F PUSH2 0x1664 JUMP JUMPDEST JUMPDEST DUP2 MSTORE PUSH1 0x20 ADD PUSH1 0x3 DUP1 DUP2 GT ISZERO PUSH2 0x1A8 JUMPI PUSH2 0x1A7 PUSH2 0x1664 JUMP JUMPDEST JUMPDEST DUP2 MSTORE POP DUP2 MSTORE PUSH1 0x20 ADD PUSH1 0x40 MLOAD DUP1 PUSH1 0x80 ADD PUSH1 0x40 MSTORE DUP1 CALLER PUSH20 0xFFFFFFFFFFFFFFFFFFFFFFFFFFFFFFFFFFFFFFFF AND DUP2 MSTORE PUSH1 0x20 ADD PUSH1 0x0 DUP2 MSTORE PUSH1 0x20 ADD PUSH1 0x0 PUSH1 0x2 DUP2 GT ISZERO PUSH2 0x1F2 JUMPI PUSH2 0x1F1 PUSH2 0x1664 JUMP JUMPDEST JUMPDEST DUP2 MSTORE PUSH1 0x20 ADD PUSH1 0x3 DUP1 DUP2 GT ISZERO PUSH2 0x20A JUMPI PUSH2 0x209 PUSH2 0x1664 JUMP JUMPDEST JUMPDEST DUP2 MSTORE POP DUP2 MSTORE PUSH1 0x20 ADD PUSH1 0x0 PUSH1 0x3 DUP2 GT ISZERO PUSH2 0x226 JUMPI PUSH2 0x225 PUSH2 0x1664 JUMP JUMPDEST JUMPDEST DUP2 MSTORE POP PUSH1 0x0 DUP1 PUSH1 0x1 SLOAD DUP2 MSTORE PUSH1 0x20 ADD SWAP1 DUP2 MSTORE PUSH1 0x20 ADD PUSH1 0x0 KECCAK256 PUSH1 0x0 DUP3 ADD MLOAD DUP2 PUSH1 0x0 ADD SSTORE PUSH1 0x20 DUP3 ADD MLOAD DUP2 PUSH1 0x1 ADD PUSH1 0x0 DUP3 ADD MLOAD DUP2 PUSH1 0x0 ADD PUSH1 0x0 PUSH2 0x100 EXP DUP2 SLOAD DUP2 PUSH20 0xFFFFFFFFFFFFFFFFFFFFFFFFFFFFFFFFFFFFFFFF MUL NOT AND SWAP1 DUP4 PUSH20 0xFFFFFFFFFFFFFFFFFFFFFFFFFFFFFFFFFFFFFFFF AND MUL OR SWAP1 SSTORE POP PUSH1 0x20 DUP3 ADD MLOAD DUP2 PUSH1 0x1 ADD SSTORE PUSH1 0x40 DUP3 ADD MLOAD DUP2 PUSH1 0x2 ADD PUSH1 0x0 PUSH2 0x100 EXP DUP2 SLOAD DUP2 PUSH1 0xFF MUL NOT AND SWAP1 DUP4 PUSH1 0x2 DUP2 GT ISZERO PUSH2 0x2CC JUMPI PUSH2 0x2CB PUSH2 0x1664 JUMP JUMPDEST JUMPDEST MUL OR SWAP1 SSTORE POP PUSH1 0x60 DUP3 ADD MLOAD DUP2 PUSH1 0x2 ADD PUSH1 0x1 PUSH2 0x100 EXP DUP2 SLOAD DUP2 PUSH1 0xFF MUL NOT AND SWAP1 DUP4 PUSH1 0x3 DUP2 GT ISZERO PUSH2 0x2FC JUMPI PUSH2 0x2FB PUSH2 0x1664 JUMP JUMPDEST JUMPDEST MUL OR SWAP1 SSTORE POP POP POP PUSH1 0x40 DUP3 ADD MLOAD DUP2 PUSH1 0x4 ADD PUSH1 0x0 DUP3 ADD MLOAD DUP2 PUSH1 0x0 ADD PUSH1 0x0 PUSH2 0x100 EXP DUP2 SLOAD DUP2 PUSH20 0xFFFFFFFFFFFFFFFFFFFFFFFFFFFFFFFFFFFFFFFF MUL NOT AND SWAP1 DUP4 PUSH20 0xFFFFFFFFFFFFFFFFFFFFFFFFFFFFFFFFFFFFFFFF AND MUL OR SWAP1 SSTORE POP PUSH1 0x20 DUP3 ADD MLOAD DUP2 PUSH1 0x1 ADD SSTORE PUSH1 0x40 DUP3 ADD MLOAD DUP2 PUSH1 0x2 ADD PUSH1 0x0 PUSH2 0x100 EXP DUP2 SLOAD DUP2 PUSH1 0xFF MUL NOT AND SWAP1 DUP4 PUSH1 0x2 DUP2 GT ISZERO PUSH2 0x388 JUMPI PUSH2 0x387 PUSH2 0x1664 JUMP JUMPDEST JUMPDEST MUL OR SWAP1 SSTORE POP PUSH1 0x60 DUP3 ADD MLOAD DUP2 PUSH1 0x2 ADD PUSH1 0x1 PUSH2 0x100 EXP DUP2 SLOAD DUP2 PUSH1 0xFF MUL NOT AND SWAP1 DUP4 PUSH1 0x3 DUP2 GT ISZERO PUSH2 0x3B8 JUMPI PUSH2 0x3B7 PUSH2 0x1664 JUMP JUMPDEST JUMPDEST MUL OR SWAP1 SSTORE POP POP POP PUSH1 0x60 DUP3 ADD MLOAD DUP2 PUSH1 0x7 ADD PUSH1 0x0 PUSH2 0x100 EXP DUP2 SLOAD DUP2 PUSH1 0xFF MUL NOT AND SWAP1 DUP4 PUSH1 0x3 DUP2 GT ISZERO PUSH2 0x3EA JUMPI PUSH2 0x3E9 PUSH2 0x1664 JUMP JUMPDEST JUMPDEST MUL OR SWAP1 SSTORE POP SWAP1 POP POP PUSH1 0x1 SLOAD SWAP2 POP PUSH1 0x1 DUP1 SLOAD PUSH2 0x405 SWAP2 SWAP1 PUSH2 0x14C9 JUMP JUMPDEST PUSH1 0x1 DUP2 SWAP1 SSTORE POP PUSH32 0xE9AB5080ECC6336987633F10106B3545FCBE2A24B37A90D48AD5B6CB6BE5BAF7 CALLER CALLVALUE DUP5 PUSH1 0x0 DUP1 DUP8 DUP2 MSTORE PUSH1 0x20 ADD SWAP1 DUP2 MSTORE PUSH1 0x20 ADD PUSH1 0x0 KECCAK256 PUSH1 0x0 ADD SLOAD PUSH1 0x40 MLOAD PUSH2 0x455 SWAP5 SWAP4 SWAP3 SWAP2 SWAP1 PUSH2 0x1469 JUMP JUMPDEST PUSH1 0x40 MLOAD DUP1 SWAP2 SUB SWAP1 LOG1 POP SWAP2 SWAP1 POP JUMP JUMPDEST DUP1 PUSH1 0x0 PUSH1 0x2 DUP2 GT ISZERO PUSH2 0x478 JUMPI PUSH2 0x477 PUSH2 0x1664 JUMP JUMPDEST JUMPDEST DUP2 PUSH1 0x2 DUP2 GT ISZERO PUSH2 0x48B JUMPI PUSH2 0x48A PUSH2 0x1664 JUMP JUMPDEST JUMPDEST EQ DUP1 PUSH2 0x4BB JUMPI POP PUSH1 0x1 PUSH1 0x2 DUP2 GT ISZERO PUSH2 0x4A6 JUMPI PUSH2 0x4A5 PUSH2 0x1664 JUMP JUMPDEST JUMPDEST DUP2 PUSH1 0x2 DUP2 GT ISZERO PUSH2 0x4B9 JUMPI PUSH2 0x4B8 PUSH2 0x1664 JUMP JUMPDEST JUMPDEST EQ JUMPDEST DUP1 PUSH2 0x4E9 JUMPI POP PUSH1 0x2 DUP1 DUP2 GT ISZERO PUSH2 0x4D4 JUMPI PUSH2 0x4D3 PUSH2 0x1664 JUMP JUMPDEST JUMPDEST DUP2 PUSH1 0x2 DUP2 GT ISZERO PUSH2 0x4E7 JUMPI PUSH2 0x4E6 PUSH2 0x1664 JUMP JUMPDEST JUMPDEST EQ JUMPDEST PUSH2 0x4F2 JUMPI PUSH1 0x0 DUP1 REVERT JUMPDEST PUSH32 0x825188CFA44A4B20E051B1C19CB3328B895CD48B12678EE53F998D558892D092 PUSH1 0x0 DUP1 DUP6 DUP2 MSTORE PUSH1 0x20 ADD SWAP1 DUP2 MSTORE PUSH1 0x20 ADD PUSH1 0x0 KECCAK256 PUSH1 0x1 ADD PUSH1 0x0 ADD PUSH1 0x0 SWAP1 SLOAD SWAP1 PUSH2 0x100 EXP SWAP1 DIV PUSH20 0xFFFFFFFFFFFFFFFFFFFFFFFFFFFFFFFFFFFFFFFF AND CALLER PUSH1 0x0 DUP1 DUP8 DUP2 MSTORE PUSH1 0x20 ADD SWAP1 DUP2 MSTORE PUSH1 0x20 ADD PUSH1 0x0 KECCAK256 PUSH1 0x0 ADD SLOAD CALLVALUE PUSH1 0x0 DUP1 DUP10 DUP2 MSTORE PUSH1 0x20 ADD SWAP1 DUP2 MSTORE PUSH1 0x20 ADD PUSH1 0x0 KECCAK256 PUSH1 0x0 ADD SLOAD PUSH1 0x40 MLOAD PUSH2 0x58B SWAP6 SWAP5 SWAP4 SWAP3 SWAP2 SWAP1 PUSH2 0x1416 JUMP JUMPDEST PUSH1 0x40 MLOAD DUP1 SWAP2 SUB SWAP1 LOG1 PUSH1 0x40 MLOAD DUP1 PUSH1 0x80 ADD PUSH1 0x40 MSTORE DUP1 CALLER PUSH20 0xFFFFFFFFFFFFFFFFFFFFFFFFFFFFFFFFFFFFFFFF AND DUP2 MSTORE PUSH1 0x20 ADD CALLVALUE DUP2 MSTORE PUSH1 0x20 ADD DUP4 PUSH1 0x2 DUP2 GT ISZERO PUSH2 0x5D3 JUMPI PUSH2 0x5D2 PUSH2 0x1664 JUMP JUMPDEST JUMPDEST DUP2 MSTORE PUSH1 0x20 ADD PUSH1 0x3 DUP1 DUP2 GT ISZERO PUSH2 0x5EB JUMPI PUSH2 0x5EA PUSH2 0x1664 JUMP JUMPDEST JUMPDEST DUP2 MSTORE POP PUSH1 0x0 DUP1 DUP6 DUP2 MSTORE PUSH1 0x20 ADD SWAP1 DUP2 MSTORE PUSH1 0x20 ADD PUSH1 0x0 KECCAK256 PUSH1 0x4 ADD PUSH1 0x0 DUP3 ADD MLOAD DUP2 PUSH1 0x0 ADD PUSH1 0x0 PUSH2 0x100 EXP DUP2 SLOAD DUP2 PUSH20 0xFFFFFFFFFFFFFFFFFFFFFFFFFFFFFFFFFFFFFFFF MUL NOT AND SWAP1 DUP4 PUSH20 0xFFFFFFFFFFFFFFFFFFFFFFFFFFFFFFFFFFFFFFFF AND MUL OR SWAP1 SSTORE POP PUSH1 0x20 DUP3 ADD MLOAD DUP2 PUSH1 0x1 ADD SSTORE PUSH1 0x40 DUP3 ADD MLOAD DUP2 PUSH1 0x2 ADD PUSH1 0x0 PUSH2 0x100 EXP DUP2 SLOAD DUP2 PUSH1 0xFF MUL NOT AND SWAP1 DUP4 PUSH1 0x2 DUP2 GT ISZERO PUSH2 0x67F JUMPI PUSH2 0x67E PUSH2 0x1664 JUMP JUMPDEST JUMPDEST MUL OR SWAP1 SSTORE POP PUSH1 0x60 DUP3 ADD MLOAD DUP2 PUSH1 0x2 ADD PUSH1 0x1 PUSH2 0x100 EXP DUP2 SLOAD DUP2 PUSH1 0xFF MUL NOT AND SWAP1 DUP4 PUSH1 0x3 DUP2 GT ISZERO PUSH2 0x6AF JUMPI PUSH2 0x6AE PUSH2 0x1664 JUMP JUMPDEST JUMPDEST MUL OR SWAP1 SSTORE POP SWAP1 POP POP CALLVALUE PUSH1 0x0 DUP1 DUP6 DUP2 MSTORE PUSH1 0x20 ADD SWAP1 DUP2 MSTORE PUSH1 0x20 ADD PUSH1 0x0 KECCAK256 PUSH1 0x0 ADD SLOAD PUSH2 0x6D8 SWAP2 SWAP1 PUSH2 0x14C9 JUMP JUMPDEST PUSH1 0x0 DUP1 DUP6 DUP2 MSTORE PUSH1 0x20 ADD SWAP1 DUP2 MSTORE PUSH1 0x20 ADD PUSH1 0x0 KECCAK256 PUSH1 0x0 ADD DUP2 SWAP1 SSTORE POP PUSH2 0x6FA DUP4 PUSH2 0xE83 JUMP JUMPDEST POP POP POP JUMP JUMPDEST DUP1 CALLER PUSH1 0x0 DUP1 DUP4 DUP2 MSTORE PUSH1 0x20 ADD SWAP1 DUP2 MSTORE PUSH1 0x20 ADD PUSH1 0x0 KECCAK256 PUSH1 0x1 ADD PUSH1 0x0 ADD PUSH1 0x0 SWAP1 SLOAD SWAP1 PUSH2 0x100 EXP SWAP1 DIV PUSH20 0xFFFFFFFFFFFFFFFFFFFFFFFFFFFFFFFFFFFFFFFF AND PUSH20 0xFFFFFFFFFFFFFFFFFFFFFFFFFFFFFFFFFFFFFFFF AND DUP2 PUSH20 0xFFFFFFFFFFFFFFFFFFFFFFFFFFFFFFFFFFFFFFFF AND EQ DUP1 PUSH2 0x7D6 JUMPI POP PUSH1 0x0 DUP1 DUP4 DUP2 MSTORE PUSH1 0x20 ADD SWAP1 DUP2 MSTORE PUSH1 0x20 ADD PUSH1 0x0 KECCAK256 PUSH1 0x4 ADD PUSH1 0x0 ADD PUSH1 0x0 SWAP1 SLOAD SWAP1 PUSH2 0x100 EXP SWAP1 DIV PUSH20 0xFFFFFFFFFFFFFFFFFFFFFFFFFFFFFFFFFFFFFFFF AND PUSH20 0xFFFFFFFFFFFFFFFFFFFFFFFFFFFFFFFFFFFFFFFF AND DUP2 PUSH20 0xFFFFFFFFFFFFFFFFFFFFFFFFFFFFFFFFFFFFFFFF AND EQ JUMPDEST PUSH2 0x7DF JUMPI PUSH1 0x0 DUP1 REVERT JUMPDEST PUSH1 0x2 PUSH1 0x3 DUP2 GT ISZERO PUSH2 0x7F3 JUMPI PUSH2 0x7F2 PUSH2 0x1664 JUMP JUMPDEST JUMPDEST PUSH1 0x0 DUP1 DUP6 DUP2 MSTORE PUSH1 0x20 ADD SWAP1 DUP2 MSTORE PUSH1 0x20 ADD PUSH1 0x0 KECCAK256 PUSH1 0x1 ADD PUSH1 0x2 ADD PUSH1 0x1 SWAP1 SLOAD SWAP1 PUSH2 0x100 EXP SWAP1 DIV PUSH1 0xFF AND PUSH1 0x3 DUP2 GT ISZERO PUSH2 0x82B JUMPI PUSH2 0x82A PUSH2 0x1664 JUMP JUMPDEST JUMPDEST EQ DUP1 ISZERO PUSH2 0x881 JUMPI POP PUSH1 0x2 PUSH1 0x3 DUP2 GT ISZERO PUSH2 0x847 JUMPI PUSH2 0x846 PUSH2 0x1664 JUMP JUMPDEST JUMPDEST PUSH1 0x0 DUP1 DUP6 DUP2 MSTORE PUSH1 0x20 ADD SWAP1 DUP2 MSTORE PUSH1 0x20 ADD PUSH1 0x0 KECCAK256 PUSH1 0x4 ADD PUSH1 0x2 ADD PUSH1 0x1 SWAP1 SLOAD SWAP1 PUSH2 0x100 EXP SWAP1 DIV PUSH1 0xFF AND PUSH1 0x3 DUP2 GT ISZERO PUSH2 0x87F JUMPI PUSH2 0x87E PUSH2 0x1664 JUMP JUMPDEST JUMPDEST EQ JUMPDEST ISZERO PUSH2 0x9B9 JUMPI PUSH1 0x0 DUP1 DUP5 DUP2 MSTORE PUSH1 0x20 ADD SWAP1 DUP2 MSTORE PUSH1 0x20 ADD PUSH1 0x0 KECCAK256 PUSH1 0x1 ADD PUSH1 0x0 ADD PUSH1 0x0 SWAP1 SLOAD SWAP1 PUSH2 0x100 EXP SWAP1 DIV PUSH20 0xFFFFFFFFFFFFFFFFFFFFFFFFFFFFFFFFFFFFFFFF AND PUSH20 0xFFFFFFFFFFFFFFFFFFFFFFFFFFFFFFFFFFFFFFFF AND PUSH2 0x8FC PUSH1 0x0 DUP1 DUP7 DUP2 MSTORE PUSH1 0x20 ADD SWAP1 DUP2 MSTORE PUSH1 0x20 ADD PUSH1 0x0 KECCAK256 PUSH1 0x1 ADD PUSH1 0x1 ADD SLOAD SWAP1 DUP2 ISZERO MUL SWAP1 PUSH1 0x40 MLOAD PUSH1 0x0 PUSH1 0x40 MLOAD DUP1 DUP4 SUB DUP2 DUP6 DUP9 DUP9 CALL SWAP4 POP POP POP POP ISZERO DUP1 ISZERO PUSH2 0x91C JUMPI RETURNDATASIZE PUSH1 0x0 DUP1 RETURNDATACOPY RETURNDATASIZE PUSH1 0x0 REVERT JUMPDEST POP PUSH1 0x0 DUP1 DUP5 DUP2 MSTORE PUSH1 0x20 ADD SWAP1 DUP2 MSTORE PUSH1 0x20 ADD PUSH1 0x0 KECCAK256 PUSH1 0x4 ADD PUSH1 0x0 ADD PUSH1 0x0 SWAP1 SLOAD SWAP1 PUSH2 0x100 EXP SWAP1 DIV PUSH20 0xFFFFFFFFFFFFFFFFFFFFFFFFFFFFFFFFFFFFFFFF AND PUSH20 0xFFFFFFFFFFFFFFFFFFFFFFFFFFFFFFFFFFFFFFFF AND PUSH2 0x8FC PUSH1 0x0 DUP1 DUP7 DUP2 MSTORE PUSH1 0x20 ADD SWAP1 DUP2 MSTORE PUSH1 0x20 ADD PUSH1 0x0 KECCAK256 PUSH1 0x4 ADD PUSH1 0x1 ADD SLOAD SWAP1 DUP2 ISZERO MUL SWAP1 PUSH1 0x40 MLOAD PUSH1 0x0 PUSH1 0x40 MLOAD DUP1 DUP4 SUB DUP2 DUP6 DUP9 DUP9 CALL SWAP4 POP POP POP POP ISZERO DUP1 ISZERO PUSH2 0x9B3 JUMPI RETURNDATASIZE PUSH1 0x0 DUP1 RETURNDATACOPY RETURNDATASIZE PUSH1 0x0 REVERT JUMPDEST POP PUSH2 0xE40 JUMP JUMPDEST PUSH1 0x0 PUSH1 0x3 DUP2 GT ISZERO PUSH2 0x9CD JUMPI PUSH2 0x9CC PUSH2 0x1664 JUMP JUMPDEST JUMPDEST PUSH1 0x0 DUP1 DUP6 DUP2 MSTORE PUSH1 0x20 ADD SWAP1 DUP2 MSTORE PUSH1 0x20 ADD PUSH1 0x0 KECCAK256 PUSH1 0x1 ADD PUSH1 0x2 ADD PUSH1 0x1 SWAP1 SLOAD SWAP1 PUSH2 0x100 EXP SWAP1 DIV PUSH1 0xFF AND PUSH1 0x3 DUP2 GT ISZERO PUSH2 0xA05 JUMPI PUSH2 0xA04 PUSH2 0x1664 JUMP JUMPDEST JUMPDEST EQ ISZERO PUSH2 0xB64 JUMPI PUSH32 0xA3C6F6E8CDE56E9B82473A30F47448CEEC603E425F8C8F445AE20C7466BA2DEB PUSH1 0x0 DUP1 DUP6 DUP2 MSTORE PUSH1 0x20 ADD SWAP1 DUP2 MSTORE PUSH1 0x20 ADD PUSH1 0x0 KECCAK256 PUSH1 0x1 ADD PUSH1 0x0 ADD PUSH1 0x0 SWAP1 SLOAD SWAP1 PUSH2 0x100 EXP SWAP1 DIV PUSH20 0xFFFFFFFFFFFFFFFFFFFFFFFFFFFFFFFFFFFFFFFF AND PUSH1 0x0 DUP1 DUP7 DUP2 MSTORE PUSH1 0x20 ADD SWAP1 DUP2 MSTORE PUSH1 0x20 ADD PUSH1 0x0 KECCAK256 PUSH1 0x4 ADD PUSH1 0x0 ADD PUSH1 0x0 SWAP1 SLOAD SWAP1 PUSH2 0x100 EXP SWAP1 DIV PUSH20 0xFFFFFFFFFFFFFFFFFFFFFFFFFFFFFFFFFFFFFFFF AND PUSH1 0x0 DUP1 DUP8 DUP2 MSTORE PUSH1 0x20 ADD SWAP1 DUP2 MSTORE PUSH1 0x20 ADD PUSH1 0x0 KECCAK256 PUSH1 0x0 ADD SLOAD PUSH1 0x40 MLOAD PUSH2 0xAC3 SWAP4 SWAP3 SWAP2 SWAP1 PUSH2 0x13DF JUMP JUMPDEST PUSH1 0x40 MLOAD DUP1 SWAP2 SUB SWAP1 LOG1 PUSH1 0x0 DUP1 DUP5 DUP2 MSTORE PUSH1 0x20 ADD SWAP1 DUP2 MSTORE PUSH1 0x20 ADD PUSH1 0x0 KECCAK256 PUSH1 0x1 ADD PUSH1 0x0 ADD PUSH1 0x0 SWAP1 SLOAD SWAP1 PUSH2 0x100 EXP SWAP1 DIV PUSH20 0xFFFFFFFFFFFFFFFFFFFFFFFFFFFFFFFFFFFFFFFF AND PUSH20 0xFFFFFFFFFFFFFFFFFFFFFFFFFFFFFFFFFFFFFFFF AND PUSH2 0x8FC PUSH1 0x0 DUP1 DUP7 DUP2 MSTORE PUSH1 0x20 ADD SWAP1 DUP2 MSTORE PUSH1 0x20 ADD PUSH1 0x0 KECCAK256 PUSH1 0x0 ADD SLOAD SWAP1 DUP2 ISZERO MUL SWAP1 PUSH1 0x40 MLOAD PUSH1 0x0 PUSH1 0x40 MLOAD DUP1 DUP4 SUB DUP2 DUP6 DUP9 DUP9 CALL SWAP4 POP POP POP POP ISZERO DUP1 ISZERO PUSH2 0xB5E JUMPI RETURNDATASIZE PUSH1 0x0 DUP1 RETURNDATACOPY RETURNDATASIZE PUSH1 0x0 REVERT JUMPDEST POP PUSH2 0xE3F JUMP JUMPDEST PUSH1 0x0 PUSH1 0x3 DUP2 GT ISZERO PUSH2 0xB78 JUMPI PUSH2 0xB77 PUSH2 0x1664 JUMP JUMPDEST JUMPDEST PUSH1 0x0 DUP1 DUP6 DUP2 MSTORE PUSH1 0x20 ADD SWAP1 DUP2 MSTORE PUSH1 0x20 ADD PUSH1 0x0 KECCAK256 PUSH1 0x4 ADD PUSH1 0x2 ADD PUSH1 0x1 SWAP1 SLOAD SWAP1 PUSH2 0x100 EXP SWAP1 DIV PUSH1 0xFF AND PUSH1 0x3 DUP2 GT ISZERO PUSH2 0xBB0 JUMPI PUSH2 0xBAF PUSH2 0x1664 JUMP JUMPDEST JUMPDEST EQ ISZERO PUSH2 0xD0F JUMPI PUSH32 0x879131DC2C2FE7A02E1E8F4C22B533DC7A8E3837E40CEC2DD9C147B75ED5AFD1 PUSH1 0x0 DUP1 DUP6 DUP2 MSTORE PUSH1 0x20 ADD SWAP1 DUP2 MSTORE PUSH1 0x20 ADD PUSH1 0x0 KECCAK256 PUSH1 0x1 ADD PUSH1 0x0 ADD PUSH1 0x0 SWAP1 SLOAD SWAP1 PUSH2 0x100 EXP SWAP1 DIV PUSH20 0xFFFFFFFFFFFFFFFFFFFFFFFFFFFFFFFFFFFFFFFF AND PUSH1 0x0 DUP1 DUP7 DUP2 MSTORE PUSH1 0x20 ADD SWAP1 DUP2 MSTORE PUSH1 0x20 ADD PUSH1 0x0 KECCAK256 PUSH1 0x4 ADD PUSH1 0x0 ADD PUSH1 0x0 SWAP1 SLOAD SWAP1 PUSH2 0x100 EXP SWAP1 DIV PUSH20 0xFFFFFFFFFFFFFFFFFFFFFFFFFFFFFFFFFFFFFFFF AND PUSH1 0x0 DUP1 DUP8 DUP2 MSTORE PUSH1 0x20 ADD SWAP1 DUP2 MSTORE PUSH1 0x20 ADD PUSH1 0x0 KECCAK256 PUSH1 0x0 ADD SLOAD PUSH1 0x40 MLOAD PUSH2 0xC6E SWAP4 SWAP3 SWAP2 SWAP1 PUSH2 0x13DF JUMP JUMPDEST PUSH1 0x40 MLOAD DUP1 SWAP2 SUB SWAP1 LOG1 PUSH1 0x0 DUP1 DUP5 DUP2 MSTORE PUSH1 0x20 ADD SWAP1 DUP2 MSTORE PUSH1 0x20 ADD PUSH1 0x0 KECCAK256 PUSH1 0x4 ADD PUSH1 0x0 ADD PUSH1 0x0 SWAP1 SLOAD SWAP1 PUSH2 0x100 EXP SWAP1 DIV PUSH20 0xFFFFFFFFFFFFFFFFFFFFFFFFFFFFFFFFFFFFFFFF AND PUSH20 0xFFFFFFFFFFFFFFFFFFFFFFFFFFFFFFFFFFFFFFFF AND PUSH2 0x8FC PUSH1 0x0 DUP1 DUP7 DUP2 MSTORE PUSH1 0x20 ADD SWAP1 DUP2 MSTORE PUSH1 0x20 ADD PUSH1 0x0 KECCAK256 PUSH1 0x0 ADD SLOAD SWAP1 DUP2 ISZERO MUL SWAP1 PUSH1 0x40 MLOAD PUSH1 0x0 PUSH1 0x40 MLOAD DUP1 DUP4 SUB DUP2 DUP6 DUP9 DUP9 CALL SWAP4 POP POP POP POP ISZERO DUP1 ISZERO PUSH2 0xD09 JUMPI RETURNDATASIZE PUSH1 0x0 DUP1 RETURNDATACOPY RETURNDATASIZE PUSH1 0x0 REVERT JUMPDEST POP PUSH2 0xE3E JUMP JUMPDEST PUSH1 0x0 DUP1 DUP5 DUP2 MSTORE PUSH1 0x20 ADD SWAP1 DUP2 MSTORE PUSH1 0x20 ADD PUSH1 0x0 KECCAK256 PUSH1 0x1 ADD PUSH1 0x0 ADD PUSH1 0x0 SWAP1 SLOAD SWAP1 PUSH2 0x100 EXP SWAP1 DIV PUSH20 0xFFFFFFFFFFFFFFFFFFFFFFFFFFFFFFFFFFFFFFFF AND PUSH20 0xFFFFFFFFFFFFFFFFFFFFFFFFFFFFFFFFFFFFFFFF AND PUSH2 0x8FC PUSH1 0x0 DUP1 DUP7 DUP2 MSTORE PUSH1 0x20 ADD SWAP1 DUP2 MSTORE PUSH1 0x20 ADD PUSH1 0x0 KECCAK256 PUSH1 0x1 ADD PUSH1 0x1 ADD SLOAD SWAP1 DUP2 ISZERO MUL SWAP1 PUSH1 0x40 MLOAD PUSH1 0x0 PUSH1 0x40 MLOAD DUP1 DUP4 SUB DUP2 DUP6 DUP9 DUP9 CALL SWAP4 POP POP POP POP ISZERO DUP1 ISZERO PUSH2 0xDA5 JUMPI RETURNDATASIZE PUSH1 0x0 DUP1 RETURNDATACOPY RETURNDATASIZE PUSH1 0x0 REVERT JUMPDEST POP PUSH1 0x0 DUP1 DUP5 DUP2 MSTORE PUSH1 0x20 ADD SWAP1 DUP2 MSTORE PUSH1 0x20 ADD PUSH1 0x0 KECCAK256 PUSH1 0x4 ADD PUSH1 0x0 ADD PUSH1 0x0 SWAP1 SLOAD SWAP1 PUSH2 0x100 EXP SWAP1 DIV PUSH20 0xFFFFFFFFFFFFFFFFFFFFFFFFFFFFFFFFFFFFFFFF AND PUSH20 0xFFFFFFFFFFFFFFFFFFFFFFFFFFFFFFFFFFFFFFFF AND PUSH2 0x8FC PUSH1 0x0 DUP1 DUP7 DUP2 MSTORE PUSH1 0x20 ADD SWAP1 DUP2 MSTORE PUSH1 0x20 ADD PUSH1 0x0 KECCAK256 PUSH1 0x4 ADD PUSH1 0x1 ADD SLOAD SWAP1 DUP2 ISZERO MUL SWAP1 PUSH1 0x40 MLOAD PUSH1 0x0 PUSH1 0x40 MLOAD DUP1 DUP4 SUB DUP2 DUP6 DUP9 DUP9 CALL SWAP4 POP POP POP POP ISZERO DUP1 ISZERO PUSH2 0xE3C JUMPI RETURNDATASIZE PUSH1 0x0 DUP1 RETURNDATACOPY RETURNDATASIZE PUSH1 0x0 REVERT JUMPDEST POP JUMPDEST JUMPDEST JUMPDEST PUSH1 0x2 PUSH1 0x0 DUP1 DUP6 DUP2 MSTORE PUSH1 0x20 ADD SWAP1 DUP2 MSTORE PUSH1 0x20 ADD PUSH1 0x0 KECCAK256 PUSH1 0x7 ADD PUSH1 0x0 PUSH2 0x100 EXP DUP2 SLOAD DUP2 PUSH1 0xFF MUL NOT AND SWAP1 DUP4 PUSH1 0x3 DUP2 GT ISZERO PUSH2 0xE79 JUMPI PUSH2 0xE78 PUSH2 0x1664 JUMP JUMPDEST JUMPDEST MUL OR SWAP1 SSTORE POP POP POP POP JUMP JUMPDEST PUSH1 0x0 DUP1 PUSH1 0x0 DUP4 DUP2 MSTORE PUSH1 0x20 ADD SWAP1 DUP2 MSTORE PUSH1 0x20 ADD PUSH1 0x0 KECCAK256 PUSH1 0x1 ADD PUSH1 0x2 ADD PUSH1 0x0 SWAP1 SLOAD SWAP1 PUSH2 0x100 EXP SWAP1 DIV PUSH1 0xFF AND PUSH1 0x2 DUP2 GT ISZERO PUSH2 0xEBD JUMPI PUSH2 0xEBC PUSH2 0x1664 JUMP JUMPDEST JUMPDEST SWAP1 POP PUSH1 0x0 DUP1 PUSH1 0x0 DUP5 DUP2 MSTORE PUSH1 0x20 ADD SWAP1 DUP2 MSTORE PUSH1 0x20 ADD PUSH1 0x0 KECCAK256 PUSH1 0x4 ADD PUSH1 0x2 ADD PUSH1 0x0 SWAP1 SLOAD SWAP1 PUSH2 0x100 EXP SWAP1 DIV PUSH1 0xFF AND PUSH1 0x2 DUP2 GT ISZERO PUSH2 0xEF9 JUMPI PUSH2 0xEF8 PUSH2 0x1664 JUMP JUMPDEST JUMPDEST SWAP1 POP PUSH1 0x1 PUSH1 0x0 DUP1 DUP6 DUP2 MSTORE PUSH1 0x20 ADD SWAP1 DUP2 MSTORE PUSH1 0x20 ADD PUSH1 0x0 KECCAK256 PUSH1 0x7 ADD PUSH1 0x0 PUSH2 0x100 EXP DUP2 SLOAD DUP2 PUSH1 0xFF MUL NOT AND SWAP1 DUP4 PUSH1 0x3 DUP2 GT ISZERO PUSH2 0xF34 JUMPI PUSH2 0xF33 PUSH2 0x1664 JUMP JUMPDEST JUMPDEST MUL OR SWAP1 SSTORE POP DUP2 PUSH1 0xFF AND PUSH1 0x3 PUSH1 0x1 DUP4 PUSH2 0xF4C SWAP2 SWAP1 PUSH2 0x151F JUMP JUMPDEST PUSH2 0xF56 SWAP2 SWAP1 PUSH2 0x15D5 JUMP JUMPDEST PUSH1 0xFF AND EQ ISZERO PUSH2 0x10A6 JUMPI PUSH1 0x0 DUP1 PUSH1 0x0 DUP6 DUP2 MSTORE PUSH1 0x20 ADD SWAP1 DUP2 MSTORE PUSH1 0x20 ADD PUSH1 0x0 KECCAK256 PUSH1 0x1 ADD PUSH1 0x2 ADD PUSH1 0x1 PUSH2 0x100 EXP DUP2 SLOAD DUP2 PUSH1 0xFF MUL NOT AND SWAP1 DUP4 PUSH1 0x3 DUP2 GT ISZERO PUSH2 0xF9B JUMPI PUSH2 0xF9A PUSH2 0x1664 JUMP JUMPDEST JUMPDEST MUL OR SWAP1 SSTORE POP PUSH1 0x1 PUSH1 0x0 DUP1 DUP6 DUP2 MSTORE PUSH1 0x20 ADD SWAP1 DUP2 MSTORE PUSH1 0x20 ADD PUSH1 0x0 KECCAK256 PUSH1 0x4 ADD PUSH1 0x2 ADD PUSH1 0x1 PUSH2 0x100 EXP DUP2 SLOAD DUP2 PUSH1 0xFF MUL NOT AND SWAP1 DUP4 PUSH1 0x3 DUP2 GT ISZERO PUSH2 0xFDC JUMPI PUSH2 0xFDB PUSH2 0x1664 JUMP JUMPDEST JUMPDEST MUL OR SWAP1 SSTORE POP PUSH32 0xA3C6F6E8CDE56E9B82473A30F47448CEEC603E425F8C8F445AE20C7466BA2DEB PUSH1 0x0 DUP1 DUP6 DUP2 MSTORE PUSH1 0x20 ADD SWAP1 DUP2 MSTORE PUSH1 0x20 ADD PUSH1 0x0 KECCAK256 PUSH1 0x1 ADD PUSH1 0x0 ADD PUSH1 0x0 SWAP1 SLOAD SWAP1 PUSH2 0x100 EXP SWAP1 DIV PUSH20 0xFFFFFFFFFFFFFFFFFFFFFFFFFFFFFFFFFFFFFFFF AND PUSH1 0x0 DUP1 DUP7 DUP2 MSTORE PUSH1 0x20 ADD SWAP1 DUP2 MSTORE PUSH1 0x20 ADD PUSH1 0x0 KECCAK256 PUSH1 0x4 ADD PUSH1 0x0 ADD PUSH1 0x0 SWAP1 SLOAD SWAP1 PUSH2 0x100 EXP SWAP1 DIV PUSH20 0xFFFFFFFFFFFFFFFFFFFFFFFFFFFFFFFFFFFFFFFF AND PUSH1 0x0 DUP1 DUP8 DUP2 MSTORE PUSH1 0x20 ADD SWAP1 DUP2 MSTORE PUSH1 0x20 ADD PUSH1 0x0 KECCAK256 PUSH1 0x0 ADD SLOAD PUSH1 0x40 MLOAD PUSH2 0x1099 SWAP4 SWAP3 SWAP2 SWAP1 PUSH2 0x13DF JUMP JUMPDEST PUSH1 0x40 MLOAD DUP1 SWAP2 SUB SWAP1 LOG1 PUSH2 0x12E9 JUMP JUMPDEST DUP2 PUSH1 0xFF AND DUP2 PUSH1 0xFF AND EQ ISZERO PUSH2 0x113B JUMPI PUSH1 0x2 PUSH1 0x0 DUP1 DUP6 DUP2 MSTORE PUSH1 0x20 ADD SWAP1 DUP2 MSTORE PUSH1 0x20 ADD PUSH1 0x0 KECCAK256 PUSH1 0x1 ADD PUSH1 0x2 ADD PUSH1 0x1 PUSH2 0x100 EXP DUP2 SLOAD DUP2 PUSH1 0xFF MUL NOT AND SWAP1 DUP4 PUSH1 0x3 DUP2 GT ISZERO PUSH2 0x10F0 JUMPI PUSH2 0x10EF PUSH2 0x1664 JUMP JUMPDEST JUMPDEST MUL OR SWAP1 SSTORE POP PUSH1 0x2 PUSH1 0x0 DUP1 DUP6 DUP2 MSTORE PUSH1 0x20 ADD SWAP1 DUP2 MSTORE PUSH1 0x20 ADD PUSH1 0x0 KECCAK256 PUSH1 0x4 ADD PUSH1 0x2 ADD PUSH1 0x1 PUSH2 0x100 EXP DUP2 SLOAD DUP2 PUSH1 0xFF MUL NOT AND SWAP1 DUP4 PUSH1 0x3 DUP2 GT ISZERO PUSH2 0x1131 JUMPI PUSH2 0x1130 PUSH2 0x1664 JUMP JUMPDEST JUMPDEST MUL OR SWAP1 SSTORE POP PUSH2 0x12E8 JUMP JUMPDEST DUP1 PUSH1 0xFF AND PUSH1 0x3 PUSH1 0x1 DUP5 PUSH2 0x114E SWAP2 SWAP1 PUSH2 0x151F JUMP JUMPDEST PUSH2 0x1158 SWAP2 SWAP1 PUSH2 0x15D5 JUMP JUMPDEST PUSH1 0xFF AND EQ ISZERO PUSH2 0x12A8 JUMPI PUSH1 0x1 PUSH1 0x0 DUP1 DUP6 DUP2 MSTORE PUSH1 0x20 ADD SWAP1 DUP2 MSTORE PUSH1 0x20 ADD PUSH1 0x0 KECCAK256 PUSH1 0x1 ADD PUSH1 0x2 ADD PUSH1 0x1 PUSH2 0x100 EXP DUP2 SLOAD DUP2 PUSH1 0xFF MUL NOT AND SWAP1 DUP4 PUSH1 0x3 DUP2 GT ISZERO PUSH2 0x119D JUMPI PUSH2 0x119C PUSH2 0x1664 JUMP JUMPDEST JUMPDEST MUL OR SWAP1 SSTORE POP PUSH1 0x0 DUP1 PUSH1 0x0 DUP6 DUP2 MSTORE PUSH1 0x20 ADD SWAP1 DUP2 MSTORE PUSH1 0x20 ADD PUSH1 0x0 KECCAK256 PUSH1 0x4 ADD PUSH1 0x2 ADD PUSH1 0x1 PUSH2 0x100 EXP DUP2 SLOAD DUP2 PUSH1 0xFF MUL NOT AND SWAP1 DUP4 PUSH1 0x3 DUP2 GT ISZERO PUSH2 0x11DE JUMPI PUSH2 0x11DD PUSH2 0x1664 JUMP JUMPDEST JUMPDEST MUL OR SWAP1 SSTORE POP PUSH32 0x879131DC2C2FE7A02E1E8F4C22B533DC7A8E3837E40CEC2DD9C147B75ED5AFD1 PUSH1 0x0 DUP1 DUP6 DUP2 MSTORE PUSH1 0x20 ADD SWAP1 DUP2 MSTORE PUSH1 0x20 ADD PUSH1 0x0 KECCAK256 PUSH1 0x1 ADD PUSH1 0x0 ADD PUSH1 0x0 SWAP1 SLOAD SWAP1 PUSH2 0x100 EXP SWAP1 DIV PUSH20 0xFFFFFFFFFFFFFFFFFFFFFFFFFFFFFFFFFFFFFFFF AND PUSH1 0x0 DUP1 DUP7 DUP2 MSTORE PUSH1 0x20 ADD SWAP1 DUP2 MSTORE PUSH1 0x20 ADD PUSH1 0x0 KECCAK256 PUSH1 0x4 ADD PUSH1 0x0 ADD PUSH1 0x0 SWAP1 SLOAD SWAP1 PUSH2 0x100 EXP SWAP1 DIV PUSH20 0xFFFFFFFFFFFFFFFFFFFFFFFFFFFFFFFFFFFFFFFF AND PUSH1 0x0 DUP1 DUP8 DUP2 MSTORE PUSH1 0x20 ADD SWAP1 DUP2 MSTORE PUSH1 0x20 ADD PUSH1 0x0 KECCAK256 PUSH1 0x0 ADD SLOAD PUSH1 0x40 MLOAD PUSH2 0x129B SWAP4 SWAP3 SWAP2 SWAP1 PUSH2 0x13DF JUMP JUMPDEST PUSH1 0x40 MLOAD DUP1 SWAP2 SUB SWAP1 LOG1 PUSH2 0x12E7 JUMP JUMPDEST PUSH1 0x3 PUSH1 0x0 DUP1 DUP6 DUP2 MSTORE PUSH1 0x20 ADD SWAP1 DUP2 MSTORE PUSH1 0x20 ADD PUSH1 0x0 KECCAK256 PUSH1 0x7 ADD PUSH1 0x0 PUSH2 0x100 EXP DUP2 SLOAD DUP2 PUSH1 0xFF MUL NOT AND SWAP1 DUP4 PUSH1 0x3 DUP2 GT ISZERO PUSH2 0x12E1 JUMPI PUSH2 0x12E0 PUSH2 0x1664 JUMP JUMPDEST JUMPDEST MUL OR SWAP1 SSTORE POP JUMPDEST JUMPDEST JUMPDEST POP POP POP JUMP JUMPDEST PUSH1 0x0 DUP2 CALLDATALOAD SWAP1 POP PUSH2 0x12FD DUP2 PUSH2 0x1698 JUMP JUMPDEST SWAP3 SWAP2 POP POP JUMP JUMPDEST PUSH1 0x0 DUP2 CALLDATALOAD SWAP1 POP PUSH2 0x1312 DUP2 PUSH2 0x16A8 JUMP JUMPDEST SWAP3 SWAP2 POP POP JUMP JUMPDEST PUSH1 0x0 PUSH1 0x20 DUP3 DUP5 SUB SLT ISZERO PUSH2 0x132E JUMPI PUSH2 0x132D PUSH2 0x1693 JUMP JUMPDEST JUMPDEST PUSH1 0x0 PUSH2 0x133C DUP5 DUP3 DUP6 ADD PUSH2 0x12EE JUMP JUMPDEST SWAP2 POP POP SWAP3 SWAP2 POP POP JUMP JUMPDEST PUSH1 0x0 PUSH1 0x20 DUP3 DUP5 SUB SLT ISZERO PUSH2 0x135B JUMPI PUSH2 0x135A PUSH2 0x1693 JUMP JUMPDEST JUMPDEST PUSH1 0x0 PUSH2 0x1369 DUP5 DUP3 DUP6 ADD PUSH2 0x1303 JUMP JUMPDEST SWAP2 POP POP SWAP3 SWAP2 POP POP JUMP JUMPDEST PUSH1 0x0 DUP1 PUSH1 0x40 DUP4 DUP6 SUB SLT ISZERO PUSH2 0x1389 JUMPI PUSH2 0x1388 PUSH2 0x1693 JUMP JUMPDEST JUMPDEST PUSH1 0x0 PUSH2 0x1397 DUP6 DUP3 DUP7 ADD PUSH2 0x1303 JUMP JUMPDEST SWAP3 POP POP PUSH1 0x20 PUSH2 0x13A8 DUP6 DUP3 DUP7 ADD PUSH2 0x12EE JUMP JUMPDEST SWAP2 POP POP SWAP3 POP SWAP3 SWAP1 POP JUMP JUMPDEST PUSH2 0x13BB DUP2 PUSH2 0x159F JUMP JUMPDEST DUP3 MSTORE POP POP JUMP JUMPDEST PUSH2 0x13CA DUP2 PUSH2 0x1556 JUMP JUMPDEST DUP3 MSTORE POP POP JUMP JUMPDEST PUSH2 0x13D9 DUP2 PUSH2 0x1588 JUMP JUMPDEST DUP3 MSTORE POP POP JUMP JUMPDEST PUSH1 0x0 PUSH1 0x60 DUP3 ADD SWAP1 POP PUSH2 0x13F4 PUSH1 0x0 DUP4 ADD DUP7 PUSH2 0x13B2 JUMP JUMPDEST PUSH2 0x1401 PUSH1 0x20 DUP4 ADD DUP6 PUSH2 0x13B2 JUMP JUMPDEST PUSH2 0x140E PUSH1 0x40 DUP4 ADD DUP5 PUSH2 0x13D0 JUMP JUMPDEST SWAP5 SWAP4 POP POP POP POP JUMP JUMPDEST PUSH1 0x0 PUSH1 0xA0 DUP3 ADD SWAP1 POP PUSH2 0x142B PUSH1 0x0 DUP4 ADD DUP9 PUSH2 0x13B2 JUMP JUMPDEST PUSH2 0x1438 PUSH1 0x20 DUP4 ADD DUP8 PUSH2 0x13C1 JUMP JUMPDEST PUSH2 0x1445 PUSH1 0x40 DUP4 ADD DUP7 PUSH2 0x13D0 JUMP JUMPDEST PUSH2 0x1452 PUSH1 0x60 DUP4 ADD DUP6 PUSH2 0x13D0 JUMP JUMPDEST PUSH2 0x145F PUSH1 0x80 DUP4 ADD DUP5 PUSH2 0x13D0 JUMP JUMPDEST SWAP7 SWAP6 POP POP POP POP POP POP JUMP JUMPDEST PUSH1 0x0 PUSH1 0x80 DUP3 ADD SWAP1 POP PUSH2 0x147E PUSH1 0x0 DUP4 ADD DUP8 PUSH2 0x13C1 JUMP JUMPDEST PUSH2 0x148B PUSH1 0x20 DUP4 ADD DUP7 PUSH2 0x13D0 JUMP JUMPDEST PUSH2 0x1498 PUSH1 0x40 DUP4 ADD DUP6 PUSH2 0x13D0 JUMP JUMPDEST PUSH2 0x14A5 PUSH1 0x60 DUP4 ADD DUP5 PUSH2 0x13D0 JUMP JUMPDEST SWAP6 SWAP5 POP POP POP POP POP JUMP JUMPDEST PUSH1 0x0 PUSH1 0x20 DUP3 ADD SWAP1 POP PUSH2 0x14C3 PUSH1 0x0 DUP4 ADD DUP5 PUSH2 0x13D0 JUMP JUMPDEST SWAP3 SWAP2 POP POP JUMP JUMPDEST PUSH1 0x0 PUSH2 0x14D4 DUP3 PUSH2 0x1588 JUMP JUMPDEST SWAP2 POP PUSH2 0x14DF DUP4 PUSH2 0x1588 JUMP JUMPDEST SWAP3 POP DUP3 PUSH32 0xFFFFFFFFFFFFFFFFFFFFFFFFFFFFFFFFFFFFFFFFFFFFFFFFFFFFFFFFFFFFFFFF SUB DUP3 GT ISZERO PUSH2 0x1514 JUMPI PUSH2 0x1513 PUSH2 0x1606 JUMP JUMPDEST JUMPDEST DUP3 DUP3 ADD SWAP1 POP SWAP3 SWAP2 POP POP JUMP JUMPDEST PUSH1 0x0 PUSH2 0x152A DUP3 PUSH2 0x1592 JUMP JUMPDEST SWAP2 POP PUSH2 0x1535 DUP4 PUSH2 0x1592 JUMP JUMPDEST SWAP3 POP DUP3 PUSH1 0xFF SUB DUP3 GT ISZERO PUSH2 0x154B JUMPI PUSH2 0x154A PUSH2 0x1606 JUMP JUMPDEST JUMPDEST DUP3 DUP3 ADD SWAP1 POP SWAP3 SWAP2 POP POP JUMP JUMPDEST PUSH1 0x0 PUSH2 0x1561 DUP3 PUSH2 0x1568 JUMP JUMPDEST SWAP1 POP SWAP2 SWAP1 POP JUMP JUMPDEST PUSH1 0x0 PUSH20 0xFFFFFFFFFFFFFFFFFFFFFFFFFFFFFFFFFFFFFFFF DUP3 AND SWAP1 POP SWAP2 SWAP1 POP JUMP JUMPDEST PUSH1 0x0 DUP2 SWAP1 POP SWAP2 SWAP1 POP JUMP JUMPDEST PUSH1 0x0 PUSH1 0xFF DUP3 AND SWAP1 POP SWAP2 SWAP1 POP JUMP JUMPDEST PUSH1 0x0 PUSH2 0x15AA DUP3 PUSH2 0x15B1 JUMP JUMPDEST SWAP1 POP SWAP2 SWAP1 POP JUMP JUMPDEST PUSH1 0x0 PUSH2 0x15BC DUP3 PUSH2 0x15C3 JUMP JUMPDEST SWAP1 POP SWAP2 SWAP1 POP JUMP JUMPDEST PUSH1 0x0 PUSH2 0x15CE DUP3 PUSH2 0x1568 JUMP JUMPDEST SWAP1 POP SWAP2 SWAP1 POP JUMP JUMPDEST PUSH1 0x0 PUSH2 0x15E0 DUP3 PUSH2 0x1592 JUMP JUMPDEST SWAP2 POP PUSH2 0x15EB DUP4 PUSH2 0x1592 JUMP JUMPDEST SWAP3 POP DUP3 PUSH2 0x15FB JUMPI PUSH2 0x15FA PUSH2 0x1635 JUMP JUMPDEST JUMPDEST DUP3 DUP3 MOD SWAP1 POP SWAP3 SWAP2 POP POP JUMP JUMPDEST PUSH32 0x4E487B7100000000000000000000000000000000000000000000000000000000 PUSH1 0x0 MSTORE PUSH1 0x11 PUSH1 0x4 MSTORE PUSH1 0x24 PUSH1 0x0 REVERT JUMPDEST PUSH32 0x4E487B7100000000000000000000000000000000000000000000000000000000 PUSH1 0x0 MSTORE PUSH1 0x12 PUSH1 0x4 MSTORE PUSH1 0x24 PUSH1 0x0 REVERT JUMPDEST PUSH32 0x4E487B7100000000000000000000000000000000000000000000000000000000 PUSH1 0x0 MSTORE PUSH1 0x21 PUSH1 0x4 MSTORE PUSH1 0x24 PUSH1 0x0 REVERT JUMPDEST PUSH1 0x0 DUP1 REVERT JUMPDEST PUSH1 0x3 DUP2 LT PUSH2 0x16A5 JUMPI PUSH1 0x0 DUP1 REVERT JUMPDEST POP JUMP JUMPDEST PUSH2 0x16B1 DUP2 PUSH2 0x1588 JUMP JUMPDEST DUP2 EQ PUSH2 0x16BC JUMPI PUSH1 0x0 DUP1 REVERT JUMPDEST POP JUMP INVALID LOG2 PUSH5 0x6970667358 0x22 SLT KECCAK256 SHL 0x2E 0x2A 0xC9 0xE3 0xB9 0x29 PUSH18 0xCAEE4E59E81B4300B783EA71E47185A51F3D 0xAC 0xED 0xBC ADDRESS 0x4D SWAP3 PUSH5 0x736F6C6343 STOP ADDMOD SMOD STOP CALLER "
				},
				"gasEstimates": {
					"creation": {
						"codeDepositCost": "1175400",
						"executionCost": "6203",
						"totalCost": "1181603"
					},
					"external": {
						"createRoom(uint8)": "infinite",
						"joinRoom(uint256,uint8)": "infinite",
						"payout(uint256)": "infinite"
					},
					"internal": {
						"compareHands(uint256)": "infinite"
					}
				},
				"methodIdentifiers": {
					"createRoom(uint8)": "0f36f3b5",
					"joinRoom(uint256,uint8)": "79b15776",
					"payout(uint256)": "e1152343"
				}
			},
			"userdoc": {
				"kind": "user",
				"methods": {},
				"version": 1
			}
		}
	}
}