{
	"3_SampleToken_owner.sol": {
		"SimpleToken": {
			"abi": [
				{
					"inputs": [
						{
							"internalType": "string",
							"name": "getName",
							"type": "string"
						},
						{
							"internalType": "string",
							"name": "getSymbol",
							"type": "string"
						}
					],
					"stateMutability": "nonpayable",
					"type": "constructor"
				},
				{
					"anonymous": false,
					"inputs": [
						{
							"indexed": true,
							"internalType": "address",
							"name": "owner",
							"type": "address"
						},
						{
							"indexed": true,
							"internalType": "address",
							"name": "spender",
							"type": "address"
						},
						{
							"indexed": false,
							"internalType": "uint256",
							"name": "oldAmount",
							"type": "uint256"
						},
						{
							"indexed": false,
							"internalType": "uint256",
							"name": "amount",
							"type": "uint256"
						}
					],
					"name": "Approval",
					"type": "event"
				},
				{
					"anonymous": false,
					"inputs": [
						{
							"indexed": true,
							"internalType": "address",
							"name": "preOwner",
							"type": "address"
						},
						{
							"indexed": true,
							"internalType": "address",
							"name": "nextOwner",
							"type": "address"
						}
					],
					"name": "OwnershipTransferred",
					"type": "event"
				},
				{
					"anonymous": false,
					"inputs": [
						{
							"indexed": true,
							"internalType": "address",
							"name": "from",
							"type": "address"
						},
						{
							"indexed": true,
							"internalType": "address",
							"name": "to",
							"type": "address"
						},
						{
							"indexed": false,
							"internalType": "uint256",
							"name": "amount",
							"type": "uint256"
						}
					],
					"name": "Transfer",
					"type": "event"
				},
				{
					"anonymous": false,
					"inputs": [
						{
							"indexed": true,
							"internalType": "address",
							"name": "spender",
							"type": "address"
						},
						{
							"indexed": true,
							"internalType": "address",
							"name": "from",
							"type": "address"
						},
						{
							"indexed": true,
							"internalType": "address",
							"name": "to",
							"type": "address"
						},
						{
							"indexed": false,
							"internalType": "uint256",
							"name": "amount",
							"type": "uint256"
						}
					],
					"name": "Transfer",
					"type": "event"
				},
				{
					"inputs": [
						{
							"internalType": "address",
							"name": "",
							"type": "address"
						},
						{
							"internalType": "address",
							"name": "",
							"type": "address"
						}
					],
					"name": "_allowances",
					"outputs": [
						{
							"internalType": "uint256",
							"name": "",
							"type": "uint256"
						}
					],
					"stateMutability": "view",
					"type": "function"
				},
				{
					"inputs": [],
					"name": "_decimals",
					"outputs": [
						{
							"internalType": "uint8",
							"name": "",
							"type": "uint8"
						}
					],
					"stateMutability": "view",
					"type": "function"
				},
				{
					"inputs": [],
					"name": "_name",
					"outputs": [
						{
							"internalType": "string",
							"name": "",
							"type": "string"
						}
					],
					"stateMutability": "view",
					"type": "function"
				},
				{
					"inputs": [],
					"name": "_symbol",
					"outputs": [
						{
							"internalType": "string",
							"name": "",
							"type": "string"
						}
					],
					"stateMutability": "view",
					"type": "function"
				},
				{
					"inputs": [],
					"name": "_totalSupply",
					"outputs": [
						{
							"internalType": "uint256",
							"name": "",
							"type": "uint256"
						}
					],
					"stateMutability": "view",
					"type": "function"
				},
				{
					"inputs": [
						{
							"internalType": "address",
							"name": "owner",
							"type": "address"
						},
						{
							"internalType": "address",
							"name": "spender",
							"type": "address"
						}
					],
					"name": "allowance",
					"outputs": [
						{
							"internalType": "uint256",
							"name": "",
							"type": "uint256"
						}
					],
					"stateMutability": "view",
					"type": "function"
				},
				{
					"inputs": [
						{
							"internalType": "address",
							"name": "spender",
							"type": "address"
						},
						{
							"internalType": "uint256",
							"name": "amount",
							"type": "uint256"
						}
					],
					"name": "approve",
					"outputs": [
						{
							"internalType": "bool",
							"name": "",
							"type": "bool"
						}
					],
					"stateMutability": "nonpayable",
					"type": "function"
				},
				{
					"inputs": [
						{
							"internalType": "address",
							"name": "account",
							"type": "address"
						}
					],
					"name": "balanceOf",
					"outputs": [
						{
							"internalType": "uint256",
							"name": "",
							"type": "uint256"
						}
					],
					"stateMutability": "view",
					"type": "function"
				},
				{
					"inputs": [],
					"name": "decimals",
					"outputs": [
						{
							"internalType": "uint8",
							"name": "",
							"type": "uint8"
						}
					],
					"stateMutability": "view",
					"type": "function"
				},
				{
					"inputs": [],
					"name": "name",
					"outputs": [
						{
							"internalType": "string",
							"name": "",
							"type": "string"
						}
					],
					"stateMutability": "view",
					"type": "function"
				},
				{
					"inputs": [],
					"name": "owner",
					"outputs": [
						{
							"internalType": "address",
							"name": "",
							"type": "address"
						}
					],
					"stateMutability": "view",
					"type": "function"
				},
				{
					"inputs": [],
					"name": "symbol",
					"outputs": [
						{
							"internalType": "string",
							"name": "",
							"type": "string"
						}
					],
					"stateMutability": "view",
					"type": "function"
				},
				{
					"inputs": [],
					"name": "totalSupply",
					"outputs": [
						{
							"internalType": "uint256",
							"name": "",
							"type": "uint256"
						}
					],
					"stateMutability": "view",
					"type": "function"
				},
				{
					"inputs": [
						{
							"internalType": "address",
							"name": "recipient",
							"type": "address"
						},
						{
							"internalType": "uint256",
							"name": "amount",
							"type": "uint256"
						}
					],
					"name": "transfer",
					"outputs": [
						{
							"internalType": "bool",
							"name": "",
							"type": "bool"
						}
					],
					"stateMutability": "nonpayable",
					"type": "function"
				},
				{
					"inputs": [
						{
							"internalType": "address",
							"name": "sender",
							"type": "address"
						},
						{
							"internalType": "address",
							"name": "recipient",
							"type": "address"
						},
						{
							"internalType": "uint256",
							"name": "amount",
							"type": "uint256"
						}
					],
					"name": "transferFrom",
					"outputs": [
						{
							"internalType": "bool",
							"name": "",
							"type": "bool"
						}
					],
					"stateMutability": "nonpayable",
					"type": "function"
				},
				{
					"inputs": [
						{
							"internalType": "address",
							"name": "newOwner",
							"type": "address"
						}
					],
					"name": "transferOwnership",
					"outputs": [],
					"stateMutability": "nonpayable",
					"type": "function"
				}
			],
			"devdoc": {
				"kind": "dev",
				"methods": {},
				"version": 1
			},
			"evm": {
				"assembly": "    /* \"3_SampleToken_owner.sol\":2075:5410  contract SimpleToken is ERC20Interface, OwnerHelper {... */\n  mstore(0x40, 0x80)\n    /* \"3_SampleToken_owner.sol\":2411:2639  constructor(string memory getName, string memory getSymbol) {... */\n  callvalue\n  dup1\n  iszero\n  tag_1\n  jumpi\n  0x00\n  dup1\n  revert\ntag_1:\n  pop\n  mload(0x40)\n  sub(codesize, bytecodeSize)\n  dup1\n  bytecodeSize\n  dup4\n  codecopy\n  dup2\n  dup2\n  add\n  0x40\n  mstore\n  dup2\n  add\n  swap1\n  tag_2\n  swap2\n  swap1\n  tag_3\n  jump\t// in\ntag_2:\n    /* \"3_SampleToken_owner.sol\":1671:1681  msg.sender */\n  caller\n    /* \"3_SampleToken_owner.sol\":1662:1668  _owner */\n  0x00\n  dup1\n    /* \"3_SampleToken_owner.sol\":1662:1681  _owner = msg.sender */\n  0x0100\n  exp\n  dup2\n  sload\n  dup2\n  0xffffffffffffffffffffffffffffffffffffffff\n  mul\n  not\n  and\n  swap1\n  dup4\n  0xffffffffffffffffffffffffffffffffffffffff\n  and\n  mul\n  or\n  swap1\n  sstore\n  pop\n    /* \"3_SampleToken_owner.sol\":2489:2496  getName */\n  dup2\n    /* \"3_SampleToken_owner.sol\":2481:2486  _name */\n  0x04\n    /* \"3_SampleToken_owner.sol\":2481:2496  _name = getName */\n  swap1\n  dup1\n  mload\n  swap1\n  0x20\n  add\n  swap1\n  tag_8\n  swap3\n  swap2\n  swap1\n  tag_9\n  jump\t// in\ntag_8:\n  pop\n    /* \"3_SampleToken_owner.sol\":2516:2525  getSymbol */\n  dup1\n    /* \"3_SampleToken_owner.sol\":2506:2513  _symbol */\n  0x05\n    /* \"3_SampleToken_owner.sol\":2506:2525  _symbol = getSymbol */\n  swap1\n  dup1\n  mload\n  swap1\n  0x20\n  add\n  swap1\n  tag_10\n  swap3\n  swap2\n  swap1\n  tag_9\n  jump\t// in\ntag_10:\n  pop\n    /* \"3_SampleToken_owner.sol\":2547:2549  18 */\n  0x12\n    /* \"3_SampleToken_owner.sol\":2535:2544  _decimals */\n  0x06\n  0x00\n    /* \"3_SampleToken_owner.sol\":2535:2549  _decimals = 18 */\n  0x0100\n  exp\n  dup2\n  sload\n  dup2\n  0xff\n  mul\n  not\n  and\n  swap1\n  dup4\n  0xff\n  and\n  mul\n  or\n  swap1\n  sstore\n  pop\n    /* \"3_SampleToken_owner.sol\":2574:2586  100000000e18 */\n  0x52b7d2dcc80cd2e4000000\n    /* \"3_SampleToken_owner.sol\":2559:2571  _totalSupply */\n  0x03\n    /* \"3_SampleToken_owner.sol\":2559:2586  _totalSupply = 100000000e18 */\n  dup2\n  swap1\n  sstore\n  pop\n    /* \"3_SampleToken_owner.sol\":2620:2632  _totalSupply */\n  sload(0x03)\n    /* \"3_SampleToken_owner.sol\":2596:2605  _balances */\n  0x01\n    /* \"3_SampleToken_owner.sol\":2596:2617  _balances[msg.sender] */\n  0x00\n    /* \"3_SampleToken_owner.sol\":2606:2616  msg.sender */\n  caller\n    /* \"3_SampleToken_owner.sol\":2596:2617  _balances[msg.sender] */\n  0xffffffffffffffffffffffffffffffffffffffff\n  and\n  0xffffffffffffffffffffffffffffffffffffffff\n  and\n  dup2\n  mstore\n  0x20\n  add\n  swap1\n  dup2\n  mstore\n  0x20\n  add\n  0x00\n  keccak256\n    /* \"3_SampleToken_owner.sol\":2596:2632  _balances[msg.sender] = _totalSupply */\n  dup2\n  swap1\n  sstore\n  pop\n    /* \"3_SampleToken_owner.sol\":2411:2639  constructor(string memory getName, string memory getSymbol) {... */\n  pop\n  pop\n    /* \"3_SampleToken_owner.sol\":2075:5410  contract SimpleToken is ERC20Interface, OwnerHelper {... */\n  jump(tag_11)\ntag_9:\n  dup3\n  dup1\n  sload\n  tag_12\n  swap1\n  tag_13\n  jump\t// in\ntag_12:\n  swap1\n  0x00\n  mstore\n  keccak256(0x00, 0x20)\n  swap1\n  0x1f\n  add\n  0x20\n  swap1\n  div\n  dup2\n  add\n  swap3\n  dup3\n  tag_15\n  jumpi\n  0x00\n  dup6\n  sstore\n  jump(tag_14)\ntag_15:\n  dup3\n  0x1f\n  lt\n  tag_16\n  jumpi\n  dup1\n  mload\n  not(0xff)\n  and\n  dup4\n  dup1\n  add\n  or\n  dup6\n  sstore\n  jump(tag_14)\ntag_16:\n  dup3\n  dup1\n  add\n  0x01\n  add\n  dup6\n  sstore\n  dup3\n  iszero\n  tag_14\n  jumpi\n  swap2\n  dup3\n  add\ntag_17:\n  dup3\n  dup2\n  gt\n  iszero\n  tag_18\n  jumpi\n  dup3\n  mload\n  dup3\n  sstore\n  swap2\n  0x20\n  add\n  swap2\n  swap1\n  0x01\n  add\n  swap1\n  jump(tag_17)\ntag_18:\ntag_14:\n  pop\n  swap1\n  pop\n  tag_19\n  swap2\n  swap1\n  tag_20\n  jump\t// in\ntag_19:\n  pop\n  swap1\n  jump\t// out\ntag_20:\ntag_21:\n  dup1\n  dup3\n  gt\n  iszero\n  tag_22\n  jumpi\n  0x00\n  dup2\n  0x00\n  swap1\n  sstore\n  pop\n  0x01\n  add\n  jump(tag_21)\ntag_22:\n  pop\n  swap1\n  jump\t// out\n    /* \"#utility.yul\":7:82   */\ntag_23:\n    /* \"#utility.yul\":40:46   */\n  0x00\n    /* \"#utility.yul\":73:75   */\n  0x40\n    /* \"#utility.yul\":67:76   */\n  mload\n    /* \"#utility.yul\":57:76   */\n  swap1\n  pop\n    /* \"#utility.yul\":7:82   */\n  swap1\n  jump\t// out\n    /* \"#utility.yul\":88:205   */\ntag_24:\n    /* \"#utility.yul\":197:198   */\n  0x00\n    /* \"#utility.yul\":194:195   */\n  dup1\n    /* \"#utility.yul\":187:199   */\n  revert\n    /* \"#utility.yul\":211:328   */\ntag_25:\n    /* \"#utility.yul\":320:321   */\n  0x00\n    /* \"#utility.yul\":317:318   */\n  dup1\n    /* \"#utility.yul\":310:322   */\n  revert\n    /* \"#utility.yul\":334:451   */\ntag_26:\n    /* \"#utility.yul\":443:444   */\n  0x00\n    /* \"#utility.yul\":440:441   */\n  dup1\n    /* \"#utility.yul\":433:445   */\n  revert\n    /* \"#utility.yul\":457:574   */\ntag_27:\n    /* \"#utility.yul\":566:567   */\n  0x00\n    /* \"#utility.yul\":563:564   */\n  dup1\n    /* \"#utility.yul\":556:568   */\n  revert\n    /* \"#utility.yul\":580:682   */\ntag_28:\n    /* \"#utility.yul\":621:627   */\n  0x00\n    /* \"#utility.yul\":672:674   */\n  0x1f\n    /* \"#utility.yul\":668:675   */\n  not\n    /* \"#utility.yul\":663:665   */\n  0x1f\n    /* \"#utility.yul\":656:661   */\n  dup4\n    /* \"#utility.yul\":652:666   */\n  add\n    /* \"#utility.yul\":648:676   */\n  and\n    /* \"#utility.yul\":638:676   */\n  swap1\n  pop\n    /* \"#utility.yul\":580:682   */\n  swap2\n  swap1\n  pop\n  jump\t// out\n    /* \"#utility.yul\":688:868   */\ntag_29:\n    /* \"#utility.yul\":736:813   */\n  0x4e487b7100000000000000000000000000000000000000000000000000000000\n    /* \"#utility.yul\":733:734   */\n  0x00\n    /* \"#utility.yul\":726:814   */\n  mstore\n    /* \"#utility.yul\":833:837   */\n  0x41\n    /* \"#utility.yul\":830:831   */\n  0x04\n    /* \"#utility.yul\":823:838   */\n  mstore\n    /* \"#utility.yul\":857:861   */\n  0x24\n    /* \"#utility.yul\":854:855   */\n  0x00\n    /* \"#utility.yul\":847:862   */\n  revert\n    /* \"#utility.yul\":874:1155   */\ntag_30:\n    /* \"#utility.yul\":957:984   */\n  tag_46\n    /* \"#utility.yul\":979:983   */\n  dup3\n    /* \"#utility.yul\":957:984   */\n  tag_28\n  jump\t// in\ntag_46:\n    /* \"#utility.yul\":949:955   */\n  dup2\n    /* \"#utility.yul\":945:985   */\n  add\n    /* \"#utility.yul\":1087:1093   */\n  dup2\n    /* \"#utility.yul\":1075:1085   */\n  dup2\n    /* \"#utility.yul\":1072:1094   */\n  lt\n    /* \"#utility.yul\":1051:1069   */\n  0xffffffffffffffff\n    /* \"#utility.yul\":1039:1049   */\n  dup3\n    /* \"#utility.yul\":1036:1070   */\n  gt\n    /* \"#utility.yul\":1033:1095   */\n  or\n    /* \"#utility.yul\":1030:1118   */\n  iszero\n  tag_47\n  jumpi\n    /* \"#utility.yul\":1098:1116   */\n  tag_48\n  tag_29\n  jump\t// in\ntag_48:\n    /* \"#utility.yul\":1030:1118   */\ntag_47:\n    /* \"#utility.yul\":1138:1148   */\n  dup1\n    /* \"#utility.yul\":1134:1136   */\n  0x40\n    /* \"#utility.yul\":1127:1149   */\n  mstore\n    /* \"#utility.yul\":917:1155   */\n  pop\n    /* \"#utility.yul\":874:1155   */\n  pop\n  pop\n  jump\t// out\n    /* \"#utility.yul\":1161:1290   */\ntag_31:\n    /* \"#utility.yul\":1195:1201   */\n  0x00\n    /* \"#utility.yul\":1222:1242   */\n  tag_50\n  tag_23\n  jump\t// in\ntag_50:\n    /* \"#utility.yul\":1212:1242   */\n  swap1\n  pop\n    /* \"#utility.yul\":1251:1284   */\n  tag_51\n    /* \"#utility.yul\":1279:1283   */\n  dup3\n    /* \"#utility.yul\":1271:1277   */\n  dup3\n    /* \"#utility.yul\":1251:1284   */\n  tag_30\n  jump\t// in\ntag_51:\n    /* \"#utility.yul\":1161:1290   */\n  swap2\n  swap1\n  pop\n  jump\t// out\n    /* \"#utility.yul\":1296:1604   */\ntag_32:\n    /* \"#utility.yul\":1358:1362   */\n  0x00\n    /* \"#utility.yul\":1448:1466   */\n  0xffffffffffffffff\n    /* \"#utility.yul\":1440:1446   */\n  dup3\n    /* \"#utility.yul\":1437:1467   */\n  gt\n    /* \"#utility.yul\":1434:1490   */\n  iszero\n  tag_53\n  jumpi\n    /* \"#utility.yul\":1470:1488   */\n  tag_54\n  tag_29\n  jump\t// in\ntag_54:\n    /* \"#utility.yul\":1434:1490   */\ntag_53:\n    /* \"#utility.yul\":1508:1537   */\n  tag_55\n    /* \"#utility.yul\":1530:1536   */\n  dup3\n    /* \"#utility.yul\":1508:1537   */\n  tag_28\n  jump\t// in\ntag_55:\n    /* \"#utility.yul\":1500:1537   */\n  swap1\n  pop\n    /* \"#utility.yul\":1592:1596   */\n  0x20\n    /* \"#utility.yul\":1586:1590   */\n  dup2\n    /* \"#utility.yul\":1582:1597   */\n  add\n    /* \"#utility.yul\":1574:1597   */\n  swap1\n  pop\n    /* \"#utility.yul\":1296:1604   */\n  swap2\n  swap1\n  pop\n  jump\t// out\n    /* \"#utility.yul\":1610:1917   */\ntag_33:\n    /* \"#utility.yul\":1678:1679   */\n  0x00\n    /* \"#utility.yul\":1688:1801   */\ntag_57:\n    /* \"#utility.yul\":1702:1708   */\n  dup4\n    /* \"#utility.yul\":1699:1700   */\n  dup2\n    /* \"#utility.yul\":1696:1709   */\n  lt\n    /* \"#utility.yul\":1688:1801   */\n  iszero\n  tag_59\n  jumpi\n    /* \"#utility.yul\":1787:1788   */\n  dup1\n    /* \"#utility.yul\":1782:1785   */\n  dup3\n    /* \"#utility.yul\":1778:1789   */\n  add\n    /* \"#utility.yul\":1772:1790   */\n  mload\n    /* \"#utility.yul\":1768:1769   */\n  dup2\n    /* \"#utility.yul\":1763:1766   */\n  dup5\n    /* \"#utility.yul\":1759:1770   */\n  add\n    /* \"#utility.yul\":1752:1791   */\n  mstore\n    /* \"#utility.yul\":1724:1726   */\n  0x20\n    /* \"#utility.yul\":1721:1722   */\n  dup2\n    /* \"#utility.yul\":1717:1727   */\n  add\n    /* \"#utility.yul\":1712:1727   */\n  swap1\n  pop\n    /* \"#utility.yul\":1688:1801   */\n  jump(tag_57)\ntag_59:\n    /* \"#utility.yul\":1819:1825   */\n  dup4\n    /* \"#utility.yul\":1816:1817   */\n  dup2\n    /* \"#utility.yul\":1813:1826   */\n  gt\n    /* \"#utility.yul\":1810:1911   */\n  iszero\n  tag_60\n  jumpi\n    /* \"#utility.yul\":1899:1900   */\n  0x00\n    /* \"#utility.yul\":1890:1896   */\n  dup5\n    /* \"#utility.yul\":1885:1888   */\n  dup5\n    /* \"#utility.yul\":1881:1897   */\n  add\n    /* \"#utility.yul\":1874:1901   */\n  mstore\n    /* \"#utility.yul\":1810:1911   */\ntag_60:\n    /* \"#utility.yul\":1659:1917   */\n  pop\n    /* \"#utility.yul\":1610:1917   */\n  pop\n  pop\n  pop\n  jump\t// out\n    /* \"#utility.yul\":1923:2344   */\ntag_34:\n    /* \"#utility.yul\":2012:2017   */\n  0x00\n    /* \"#utility.yul\":2037:2103   */\n  tag_62\n    /* \"#utility.yul\":2053:2102   */\n  tag_63\n    /* \"#utility.yul\":2095:2101   */\n  dup5\n    /* \"#utility.yul\":2053:2102   */\n  tag_32\n  jump\t// in\ntag_63:\n    /* \"#utility.yul\":2037:2103   */\n  tag_31\n  jump\t// in\ntag_62:\n    /* \"#utility.yul\":2028:2103   */\n  swap1\n  pop\n    /* \"#utility.yul\":2126:2132   */\n  dup3\n    /* \"#utility.yul\":2119:2124   */\n  dup2\n    /* \"#utility.yul\":2112:2133   */\n  mstore\n    /* \"#utility.yul\":2164:2168   */\n  0x20\n    /* \"#utility.yul\":2157:2162   */\n  dup2\n    /* \"#utility.yul\":2153:2169   */\n  add\n    /* \"#utility.yul\":2202:2205   */\n  dup5\n    /* \"#utility.yul\":2193:2199   */\n  dup5\n    /* \"#utility.yul\":2188:2191   */\n  dup5\n    /* \"#utility.yul\":2184:2200   */\n  add\n    /* \"#utility.yul\":2181:2206   */\n  gt\n    /* \"#utility.yul\":2178:2290   */\n  iszero\n  tag_64\n  jumpi\n    /* \"#utility.yul\":2209:2288   */\n  tag_65\n  tag_27\n  jump\t// in\ntag_65:\n    /* \"#utility.yul\":2178:2290   */\ntag_64:\n    /* \"#utility.yul\":2299:2338   */\n  tag_66\n    /* \"#utility.yul\":2331:2337   */\n  dup5\n    /* \"#utility.yul\":2326:2329   */\n  dup3\n    /* \"#utility.yul\":2321:2324   */\n  dup6\n    /* \"#utility.yul\":2299:2338   */\n  tag_33\n  jump\t// in\ntag_66:\n    /* \"#utility.yul\":2018:2344   */\n  pop\n    /* \"#utility.yul\":1923:2344   */\n  swap4\n  swap3\n  pop\n  pop\n  pop\n  jump\t// out\n    /* \"#utility.yul\":2364:2719   */\ntag_35:\n    /* \"#utility.yul\":2431:2436   */\n  0x00\n    /* \"#utility.yul\":2480:2483   */\n  dup3\n    /* \"#utility.yul\":2473:2477   */\n  0x1f\n    /* \"#utility.yul\":2465:2471   */\n  dup4\n    /* \"#utility.yul\":2461:2478   */\n  add\n    /* \"#utility.yul\":2457:2484   */\n  slt\n    /* \"#utility.yul\":2447:2569   */\n  tag_68\n  jumpi\n    /* \"#utility.yul\":2488:2567   */\n  tag_69\n  tag_26\n  jump\t// in\ntag_69:\n    /* \"#utility.yul\":2447:2569   */\ntag_68:\n    /* \"#utility.yul\":2598:2604   */\n  dup2\n    /* \"#utility.yul\":2592:2605   */\n  mload\n    /* \"#utility.yul\":2623:2713   */\n  tag_70\n    /* \"#utility.yul\":2709:2712   */\n  dup5\n    /* \"#utility.yul\":2701:2707   */\n  dup3\n    /* \"#utility.yul\":2694:2698   */\n  0x20\n    /* \"#utility.yul\":2686:2692   */\n  dup7\n    /* \"#utility.yul\":2682:2699   */\n  add\n    /* \"#utility.yul\":2623:2713   */\n  tag_34\n  jump\t// in\ntag_70:\n    /* \"#utility.yul\":2614:2713   */\n  swap2\n  pop\n    /* \"#utility.yul\":2437:2719   */\n  pop\n    /* \"#utility.yul\":2364:2719   */\n  swap3\n  swap2\n  pop\n  pop\n  jump\t// out\n    /* \"#utility.yul\":2725:3578   */\ntag_3:\n    /* \"#utility.yul\":2824:2830   */\n  0x00\n    /* \"#utility.yul\":2832:2838   */\n  dup1\n    /* \"#utility.yul\":2881:2883   */\n  0x40\n    /* \"#utility.yul\":2869:2878   */\n  dup4\n    /* \"#utility.yul\":2860:2867   */\n  dup6\n    /* \"#utility.yul\":2856:2879   */\n  sub\n    /* \"#utility.yul\":2852:2884   */\n  slt\n    /* \"#utility.yul\":2849:2968   */\n  iszero\n  tag_72\n  jumpi\n    /* \"#utility.yul\":2887:2966   */\n  tag_73\n  tag_24\n  jump\t// in\ntag_73:\n    /* \"#utility.yul\":2849:2968   */\ntag_72:\n    /* \"#utility.yul\":3028:3029   */\n  0x00\n    /* \"#utility.yul\":3017:3026   */\n  dup4\n    /* \"#utility.yul\":3013:3030   */\n  add\n    /* \"#utility.yul\":3007:3031   */\n  mload\n    /* \"#utility.yul\":3058:3076   */\n  0xffffffffffffffff\n    /* \"#utility.yul\":3050:3056   */\n  dup2\n    /* \"#utility.yul\":3047:3077   */\n  gt\n    /* \"#utility.yul\":3044:3161   */\n  iszero\n  tag_74\n  jumpi\n    /* \"#utility.yul\":3080:3159   */\n  tag_75\n  tag_25\n  jump\t// in\ntag_75:\n    /* \"#utility.yul\":3044:3161   */\ntag_74:\n    /* \"#utility.yul\":3185:3259   */\n  tag_76\n    /* \"#utility.yul\":3251:3258   */\n  dup6\n    /* \"#utility.yul\":3242:3248   */\n  dup3\n    /* \"#utility.yul\":3231:3240   */\n  dup7\n    /* \"#utility.yul\":3227:3249   */\n  add\n    /* \"#utility.yul\":3185:3259   */\n  tag_35\n  jump\t// in\ntag_76:\n    /* \"#utility.yul\":3175:3259   */\n  swap3\n  pop\n    /* \"#utility.yul\":2978:3269   */\n  pop\n    /* \"#utility.yul\":3329:3331   */\n  0x20\n    /* \"#utility.yul\":3318:3327   */\n  dup4\n    /* \"#utility.yul\":3314:3332   */\n  add\n    /* \"#utility.yul\":3308:3333   */\n  mload\n    /* \"#utility.yul\":3360:3378   */\n  0xffffffffffffffff\n    /* \"#utility.yul\":3352:3358   */\n  dup2\n    /* \"#utility.yul\":3349:3379   */\n  gt\n    /* \"#utility.yul\":3346:3463   */\n  iszero\n  tag_77\n  jumpi\n    /* \"#utility.yul\":3382:3461   */\n  tag_78\n  tag_25\n  jump\t// in\ntag_78:\n    /* \"#utility.yul\":3346:3463   */\ntag_77:\n    /* \"#utility.yul\":3487:3561   */\n  tag_79\n    /* \"#utility.yul\":3553:3560   */\n  dup6\n    /* \"#utility.yul\":3544:3550   */\n  dup3\n    /* \"#utility.yul\":3533:3542   */\n  dup7\n    /* \"#utility.yul\":3529:3551   */\n  add\n    /* \"#utility.yul\":3487:3561   */\n  tag_35\n  jump\t// in\ntag_79:\n    /* \"#utility.yul\":3477:3561   */\n  swap2\n  pop\n    /* \"#utility.yul\":3279:3571   */\n  pop\n    /* \"#utility.yul\":2725:3578   */\n  swap3\n  pop\n  swap3\n  swap1\n  pop\n  jump\t// out\n    /* \"#utility.yul\":3584:3764   */\ntag_36:\n    /* \"#utility.yul\":3632:3709   */\n  0x4e487b7100000000000000000000000000000000000000000000000000000000\n    /* \"#utility.yul\":3629:3630   */\n  0x00\n    /* \"#utility.yul\":3622:3710   */\n  mstore\n    /* \"#utility.yul\":3729:3733   */\n  0x22\n    /* \"#utility.yul\":3726:3727   */\n  0x04\n    /* \"#utility.yul\":3719:3734   */\n  mstore\n    /* \"#utility.yul\":3753:3757   */\n  0x24\n    /* \"#utility.yul\":3750:3751   */\n  0x00\n    /* \"#utility.yul\":3743:3758   */\n  revert\n    /* \"#utility.yul\":3770:4090   */\ntag_13:\n    /* \"#utility.yul\":3814:3820   */\n  0x00\n    /* \"#utility.yul\":3851:3852   */\n  0x02\n    /* \"#utility.yul\":3845:3849   */\n  dup3\n    /* \"#utility.yul\":3841:3853   */\n  div\n    /* \"#utility.yul\":3831:3853   */\n  swap1\n  pop\n    /* \"#utility.yul\":3898:3899   */\n  0x01\n    /* \"#utility.yul\":3892:3896   */\n  dup3\n    /* \"#utility.yul\":3888:3900   */\n  and\n    /* \"#utility.yul\":3919:3937   */\n  dup1\n    /* \"#utility.yul\":3909:3990   */\n  tag_82\n  jumpi\n    /* \"#utility.yul\":3975:3979   */\n  0x7f\n    /* \"#utility.yul\":3967:3973   */\n  dup3\n    /* \"#utility.yul\":3963:3980   */\n  and\n    /* \"#utility.yul\":3953:3980   */\n  swap2\n  pop\n    /* \"#utility.yul\":3909:3990   */\ntag_82:\n    /* \"#utility.yul\":4037:4039   */\n  0x20\n    /* \"#utility.yul\":4029:4035   */\n  dup3\n    /* \"#utility.yul\":4026:4040   */\n  lt\n    /* \"#utility.yul\":4006:4024   */\n  dup2\n    /* \"#utility.yul\":4003:4041   */\n  eq\n    /* \"#utility.yul\":4000:4084   */\n  iszero\n  tag_83\n  jumpi\n    /* \"#utility.yul\":4056:4074   */\n  tag_84\n  tag_36\n  jump\t// in\ntag_84:\n    /* \"#utility.yul\":4000:4084   */\ntag_83:\n    /* \"#utility.yul\":3821:4090   */\n  pop\n    /* \"#utility.yul\":3770:4090   */\n  swap2\n  swap1\n  pop\n  jump\t// out\n    /* \"3_SampleToken_owner.sol\":2075:5410  contract SimpleToken is ERC20Interface, OwnerHelper {... */\ntag_11:\n  dataSize(sub_0)\n  dup1\n  dataOffset(sub_0)\n  0x00\n  codecopy\n  0x00\n  return\nstop\n\nsub_0: assembly {\n        /* \"3_SampleToken_owner.sol\":2075:5410  contract SimpleToken is ERC20Interface, OwnerHelper {... */\n      mstore(0x40, 0x80)\n      callvalue\n      dup1\n      iszero\n      tag_1\n      jumpi\n      0x00\n      dup1\n      revert\n    tag_1:\n      pop\n      jumpi(tag_2, lt(calldatasize, 0x04))\n      shr(0xe0, calldataload(0x00))\n      dup1\n      0x70a08231\n      gt\n      tag_19\n      jumpi\n      dup1\n      0xb09f1266\n      gt\n      tag_20\n      jumpi\n      dup1\n      0xb09f1266\n      eq\n      tag_15\n      jumpi\n      dup1\n      0xd28d8852\n      eq\n      tag_16\n      jumpi\n      dup1\n      0xdd62ed3e\n      eq\n      tag_17\n      jumpi\n      dup1\n      0xf2fde38b\n      eq\n      tag_18\n      jumpi\n      jump(tag_2)\n    tag_20:\n      dup1\n      0x70a08231\n      eq\n      tag_11\n      jumpi\n      dup1\n      0x8da5cb5b\n      eq\n      tag_12\n      jumpi\n      dup1\n      0x95d89b41\n      eq\n      tag_13\n      jumpi\n      dup1\n      0xa9059cbb\n      eq\n      tag_14\n      jumpi\n      jump(tag_2)\n    tag_19:\n      dup1\n      0x23b872dd\n      gt\n      tag_21\n      jumpi\n      dup1\n      0x23b872dd\n      eq\n      tag_7\n      jumpi\n      dup1\n      0x313ce567\n      eq\n      tag_8\n      jumpi\n      dup1\n      0x32424aa3\n      eq\n      tag_9\n      jumpi\n      dup1\n      0x3eaaf86b\n      eq\n      tag_10\n      jumpi\n      jump(tag_2)\n    tag_21:\n      dup1\n      0x024c2ddd\n      eq\n      tag_3\n      jumpi\n      dup1\n      0x06fdde03\n      eq\n      tag_4\n      jumpi\n      dup1\n      0x095ea7b3\n      eq\n      tag_5\n      jumpi\n      dup1\n      0x18160ddd\n      eq\n      tag_6\n      jumpi\n    tag_2:\n      0x00\n      dup1\n      revert\n        /* \"3_SampleToken_owner.sol\":2218:2286  mapping (address => mapping (address => uint256)) public _allowances */\n    tag_3:\n      tag_22\n      0x04\n      dup1\n      calldatasize\n      sub\n      dup2\n      add\n      swap1\n      tag_23\n      swap2\n      swap1\n      tag_24\n      jump\t// in\n    tag_23:\n      tag_25\n      jump\t// in\n    tag_22:\n      mload(0x40)\n      tag_26\n      swap2\n      swap1\n      tag_27\n      jump\t// in\n    tag_26:\n      mload(0x40)\n      dup1\n      swap2\n      sub\n      swap1\n      return\n        /* \"3_SampleToken_owner.sol\":2649:2730  function name() public view returns (string memory) {... */\n    tag_4:\n      tag_28\n      tag_29\n      jump\t// in\n    tag_28:\n      mload(0x40)\n      tag_30\n      swap2\n      swap1\n      tag_31\n      jump\t// in\n    tag_30:\n      mload(0x40)\n      dup1\n      swap2\n      sub\n      swap1\n      return\n        /* \"3_SampleToken_owner.sol\":3565:3904  function approve(address spender, uint amount) external virtual override returns (bool) {... */\n    tag_5:\n      tag_32\n      0x04\n      dup1\n      calldatasize\n      sub\n      dup2\n      add\n      swap1\n      tag_33\n      swap2\n      swap1\n      tag_34\n      jump\t// in\n    tag_33:\n      tag_35\n      jump\t// in\n    tag_32:\n      mload(0x40)\n      tag_36\n      swap2\n      swap1\n      tag_37\n      jump\t// in\n    tag_36:\n      mload(0x40)\n      dup1\n      swap2\n      sub\n      swap1\n      return\n        /* \"3_SampleToken_owner.sol\":2926:3034  function totalSupply() external view virtual override returns (uint256) {... */\n    tag_6:\n      tag_38\n      tag_39\n      jump\t// in\n    tag_38:\n      mload(0x40)\n      tag_40\n      swap2\n      swap1\n      tag_27\n      jump\t// in\n    tag_40:\n      mload(0x40)\n      dup1\n      swap2\n      sub\n      swap1\n      return\n        /* \"3_SampleToken_owner.sol\":3914:4407  function transferFrom(address sender, address recipient, uint256 amount) external virtual override returns (bool) {... */\n    tag_7:\n      tag_41\n      0x04\n      dup1\n      calldatasize\n      sub\n      dup2\n      add\n      swap1\n      tag_42\n      swap2\n      swap1\n      tag_43\n      jump\t// in\n    tag_42:\n      tag_44\n      jump\t// in\n    tag_41:\n      mload(0x40)\n      tag_45\n      swap2\n      swap1\n      tag_37\n      jump\t// in\n    tag_45:\n      mload(0x40)\n      dup1\n      swap2\n      sub\n      swap1\n      return\n        /* \"3_SampleToken_owner.sol\":2835:2916  function decimals() public view returns (uint8) {... */\n    tag_8:\n      tag_46\n      tag_47\n      jump\t// in\n    tag_46:\n      mload(0x40)\n      tag_48\n      swap2\n      swap1\n      tag_49\n      jump\t// in\n    tag_48:\n      mload(0x40)\n      dup1\n      swap2\n      sub\n      swap1\n      return\n        /* \"3_SampleToken_owner.sol\":2378:2400  uint8 public _decimals */\n    tag_9:\n      tag_50\n      tag_51\n      jump\t// in\n    tag_50:\n      mload(0x40)\n      tag_52\n      swap2\n      swap1\n      tag_49\n      jump\t// in\n    tag_52:\n      mload(0x40)\n      dup1\n      swap2\n      sub\n      swap1\n      return\n        /* \"3_SampleToken_owner.sol\":2293:2320  uint256 public _totalSupply */\n    tag_10:\n      tag_53\n      tag_54\n      jump\t// in\n    tag_53:\n      mload(0x40)\n      tag_55\n      swap2\n      swap1\n      tag_27\n      jump\t// in\n    tag_55:\n      mload(0x40)\n      dup1\n      swap2\n      sub\n      swap1\n      return\n        /* \"3_SampleToken_owner.sol\":3044:3171  function balanceOf(address account) external view virtual override returns (uint256) {... */\n    tag_11:\n      tag_56\n      0x04\n      dup1\n      calldatasize\n      sub\n      dup2\n      add\n      swap1\n      tag_57\n      swap2\n      swap1\n      tag_58\n      jump\t// in\n    tag_57:\n      tag_59\n      jump\t// in\n    tag_56:\n      mload(0x40)\n      tag_60\n      swap2\n      swap1\n      tag_27\n      jump\t// in\n    tag_60:\n      mload(0x40)\n      dup1\n      swap2\n      sub\n      swap1\n      return\n        /* \"3_SampleToken_owner.sol\":1696:1787  function owner() public view virtual returns (address) {... */\n    tag_12:\n      tag_61\n      tag_62\n      jump\t// in\n    tag_61:\n      mload(0x40)\n      tag_63\n      swap2\n      swap1\n      tag_64\n      jump\t// in\n    tag_63:\n      mload(0x40)\n      dup1\n      swap2\n      sub\n      swap1\n      return\n        /* \"3_SampleToken_owner.sol\":2740:2825  function symbol() public view returns (string memory) {... */\n    tag_13:\n      tag_65\n      tag_66\n      jump\t// in\n    tag_65:\n      mload(0x40)\n      tag_67\n      swap2\n      swap1\n      tag_31\n      jump\t// in\n    tag_67:\n      mload(0x40)\n      dup1\n      swap2\n      sub\n      swap1\n      return\n        /* \"3_SampleToken_owner.sol\":3181:3402  function transfer(address recipient, uint amount) public virtual override returns (bool) {... */\n    tag_14:\n      tag_68\n      0x04\n      dup1\n      calldatasize\n      sub\n      dup2\n      add\n      swap1\n      tag_69\n      swap2\n      swap1\n      tag_34\n      jump\t// in\n    tag_69:\n      tag_70\n      jump\t// in\n    tag_68:\n      mload(0x40)\n      tag_71\n      swap2\n      swap1\n      tag_37\n      jump\t// in\n    tag_71:\n      mload(0x40)\n      dup1\n      swap2\n      sub\n      swap1\n      return\n        /* \"3_SampleToken_owner.sol\":2351:2372  string public _symbol */\n    tag_15:\n      tag_72\n      tag_73\n      jump\t// in\n    tag_72:\n      mload(0x40)\n      tag_74\n      swap2\n      swap1\n      tag_31\n      jump\t// in\n    tag_74:\n      mload(0x40)\n      dup1\n      swap2\n      sub\n      swap1\n      return\n        /* \"3_SampleToken_owner.sol\":2326:2345  string public _name */\n    tag_16:\n      tag_75\n      tag_76\n      jump\t// in\n    tag_75:\n      mload(0x40)\n      tag_77\n      swap2\n      swap1\n      tag_31\n      jump\t// in\n    tag_77:\n      mload(0x40)\n      dup1\n      swap2\n      sub\n      swap1\n      return\n        /* \"3_SampleToken_owner.sol\":3412:3555  function allowance(address owner, address spender) external view override returns (uint256) {... */\n    tag_17:\n      tag_78\n      0x04\n      dup1\n      calldatasize\n      sub\n      dup2\n      add\n      swap1\n      tag_79\n      swap2\n      swap1\n      tag_24\n      jump\t// in\n    tag_79:\n      tag_80\n      jump\t// in\n    tag_78:\n      mload(0x40)\n      tag_81\n      swap2\n      swap1\n      tag_27\n      jump\t// in\n    tag_81:\n      mload(0x40)\n      dup1\n      swap2\n      sub\n      swap1\n      return\n        /* \"3_SampleToken_owner.sol\":1792:2071  function transferOwnership(address newOwner) onlyOwner public {... */\n    tag_18:\n      tag_82\n      0x04\n      dup1\n      calldatasize\n      sub\n      dup2\n      add\n      swap1\n      tag_83\n      swap2\n      swap1\n      tag_58\n      jump\t// in\n    tag_83:\n      tag_84\n      jump\t// in\n    tag_82:\n      stop\n        /* \"3_SampleToken_owner.sol\":2218:2286  mapping (address => mapping (address => uint256)) public _allowances */\n    tag_25:\n      mstore(0x20, 0x02)\n      dup2\n      0x00\n      mstore\n      mstore(0x20, keccak256(0x00, 0x40))\n      dup1\n      0x00\n      mstore\n      keccak256(0x00, 0x40)\n      0x00\n      swap2\n      pop\n      swap2\n      pop\n      pop\n      sload\n      dup2\n      jump\t// out\n        /* \"3_SampleToken_owner.sol\":2649:2730  function name() public view returns (string memory) {... */\n    tag_29:\n        /* \"3_SampleToken_owner.sol\":2686:2699  string memory */\n      0x60\n        /* \"3_SampleToken_owner.sol\":2718:2723  _name */\n      0x04\n        /* \"3_SampleToken_owner.sol\":2711:2723  return _name */\n      dup1\n      sload\n      tag_86\n      swap1\n      tag_87\n      jump\t// in\n    tag_86:\n      dup1\n      0x1f\n      add\n      0x20\n      dup1\n      swap2\n      div\n      mul\n      0x20\n      add\n      mload(0x40)\n      swap1\n      dup2\n      add\n      0x40\n      mstore\n      dup1\n      swap3\n      swap2\n      swap1\n      dup2\n      dup2\n      mstore\n      0x20\n      add\n      dup3\n      dup1\n      sload\n      tag_88\n      swap1\n      tag_87\n      jump\t// in\n    tag_88:\n      dup1\n      iszero\n      tag_89\n      jumpi\n      dup1\n      0x1f\n      lt\n      tag_90\n      jumpi\n      0x0100\n      dup1\n      dup4\n      sload\n      div\n      mul\n      dup4\n      mstore\n      swap2\n      0x20\n      add\n      swap2\n      jump(tag_89)\n    tag_90:\n      dup3\n      add\n      swap2\n      swap1\n      0x00\n      mstore\n      keccak256(0x00, 0x20)\n      swap1\n    tag_91:\n      dup2\n      sload\n      dup2\n      mstore\n      swap1\n      0x01\n      add\n      swap1\n      0x20\n      add\n      dup1\n      dup4\n      gt\n      tag_91\n      jumpi\n      dup3\n      swap1\n      sub\n      0x1f\n      and\n      dup3\n      add\n      swap2\n    tag_89:\n      pop\n      pop\n      pop\n      pop\n      pop\n      swap1\n      pop\n        /* \"3_SampleToken_owner.sol\":2649:2730  function name() public view returns (string memory) {... */\n      swap1\n      jump\t// out\n        /* \"3_SampleToken_owner.sol\":3565:3904  function approve(address spender, uint amount) external virtual override returns (bool) {... */\n    tag_35:\n        /* \"3_SampleToken_owner.sol\":3647:3651  bool */\n      0x00\n        /* \"3_SampleToken_owner.sol\":3663:3687  uint256 currentAllownace */\n      dup1\n        /* \"3_SampleToken_owner.sol\":3690:3701  _allowances */\n      0x02\n        /* \"3_SampleToken_owner.sol\":3690:3713  _allowances[msg.sender] */\n      0x00\n        /* \"3_SampleToken_owner.sol\":3702:3712  msg.sender */\n      caller\n        /* \"3_SampleToken_owner.sol\":3690:3713  _allowances[msg.sender] */\n      0xffffffffffffffffffffffffffffffffffffffff\n      and\n      0xffffffffffffffffffffffffffffffffffffffff\n      and\n      dup2\n      mstore\n      0x20\n      add\n      swap1\n      dup2\n      mstore\n      0x20\n      add\n      0x00\n      keccak256\n        /* \"3_SampleToken_owner.sol\":3690:3722  _allowances[msg.sender][spender] */\n      0x00\n        /* \"3_SampleToken_owner.sol\":3714:3721  spender */\n      dup6\n        /* \"3_SampleToken_owner.sol\":3690:3722  _allowances[msg.sender][spender] */\n      0xffffffffffffffffffffffffffffffffffffffff\n      and\n      0xffffffffffffffffffffffffffffffffffffffff\n      and\n      dup2\n      mstore\n      0x20\n      add\n      swap1\n      dup2\n      mstore\n      0x20\n      add\n      0x00\n      keccak256\n      sload\n        /* \"3_SampleToken_owner.sol\":3663:3722  uint256 currentAllownace = _allowances[msg.sender][spender] */\n      swap1\n      pop\n        /* \"3_SampleToken_owner.sol\":3760:3766  amount */\n      dup3\n        /* \"3_SampleToken_owner.sol\":3740:3756  currentAllownace */\n      dup2\n        /* \"3_SampleToken_owner.sol\":3740:3766  currentAllownace >= amount */\n      lt\n      iszero\n        /* \"3_SampleToken_owner.sol\":3732:3811  require(currentAllownace >= amount, \"ERC20: Transfer amount exceeds allowance\") */\n      tag_93\n      jumpi\n      mload(0x40)\n      0x08c379a000000000000000000000000000000000000000000000000000000000\n      dup2\n      mstore\n      0x04\n      add\n      tag_94\n      swap1\n      tag_95\n      jump\t// in\n    tag_94:\n      mload(0x40)\n      dup1\n      swap2\n      sub\n      swap1\n      revert\n    tag_93:\n        /* \"3_SampleToken_owner.sol\":3821:3876  _approve(msg.sender, spender, currentAllownace, amount) */\n      tag_96\n        /* \"3_SampleToken_owner.sol\":3830:3840  msg.sender */\n      caller\n        /* \"3_SampleToken_owner.sol\":3842:3849  spender */\n      dup6\n        /* \"3_SampleToken_owner.sol\":3851:3867  currentAllownace */\n      dup4\n        /* \"3_SampleToken_owner.sol\":3869:3875  amount */\n      dup7\n        /* \"3_SampleToken_owner.sol\":3821:3829  _approve */\n      tag_97\n        /* \"3_SampleToken_owner.sol\":3821:3876  _approve(msg.sender, spender, currentAllownace, amount) */\n      jump\t// in\n    tag_96:\n        /* \"3_SampleToken_owner.sol\":3893:3897  true */\n      0x01\n        /* \"3_SampleToken_owner.sol\":3886:3897  return true */\n      swap2\n      pop\n      pop\n        /* \"3_SampleToken_owner.sol\":3565:3904  function approve(address spender, uint amount) external virtual override returns (bool) {... */\n      swap3\n      swap2\n      pop\n      pop\n      jump\t// out\n        /* \"3_SampleToken_owner.sol\":2926:3034  function totalSupply() external view virtual override returns (uint256) {... */\n    tag_39:\n        /* \"3_SampleToken_owner.sol\":2989:2996  uint256 */\n      0x00\n        /* \"3_SampleToken_owner.sol\":3015:3027  _totalSupply */\n      sload(0x03)\n        /* \"3_SampleToken_owner.sol\":3008:3027  return _totalSupply */\n      swap1\n      pop\n        /* \"3_SampleToken_owner.sol\":2926:3034  function totalSupply() external view virtual override returns (uint256) {... */\n      swap1\n      jump\t// out\n        /* \"3_SampleToken_owner.sol\":3914:4407  function transferFrom(address sender, address recipient, uint256 amount) external virtual override returns (bool) {... */\n    tag_44:\n        /* \"3_SampleToken_owner.sol\":4022:4026  bool */\n      0x00\n        /* \"3_SampleToken_owner.sol\":4038:4074  _transfer(sender, recipient, amount) */\n      tag_100\n        /* \"3_SampleToken_owner.sol\":4048:4054  sender */\n      dup5\n        /* \"3_SampleToken_owner.sol\":4056:4065  recipient */\n      dup5\n        /* \"3_SampleToken_owner.sol\":4067:4073  amount */\n      dup5\n        /* \"3_SampleToken_owner.sol\":4038:4047  _transfer */\n      tag_101\n        /* \"3_SampleToken_owner.sol\":4038:4074  _transfer(sender, recipient, amount) */\n      jump\t// in\n    tag_100:\n        /* \"3_SampleToken_owner.sol\":4118:4127  recipient */\n      dup3\n        /* \"3_SampleToken_owner.sol\":4089:4136  Transfer(msg.sender, sender, recipient, amount) */\n      0xffffffffffffffffffffffffffffffffffffffff\n      and\n        /* \"3_SampleToken_owner.sol\":4110:4116  sender */\n      dup5\n        /* \"3_SampleToken_owner.sol\":4089:4136  Transfer(msg.sender, sender, recipient, amount) */\n      0xffffffffffffffffffffffffffffffffffffffff\n      and\n        /* \"3_SampleToken_owner.sol\":4098:4108  msg.sender */\n      caller\n        /* \"3_SampleToken_owner.sol\":4089:4136  Transfer(msg.sender, sender, recipient, amount) */\n      0xffffffffffffffffffffffffffffffffffffffff\n      and\n      0xd1398bee19313d6bf672ccb116e51f4a1a947e91c757907f51fbb5b5e56c698f\n        /* \"3_SampleToken_owner.sol\":4129:4135  amount */\n      dup6\n        /* \"3_SampleToken_owner.sol\":4089:4136  Transfer(msg.sender, sender, recipient, amount) */\n      mload(0x40)\n      tag_102\n      swap2\n      swap1\n      tag_27\n      jump\t// in\n    tag_102:\n      mload(0x40)\n      dup1\n      swap2\n      sub\n      swap1\n      log4\n        /* \"3_SampleToken_owner.sol\":4146:4170  uint256 currentAllowance */\n      0x00\n        /* \"3_SampleToken_owner.sol\":4173:4184  _allowances */\n      0x02\n        /* \"3_SampleToken_owner.sol\":4173:4192  _allowances[sender] */\n      0x00\n        /* \"3_SampleToken_owner.sol\":4185:4191  sender */\n      dup7\n        /* \"3_SampleToken_owner.sol\":4173:4192  _allowances[sender] */\n      0xffffffffffffffffffffffffffffffffffffffff\n      and\n      0xffffffffffffffffffffffffffffffffffffffff\n      and\n      dup2\n      mstore\n      0x20\n      add\n      swap1\n      dup2\n      mstore\n      0x20\n      add\n      0x00\n      keccak256\n        /* \"3_SampleToken_owner.sol\":4173:4204  _allowances[sender][msg.sender] */\n      0x00\n        /* \"3_SampleToken_owner.sol\":4193:4203  msg.sender */\n      caller\n        /* \"3_SampleToken_owner.sol\":4173:4204  _allowances[sender][msg.sender] */\n      0xffffffffffffffffffffffffffffffffffffffff\n      and\n      0xffffffffffffffffffffffffffffffffffffffff\n      and\n      dup2\n      mstore\n      0x20\n      add\n      swap1\n      dup2\n      mstore\n      0x20\n      add\n      0x00\n      keccak256\n      sload\n        /* \"3_SampleToken_owner.sol\":4146:4204  uint256 currentAllowance = _allowances[sender][msg.sender] */\n      swap1\n      pop\n        /* \"3_SampleToken_owner.sol\":4242:4248  amount */\n      dup3\n        /* \"3_SampleToken_owner.sol\":4222:4238  currentAllowance */\n      dup2\n        /* \"3_SampleToken_owner.sol\":4222:4248  currentAllowance >= amount */\n      lt\n      iszero\n        /* \"3_SampleToken_owner.sol\":4214:4293  require(currentAllowance >= amount, \"ERC20: transfer amount exceeds allowance\") */\n      tag_103\n      jumpi\n      mload(0x40)\n      0x08c379a000000000000000000000000000000000000000000000000000000000\n      dup2\n      mstore\n      0x04\n      add\n      tag_104\n      swap1\n      tag_105\n      jump\t// in\n    tag_104:\n      mload(0x40)\n      dup1\n      swap2\n      sub\n      swap1\n      revert\n    tag_103:\n        /* \"3_SampleToken_owner.sol\":4303:4379  _approve(sender, msg.sender, currentAllowance, currentAllowance.sub(amount)) */\n      tag_106\n        /* \"3_SampleToken_owner.sol\":4312:4318  sender */\n      dup6\n        /* \"3_SampleToken_owner.sol\":4320:4330  msg.sender */\n      caller\n        /* \"3_SampleToken_owner.sol\":4332:4348  currentAllowance */\n      dup4\n        /* \"3_SampleToken_owner.sol\":4350:4378  currentAllowance.sub(amount) */\n      tag_107\n        /* \"3_SampleToken_owner.sol\":4371:4377  amount */\n      dup8\n        /* \"3_SampleToken_owner.sol\":4350:4366  currentAllowance */\n      dup7\n        /* \"3_SampleToken_owner.sol\":4350:4370  currentAllowance.sub */\n      tag_108\n      swap1\n        /* \"3_SampleToken_owner.sol\":4350:4378  currentAllowance.sub(amount) */\n      swap2\n      swap1\n      0xffffffff\n      and\n      jump\t// in\n    tag_107:\n        /* \"3_SampleToken_owner.sol\":4303:4311  _approve */\n      tag_97\n        /* \"3_SampleToken_owner.sol\":4303:4379  _approve(sender, msg.sender, currentAllowance, currentAllowance.sub(amount)) */\n      jump\t// in\n    tag_106:\n        /* \"3_SampleToken_owner.sol\":4396:4400  true */\n      0x01\n        /* \"3_SampleToken_owner.sol\":4389:4400  return true */\n      swap2\n      pop\n      pop\n        /* \"3_SampleToken_owner.sol\":3914:4407  function transferFrom(address sender, address recipient, uint256 amount) external virtual override returns (bool) {... */\n      swap4\n      swap3\n      pop\n      pop\n      pop\n      jump\t// out\n        /* \"3_SampleToken_owner.sol\":2835:2916  function decimals() public view returns (uint8) {... */\n    tag_47:\n        /* \"3_SampleToken_owner.sol\":2876:2881  uint8 */\n      0x00\n        /* \"3_SampleToken_owner.sol\":2900:2909  _decimals */\n      0x06\n      0x00\n      swap1\n      sload\n      swap1\n      0x0100\n      exp\n      swap1\n      div\n      0xff\n      and\n        /* \"3_SampleToken_owner.sol\":2893:2909  return _decimals */\n      swap1\n      pop\n        /* \"3_SampleToken_owner.sol\":2835:2916  function decimals() public view returns (uint8) {... */\n      swap1\n      jump\t// out\n        /* \"3_SampleToken_owner.sol\":2378:2400  uint8 public _decimals */\n    tag_51:\n      0x06\n      0x00\n      swap1\n      sload\n      swap1\n      0x0100\n      exp\n      swap1\n      div\n      0xff\n      and\n      dup2\n      jump\t// out\n        /* \"3_SampleToken_owner.sol\":2293:2320  uint256 public _totalSupply */\n    tag_54:\n      sload(0x03)\n      dup2\n      jump\t// out\n        /* \"3_SampleToken_owner.sol\":3044:3171  function balanceOf(address account) external view virtual override returns (uint256) {... */\n    tag_59:\n        /* \"3_SampleToken_owner.sol\":3120:3127  uint256 */\n      0x00\n        /* \"3_SampleToken_owner.sol\":3146:3155  _balances */\n      0x01\n        /* \"3_SampleToken_owner.sol\":3146:3164  _balances[account] */\n      0x00\n        /* \"3_SampleToken_owner.sol\":3156:3163  account */\n      dup4\n        /* \"3_SampleToken_owner.sol\":3146:3164  _balances[account] */\n      0xffffffffffffffffffffffffffffffffffffffff\n      and\n      0xffffffffffffffffffffffffffffffffffffffff\n      and\n      dup2\n      mstore\n      0x20\n      add\n      swap1\n      dup2\n      mstore\n      0x20\n      add\n      0x00\n      keccak256\n      sload\n        /* \"3_SampleToken_owner.sol\":3139:3164  return _balances[account] */\n      swap1\n      pop\n        /* \"3_SampleToken_owner.sol\":3044:3171  function balanceOf(address account) external view virtual override returns (uint256) {... */\n      swap2\n      swap1\n      pop\n      jump\t// out\n        /* \"3_SampleToken_owner.sol\":1696:1787  function owner() public view virtual returns (address) {... */\n    tag_62:\n        /* \"3_SampleToken_owner.sol\":1742:1749  address */\n      0x00\n        /* \"3_SampleToken_owner.sol\":1771:1777  _owner */\n      dup1\n      0x00\n      swap1\n      sload\n      swap1\n      0x0100\n      exp\n      swap1\n      div\n      0xffffffffffffffffffffffffffffffffffffffff\n      and\n        /* \"3_SampleToken_owner.sol\":1764:1777  return _owner */\n      swap1\n      pop\n        /* \"3_SampleToken_owner.sol\":1696:1787  function owner() public view virtual returns (address) {... */\n      swap1\n      jump\t// out\n        /* \"3_SampleToken_owner.sol\":2740:2825  function symbol() public view returns (string memory) {... */\n    tag_66:\n        /* \"3_SampleToken_owner.sol\":2779:2792  string memory */\n      0x60\n        /* \"3_SampleToken_owner.sol\":2811:2818  _symbol */\n      0x05\n        /* \"3_SampleToken_owner.sol\":2804:2818  return _symbol */\n      dup1\n      sload\n      tag_113\n      swap1\n      tag_87\n      jump\t// in\n    tag_113:\n      dup1\n      0x1f\n      add\n      0x20\n      dup1\n      swap2\n      div\n      mul\n      0x20\n      add\n      mload(0x40)\n      swap1\n      dup2\n      add\n      0x40\n      mstore\n      dup1\n      swap3\n      swap2\n      swap1\n      dup2\n      dup2\n      mstore\n      0x20\n      add\n      dup3\n      dup1\n      sload\n      tag_114\n      swap1\n      tag_87\n      jump\t// in\n    tag_114:\n      dup1\n      iszero\n      tag_115\n      jumpi\n      dup1\n      0x1f\n      lt\n      tag_116\n      jumpi\n      0x0100\n      dup1\n      dup4\n      sload\n      div\n      mul\n      dup4\n      mstore\n      swap2\n      0x20\n      add\n      swap2\n      jump(tag_115)\n    tag_116:\n      dup3\n      add\n      swap2\n      swap1\n      0x00\n      mstore\n      keccak256(0x00, 0x20)\n      swap1\n    tag_117:\n      dup2\n      sload\n      dup2\n      mstore\n      swap1\n      0x01\n      add\n      swap1\n      0x20\n      add\n      dup1\n      dup4\n      gt\n      tag_117\n      jumpi\n      dup3\n      swap1\n      sub\n      0x1f\n      and\n      dup3\n      add\n      swap2\n    tag_115:\n      pop\n      pop\n      pop\n      pop\n      pop\n      swap1\n      pop\n        /* \"3_SampleToken_owner.sol\":2740:2825  function symbol() public view returns (string memory) {... */\n      swap1\n      jump\t// out\n        /* \"3_SampleToken_owner.sol\":3181:3402  function transfer(address recipient, uint amount) public virtual override returns (bool) {... */\n    tag_70:\n        /* \"3_SampleToken_owner.sol\":3264:3268  bool */\n      0x00\n        /* \"3_SampleToken_owner.sol\":3280:3320  _transfer(msg.sender, recipient, amount) */\n      tag_119\n        /* \"3_SampleToken_owner.sol\":3290:3300  msg.sender */\n      caller\n        /* \"3_SampleToken_owner.sol\":3302:3311  recipient */\n      dup5\n        /* \"3_SampleToken_owner.sol\":3313:3319  amount */\n      dup5\n        /* \"3_SampleToken_owner.sol\":3280:3289  _transfer */\n      tag_101\n        /* \"3_SampleToken_owner.sol\":3280:3320  _transfer(msg.sender, recipient, amount) */\n      jump\t// in\n    tag_119:\n        /* \"3_SampleToken_owner.sol\":3356:3365  recipient */\n      dup3\n        /* \"3_SampleToken_owner.sol\":3335:3374  Transfer(msg.sender, recipient, amount) */\n      0xffffffffffffffffffffffffffffffffffffffff\n      and\n        /* \"3_SampleToken_owner.sol\":3344:3354  msg.sender */\n      caller\n        /* \"3_SampleToken_owner.sol\":3335:3374  Transfer(msg.sender, recipient, amount) */\n      0xffffffffffffffffffffffffffffffffffffffff\n      and\n      0xddf252ad1be2c89b69c2b068fc378daa952ba7f163c4a11628f55a4df523b3ef\n        /* \"3_SampleToken_owner.sol\":3367:3373  amount */\n      dup5\n        /* \"3_SampleToken_owner.sol\":3335:3374  Transfer(msg.sender, recipient, amount) */\n      mload(0x40)\n      tag_120\n      swap2\n      swap1\n      tag_27\n      jump\t// in\n    tag_120:\n      mload(0x40)\n      dup1\n      swap2\n      sub\n      swap1\n      log3\n        /* \"3_SampleToken_owner.sol\":3391:3395  true */\n      0x01\n        /* \"3_SampleToken_owner.sol\":3384:3395  return true */\n      swap1\n      pop\n        /* \"3_SampleToken_owner.sol\":3181:3402  function transfer(address recipient, uint amount) public virtual override returns (bool) {... */\n      swap3\n      swap2\n      pop\n      pop\n      jump\t// out\n        /* \"3_SampleToken_owner.sol\":2351:2372  string public _symbol */\n    tag_73:\n      0x05\n      dup1\n      sload\n      tag_121\n      swap1\n      tag_87\n      jump\t// in\n    tag_121:\n      dup1\n      0x1f\n      add\n      0x20\n      dup1\n      swap2\n      div\n      mul\n      0x20\n      add\n      mload(0x40)\n      swap1\n      dup2\n      add\n      0x40\n      mstore\n      dup1\n      swap3\n      swap2\n      swap1\n      dup2\n      dup2\n      mstore\n      0x20\n      add\n      dup3\n      dup1\n      sload\n      tag_122\n      swap1\n      tag_87\n      jump\t// in\n    tag_122:\n      dup1\n      iszero\n      tag_123\n      jumpi\n      dup1\n      0x1f\n      lt\n      tag_124\n      jumpi\n      0x0100\n      dup1\n      dup4\n      sload\n      div\n      mul\n      dup4\n      mstore\n      swap2\n      0x20\n      add\n      swap2\n      jump(tag_123)\n    tag_124:\n      dup3\n      add\n      swap2\n      swap1\n      0x00\n      mstore\n      keccak256(0x00, 0x20)\n      swap1\n    tag_125:\n      dup2\n      sload\n      dup2\n      mstore\n      swap1\n      0x01\n      add\n      swap1\n      0x20\n      add\n      dup1\n      dup4\n      gt\n      tag_125\n      jumpi\n      dup3\n      swap1\n      sub\n      0x1f\n      and\n      dup3\n      add\n      swap2\n    tag_123:\n      pop\n      pop\n      pop\n      pop\n      pop\n      dup2\n      jump\t// out\n        /* \"3_SampleToken_owner.sol\":2326:2345  string public _name */\n    tag_76:\n      0x04\n      dup1\n      sload\n      tag_126\n      swap1\n      tag_87\n      jump\t// in\n    tag_126:\n      dup1\n      0x1f\n      add\n      0x20\n      dup1\n      swap2\n      div\n      mul\n      0x20\n      add\n      mload(0x40)\n      swap1\n      dup2\n      add\n      0x40\n      mstore\n      dup1\n      swap3\n      swap2\n      swap1\n      dup2\n      dup2\n      mstore\n      0x20\n      add\n      dup3\n      dup1\n      sload\n      tag_127\n      swap1\n      tag_87\n      jump\t// in\n    tag_127:\n      dup1\n      iszero\n      tag_128\n      jumpi\n      dup1\n      0x1f\n      lt\n      tag_129\n      jumpi\n      0x0100\n      dup1\n      dup4\n      sload\n      div\n      mul\n      dup4\n      mstore\n      swap2\n      0x20\n      add\n      swap2\n      jump(tag_128)\n    tag_129:\n      dup3\n      add\n      swap2\n      swap1\n      0x00\n      mstore\n      keccak256(0x00, 0x20)\n      swap1\n    tag_130:\n      dup2\n      sload\n      dup2\n      mstore\n      swap1\n      0x01\n      add\n      swap1\n      0x20\n      add\n      dup1\n      dup4\n      gt\n      tag_130\n      jumpi\n      dup3\n      swap1\n      sub\n      0x1f\n      and\n      dup3\n      add\n      swap2\n    tag_128:\n      pop\n      pop\n      pop\n      pop\n      pop\n      dup2\n      jump\t// out\n        /* \"3_SampleToken_owner.sol\":3412:3555  function allowance(address owner, address spender) external view override returns (uint256) {... */\n    tag_80:\n        /* \"3_SampleToken_owner.sol\":3495:3502  uint256 */\n      0x00\n        /* \"3_SampleToken_owner.sol\":3521:3532  _allowances */\n      0x02\n        /* \"3_SampleToken_owner.sol\":3521:3539  _allowances[owner] */\n      0x00\n        /* \"3_SampleToken_owner.sol\":3533:3538  owner */\n      dup5\n        /* \"3_SampleToken_owner.sol\":3521:3539  _allowances[owner] */\n      0xffffffffffffffffffffffffffffffffffffffff\n      and\n      0xffffffffffffffffffffffffffffffffffffffff\n      and\n      dup2\n      mstore\n      0x20\n      add\n      swap1\n      dup2\n      mstore\n      0x20\n      add\n      0x00\n      keccak256\n        /* \"3_SampleToken_owner.sol\":3521:3548  _allowances[owner][spender] */\n      0x00\n        /* \"3_SampleToken_owner.sol\":3540:3547  spender */\n      dup4\n        /* \"3_SampleToken_owner.sol\":3521:3548  _allowances[owner][spender] */\n      0xffffffffffffffffffffffffffffffffffffffff\n      and\n      0xffffffffffffffffffffffffffffffffffffffff\n      and\n      dup2\n      mstore\n      0x20\n      add\n      swap1\n      dup2\n      mstore\n      0x20\n      add\n      0x00\n      keccak256\n      sload\n        /* \"3_SampleToken_owner.sol\":3514:3548  return _allowances[owner][spender] */\n      swap1\n      pop\n        /* \"3_SampleToken_owner.sol\":3412:3555  function allowance(address owner, address spender) external view override returns (uint256) {... */\n      swap3\n      swap2\n      pop\n      pop\n      jump\t// out\n        /* \"3_SampleToken_owner.sol\":1792:2071  function transferOwnership(address newOwner) onlyOwner public {... */\n    tag_84:\n        /* \"3_SampleToken_owner.sol\":1575:1581  _owner */\n      0x00\n      dup1\n      sload\n      swap1\n      0x0100\n      exp\n      swap1\n      div\n      0xffffffffffffffffffffffffffffffffffffffff\n      and\n        /* \"3_SampleToken_owner.sol\":1561:1581  msg.sender == _owner */\n      0xffffffffffffffffffffffffffffffffffffffff\n      and\n        /* \"3_SampleToken_owner.sol\":1561:1571  msg.sender */\n      caller\n        /* \"3_SampleToken_owner.sol\":1561:1581  msg.sender == _owner */\n      0xffffffffffffffffffffffffffffffffffffffff\n      and\n      eq\n        /* \"3_SampleToken_owner.sol\":1553:1618  require(msg.sender == _owner, \"OwnerHelper: caller is not owner\") */\n      tag_133\n      jumpi\n      mload(0x40)\n      0x08c379a000000000000000000000000000000000000000000000000000000000\n      dup2\n      mstore\n      0x04\n      add\n      tag_134\n      swap1\n      tag_135\n      jump\t// in\n    tag_134:\n      mload(0x40)\n      dup1\n      swap2\n      sub\n      swap1\n      revert\n    tag_133:\n        /* \"3_SampleToken_owner.sol\":1888:1894  _owner */\n      0x00\n      dup1\n      sload\n      swap1\n      0x0100\n      exp\n      swap1\n      div\n      0xffffffffffffffffffffffffffffffffffffffff\n      and\n        /* \"3_SampleToken_owner.sol\":1876:1894  newOwner != _owner */\n      0xffffffffffffffffffffffffffffffffffffffff\n      and\n        /* \"3_SampleToken_owner.sol\":1876:1884  newOwner */\n      dup2\n        /* \"3_SampleToken_owner.sol\":1876:1894  newOwner != _owner */\n      0xffffffffffffffffffffffffffffffffffffffff\n      and\n      eq\n      iszero\n        /* \"3_SampleToken_owner.sol\":1868:1895  require(newOwner != _owner) */\n      tag_137\n      jumpi\n      0x00\n      dup1\n      revert\n    tag_137:\n        /* \"3_SampleToken_owner.sol\":1937:1940  0x0 */\n      0x00\n        /* \"3_SampleToken_owner.sol\":1917:1941  newOwner != address(0x0) */\n      0xffffffffffffffffffffffffffffffffffffffff\n      and\n        /* \"3_SampleToken_owner.sol\":1917:1925  newOwner */\n      dup2\n        /* \"3_SampleToken_owner.sol\":1917:1941  newOwner != address(0x0) */\n      0xffffffffffffffffffffffffffffffffffffffff\n      and\n      eq\n      iszero\n        /* \"3_SampleToken_owner.sol\":1909:1942  require(newOwner != address(0x0)) */\n      tag_138\n      jumpi\n      0x00\n      dup1\n      revert\n    tag_138:\n        /* \"3_SampleToken_owner.sol\":1956:1972  address preOwner */\n      0x00\n        /* \"3_SampleToken_owner.sol\":1975:1981  _owner */\n      dup1\n      0x00\n      swap1\n      sload\n      swap1\n      0x0100\n      exp\n      swap1\n      div\n      0xffffffffffffffffffffffffffffffffffffffff\n      and\n        /* \"3_SampleToken_owner.sol\":1956:1981  address preOwner = _owner */\n      swap1\n      pop\n        /* \"3_SampleToken_owner.sol\":2001:2009  newOwner */\n      dup2\n        /* \"3_SampleToken_owner.sol\":1992:1998  _owner */\n      0x00\n      dup1\n        /* \"3_SampleToken_owner.sol\":1992:2009  _owner = newOwner */\n      0x0100\n      exp\n      dup2\n      sload\n      dup2\n      0xffffffffffffffffffffffffffffffffffffffff\n      mul\n      not\n      and\n      swap1\n      dup4\n      0xffffffffffffffffffffffffffffffffffffffff\n      and\n      mul\n      or\n      swap1\n      sstore\n      pop\n        /* \"3_SampleToken_owner.sol\":2056:2064  newOwner */\n      dup2\n        /* \"3_SampleToken_owner.sol\":2025:2065  OwnershipTransferred(preOwner, newOwner) */\n      0xffffffffffffffffffffffffffffffffffffffff\n      and\n        /* \"3_SampleToken_owner.sol\":2046:2054  preOwner */\n      dup2\n        /* \"3_SampleToken_owner.sol\":2025:2065  OwnershipTransferred(preOwner, newOwner) */\n      0xffffffffffffffffffffffffffffffffffffffff\n      and\n      0x8be0079c531659141344cd1fd0a4f28419497f9722a3daafe3b4186f6b6457e0\n      mload(0x40)\n      mload(0x40)\n      dup1\n      swap2\n      sub\n      swap1\n      log3\n        /* \"3_SampleToken_owner.sol\":1854:2071  {... */\n      pop\n        /* \"3_SampleToken_owner.sol\":1792:2071  function transferOwnership(address newOwner) onlyOwner public {... */\n      pop\n      jump\t// out\n        /* \"3_SampleToken_owner.sol\":4936:5408  function _approve(address owner, address spender, uint256 currentAmount, uint256 amount) internal virtual {... */\n    tag_97:\n        /* \"3_SampleToken_owner.sol\":5077:5078  0 */\n      0x00\n        /* \"3_SampleToken_owner.sol\":5060:5079  owner != address(0) */\n      0xffffffffffffffffffffffffffffffffffffffff\n      and\n        /* \"3_SampleToken_owner.sol\":5060:5065  owner */\n      dup5\n        /* \"3_SampleToken_owner.sol\":5060:5079  owner != address(0) */\n      0xffffffffffffffffffffffffffffffffffffffff\n      and\n      eq\n      iszero\n        /* \"3_SampleToken_owner.sol\":5052:5120  require(owner != address(0), \"ERC20: approve from the zero address\") */\n      tag_140\n      jumpi\n      mload(0x40)\n      0x08c379a000000000000000000000000000000000000000000000000000000000\n      dup2\n      mstore\n      0x04\n      add\n      tag_141\n      swap1\n      tag_142\n      jump\t// in\n    tag_141:\n      mload(0x40)\n      dup1\n      swap2\n      sub\n      swap1\n      revert\n    tag_140:\n        /* \"3_SampleToken_owner.sol\":5157:5158  0 */\n      0x00\n        /* \"3_SampleToken_owner.sol\":5138:5159  spender != address(0) */\n      0xffffffffffffffffffffffffffffffffffffffff\n      and\n        /* \"3_SampleToken_owner.sol\":5138:5145  spender */\n      dup4\n        /* \"3_SampleToken_owner.sol\":5138:5159  spender != address(0) */\n      0xffffffffffffffffffffffffffffffffffffffff\n      and\n      eq\n      iszero\n        /* \"3_SampleToken_owner.sol\":5130:5198  require(spender != address(0), \"ERC20: approve to the zero address\") */\n      tag_143\n      jumpi\n      mload(0x40)\n      0x08c379a000000000000000000000000000000000000000000000000000000000\n      dup2\n      mstore\n      0x04\n      add\n      tag_144\n      swap1\n      tag_145\n      jump\t// in\n    tag_144:\n      mload(0x40)\n      dup1\n      swap2\n      sub\n      swap1\n      revert\n    tag_143:\n        /* \"3_SampleToken_owner.sol\":5233:5244  _allowances */\n      0x02\n        /* \"3_SampleToken_owner.sol\":5233:5251  _allowances[owner] */\n      0x00\n        /* \"3_SampleToken_owner.sol\":5245:5250  owner */\n      dup6\n        /* \"3_SampleToken_owner.sol\":5233:5251  _allowances[owner] */\n      0xffffffffffffffffffffffffffffffffffffffff\n      and\n      0xffffffffffffffffffffffffffffffffffffffff\n      and\n      dup2\n      mstore\n      0x20\n      add\n      swap1\n      dup2\n      mstore\n      0x20\n      add\n      0x00\n      keccak256\n        /* \"3_SampleToken_owner.sol\":5233:5260  _allowances[owner][spender] */\n      0x00\n        /* \"3_SampleToken_owner.sol\":5252:5259  spender */\n      dup5\n        /* \"3_SampleToken_owner.sol\":5233:5260  _allowances[owner][spender] */\n      0xffffffffffffffffffffffffffffffffffffffff\n      and\n      0xffffffffffffffffffffffffffffffffffffffff\n      and\n      dup2\n      mstore\n      0x20\n      add\n      swap1\n      dup2\n      mstore\n      0x20\n      add\n      0x00\n      keccak256\n      sload\n        /* \"3_SampleToken_owner.sol\":5216:5229  currentAmount */\n      dup3\n        /* \"3_SampleToken_owner.sol\":5216:5260  currentAmount == _allowances[owner][spender] */\n      eq\n        /* \"3_SampleToken_owner.sol\":5208:5293  require(currentAmount == _allowances[owner][spender], \"ERC20: invalid currentAmount\") */\n      tag_146\n      jumpi\n      mload(0x40)\n      0x08c379a000000000000000000000000000000000000000000000000000000000\n      dup2\n      mstore\n      0x04\n      add\n      tag_147\n      swap1\n      tag_148\n      jump\t// in\n    tag_147:\n      mload(0x40)\n      dup1\n      swap2\n      sub\n      swap1\n      revert\n    tag_146:\n        /* \"3_SampleToken_owner.sol\":5333:5339  amount */\n      dup1\n        /* \"3_SampleToken_owner.sol\":5303:5314  _allowances */\n      0x02\n        /* \"3_SampleToken_owner.sol\":5303:5321  _allowances[owner] */\n      0x00\n        /* \"3_SampleToken_owner.sol\":5315:5320  owner */\n      dup7\n        /* \"3_SampleToken_owner.sol\":5303:5321  _allowances[owner] */\n      0xffffffffffffffffffffffffffffffffffffffff\n      and\n      0xffffffffffffffffffffffffffffffffffffffff\n      and\n      dup2\n      mstore\n      0x20\n      add\n      swap1\n      dup2\n      mstore\n      0x20\n      add\n      0x00\n      keccak256\n        /* \"3_SampleToken_owner.sol\":5303:5330  _allowances[owner][spender] */\n      0x00\n        /* \"3_SampleToken_owner.sol\":5322:5329  spender */\n      dup6\n        /* \"3_SampleToken_owner.sol\":5303:5330  _allowances[owner][spender] */\n      0xffffffffffffffffffffffffffffffffffffffff\n      and\n      0xffffffffffffffffffffffffffffffffffffffff\n      and\n      dup2\n      mstore\n      0x20\n      add\n      swap1\n      dup2\n      mstore\n      0x20\n      add\n      0x00\n      keccak256\n        /* \"3_SampleToken_owner.sol\":5303:5339  _allowances[owner][spender] = amount */\n      dup2\n      swap1\n      sstore\n      pop\n        /* \"3_SampleToken_owner.sol\":5370:5377  spender */\n      dup3\n        /* \"3_SampleToken_owner.sol\":5354:5401  Approval(owner, spender, currentAmount, amount) */\n      0xffffffffffffffffffffffffffffffffffffffff\n      and\n        /* \"3_SampleToken_owner.sol\":5363:5368  owner */\n      dup5\n        /* \"3_SampleToken_owner.sol\":5354:5401  Approval(owner, spender, currentAmount, amount) */\n      0xffffffffffffffffffffffffffffffffffffffff\n      and\n      0xb3fd5071835887567a0671151121894ddccc2842f1d10bedad13e0d17cace9a7\n        /* \"3_SampleToken_owner.sol\":5379:5392  currentAmount */\n      dup5\n        /* \"3_SampleToken_owner.sol\":5394:5400  amount */\n      dup5\n        /* \"3_SampleToken_owner.sol\":5354:5401  Approval(owner, spender, currentAmount, amount) */\n      mload(0x40)\n      tag_149\n      swap3\n      swap2\n      swap1\n      tag_150\n      jump\t// in\n    tag_149:\n      mload(0x40)\n      dup1\n      swap2\n      sub\n      swap1\n      log3\n        /* \"3_SampleToken_owner.sol\":4936:5408  function _approve(address owner, address spender, uint256 currentAmount, uint256 amount) internal virtual {... */\n      pop\n      pop\n      pop\n      pop\n      jump\t// out\n        /* \"3_SampleToken_owner.sol\":4417:4926  function _transfer(address sender, address recipient, uint256 amount) internal virtual {... */\n    tag_101:\n        /* \"3_SampleToken_owner.sol\":4540:4541  0 */\n      0x00\n        /* \"3_SampleToken_owner.sol\":4522:4542  sender != address(0) */\n      0xffffffffffffffffffffffffffffffffffffffff\n      and\n        /* \"3_SampleToken_owner.sol\":4522:4528  sender */\n      dup4\n        /* \"3_SampleToken_owner.sol\":4522:4542  sender != address(0) */\n      0xffffffffffffffffffffffffffffffffffffffff\n      and\n      eq\n      iszero\n        /* \"3_SampleToken_owner.sol\":4514:4584  require(sender != address(0), \"ERC20: transfer from the zero address\") */\n      tag_152\n      jumpi\n      mload(0x40)\n      0x08c379a000000000000000000000000000000000000000000000000000000000\n      dup2\n      mstore\n      0x04\n      add\n      tag_153\n      swap1\n      tag_154\n      jump\t// in\n    tag_153:\n      mload(0x40)\n      dup1\n      swap2\n      sub\n      swap1\n      revert\n    tag_152:\n        /* \"3_SampleToken_owner.sol\":4623:4624  0 */\n      0x00\n        /* \"3_SampleToken_owner.sol\":4602:4625  recipient != address(0) */\n      0xffffffffffffffffffffffffffffffffffffffff\n      and\n        /* \"3_SampleToken_owner.sol\":4602:4611  recipient */\n      dup3\n        /* \"3_SampleToken_owner.sol\":4602:4625  recipient != address(0) */\n      0xffffffffffffffffffffffffffffffffffffffff\n      and\n      eq\n      iszero\n        /* \"3_SampleToken_owner.sol\":4594:4665  require(recipient != address(0), \"ERC20: transfer to the zero address\") */\n      tag_155\n      jumpi\n      mload(0x40)\n      0x08c379a000000000000000000000000000000000000000000000000000000000\n      dup2\n      mstore\n      0x04\n      add\n      tag_156\n      swap1\n      tag_157\n      jump\t// in\n    tag_156:\n      mload(0x40)\n      dup1\n      swap2\n      sub\n      swap1\n      revert\n    tag_155:\n        /* \"3_SampleToken_owner.sol\":4675:4696  uint256 senderBalance */\n      0x00\n        /* \"3_SampleToken_owner.sol\":4699:4708  _balances */\n      0x01\n        /* \"3_SampleToken_owner.sol\":4699:4716  _balances[sender] */\n      0x00\n        /* \"3_SampleToken_owner.sol\":4709:4715  sender */\n      dup6\n        /* \"3_SampleToken_owner.sol\":4699:4716  _balances[sender] */\n      0xffffffffffffffffffffffffffffffffffffffff\n      and\n      0xffffffffffffffffffffffffffffffffffffffff\n      and\n      dup2\n      mstore\n      0x20\n      add\n      swap1\n      dup2\n      mstore\n      0x20\n      add\n      0x00\n      keccak256\n      sload\n        /* \"3_SampleToken_owner.sol\":4675:4716  uint256 senderBalance = _balances[sender] */\n      swap1\n      pop\n        /* \"3_SampleToken_owner.sol\":4751:4757  amount */\n      dup2\n        /* \"3_SampleToken_owner.sol\":4734:4747  senderBalance */\n      dup2\n        /* \"3_SampleToken_owner.sol\":4734:4757  senderBalance >= amount */\n      lt\n      iszero\n        /* \"3_SampleToken_owner.sol\":4726:4800  require(senderBalance >= amount, \"ERC20: transfer amount exceeds balance\") */\n      tag_158\n      jumpi\n      mload(0x40)\n      0x08c379a000000000000000000000000000000000000000000000000000000000\n      dup2\n      mstore\n      0x04\n      add\n      tag_159\n      swap1\n      tag_160\n      jump\t// in\n    tag_159:\n      mload(0x40)\n      dup1\n      swap2\n      sub\n      swap1\n      revert\n    tag_158:\n        /* \"3_SampleToken_owner.sol\":4830:4855  senderBalance.sub(amount) */\n      tag_161\n        /* \"3_SampleToken_owner.sol\":4848:4854  amount */\n      dup3\n        /* \"3_SampleToken_owner.sol\":4830:4843  senderBalance */\n      dup3\n        /* \"3_SampleToken_owner.sol\":4830:4847  senderBalance.sub */\n      tag_108\n      swap1\n        /* \"3_SampleToken_owner.sol\":4830:4855  senderBalance.sub(amount) */\n      swap2\n      swap1\n      0xffffffff\n      and\n      jump\t// in\n    tag_161:\n        /* \"3_SampleToken_owner.sol\":4810:4819  _balances */\n      0x01\n        /* \"3_SampleToken_owner.sol\":4810:4827  _balances[sender] */\n      0x00\n        /* \"3_SampleToken_owner.sol\":4820:4826  sender */\n      dup7\n        /* \"3_SampleToken_owner.sol\":4810:4827  _balances[sender] */\n      0xffffffffffffffffffffffffffffffffffffffff\n      and\n      0xffffffffffffffffffffffffffffffffffffffff\n      and\n      dup2\n      mstore\n      0x20\n      add\n      swap1\n      dup2\n      mstore\n      0x20\n      add\n      0x00\n      keccak256\n        /* \"3_SampleToken_owner.sol\":4810:4855  _balances[sender] = senderBalance.sub(amount) */\n      dup2\n      swap1\n      sstore\n      pop\n        /* \"3_SampleToken_owner.sol\":4887:4919  _balances[recipient].add(amount) */\n      tag_162\n        /* \"3_SampleToken_owner.sol\":4912:4918  amount */\n      dup3\n        /* \"3_SampleToken_owner.sol\":4887:4896  _balances */\n      0x01\n        /* \"3_SampleToken_owner.sol\":4887:4907  _balances[recipient] */\n      0x00\n        /* \"3_SampleToken_owner.sol\":4897:4906  recipient */\n      dup7\n        /* \"3_SampleToken_owner.sol\":4887:4907  _balances[recipient] */\n      0xffffffffffffffffffffffffffffffffffffffff\n      and\n      0xffffffffffffffffffffffffffffffffffffffff\n      and\n      dup2\n      mstore\n      0x20\n      add\n      swap1\n      dup2\n      mstore\n      0x20\n      add\n      0x00\n      keccak256\n      sload\n        /* \"3_SampleToken_owner.sol\":4887:4911  _balances[recipient].add */\n      tag_163\n      swap1\n        /* \"3_SampleToken_owner.sol\":4887:4919  _balances[recipient].add(amount) */\n      swap2\n      swap1\n      0xffffffff\n      and\n      jump\t// in\n    tag_162:\n        /* \"3_SampleToken_owner.sol\":4865:4874  _balances */\n      0x01\n        /* \"3_SampleToken_owner.sol\":4865:4885  _balances[recipient] */\n      0x00\n        /* \"3_SampleToken_owner.sol\":4875:4884  recipient */\n      dup6\n        /* \"3_SampleToken_owner.sol\":4865:4885  _balances[recipient] */\n      0xffffffffffffffffffffffffffffffffffffffff\n      and\n      0xffffffffffffffffffffffffffffffffffffffff\n      and\n      dup2\n      mstore\n      0x20\n      add\n      swap1\n      dup2\n      mstore\n      0x20\n      add\n      0x00\n      keccak256\n        /* \"3_SampleToken_owner.sol\":4865:4919  _balances[recipient]= _balances[recipient].add(amount) */\n      dup2\n      swap1\n      sstore\n      pop\n        /* \"3_SampleToken_owner.sol\":4504:4926  {... */\n      pop\n        /* \"3_SampleToken_owner.sol\":4417:4926  function _transfer(address sender, address recipient, uint256 amount) internal virtual {... */\n      pop\n      pop\n      pop\n      jump\t// out\n        /* \"3_SampleToken_owner.sol\":1144:1251  function sub(uint256 a, uint256 b) internal pure returns (uint256) {... */\n    tag_108:\n        /* \"3_SampleToken_owner.sol\":1202:1209  uint256 */\n      0x00\n        /* \"3_SampleToken_owner.sol\":1227:1228  a */\n      dup3\n        /* \"3_SampleToken_owner.sol\":1222:1223  b */\n      dup3\n        /* \"3_SampleToken_owner.sol\":1222:1228  b <= a */\n      gt\n      iszero\n        /* \"3_SampleToken_owner.sol\":1215:1229  assert(b <= a) */\n      tag_165\n      jumpi\n      tag_166\n      tag_167\n      jump\t// in\n    tag_166:\n    tag_165:\n        /* \"3_SampleToken_owner.sol\":1244:1245  b */\n      dup2\n        /* \"3_SampleToken_owner.sol\":1240:1241  a */\n      dup4\n        /* \"3_SampleToken_owner.sol\":1240:1245  a - b */\n      tag_168\n      swap2\n      swap1\n      tag_169\n      jump\t// in\n    tag_168:\n        /* \"3_SampleToken_owner.sol\":1233:1245  return a - b */\n      swap1\n      pop\n        /* \"3_SampleToken_owner.sol\":1144:1251  function sub(uint256 a, uint256 b) internal pure returns (uint256) {... */\n      swap3\n      swap2\n      pop\n      pop\n      jump\t// out\n        /* \"3_SampleToken_owner.sol\":1256:1378  function add(uint256 a, uint256 b) internal pure returns (uint256) {... */\n    tag_163:\n        /* \"3_SampleToken_owner.sol\":1314:1321  uint256 */\n      0x00\n        /* \"3_SampleToken_owner.sol\":1327:1336  uint256 c */\n      dup1\n        /* \"3_SampleToken_owner.sol\":1343:1344  b */\n      dup3\n        /* \"3_SampleToken_owner.sol\":1339:1340  a */\n      dup5\n        /* \"3_SampleToken_owner.sol\":1339:1344  a + b */\n      tag_171\n      swap2\n      swap1\n      tag_172\n      jump\t// in\n    tag_171:\n        /* \"3_SampleToken_owner.sol\":1327:1344  uint256 c = a + b */\n      swap1\n      pop\n        /* \"3_SampleToken_owner.sol\":1360:1361  a */\n      dup4\n        /* \"3_SampleToken_owner.sol\":1355:1356  c */\n      dup2\n        /* \"3_SampleToken_owner.sol\":1355:1361  c >= a */\n      lt\n      iszero\n        /* \"3_SampleToken_owner.sol\":1348:1362  assert(c >= a) */\n      tag_173\n      jumpi\n      tag_174\n      tag_167\n      jump\t// in\n    tag_174:\n    tag_173:\n        /* \"3_SampleToken_owner.sol\":1373:1374  c */\n      dup1\n        /* \"3_SampleToken_owner.sol\":1366:1374  return c */\n      swap2\n      pop\n      pop\n        /* \"3_SampleToken_owner.sol\":1256:1378  function add(uint256 a, uint256 b) internal pure returns (uint256) {... */\n      swap3\n      swap2\n      pop\n      pop\n      jump\t// out\n        /* \"#utility.yul\":88:205   */\n    tag_176:\n        /* \"#utility.yul\":197:198   */\n      0x00\n        /* \"#utility.yul\":194:195   */\n      dup1\n        /* \"#utility.yul\":187:199   */\n      revert\n        /* \"#utility.yul\":334:460   */\n    tag_178:\n        /* \"#utility.yul\":371:378   */\n      0x00\n        /* \"#utility.yul\":411:453   */\n      0xffffffffffffffffffffffffffffffffffffffff\n        /* \"#utility.yul\":404:409   */\n      dup3\n        /* \"#utility.yul\":400:454   */\n      and\n        /* \"#utility.yul\":389:454   */\n      swap1\n      pop\n        /* \"#utility.yul\":334:460   */\n      swap2\n      swap1\n      pop\n      jump\t// out\n        /* \"#utility.yul\":466:562   */\n    tag_179:\n        /* \"#utility.yul\":503:510   */\n      0x00\n        /* \"#utility.yul\":532:556   */\n      tag_222\n        /* \"#utility.yul\":550:555   */\n      dup3\n        /* \"#utility.yul\":532:556   */\n      tag_178\n      jump\t// in\n    tag_222:\n        /* \"#utility.yul\":521:556   */\n      swap1\n      pop\n        /* \"#utility.yul\":466:562   */\n      swap2\n      swap1\n      pop\n      jump\t// out\n        /* \"#utility.yul\":568:690   */\n    tag_180:\n        /* \"#utility.yul\":641:665   */\n      tag_224\n        /* \"#utility.yul\":659:664   */\n      dup2\n        /* \"#utility.yul\":641:665   */\n      tag_179\n      jump\t// in\n    tag_224:\n        /* \"#utility.yul\":634:639   */\n      dup2\n        /* \"#utility.yul\":631:666   */\n      eq\n        /* \"#utility.yul\":621:684   */\n      tag_225\n      jumpi\n        /* \"#utility.yul\":680:681   */\n      0x00\n        /* \"#utility.yul\":677:678   */\n      dup1\n        /* \"#utility.yul\":670:682   */\n      revert\n        /* \"#utility.yul\":621:684   */\n    tag_225:\n        /* \"#utility.yul\":568:690   */\n      pop\n      jump\t// out\n        /* \"#utility.yul\":696:835   */\n    tag_181:\n        /* \"#utility.yul\":742:747   */\n      0x00\n        /* \"#utility.yul\":780:786   */\n      dup2\n        /* \"#utility.yul\":767:787   */\n      calldataload\n        /* \"#utility.yul\":758:787   */\n      swap1\n      pop\n        /* \"#utility.yul\":796:829   */\n      tag_227\n        /* \"#utility.yul\":823:828   */\n      dup2\n        /* \"#utility.yul\":796:829   */\n      tag_180\n      jump\t// in\n    tag_227:\n        /* \"#utility.yul\":696:835   */\n      swap3\n      swap2\n      pop\n      pop\n      jump\t// out\n        /* \"#utility.yul\":841:1315   */\n    tag_24:\n        /* \"#utility.yul\":909:915   */\n      0x00\n        /* \"#utility.yul\":917:923   */\n      dup1\n        /* \"#utility.yul\":966:968   */\n      0x40\n        /* \"#utility.yul\":954:963   */\n      dup4\n        /* \"#utility.yul\":945:952   */\n      dup6\n        /* \"#utility.yul\":941:964   */\n      sub\n        /* \"#utility.yul\":937:969   */\n      slt\n        /* \"#utility.yul\":934:1053   */\n      iszero\n      tag_229\n      jumpi\n        /* \"#utility.yul\":972:1051   */\n      tag_230\n      tag_176\n      jump\t// in\n    tag_230:\n        /* \"#utility.yul\":934:1053   */\n    tag_229:\n        /* \"#utility.yul\":1092:1093   */\n      0x00\n        /* \"#utility.yul\":1117:1170   */\n      tag_231\n        /* \"#utility.yul\":1162:1169   */\n      dup6\n        /* \"#utility.yul\":1153:1159   */\n      dup3\n        /* \"#utility.yul\":1142:1151   */\n      dup7\n        /* \"#utility.yul\":1138:1160   */\n      add\n        /* \"#utility.yul\":1117:1170   */\n      tag_181\n      jump\t// in\n    tag_231:\n        /* \"#utility.yul\":1107:1170   */\n      swap3\n      pop\n        /* \"#utility.yul\":1063:1180   */\n      pop\n        /* \"#utility.yul\":1219:1221   */\n      0x20\n        /* \"#utility.yul\":1245:1298   */\n      tag_232\n        /* \"#utility.yul\":1290:1297   */\n      dup6\n        /* \"#utility.yul\":1281:1287   */\n      dup3\n        /* \"#utility.yul\":1270:1279   */\n      dup7\n        /* \"#utility.yul\":1266:1288   */\n      add\n        /* \"#utility.yul\":1245:1298   */\n      tag_181\n      jump\t// in\n    tag_232:\n        /* \"#utility.yul\":1235:1298   */\n      swap2\n      pop\n        /* \"#utility.yul\":1190:1308   */\n      pop\n        /* \"#utility.yul\":841:1315   */\n      swap3\n      pop\n      swap3\n      swap1\n      pop\n      jump\t// out\n        /* \"#utility.yul\":1321:1398   */\n    tag_182:\n        /* \"#utility.yul\":1358:1365   */\n      0x00\n        /* \"#utility.yul\":1387:1392   */\n      dup2\n        /* \"#utility.yul\":1376:1392   */\n      swap1\n      pop\n        /* \"#utility.yul\":1321:1398   */\n      swap2\n      swap1\n      pop\n      jump\t// out\n        /* \"#utility.yul\":1404:1522   */\n    tag_183:\n        /* \"#utility.yul\":1491:1515   */\n      tag_235\n        /* \"#utility.yul\":1509:1514   */\n      dup2\n        /* \"#utility.yul\":1491:1515   */\n      tag_182\n      jump\t// in\n    tag_235:\n        /* \"#utility.yul\":1486:1489   */\n      dup3\n        /* \"#utility.yul\":1479:1516   */\n      mstore\n        /* \"#utility.yul\":1404:1522   */\n      pop\n      pop\n      jump\t// out\n        /* \"#utility.yul\":1528:1750   */\n    tag_27:\n        /* \"#utility.yul\":1621:1625   */\n      0x00\n        /* \"#utility.yul\":1659:1661   */\n      0x20\n        /* \"#utility.yul\":1648:1657   */\n      dup3\n        /* \"#utility.yul\":1644:1662   */\n      add\n        /* \"#utility.yul\":1636:1662   */\n      swap1\n      pop\n        /* \"#utility.yul\":1672:1743   */\n      tag_237\n        /* \"#utility.yul\":1740:1741   */\n      0x00\n        /* \"#utility.yul\":1729:1738   */\n      dup4\n        /* \"#utility.yul\":1725:1742   */\n      add\n        /* \"#utility.yul\":1716:1722   */\n      dup5\n        /* \"#utility.yul\":1672:1743   */\n      tag_183\n      jump\t// in\n    tag_237:\n        /* \"#utility.yul\":1528:1750   */\n      swap3\n      swap2\n      pop\n      pop\n      jump\t// out\n        /* \"#utility.yul\":1756:1855   */\n    tag_184:\n        /* \"#utility.yul\":1808:1814   */\n      0x00\n        /* \"#utility.yul\":1842:1847   */\n      dup2\n        /* \"#utility.yul\":1836:1848   */\n      mload\n        /* \"#utility.yul\":1826:1848   */\n      swap1\n      pop\n        /* \"#utility.yul\":1756:1855   */\n      swap2\n      swap1\n      pop\n      jump\t// out\n        /* \"#utility.yul\":1861:2030   */\n    tag_185:\n        /* \"#utility.yul\":1945:1956   */\n      0x00\n        /* \"#utility.yul\":1979:1985   */\n      dup3\n        /* \"#utility.yul\":1974:1977   */\n      dup3\n        /* \"#utility.yul\":1967:1986   */\n      mstore\n        /* \"#utility.yul\":2019:2023   */\n      0x20\n        /* \"#utility.yul\":2014:2017   */\n      dup3\n        /* \"#utility.yul\":2010:2024   */\n      add\n        /* \"#utility.yul\":1995:2024   */\n      swap1\n      pop\n        /* \"#utility.yul\":1861:2030   */\n      swap3\n      swap2\n      pop\n      pop\n      jump\t// out\n        /* \"#utility.yul\":2036:2343   */\n    tag_186:\n        /* \"#utility.yul\":2104:2105   */\n      0x00\n        /* \"#utility.yul\":2114:2227   */\n    tag_241:\n        /* \"#utility.yul\":2128:2134   */\n      dup4\n        /* \"#utility.yul\":2125:2126   */\n      dup2\n        /* \"#utility.yul\":2122:2135   */\n      lt\n        /* \"#utility.yul\":2114:2227   */\n      iszero\n      tag_243\n      jumpi\n        /* \"#utility.yul\":2213:2214   */\n      dup1\n        /* \"#utility.yul\":2208:2211   */\n      dup3\n        /* \"#utility.yul\":2204:2215   */\n      add\n        /* \"#utility.yul\":2198:2216   */\n      mload\n        /* \"#utility.yul\":2194:2195   */\n      dup2\n        /* \"#utility.yul\":2189:2192   */\n      dup5\n        /* \"#utility.yul\":2185:2196   */\n      add\n        /* \"#utility.yul\":2178:2217   */\n      mstore\n        /* \"#utility.yul\":2150:2152   */\n      0x20\n        /* \"#utility.yul\":2147:2148   */\n      dup2\n        /* \"#utility.yul\":2143:2153   */\n      add\n        /* \"#utility.yul\":2138:2153   */\n      swap1\n      pop\n        /* \"#utility.yul\":2114:2227   */\n      jump(tag_241)\n    tag_243:\n        /* \"#utility.yul\":2245:2251   */\n      dup4\n        /* \"#utility.yul\":2242:2243   */\n      dup2\n        /* \"#utility.yul\":2239:2252   */\n      gt\n        /* \"#utility.yul\":2236:2337   */\n      iszero\n      tag_244\n      jumpi\n        /* \"#utility.yul\":2325:2326   */\n      0x00\n        /* \"#utility.yul\":2316:2322   */\n      dup5\n        /* \"#utility.yul\":2311:2314   */\n      dup5\n        /* \"#utility.yul\":2307:2323   */\n      add\n        /* \"#utility.yul\":2300:2327   */\n      mstore\n        /* \"#utility.yul\":2236:2337   */\n    tag_244:\n        /* \"#utility.yul\":2085:2343   */\n      pop\n        /* \"#utility.yul\":2036:2343   */\n      pop\n      pop\n      pop\n      jump\t// out\n        /* \"#utility.yul\":2349:2451   */\n    tag_187:\n        /* \"#utility.yul\":2390:2396   */\n      0x00\n        /* \"#utility.yul\":2441:2443   */\n      0x1f\n        /* \"#utility.yul\":2437:2444   */\n      not\n        /* \"#utility.yul\":2432:2434   */\n      0x1f\n        /* \"#utility.yul\":2425:2430   */\n      dup4\n        /* \"#utility.yul\":2421:2435   */\n      add\n        /* \"#utility.yul\":2417:2445   */\n      and\n        /* \"#utility.yul\":2407:2445   */\n      swap1\n      pop\n        /* \"#utility.yul\":2349:2451   */\n      swap2\n      swap1\n      pop\n      jump\t// out\n        /* \"#utility.yul\":2457:2821   */\n    tag_188:\n        /* \"#utility.yul\":2545:2548   */\n      0x00\n        /* \"#utility.yul\":2573:2612   */\n      tag_247\n        /* \"#utility.yul\":2606:2611   */\n      dup3\n        /* \"#utility.yul\":2573:2612   */\n      tag_184\n      jump\t// in\n    tag_247:\n        /* \"#utility.yul\":2628:2699   */\n      tag_248\n        /* \"#utility.yul\":2692:2698   */\n      dup2\n        /* \"#utility.yul\":2687:2690   */\n      dup6\n        /* \"#utility.yul\":2628:2699   */\n      tag_185\n      jump\t// in\n    tag_248:\n        /* \"#utility.yul\":2621:2699   */\n      swap4\n      pop\n        /* \"#utility.yul\":2708:2760   */\n      tag_249\n        /* \"#utility.yul\":2753:2759   */\n      dup2\n        /* \"#utility.yul\":2748:2751   */\n      dup6\n        /* \"#utility.yul\":2741:2745   */\n      0x20\n        /* \"#utility.yul\":2734:2739   */\n      dup7\n        /* \"#utility.yul\":2730:2746   */\n      add\n        /* \"#utility.yul\":2708:2760   */\n      tag_186\n      jump\t// in\n    tag_249:\n        /* \"#utility.yul\":2785:2814   */\n      tag_250\n        /* \"#utility.yul\":2807:2813   */\n      dup2\n        /* \"#utility.yul\":2785:2814   */\n      tag_187\n      jump\t// in\n    tag_250:\n        /* \"#utility.yul\":2780:2783   */\n      dup5\n        /* \"#utility.yul\":2776:2815   */\n      add\n        /* \"#utility.yul\":2769:2815   */\n      swap2\n      pop\n        /* \"#utility.yul\":2549:2821   */\n      pop\n        /* \"#utility.yul\":2457:2821   */\n      swap3\n      swap2\n      pop\n      pop\n      jump\t// out\n        /* \"#utility.yul\":2827:3140   */\n    tag_31:\n        /* \"#utility.yul\":2940:2944   */\n      0x00\n        /* \"#utility.yul\":2978:2980   */\n      0x20\n        /* \"#utility.yul\":2967:2976   */\n      dup3\n        /* \"#utility.yul\":2963:2981   */\n      add\n        /* \"#utility.yul\":2955:2981   */\n      swap1\n      pop\n        /* \"#utility.yul\":3027:3036   */\n      dup2\n        /* \"#utility.yul\":3021:3025   */\n      dup2\n        /* \"#utility.yul\":3017:3037   */\n      sub\n        /* \"#utility.yul\":3013:3014   */\n      0x00\n        /* \"#utility.yul\":3002:3011   */\n      dup4\n        /* \"#utility.yul\":2998:3015   */\n      add\n        /* \"#utility.yul\":2991:3038   */\n      mstore\n        /* \"#utility.yul\":3055:3133   */\n      tag_252\n        /* \"#utility.yul\":3128:3132   */\n      dup2\n        /* \"#utility.yul\":3119:3125   */\n      dup5\n        /* \"#utility.yul\":3055:3133   */\n      tag_188\n      jump\t// in\n    tag_252:\n        /* \"#utility.yul\":3047:3133   */\n      swap1\n      pop\n        /* \"#utility.yul\":2827:3140   */\n      swap3\n      swap2\n      pop\n      pop\n      jump\t// out\n        /* \"#utility.yul\":3146:3268   */\n    tag_189:\n        /* \"#utility.yul\":3219:3243   */\n      tag_254\n        /* \"#utility.yul\":3237:3242   */\n      dup2\n        /* \"#utility.yul\":3219:3243   */\n      tag_182\n      jump\t// in\n    tag_254:\n        /* \"#utility.yul\":3212:3217   */\n      dup2\n        /* \"#utility.yul\":3209:3244   */\n      eq\n        /* \"#utility.yul\":3199:3262   */\n      tag_255\n      jumpi\n        /* \"#utility.yul\":3258:3259   */\n      0x00\n        /* \"#utility.yul\":3255:3256   */\n      dup1\n        /* \"#utility.yul\":3248:3260   */\n      revert\n        /* \"#utility.yul\":3199:3262   */\n    tag_255:\n        /* \"#utility.yul\":3146:3268   */\n      pop\n      jump\t// out\n        /* \"#utility.yul\":3274:3413   */\n    tag_190:\n        /* \"#utility.yul\":3320:3325   */\n      0x00\n        /* \"#utility.yul\":3358:3364   */\n      dup2\n        /* \"#utility.yul\":3345:3365   */\n      calldataload\n        /* \"#utility.yul\":3336:3365   */\n      swap1\n      pop\n        /* \"#utility.yul\":3374:3407   */\n      tag_257\n        /* \"#utility.yul\":3401:3406   */\n      dup2\n        /* \"#utility.yul\":3374:3407   */\n      tag_189\n      jump\t// in\n    tag_257:\n        /* \"#utility.yul\":3274:3413   */\n      swap3\n      swap2\n      pop\n      pop\n      jump\t// out\n        /* \"#utility.yul\":3419:3893   */\n    tag_34:\n        /* \"#utility.yul\":3487:3493   */\n      0x00\n        /* \"#utility.yul\":3495:3501   */\n      dup1\n        /* \"#utility.yul\":3544:3546   */\n      0x40\n        /* \"#utility.yul\":3532:3541   */\n      dup4\n        /* \"#utility.yul\":3523:3530   */\n      dup6\n        /* \"#utility.yul\":3519:3542   */\n      sub\n        /* \"#utility.yul\":3515:3547   */\n      slt\n        /* \"#utility.yul\":3512:3631   */\n      iszero\n      tag_259\n      jumpi\n        /* \"#utility.yul\":3550:3629   */\n      tag_260\n      tag_176\n      jump\t// in\n    tag_260:\n        /* \"#utility.yul\":3512:3631   */\n    tag_259:\n        /* \"#utility.yul\":3670:3671   */\n      0x00\n        /* \"#utility.yul\":3695:3748   */\n      tag_261\n        /* \"#utility.yul\":3740:3747   */\n      dup6\n        /* \"#utility.yul\":3731:3737   */\n      dup3\n        /* \"#utility.yul\":3720:3729   */\n      dup7\n        /* \"#utility.yul\":3716:3738   */\n      add\n        /* \"#utility.yul\":3695:3748   */\n      tag_181\n      jump\t// in\n    tag_261:\n        /* \"#utility.yul\":3685:3748   */\n      swap3\n      pop\n        /* \"#utility.yul\":3641:3758   */\n      pop\n        /* \"#utility.yul\":3797:3799   */\n      0x20\n        /* \"#utility.yul\":3823:3876   */\n      tag_262\n        /* \"#utility.yul\":3868:3875   */\n      dup6\n        /* \"#utility.yul\":3859:3865   */\n      dup3\n        /* \"#utility.yul\":3848:3857   */\n      dup7\n        /* \"#utility.yul\":3844:3866   */\n      add\n        /* \"#utility.yul\":3823:3876   */\n      tag_190\n      jump\t// in\n    tag_262:\n        /* \"#utility.yul\":3813:3876   */\n      swap2\n      pop\n        /* \"#utility.yul\":3768:3886   */\n      pop\n        /* \"#utility.yul\":3419:3893   */\n      swap3\n      pop\n      swap3\n      swap1\n      pop\n      jump\t// out\n        /* \"#utility.yul\":3899:3989   */\n    tag_191:\n        /* \"#utility.yul\":3933:3940   */\n      0x00\n        /* \"#utility.yul\":3976:3981   */\n      dup2\n        /* \"#utility.yul\":3969:3982   */\n      iszero\n        /* \"#utility.yul\":3962:3983   */\n      iszero\n        /* \"#utility.yul\":3951:3983   */\n      swap1\n      pop\n        /* \"#utility.yul\":3899:3989   */\n      swap2\n      swap1\n      pop\n      jump\t// out\n        /* \"#utility.yul\":3995:4104   */\n    tag_192:\n        /* \"#utility.yul\":4076:4097   */\n      tag_265\n        /* \"#utility.yul\":4091:4096   */\n      dup2\n        /* \"#utility.yul\":4076:4097   */\n      tag_191\n      jump\t// in\n    tag_265:\n        /* \"#utility.yul\":4071:4074   */\n      dup3\n        /* \"#utility.yul\":4064:4098   */\n      mstore\n        /* \"#utility.yul\":3995:4104   */\n      pop\n      pop\n      jump\t// out\n        /* \"#utility.yul\":4110:4320   */\n    tag_37:\n        /* \"#utility.yul\":4197:4201   */\n      0x00\n        /* \"#utility.yul\":4235:4237   */\n      0x20\n        /* \"#utility.yul\":4224:4233   */\n      dup3\n        /* \"#utility.yul\":4220:4238   */\n      add\n        /* \"#utility.yul\":4212:4238   */\n      swap1\n      pop\n        /* \"#utility.yul\":4248:4313   */\n      tag_267\n        /* \"#utility.yul\":4310:4311   */\n      0x00\n        /* \"#utility.yul\":4299:4308   */\n      dup4\n        /* \"#utility.yul\":4295:4312   */\n      add\n        /* \"#utility.yul\":4286:4292   */\n      dup5\n        /* \"#utility.yul\":4248:4313   */\n      tag_192\n      jump\t// in\n    tag_267:\n        /* \"#utility.yul\":4110:4320   */\n      swap3\n      swap2\n      pop\n      pop\n      jump\t// out\n        /* \"#utility.yul\":4326:4945   */\n    tag_43:\n        /* \"#utility.yul\":4403:4409   */\n      0x00\n        /* \"#utility.yul\":4411:4417   */\n      dup1\n        /* \"#utility.yul\":4419:4425   */\n      0x00\n        /* \"#utility.yul\":4468:4470   */\n      0x60\n        /* \"#utility.yul\":4456:4465   */\n      dup5\n        /* \"#utility.yul\":4447:4454   */\n      dup7\n        /* \"#utility.yul\":4443:4466   */\n      sub\n        /* \"#utility.yul\":4439:4471   */\n      slt\n        /* \"#utility.yul\":4436:4555   */\n      iszero\n      tag_269\n      jumpi\n        /* \"#utility.yul\":4474:4553   */\n      tag_270\n      tag_176\n      jump\t// in\n    tag_270:\n        /* \"#utility.yul\":4436:4555   */\n    tag_269:\n        /* \"#utility.yul\":4594:4595   */\n      0x00\n        /* \"#utility.yul\":4619:4672   */\n      tag_271\n        /* \"#utility.yul\":4664:4671   */\n      dup7\n        /* \"#utility.yul\":4655:4661   */\n      dup3\n        /* \"#utility.yul\":4644:4653   */\n      dup8\n        /* \"#utility.yul\":4640:4662   */\n      add\n        /* \"#utility.yul\":4619:4672   */\n      tag_181\n      jump\t// in\n    tag_271:\n        /* \"#utility.yul\":4609:4672   */\n      swap4\n      pop\n        /* \"#utility.yul\":4565:4682   */\n      pop\n        /* \"#utility.yul\":4721:4723   */\n      0x20\n        /* \"#utility.yul\":4747:4800   */\n      tag_272\n        /* \"#utility.yul\":4792:4799   */\n      dup7\n        /* \"#utility.yul\":4783:4789   */\n      dup3\n        /* \"#utility.yul\":4772:4781   */\n      dup8\n        /* \"#utility.yul\":4768:4790   */\n      add\n        /* \"#utility.yul\":4747:4800   */\n      tag_181\n      jump\t// in\n    tag_272:\n        /* \"#utility.yul\":4737:4800   */\n      swap3\n      pop\n        /* \"#utility.yul\":4692:4810   */\n      pop\n        /* \"#utility.yul\":4849:4851   */\n      0x40\n        /* \"#utility.yul\":4875:4928   */\n      tag_273\n        /* \"#utility.yul\":4920:4927   */\n      dup7\n        /* \"#utility.yul\":4911:4917   */\n      dup3\n        /* \"#utility.yul\":4900:4909   */\n      dup8\n        /* \"#utility.yul\":4896:4918   */\n      add\n        /* \"#utility.yul\":4875:4928   */\n      tag_190\n      jump\t// in\n    tag_273:\n        /* \"#utility.yul\":4865:4928   */\n      swap2\n      pop\n        /* \"#utility.yul\":4820:4938   */\n      pop\n        /* \"#utility.yul\":4326:4945   */\n      swap3\n      pop\n      swap3\n      pop\n      swap3\n      jump\t// out\n        /* \"#utility.yul\":4951:5037   */\n    tag_193:\n        /* \"#utility.yul\":4986:4993   */\n      0x00\n        /* \"#utility.yul\":5026:5030   */\n      0xff\n        /* \"#utility.yul\":5019:5024   */\n      dup3\n        /* \"#utility.yul\":5015:5031   */\n      and\n        /* \"#utility.yul\":5004:5031   */\n      swap1\n      pop\n        /* \"#utility.yul\":4951:5037   */\n      swap2\n      swap1\n      pop\n      jump\t// out\n        /* \"#utility.yul\":5043:5155   */\n    tag_194:\n        /* \"#utility.yul\":5126:5148   */\n      tag_276\n        /* \"#utility.yul\":5142:5147   */\n      dup2\n        /* \"#utility.yul\":5126:5148   */\n      tag_193\n      jump\t// in\n    tag_276:\n        /* \"#utility.yul\":5121:5124   */\n      dup3\n        /* \"#utility.yul\":5114:5149   */\n      mstore\n        /* \"#utility.yul\":5043:5155   */\n      pop\n      pop\n      jump\t// out\n        /* \"#utility.yul\":5161:5375   */\n    tag_49:\n        /* \"#utility.yul\":5250:5254   */\n      0x00\n        /* \"#utility.yul\":5288:5290   */\n      0x20\n        /* \"#utility.yul\":5277:5286   */\n      dup3\n        /* \"#utility.yul\":5273:5291   */\n      add\n        /* \"#utility.yul\":5265:5291   */\n      swap1\n      pop\n        /* \"#utility.yul\":5301:5368   */\n      tag_278\n        /* \"#utility.yul\":5365:5366   */\n      0x00\n        /* \"#utility.yul\":5354:5363   */\n      dup4\n        /* \"#utility.yul\":5350:5367   */\n      add\n        /* \"#utility.yul\":5341:5347   */\n      dup5\n        /* \"#utility.yul\":5301:5368   */\n      tag_194\n      jump\t// in\n    tag_278:\n        /* \"#utility.yul\":5161:5375   */\n      swap3\n      swap2\n      pop\n      pop\n      jump\t// out\n        /* \"#utility.yul\":5381:5710   */\n    tag_58:\n        /* \"#utility.yul\":5440:5446   */\n      0x00\n        /* \"#utility.yul\":5489:5491   */\n      0x20\n        /* \"#utility.yul\":5477:5486   */\n      dup3\n        /* \"#utility.yul\":5468:5475   */\n      dup5\n        /* \"#utility.yul\":5464:5487   */\n      sub\n        /* \"#utility.yul\":5460:5492   */\n      slt\n        /* \"#utility.yul\":5457:5576   */\n      iszero\n      tag_280\n      jumpi\n        /* \"#utility.yul\":5495:5574   */\n      tag_281\n      tag_176\n      jump\t// in\n    tag_281:\n        /* \"#utility.yul\":5457:5576   */\n    tag_280:\n        /* \"#utility.yul\":5615:5616   */\n      0x00\n        /* \"#utility.yul\":5640:5693   */\n      tag_282\n        /* \"#utility.yul\":5685:5692   */\n      dup5\n        /* \"#utility.yul\":5676:5682   */\n      dup3\n        /* \"#utility.yul\":5665:5674   */\n      dup6\n        /* \"#utility.yul\":5661:5683   */\n      add\n        /* \"#utility.yul\":5640:5693   */\n      tag_181\n      jump\t// in\n    tag_282:\n        /* \"#utility.yul\":5630:5693   */\n      swap2\n      pop\n        /* \"#utility.yul\":5586:5703   */\n      pop\n        /* \"#utility.yul\":5381:5710   */\n      swap3\n      swap2\n      pop\n      pop\n      jump\t// out\n        /* \"#utility.yul\":5716:5834   */\n    tag_195:\n        /* \"#utility.yul\":5803:5827   */\n      tag_284\n        /* \"#utility.yul\":5821:5826   */\n      dup2\n        /* \"#utility.yul\":5803:5827   */\n      tag_179\n      jump\t// in\n    tag_284:\n        /* \"#utility.yul\":5798:5801   */\n      dup3\n        /* \"#utility.yul\":5791:5828   */\n      mstore\n        /* \"#utility.yul\":5716:5834   */\n      pop\n      pop\n      jump\t// out\n        /* \"#utility.yul\":5840:6062   */\n    tag_64:\n        /* \"#utility.yul\":5933:5937   */\n      0x00\n        /* \"#utility.yul\":5971:5973   */\n      0x20\n        /* \"#utility.yul\":5960:5969   */\n      dup3\n        /* \"#utility.yul\":5956:5974   */\n      add\n        /* \"#utility.yul\":5948:5974   */\n      swap1\n      pop\n        /* \"#utility.yul\":5984:6055   */\n      tag_286\n        /* \"#utility.yul\":6052:6053   */\n      0x00\n        /* \"#utility.yul\":6041:6050   */\n      dup4\n        /* \"#utility.yul\":6037:6054   */\n      add\n        /* \"#utility.yul\":6028:6034   */\n      dup5\n        /* \"#utility.yul\":5984:6055   */\n      tag_195\n      jump\t// in\n    tag_286:\n        /* \"#utility.yul\":5840:6062   */\n      swap3\n      swap2\n      pop\n      pop\n      jump\t// out\n        /* \"#utility.yul\":6068:6248   */\n    tag_196:\n        /* \"#utility.yul\":6116:6193   */\n      0x4e487b7100000000000000000000000000000000000000000000000000000000\n        /* \"#utility.yul\":6113:6114   */\n      0x00\n        /* \"#utility.yul\":6106:6194   */\n      mstore\n        /* \"#utility.yul\":6213:6217   */\n      0x22\n        /* \"#utility.yul\":6210:6211   */\n      0x04\n        /* \"#utility.yul\":6203:6218   */\n      mstore\n        /* \"#utility.yul\":6237:6241   */\n      0x24\n        /* \"#utility.yul\":6234:6235   */\n      0x00\n        /* \"#utility.yul\":6227:6242   */\n      revert\n        /* \"#utility.yul\":6254:6574   */\n    tag_87:\n        /* \"#utility.yul\":6298:6304   */\n      0x00\n        /* \"#utility.yul\":6335:6336   */\n      0x02\n        /* \"#utility.yul\":6329:6333   */\n      dup3\n        /* \"#utility.yul\":6325:6337   */\n      div\n        /* \"#utility.yul\":6315:6337   */\n      swap1\n      pop\n        /* \"#utility.yul\":6382:6383   */\n      0x01\n        /* \"#utility.yul\":6376:6380   */\n      dup3\n        /* \"#utility.yul\":6372:6384   */\n      and\n        /* \"#utility.yul\":6403:6421   */\n      dup1\n        /* \"#utility.yul\":6393:6474   */\n      tag_289\n      jumpi\n        /* \"#utility.yul\":6459:6463   */\n      0x7f\n        /* \"#utility.yul\":6451:6457   */\n      dup3\n        /* \"#utility.yul\":6447:6464   */\n      and\n        /* \"#utility.yul\":6437:6464   */\n      swap2\n      pop\n        /* \"#utility.yul\":6393:6474   */\n    tag_289:\n        /* \"#utility.yul\":6521:6523   */\n      0x20\n        /* \"#utility.yul\":6513:6519   */\n      dup3\n        /* \"#utility.yul\":6510:6524   */\n      lt\n        /* \"#utility.yul\":6490:6508   */\n      dup2\n        /* \"#utility.yul\":6487:6525   */\n      eq\n        /* \"#utility.yul\":6484:6568   */\n      iszero\n      tag_290\n      jumpi\n        /* \"#utility.yul\":6540:6558   */\n      tag_291\n      tag_196\n      jump\t// in\n    tag_291:\n        /* \"#utility.yul\":6484:6568   */\n    tag_290:\n        /* \"#utility.yul\":6305:6574   */\n      pop\n        /* \"#utility.yul\":6254:6574   */\n      swap2\n      swap1\n      pop\n      jump\t// out\n        /* \"#utility.yul\":6580:6807   */\n    tag_197:\n        /* \"#utility.yul\":6720:6754   */\n      0x45524332303a205472616e7366657220616d6f756e7420657863656564732061\n        /* \"#utility.yul\":6716:6717   */\n      0x00\n        /* \"#utility.yul\":6708:6714   */\n      dup3\n        /* \"#utility.yul\":6704:6718   */\n      add\n        /* \"#utility.yul\":6697:6755   */\n      mstore\n        /* \"#utility.yul\":6789:6799   */\n      0x6c6c6f77616e6365000000000000000000000000000000000000000000000000\n        /* \"#utility.yul\":6784:6786   */\n      0x20\n        /* \"#utility.yul\":6776:6782   */\n      dup3\n        /* \"#utility.yul\":6772:6787   */\n      add\n        /* \"#utility.yul\":6765:6800   */\n      mstore\n        /* \"#utility.yul\":6580:6807   */\n      pop\n      jump\t// out\n        /* \"#utility.yul\":6813:7179   */\n    tag_198:\n        /* \"#utility.yul\":6955:6958   */\n      0x00\n        /* \"#utility.yul\":6976:7043   */\n      tag_294\n        /* \"#utility.yul\":7040:7042   */\n      0x28\n        /* \"#utility.yul\":7035:7038   */\n      dup4\n        /* \"#utility.yul\":6976:7043   */\n      tag_185\n      jump\t// in\n    tag_294:\n        /* \"#utility.yul\":6969:7043   */\n      swap2\n      pop\n        /* \"#utility.yul\":7052:7145   */\n      tag_295\n        /* \"#utility.yul\":7141:7144   */\n      dup3\n        /* \"#utility.yul\":7052:7145   */\n      tag_197\n      jump\t// in\n    tag_295:\n        /* \"#utility.yul\":7170:7172   */\n      0x40\n        /* \"#utility.yul\":7165:7168   */\n      dup3\n        /* \"#utility.yul\":7161:7173   */\n      add\n        /* \"#utility.yul\":7154:7173   */\n      swap1\n      pop\n        /* \"#utility.yul\":6813:7179   */\n      swap2\n      swap1\n      pop\n      jump\t// out\n        /* \"#utility.yul\":7185:7604   */\n    tag_95:\n        /* \"#utility.yul\":7351:7355   */\n      0x00\n        /* \"#utility.yul\":7389:7391   */\n      0x20\n        /* \"#utility.yul\":7378:7387   */\n      dup3\n        /* \"#utility.yul\":7374:7392   */\n      add\n        /* \"#utility.yul\":7366:7392   */\n      swap1\n      pop\n        /* \"#utility.yul\":7438:7447   */\n      dup2\n        /* \"#utility.yul\":7432:7436   */\n      dup2\n        /* \"#utility.yul\":7428:7448   */\n      sub\n        /* \"#utility.yul\":7424:7425   */\n      0x00\n        /* \"#utility.yul\":7413:7422   */\n      dup4\n        /* \"#utility.yul\":7409:7426   */\n      add\n        /* \"#utility.yul\":7402:7449   */\n      mstore\n        /* \"#utility.yul\":7466:7597   */\n      tag_297\n        /* \"#utility.yul\":7592:7596   */\n      dup2\n        /* \"#utility.yul\":7466:7597   */\n      tag_198\n      jump\t// in\n    tag_297:\n        /* \"#utility.yul\":7458:7597   */\n      swap1\n      pop\n        /* \"#utility.yul\":7185:7604   */\n      swap2\n      swap1\n      pop\n      jump\t// out\n        /* \"#utility.yul\":7610:7837   */\n    tag_199:\n        /* \"#utility.yul\":7750:7784   */\n      0x45524332303a207472616e7366657220616d6f756e7420657863656564732061\n        /* \"#utility.yul\":7746:7747   */\n      0x00\n        /* \"#utility.yul\":7738:7744   */\n      dup3\n        /* \"#utility.yul\":7734:7748   */\n      add\n        /* \"#utility.yul\":7727:7785   */\n      mstore\n        /* \"#utility.yul\":7819:7829   */\n      0x6c6c6f77616e6365000000000000000000000000000000000000000000000000\n        /* \"#utility.yul\":7814:7816   */\n      0x20\n        /* \"#utility.yul\":7806:7812   */\n      dup3\n        /* \"#utility.yul\":7802:7817   */\n      add\n        /* \"#utility.yul\":7795:7830   */\n      mstore\n        /* \"#utility.yul\":7610:7837   */\n      pop\n      jump\t// out\n        /* \"#utility.yul\":7843:8209   */\n    tag_200:\n        /* \"#utility.yul\":7985:7988   */\n      0x00\n        /* \"#utility.yul\":8006:8073   */\n      tag_300\n        /* \"#utility.yul\":8070:8072   */\n      0x28\n        /* \"#utility.yul\":8065:8068   */\n      dup4\n        /* \"#utility.yul\":8006:8073   */\n      tag_185\n      jump\t// in\n    tag_300:\n        /* \"#utility.yul\":7999:8073   */\n      swap2\n      pop\n        /* \"#utility.yul\":8082:8175   */\n      tag_301\n        /* \"#utility.yul\":8171:8174   */\n      dup3\n        /* \"#utility.yul\":8082:8175   */\n      tag_199\n      jump\t// in\n    tag_301:\n        /* \"#utility.yul\":8200:8202   */\n      0x40\n        /* \"#utility.yul\":8195:8198   */\n      dup3\n        /* \"#utility.yul\":8191:8203   */\n      add\n        /* \"#utility.yul\":8184:8203   */\n      swap1\n      pop\n        /* \"#utility.yul\":7843:8209   */\n      swap2\n      swap1\n      pop\n      jump\t// out\n        /* \"#utility.yul\":8215:8634   */\n    tag_105:\n        /* \"#utility.yul\":8381:8385   */\n      0x00\n        /* \"#utility.yul\":8419:8421   */\n      0x20\n        /* \"#utility.yul\":8408:8417   */\n      dup3\n        /* \"#utility.yul\":8404:8422   */\n      add\n        /* \"#utility.yul\":8396:8422   */\n      swap1\n      pop\n        /* \"#utility.yul\":8468:8477   */\n      dup2\n        /* \"#utility.yul\":8462:8466   */\n      dup2\n        /* \"#utility.yul\":8458:8478   */\n      sub\n        /* \"#utility.yul\":8454:8455   */\n      0x00\n        /* \"#utility.yul\":8443:8452   */\n      dup4\n        /* \"#utility.yul\":8439:8456   */\n      add\n        /* \"#utility.yul\":8432:8479   */\n      mstore\n        /* \"#utility.yul\":8496:8627   */\n      tag_303\n        /* \"#utility.yul\":8622:8626   */\n      dup2\n        /* \"#utility.yul\":8496:8627   */\n      tag_200\n      jump\t// in\n    tag_303:\n        /* \"#utility.yul\":8488:8627   */\n      swap1\n      pop\n        /* \"#utility.yul\":8215:8634   */\n      swap2\n      swap1\n      pop\n      jump\t// out\n        /* \"#utility.yul\":8640:8822   */\n    tag_201:\n        /* \"#utility.yul\":8780:8814   */\n      0x4f776e657248656c7065723a2063616c6c6572206973206e6f74206f776e6572\n        /* \"#utility.yul\":8776:8777   */\n      0x00\n        /* \"#utility.yul\":8768:8774   */\n      dup3\n        /* \"#utility.yul\":8764:8778   */\n      add\n        /* \"#utility.yul\":8757:8815   */\n      mstore\n        /* \"#utility.yul\":8640:8822   */\n      pop\n      jump\t// out\n        /* \"#utility.yul\":8828:9194   */\n    tag_202:\n        /* \"#utility.yul\":8970:8973   */\n      0x00\n        /* \"#utility.yul\":8991:9058   */\n      tag_306\n        /* \"#utility.yul\":9055:9057   */\n      0x20\n        /* \"#utility.yul\":9050:9053   */\n      dup4\n        /* \"#utility.yul\":8991:9058   */\n      tag_185\n      jump\t// in\n    tag_306:\n        /* \"#utility.yul\":8984:9058   */\n      swap2\n      pop\n        /* \"#utility.yul\":9067:9160   */\n      tag_307\n        /* \"#utility.yul\":9156:9159   */\n      dup3\n        /* \"#utility.yul\":9067:9160   */\n      tag_201\n      jump\t// in\n    tag_307:\n        /* \"#utility.yul\":9185:9187   */\n      0x20\n        /* \"#utility.yul\":9180:9183   */\n      dup3\n        /* \"#utility.yul\":9176:9188   */\n      add\n        /* \"#utility.yul\":9169:9188   */\n      swap1\n      pop\n        /* \"#utility.yul\":8828:9194   */\n      swap2\n      swap1\n      pop\n      jump\t// out\n        /* \"#utility.yul\":9200:9619   */\n    tag_135:\n        /* \"#utility.yul\":9366:9370   */\n      0x00\n        /* \"#utility.yul\":9404:9406   */\n      0x20\n        /* \"#utility.yul\":9393:9402   */\n      dup3\n        /* \"#utility.yul\":9389:9407   */\n      add\n        /* \"#utility.yul\":9381:9407   */\n      swap1\n      pop\n        /* \"#utility.yul\":9453:9462   */\n      dup2\n        /* \"#utility.yul\":9447:9451   */\n      dup2\n        /* \"#utility.yul\":9443:9463   */\n      sub\n        /* \"#utility.yul\":9439:9440   */\n      0x00\n        /* \"#utility.yul\":9428:9437   */\n      dup4\n        /* \"#utility.yul\":9424:9441   */\n      add\n        /* \"#utility.yul\":9417:9464   */\n      mstore\n        /* \"#utility.yul\":9481:9612   */\n      tag_309\n        /* \"#utility.yul\":9607:9611   */\n      dup2\n        /* \"#utility.yul\":9481:9612   */\n      tag_202\n      jump\t// in\n    tag_309:\n        /* \"#utility.yul\":9473:9612   */\n      swap1\n      pop\n        /* \"#utility.yul\":9200:9619   */\n      swap2\n      swap1\n      pop\n      jump\t// out\n        /* \"#utility.yul\":9625:9848   */\n    tag_203:\n        /* \"#utility.yul\":9765:9799   */\n      0x45524332303a20617070726f76652066726f6d20746865207a65726f20616464\n        /* \"#utility.yul\":9761:9762   */\n      0x00\n        /* \"#utility.yul\":9753:9759   */\n      dup3\n        /* \"#utility.yul\":9749:9763   */\n      add\n        /* \"#utility.yul\":9742:9800   */\n      mstore\n        /* \"#utility.yul\":9834:9840   */\n      0x7265737300000000000000000000000000000000000000000000000000000000\n        /* \"#utility.yul\":9829:9831   */\n      0x20\n        /* \"#utility.yul\":9821:9827   */\n      dup3\n        /* \"#utility.yul\":9817:9832   */\n      add\n        /* \"#utility.yul\":9810:9841   */\n      mstore\n        /* \"#utility.yul\":9625:9848   */\n      pop\n      jump\t// out\n        /* \"#utility.yul\":9854:10220   */\n    tag_204:\n        /* \"#utility.yul\":9996:9999   */\n      0x00\n        /* \"#utility.yul\":10017:10084   */\n      tag_312\n        /* \"#utility.yul\":10081:10083   */\n      0x24\n        /* \"#utility.yul\":10076:10079   */\n      dup4\n        /* \"#utility.yul\":10017:10084   */\n      tag_185\n      jump\t// in\n    tag_312:\n        /* \"#utility.yul\":10010:10084   */\n      swap2\n      pop\n        /* \"#utility.yul\":10093:10186   */\n      tag_313\n        /* \"#utility.yul\":10182:10185   */\n      dup3\n        /* \"#utility.yul\":10093:10186   */\n      tag_203\n      jump\t// in\n    tag_313:\n        /* \"#utility.yul\":10211:10213   */\n      0x40\n        /* \"#utility.yul\":10206:10209   */\n      dup3\n        /* \"#utility.yul\":10202:10214   */\n      add\n        /* \"#utility.yul\":10195:10214   */\n      swap1\n      pop\n        /* \"#utility.yul\":9854:10220   */\n      swap2\n      swap1\n      pop\n      jump\t// out\n        /* \"#utility.yul\":10226:10645   */\n    tag_142:\n        /* \"#utility.yul\":10392:10396   */\n      0x00\n        /* \"#utility.yul\":10430:10432   */\n      0x20\n        /* \"#utility.yul\":10419:10428   */\n      dup3\n        /* \"#utility.yul\":10415:10433   */\n      add\n        /* \"#utility.yul\":10407:10433   */\n      swap1\n      pop\n        /* \"#utility.yul\":10479:10488   */\n      dup2\n        /* \"#utility.yul\":10473:10477   */\n      dup2\n        /* \"#utility.yul\":10469:10489   */\n      sub\n        /* \"#utility.yul\":10465:10466   */\n      0x00\n        /* \"#utility.yul\":10454:10463   */\n      dup4\n        /* \"#utility.yul\":10450:10467   */\n      add\n        /* \"#utility.yul\":10443:10490   */\n      mstore\n        /* \"#utility.yul\":10507:10638   */\n      tag_315\n        /* \"#utility.yul\":10633:10637   */\n      dup2\n        /* \"#utility.yul\":10507:10638   */\n      tag_204\n      jump\t// in\n    tag_315:\n        /* \"#utility.yul\":10499:10638   */\n      swap1\n      pop\n        /* \"#utility.yul\":10226:10645   */\n      swap2\n      swap1\n      pop\n      jump\t// out\n        /* \"#utility.yul\":10651:10872   */\n    tag_205:\n        /* \"#utility.yul\":10791:10825   */\n      0x45524332303a20617070726f766520746f20746865207a65726f206164647265\n        /* \"#utility.yul\":10787:10788   */\n      0x00\n        /* \"#utility.yul\":10779:10785   */\n      dup3\n        /* \"#utility.yul\":10775:10789   */\n      add\n        /* \"#utility.yul\":10768:10826   */\n      mstore\n        /* \"#utility.yul\":10860:10864   */\n      0x7373000000000000000000000000000000000000000000000000000000000000\n        /* \"#utility.yul\":10855:10857   */\n      0x20\n        /* \"#utility.yul\":10847:10853   */\n      dup3\n        /* \"#utility.yul\":10843:10858   */\n      add\n        /* \"#utility.yul\":10836:10865   */\n      mstore\n        /* \"#utility.yul\":10651:10872   */\n      pop\n      jump\t// out\n        /* \"#utility.yul\":10878:11244   */\n    tag_206:\n        /* \"#utility.yul\":11020:11023   */\n      0x00\n        /* \"#utility.yul\":11041:11108   */\n      tag_318\n        /* \"#utility.yul\":11105:11107   */\n      0x22\n        /* \"#utility.yul\":11100:11103   */\n      dup4\n        /* \"#utility.yul\":11041:11108   */\n      tag_185\n      jump\t// in\n    tag_318:\n        /* \"#utility.yul\":11034:11108   */\n      swap2\n      pop\n        /* \"#utility.yul\":11117:11210   */\n      tag_319\n        /* \"#utility.yul\":11206:11209   */\n      dup3\n        /* \"#utility.yul\":11117:11210   */\n      tag_205\n      jump\t// in\n    tag_319:\n        /* \"#utility.yul\":11235:11237   */\n      0x40\n        /* \"#utility.yul\":11230:11233   */\n      dup3\n        /* \"#utility.yul\":11226:11238   */\n      add\n        /* \"#utility.yul\":11219:11238   */\n      swap1\n      pop\n        /* \"#utility.yul\":10878:11244   */\n      swap2\n      swap1\n      pop\n      jump\t// out\n        /* \"#utility.yul\":11250:11669   */\n    tag_145:\n        /* \"#utility.yul\":11416:11420   */\n      0x00\n        /* \"#utility.yul\":11454:11456   */\n      0x20\n        /* \"#utility.yul\":11443:11452   */\n      dup3\n        /* \"#utility.yul\":11439:11457   */\n      add\n        /* \"#utility.yul\":11431:11457   */\n      swap1\n      pop\n        /* \"#utility.yul\":11503:11512   */\n      dup2\n        /* \"#utility.yul\":11497:11501   */\n      dup2\n        /* \"#utility.yul\":11493:11513   */\n      sub\n        /* \"#utility.yul\":11489:11490   */\n      0x00\n        /* \"#utility.yul\":11478:11487   */\n      dup4\n        /* \"#utility.yul\":11474:11491   */\n      add\n        /* \"#utility.yul\":11467:11514   */\n      mstore\n        /* \"#utility.yul\":11531:11662   */\n      tag_321\n        /* \"#utility.yul\":11657:11661   */\n      dup2\n        /* \"#utility.yul\":11531:11662   */\n      tag_206\n      jump\t// in\n    tag_321:\n        /* \"#utility.yul\":11523:11662   */\n      swap1\n      pop\n        /* \"#utility.yul\":11250:11669   */\n      swap2\n      swap1\n      pop\n      jump\t// out\n        /* \"#utility.yul\":11675:11853   */\n    tag_207:\n        /* \"#utility.yul\":11815:11845   */\n      0x45524332303a20696e76616c69642063757272656e74416d6f756e7400000000\n        /* \"#utility.yul\":11811:11812   */\n      0x00\n        /* \"#utility.yul\":11803:11809   */\n      dup3\n        /* \"#utility.yul\":11799:11813   */\n      add\n        /* \"#utility.yul\":11792:11846   */\n      mstore\n        /* \"#utility.yul\":11675:11853   */\n      pop\n      jump\t// out\n        /* \"#utility.yul\":11859:12225   */\n    tag_208:\n        /* \"#utility.yul\":12001:12004   */\n      0x00\n        /* \"#utility.yul\":12022:12089   */\n      tag_324\n        /* \"#utility.yul\":12086:12088   */\n      0x1c\n        /* \"#utility.yul\":12081:12084   */\n      dup4\n        /* \"#utility.yul\":12022:12089   */\n      tag_185\n      jump\t// in\n    tag_324:\n        /* \"#utility.yul\":12015:12089   */\n      swap2\n      pop\n        /* \"#utility.yul\":12098:12191   */\n      tag_325\n        /* \"#utility.yul\":12187:12190   */\n      dup3\n        /* \"#utility.yul\":12098:12191   */\n      tag_207\n      jump\t// in\n    tag_325:\n        /* \"#utility.yul\":12216:12218   */\n      0x20\n        /* \"#utility.yul\":12211:12214   */\n      dup3\n        /* \"#utility.yul\":12207:12219   */\n      add\n        /* \"#utility.yul\":12200:12219   */\n      swap1\n      pop\n        /* \"#utility.yul\":11859:12225   */\n      swap2\n      swap1\n      pop\n      jump\t// out\n        /* \"#utility.yul\":12231:12650   */\n    tag_148:\n        /* \"#utility.yul\":12397:12401   */\n      0x00\n        /* \"#utility.yul\":12435:12437   */\n      0x20\n        /* \"#utility.yul\":12424:12433   */\n      dup3\n        /* \"#utility.yul\":12420:12438   */\n      add\n        /* \"#utility.yul\":12412:12438   */\n      swap1\n      pop\n        /* \"#utility.yul\":12484:12493   */\n      dup2\n        /* \"#utility.yul\":12478:12482   */\n      dup2\n        /* \"#utility.yul\":12474:12494   */\n      sub\n        /* \"#utility.yul\":12470:12471   */\n      0x00\n        /* \"#utility.yul\":12459:12468   */\n      dup4\n        /* \"#utility.yul\":12455:12472   */\n      add\n        /* \"#utility.yul\":12448:12495   */\n      mstore\n        /* \"#utility.yul\":12512:12643   */\n      tag_327\n        /* \"#utility.yul\":12638:12642   */\n      dup2\n        /* \"#utility.yul\":12512:12643   */\n      tag_208\n      jump\t// in\n    tag_327:\n        /* \"#utility.yul\":12504:12643   */\n      swap1\n      pop\n        /* \"#utility.yul\":12231:12650   */\n      swap2\n      swap1\n      pop\n      jump\t// out\n        /* \"#utility.yul\":12656:12988   */\n    tag_150:\n        /* \"#utility.yul\":12777:12781   */\n      0x00\n        /* \"#utility.yul\":12815:12817   */\n      0x40\n        /* \"#utility.yul\":12804:12813   */\n      dup3\n        /* \"#utility.yul\":12800:12818   */\n      add\n        /* \"#utility.yul\":12792:12818   */\n      swap1\n      pop\n        /* \"#utility.yul\":12828:12899   */\n      tag_329\n        /* \"#utility.yul\":12896:12897   */\n      0x00\n        /* \"#utility.yul\":12885:12894   */\n      dup4\n        /* \"#utility.yul\":12881:12898   */\n      add\n        /* \"#utility.yul\":12872:12878   */\n      dup6\n        /* \"#utility.yul\":12828:12899   */\n      tag_183\n      jump\t// in\n    tag_329:\n        /* \"#utility.yul\":12909:12981   */\n      tag_330\n        /* \"#utility.yul\":12977:12979   */\n      0x20\n        /* \"#utility.yul\":12966:12975   */\n      dup4\n        /* \"#utility.yul\":12962:12980   */\n      add\n        /* \"#utility.yul\":12953:12959   */\n      dup5\n        /* \"#utility.yul\":12909:12981   */\n      tag_183\n      jump\t// in\n    tag_330:\n        /* \"#utility.yul\":12656:12988   */\n      swap4\n      swap3\n      pop\n      pop\n      pop\n      jump\t// out\n        /* \"#utility.yul\":12994:13218   */\n    tag_209:\n        /* \"#utility.yul\":13134:13168   */\n      0x45524332303a207472616e736665722066726f6d20746865207a65726f206164\n        /* \"#utility.yul\":13130:13131   */\n      0x00\n        /* \"#utility.yul\":13122:13128   */\n      dup3\n        /* \"#utility.yul\":13118:13132   */\n      add\n        /* \"#utility.yul\":13111:13169   */\n      mstore\n        /* \"#utility.yul\":13203:13210   */\n      0x6472657373000000000000000000000000000000000000000000000000000000\n        /* \"#utility.yul\":13198:13200   */\n      0x20\n        /* \"#utility.yul\":13190:13196   */\n      dup3\n        /* \"#utility.yul\":13186:13201   */\n      add\n        /* \"#utility.yul\":13179:13211   */\n      mstore\n        /* \"#utility.yul\":12994:13218   */\n      pop\n      jump\t// out\n        /* \"#utility.yul\":13224:13590   */\n    tag_210:\n        /* \"#utility.yul\":13366:13369   */\n      0x00\n        /* \"#utility.yul\":13387:13454   */\n      tag_333\n        /* \"#utility.yul\":13451:13453   */\n      0x25\n        /* \"#utility.yul\":13446:13449   */\n      dup4\n        /* \"#utility.yul\":13387:13454   */\n      tag_185\n      jump\t// in\n    tag_333:\n        /* \"#utility.yul\":13380:13454   */\n      swap2\n      pop\n        /* \"#utility.yul\":13463:13556   */\n      tag_334\n        /* \"#utility.yul\":13552:13555   */\n      dup3\n        /* \"#utility.yul\":13463:13556   */\n      tag_209\n      jump\t// in\n    tag_334:\n        /* \"#utility.yul\":13581:13583   */\n      0x40\n        /* \"#utility.yul\":13576:13579   */\n      dup3\n        /* \"#utility.yul\":13572:13584   */\n      add\n        /* \"#utility.yul\":13565:13584   */\n      swap1\n      pop\n        /* \"#utility.yul\":13224:13590   */\n      swap2\n      swap1\n      pop\n      jump\t// out\n        /* \"#utility.yul\":13596:14015   */\n    tag_154:\n        /* \"#utility.yul\":13762:13766   */\n      0x00\n        /* \"#utility.yul\":13800:13802   */\n      0x20\n        /* \"#utility.yul\":13789:13798   */\n      dup3\n        /* \"#utility.yul\":13785:13803   */\n      add\n        /* \"#utility.yul\":13777:13803   */\n      swap1\n      pop\n        /* \"#utility.yul\":13849:13858   */\n      dup2\n        /* \"#utility.yul\":13843:13847   */\n      dup2\n        /* \"#utility.yul\":13839:13859   */\n      sub\n        /* \"#utility.yul\":13835:13836   */\n      0x00\n        /* \"#utility.yul\":13824:13833   */\n      dup4\n        /* \"#utility.yul\":13820:13837   */\n      add\n        /* \"#utility.yul\":13813:13860   */\n      mstore\n        /* \"#utility.yul\":13877:14008   */\n      tag_336\n        /* \"#utility.yul\":14003:14007   */\n      dup2\n        /* \"#utility.yul\":13877:14008   */\n      tag_210\n      jump\t// in\n    tag_336:\n        /* \"#utility.yul\":13869:14008   */\n      swap1\n      pop\n        /* \"#utility.yul\":13596:14015   */\n      swap2\n      swap1\n      pop\n      jump\t// out\n        /* \"#utility.yul\":14021:14243   */\n    tag_211:\n        /* \"#utility.yul\":14161:14195   */\n      0x45524332303a207472616e7366657220746f20746865207a65726f2061646472\n        /* \"#utility.yul\":14157:14158   */\n      0x00\n        /* \"#utility.yul\":14149:14155   */\n      dup3\n        /* \"#utility.yul\":14145:14159   */\n      add\n        /* \"#utility.yul\":14138:14196   */\n      mstore\n        /* \"#utility.yul\":14230:14235   */\n      0x6573730000000000000000000000000000000000000000000000000000000000\n        /* \"#utility.yul\":14225:14227   */\n      0x20\n        /* \"#utility.yul\":14217:14223   */\n      dup3\n        /* \"#utility.yul\":14213:14228   */\n      add\n        /* \"#utility.yul\":14206:14236   */\n      mstore\n        /* \"#utility.yul\":14021:14243   */\n      pop\n      jump\t// out\n        /* \"#utility.yul\":14249:14615   */\n    tag_212:\n        /* \"#utility.yul\":14391:14394   */\n      0x00\n        /* \"#utility.yul\":14412:14479   */\n      tag_339\n        /* \"#utility.yul\":14476:14478   */\n      0x23\n        /* \"#utility.yul\":14471:14474   */\n      dup4\n        /* \"#utility.yul\":14412:14479   */\n      tag_185\n      jump\t// in\n    tag_339:\n        /* \"#utility.yul\":14405:14479   */\n      swap2\n      pop\n        /* \"#utility.yul\":14488:14581   */\n      tag_340\n        /* \"#utility.yul\":14577:14580   */\n      dup3\n        /* \"#utility.yul\":14488:14581   */\n      tag_211\n      jump\t// in\n    tag_340:\n        /* \"#utility.yul\":14606:14608   */\n      0x40\n        /* \"#utility.yul\":14601:14604   */\n      dup3\n        /* \"#utility.yul\":14597:14609   */\n      add\n        /* \"#utility.yul\":14590:14609   */\n      swap1\n      pop\n        /* \"#utility.yul\":14249:14615   */\n      swap2\n      swap1\n      pop\n      jump\t// out\n        /* \"#utility.yul\":14621:15040   */\n    tag_157:\n        /* \"#utility.yul\":14787:14791   */\n      0x00\n        /* \"#utility.yul\":14825:14827   */\n      0x20\n        /* \"#utility.yul\":14814:14823   */\n      dup3\n        /* \"#utility.yul\":14810:14828   */\n      add\n        /* \"#utility.yul\":14802:14828   */\n      swap1\n      pop\n        /* \"#utility.yul\":14874:14883   */\n      dup2\n        /* \"#utility.yul\":14868:14872   */\n      dup2\n        /* \"#utility.yul\":14864:14884   */\n      sub\n        /* \"#utility.yul\":14860:14861   */\n      0x00\n        /* \"#utility.yul\":14849:14858   */\n      dup4\n        /* \"#utility.yul\":14845:14862   */\n      add\n        /* \"#utility.yul\":14838:14885   */\n      mstore\n        /* \"#utility.yul\":14902:15033   */\n      tag_342\n        /* \"#utility.yul\":15028:15032   */\n      dup2\n        /* \"#utility.yul\":14902:15033   */\n      tag_212\n      jump\t// in\n    tag_342:\n        /* \"#utility.yul\":14894:15033   */\n      swap1\n      pop\n        /* \"#utility.yul\":14621:15040   */\n      swap2\n      swap1\n      pop\n      jump\t// out\n        /* \"#utility.yul\":15046:15271   */\n    tag_213:\n        /* \"#utility.yul\":15186:15220   */\n      0x45524332303a207472616e7366657220616d6f756e7420657863656564732062\n        /* \"#utility.yul\":15182:15183   */\n      0x00\n        /* \"#utility.yul\":15174:15180   */\n      dup3\n        /* \"#utility.yul\":15170:15184   */\n      add\n        /* \"#utility.yul\":15163:15221   */\n      mstore\n        /* \"#utility.yul\":15255:15263   */\n      0x616c616e63650000000000000000000000000000000000000000000000000000\n        /* \"#utility.yul\":15250:15252   */\n      0x20\n        /* \"#utility.yul\":15242:15248   */\n      dup3\n        /* \"#utility.yul\":15238:15253   */\n      add\n        /* \"#utility.yul\":15231:15264   */\n      mstore\n        /* \"#utility.yul\":15046:15271   */\n      pop\n      jump\t// out\n        /* \"#utility.yul\":15277:15643   */\n    tag_214:\n        /* \"#utility.yul\":15419:15422   */\n      0x00\n        /* \"#utility.yul\":15440:15507   */\n      tag_345\n        /* \"#utility.yul\":15504:15506   */\n      0x26\n        /* \"#utility.yul\":15499:15502   */\n      dup4\n        /* \"#utility.yul\":15440:15507   */\n      tag_185\n      jump\t// in\n    tag_345:\n        /* \"#utility.yul\":15433:15507   */\n      swap2\n      pop\n        /* \"#utility.yul\":15516:15609   */\n      tag_346\n        /* \"#utility.yul\":15605:15608   */\n      dup3\n        /* \"#utility.yul\":15516:15609   */\n      tag_213\n      jump\t// in\n    tag_346:\n        /* \"#utility.yul\":15634:15636   */\n      0x40\n        /* \"#utility.yul\":15629:15632   */\n      dup3\n        /* \"#utility.yul\":15625:15637   */\n      add\n        /* \"#utility.yul\":15618:15637   */\n      swap1\n      pop\n        /* \"#utility.yul\":15277:15643   */\n      swap2\n      swap1\n      pop\n      jump\t// out\n        /* \"#utility.yul\":15649:16068   */\n    tag_160:\n        /* \"#utility.yul\":15815:15819   */\n      0x00\n        /* \"#utility.yul\":15853:15855   */\n      0x20\n        /* \"#utility.yul\":15842:15851   */\n      dup3\n        /* \"#utility.yul\":15838:15856   */\n      add\n        /* \"#utility.yul\":15830:15856   */\n      swap1\n      pop\n        /* \"#utility.yul\":15902:15911   */\n      dup2\n        /* \"#utility.yul\":15896:15900   */\n      dup2\n        /* \"#utility.yul\":15892:15912   */\n      sub\n        /* \"#utility.yul\":15888:15889   */\n      0x00\n        /* \"#utility.yul\":15877:15886   */\n      dup4\n        /* \"#utility.yul\":15873:15890   */\n      add\n        /* \"#utility.yul\":15866:15913   */\n      mstore\n        /* \"#utility.yul\":15930:16061   */\n      tag_348\n        /* \"#utility.yul\":16056:16060   */\n      dup2\n        /* \"#utility.yul\":15930:16061   */\n      tag_214\n      jump\t// in\n    tag_348:\n        /* \"#utility.yul\":15922:16061   */\n      swap1\n      pop\n        /* \"#utility.yul\":15649:16068   */\n      swap2\n      swap1\n      pop\n      jump\t// out\n        /* \"#utility.yul\":16074:16254   */\n    tag_167:\n        /* \"#utility.yul\":16122:16199   */\n      0x4e487b7100000000000000000000000000000000000000000000000000000000\n        /* \"#utility.yul\":16119:16120   */\n      0x00\n        /* \"#utility.yul\":16112:16200   */\n      mstore\n        /* \"#utility.yul\":16219:16223   */\n      0x01\n        /* \"#utility.yul\":16216:16217   */\n      0x04\n        /* \"#utility.yul\":16209:16224   */\n      mstore\n        /* \"#utility.yul\":16243:16247   */\n      0x24\n        /* \"#utility.yul\":16240:16241   */\n      0x00\n        /* \"#utility.yul\":16233:16248   */\n      revert\n        /* \"#utility.yul\":16260:16440   */\n    tag_215:\n        /* \"#utility.yul\":16308:16385   */\n      0x4e487b7100000000000000000000000000000000000000000000000000000000\n        /* \"#utility.yul\":16305:16306   */\n      0x00\n        /* \"#utility.yul\":16298:16386   */\n      mstore\n        /* \"#utility.yul\":16405:16409   */\n      0x11\n        /* \"#utility.yul\":16402:16403   */\n      0x04\n        /* \"#utility.yul\":16395:16410   */\n      mstore\n        /* \"#utility.yul\":16429:16433   */\n      0x24\n        /* \"#utility.yul\":16426:16427   */\n      0x00\n        /* \"#utility.yul\":16419:16434   */\n      revert\n        /* \"#utility.yul\":16446:16637   */\n    tag_169:\n        /* \"#utility.yul\":16486:16490   */\n      0x00\n        /* \"#utility.yul\":16506:16526   */\n      tag_352\n        /* \"#utility.yul\":16524:16525   */\n      dup3\n        /* \"#utility.yul\":16506:16526   */\n      tag_182\n      jump\t// in\n    tag_352:\n        /* \"#utility.yul\":16501:16526   */\n      swap2\n      pop\n        /* \"#utility.yul\":16540:16560   */\n      tag_353\n        /* \"#utility.yul\":16558:16559   */\n      dup4\n        /* \"#utility.yul\":16540:16560   */\n      tag_182\n      jump\t// in\n    tag_353:\n        /* \"#utility.yul\":16535:16560   */\n      swap3\n      pop\n        /* \"#utility.yul\":16579:16580   */\n      dup3\n        /* \"#utility.yul\":16576:16577   */\n      dup3\n        /* \"#utility.yul\":16573:16581   */\n      lt\n        /* \"#utility.yul\":16570:16604   */\n      iszero\n      tag_354\n      jumpi\n        /* \"#utility.yul\":16584:16602   */\n      tag_355\n      tag_215\n      jump\t// in\n    tag_355:\n        /* \"#utility.yul\":16570:16604   */\n    tag_354:\n        /* \"#utility.yul\":16629:16630   */\n      dup3\n        /* \"#utility.yul\":16626:16627   */\n      dup3\n        /* \"#utility.yul\":16622:16631   */\n      sub\n        /* \"#utility.yul\":16614:16631   */\n      swap1\n      pop\n        /* \"#utility.yul\":16446:16637   */\n      swap3\n      swap2\n      pop\n      pop\n      jump\t// out\n        /* \"#utility.yul\":16643:16948   */\n    tag_172:\n        /* \"#utility.yul\":16683:16686   */\n      0x00\n        /* \"#utility.yul\":16702:16722   */\n      tag_357\n        /* \"#utility.yul\":16720:16721   */\n      dup3\n        /* \"#utility.yul\":16702:16722   */\n      tag_182\n      jump\t// in\n    tag_357:\n        /* \"#utility.yul\":16697:16722   */\n      swap2\n      pop\n        /* \"#utility.yul\":16736:16756   */\n      tag_358\n        /* \"#utility.yul\":16754:16755   */\n      dup4\n        /* \"#utility.yul\":16736:16756   */\n      tag_182\n      jump\t// in\n    tag_358:\n        /* \"#utility.yul\":16731:16756   */\n      swap3\n      pop\n        /* \"#utility.yul\":16890:16891   */\n      dup3\n        /* \"#utility.yul\":16822:16888   */\n      0xffffffffffffffffffffffffffffffffffffffffffffffffffffffffffffffff\n        /* \"#utility.yul\":16818:16892   */\n      sub\n        /* \"#utility.yul\":16815:16816   */\n      dup3\n        /* \"#utility.yul\":16812:16893   */\n      gt\n        /* \"#utility.yul\":16809:16916   */\n      iszero\n      tag_359\n      jumpi\n        /* \"#utility.yul\":16896:16914   */\n      tag_360\n      tag_215\n      jump\t// in\n    tag_360:\n        /* \"#utility.yul\":16809:16916   */\n    tag_359:\n        /* \"#utility.yul\":16940:16941   */\n      dup3\n        /* \"#utility.yul\":16937:16938   */\n      dup3\n        /* \"#utility.yul\":16933:16942   */\n      add\n        /* \"#utility.yul\":16926:16942   */\n      swap1\n      pop\n        /* \"#utility.yul\":16643:16948   */\n      swap3\n      swap2\n      pop\n      pop\n      jump\t// out\n\n    auxdata: 0xa2646970667358221220d52dfe10cee6dfec8d9c556cdb17973d95c13eadfca6a12f594d348b34765f1464736f6c634300080a0033\n}\n",
				"bytecode": {
					"linkReferences": {},
					"object": "60806040523480156200001157600080fd5b5060405162001ed138038062001ed1833981810160405281019062000037919062000372565b336000806101000a81548173ffffffffffffffffffffffffffffffffffffffff021916908373ffffffffffffffffffffffffffffffffffffffff16021790555081600490805190602001906200008f92919062000125565b508060059080519060200190620000a892919062000125565b506012600660006101000a81548160ff021916908360ff1602179055506a52b7d2dcc80cd2e4000000600381905550600354600160003373ffffffffffffffffffffffffffffffffffffffff1673ffffffffffffffffffffffffffffffffffffffff1681526020019081526020016000208190555050506200045c565b828054620001339062000426565b90600052602060002090601f016020900481019282620001575760008555620001a3565b82601f106200017257805160ff1916838001178555620001a3565b82800160010185558215620001a3579182015b82811115620001a257825182559160200191906001019062000185565b5b509050620001b29190620001b6565b5090565b5b80821115620001d1576000816000905550600101620001b7565b5090565b6000604051905090565b600080fd5b600080fd5b600080fd5b600080fd5b6000601f19601f8301169050919050565b7f4e487b7100000000000000000000000000000000000000000000000000000000600052604160045260246000fd5b6200023e82620001f3565b810181811067ffffffffffffffff8211171562000260576200025f62000204565b5b80604052505050565b600062000275620001d5565b905062000283828262000233565b919050565b600067ffffffffffffffff821115620002a657620002a562000204565b5b620002b182620001f3565b9050602081019050919050565b60005b83811015620002de578082015181840152602081019050620002c1565b83811115620002ee576000848401525b50505050565b60006200030b620003058462000288565b62000269565b9050828152602081018484840111156200032a5762000329620001ee565b5b62000337848285620002be565b509392505050565b600082601f830112620003575762000356620001e9565b5b815162000369848260208601620002f4565b91505092915050565b600080604083850312156200038c576200038b620001df565b5b600083015167ffffffffffffffff811115620003ad57620003ac620001e4565b5b620003bb858286016200033f565b925050602083015167ffffffffffffffff811115620003df57620003de620001e4565b5b620003ed858286016200033f565b9150509250929050565b7f4e487b7100000000000000000000000000000000000000000000000000000000600052602260045260246000fd5b600060028204905060018216806200043f57607f821691505b60208210811415620004565762000455620003f7565b5b50919050565b611a65806200046c6000396000f3fe608060405234801561001057600080fd5b50600436106101005760003560e01c806370a0823111610097578063b09f126611610066578063b09f1266146102c7578063d28d8852146102e5578063dd62ed3e14610303578063f2fde38b1461033357610100565b806370a082311461022b5780638da5cb5b1461025b57806395d89b4114610279578063a9059cbb1461029757610100565b806323b872dd116100d357806323b872dd146101a1578063313ce567146101d157806332424aa3146101ef5780633eaaf86b1461020d57610100565b8063024c2ddd1461010557806306fdde0314610135578063095ea7b31461015357806318160ddd14610183575b600080fd5b61011f600480360381019061011a9190611135565b61034f565b60405161012c919061118e565b60405180910390f35b61013d610374565b60405161014a9190611242565b60405180910390f35b61016d60048036038101906101689190611290565b610406565b60405161017a91906112eb565b60405180910390f35b61018b6104e2565b604051610198919061118e565b60405180910390f35b6101bb60048036038101906101b69190611306565b6104ec565b6040516101c891906112eb565b60405180910390f35b6101d9610663565b6040516101e69190611375565b60405180910390f35b6101f761067a565b6040516102049190611375565b60405180910390f35b61021561068d565b604051610222919061118e565b60405180910390f35b61024560048036038101906102409190611390565b610693565b604051610252919061118e565b60405180910390f35b6102636106dc565b60405161027091906113cc565b60405180910390f35b610281610705565b60405161028e9190611242565b60405180910390f35b6102b160048036038101906102ac9190611290565b610797565b6040516102be91906112eb565b60405180910390f35b6102cf610813565b6040516102dc9190611242565b60405180910390f35b6102ed6108a1565b6040516102fa9190611242565b60405180910390f35b61031d60048036038101906103189190611135565b61092f565b60405161032a919061118e565b60405180910390f35b61034d60048036038101906103489190611390565b6109b6565b005b6002602052816000526040600020602052806000526040600020600091509150505481565b60606004805461038390611416565b80601f01602080910402602001604051908101604052809291908181526020018280546103af90611416565b80156103fc5780601f106103d1576101008083540402835291602001916103fc565b820191906000526020600020905b8154815290600101906020018083116103df57829003601f168201915b5050505050905090565b600080600260003373ffffffffffffffffffffffffffffffffffffffff1673ffffffffffffffffffffffffffffffffffffffff16815260200190815260200160002060008573ffffffffffffffffffffffffffffffffffffffff1673ffffffffffffffffffffffffffffffffffffffff168152602001908152602001600020549050828110156104cb576040517f08c379a00000000000000000000000000000000000000000000000000000000081526004016104c2906114ba565b60405180910390fd5b6104d733858386610b9b565b600191505092915050565b6000600354905090565b60006104f9848484610e27565b8273ffffffffffffffffffffffffffffffffffffffff168473ffffffffffffffffffffffffffffffffffffffff163373ffffffffffffffffffffffffffffffffffffffff167fd1398bee19313d6bf672ccb116e51f4a1a947e91c757907f51fbb5b5e56c698f8560405161056d919061118e565b60405180910390a46000600260008673ffffffffffffffffffffffffffffffffffffffff1673ffffffffffffffffffffffffffffffffffffffff16815260200190815260200160002060003373ffffffffffffffffffffffffffffffffffffffff1673ffffffffffffffffffffffffffffffffffffffff16815260200190815260200160002054905082811015610639576040517f08c379a00000000000000000000000000000000000000000000000000000000081526004016106309061154c565b60405180910390fd5b610657853383610652878661107f90919063ffffffff16565b610b9b565b60019150509392505050565b6000600660009054906101000a900460ff16905090565b600660009054906101000a900460ff1681565b60035481565b6000600160008373ffffffffffffffffffffffffffffffffffffffff1673ffffffffffffffffffffffffffffffffffffffff168152602001908152602001600020549050919050565b60008060009054906101000a900473ffffffffffffffffffffffffffffffffffffffff16905090565b60606005805461071490611416565b80601f016020809104026020016040519081016040528092919081815260200182805461074090611416565b801561078d5780601f106107625761010080835404028352916020019161078d565b820191906000526020600020905b81548152906001019060200180831161077057829003601f168201915b5050505050905090565b60006107a4338484610e27565b8273ffffffffffffffffffffffffffffffffffffffff163373ffffffffffffffffffffffffffffffffffffffff167fddf252ad1be2c89b69c2b068fc378daa952ba7f163c4a11628f55a4df523b3ef84604051610801919061118e565b60405180910390a36001905092915050565b6005805461082090611416565b80601f016020809104026020016040519081016040528092919081815260200182805461084c90611416565b80156108995780601f1061086e57610100808354040283529160200191610899565b820191906000526020600020905b81548152906001019060200180831161087c57829003601f168201915b505050505081565b600480546108ae90611416565b80601f01602080910402602001604051908101604052809291908181526020018280546108da90611416565b80156109275780601f106108fc57610100808354040283529160200191610927565b820191906000526020600020905b81548152906001019060200180831161090a57829003601f168201915b505050505081565b6000600260008473ffffffffffffffffffffffffffffffffffffffff1673ffffffffffffffffffffffffffffffffffffffff16815260200190815260200160002060008373ffffffffffffffffffffffffffffffffffffffff1673ffffffffffffffffffffffffffffffffffffffff16815260200190815260200160002054905092915050565b60008054906101000a900473ffffffffffffffffffffffffffffffffffffffff1673ffffffffffffffffffffffffffffffffffffffff163373ffffffffffffffffffffffffffffffffffffffff1614610a44576040517f08c379a0000000000000000000000000000000000000000000000000000000008152600401610a3b906115b8565b60405180910390fd5b60008054906101000a900473ffffffffffffffffffffffffffffffffffffffff1673ffffffffffffffffffffffffffffffffffffffff168173ffffffffffffffffffffffffffffffffffffffff161415610a9d57600080fd5b600073ffffffffffffffffffffffffffffffffffffffff168173ffffffffffffffffffffffffffffffffffffffff161415610ad757600080fd5b60008060009054906101000a900473ffffffffffffffffffffffffffffffffffffffff169050816000806101000a81548173ffffffffffffffffffffffffffffffffffffffff021916908373ffffffffffffffffffffffffffffffffffffffff1602179055508173ffffffffffffffffffffffffffffffffffffffff168173ffffffffffffffffffffffffffffffffffffffff167f8be0079c531659141344cd1fd0a4f28419497f9722a3daafe3b4186f6b6457e060405160405180910390a35050565b600073ffffffffffffffffffffffffffffffffffffffff168473ffffffffffffffffffffffffffffffffffffffff161415610c0b576040517f08c379a0000000000000000000000000000000000000000000000000000000008152600401610c029061164a565b60405180910390fd5b600073ffffffffffffffffffffffffffffffffffffffff168373ffffffffffffffffffffffffffffffffffffffff161415610c7b576040517f08c379a0000000000000000000000000000000000000000000000000000000008152600401610c72906116dc565b60405180910390fd5b600260008573ffffffffffffffffffffffffffffffffffffffff1673ffffffffffffffffffffffffffffffffffffffff16815260200190815260200160002060008473ffffffffffffffffffffffffffffffffffffffff1673ffffffffffffffffffffffffffffffffffffffff168152602001908152602001600020548214610d39576040517f08c379a0000000000000000000000000000000000000000000000000000000008152600401610d3090611748565b60405180910390fd5b80600260008673ffffffffffffffffffffffffffffffffffffffff1673ffffffffffffffffffffffffffffffffffffffff16815260200190815260200160002060008573ffffffffffffffffffffffffffffffffffffffff1673ffffffffffffffffffffffffffffffffffffffff168152602001908152602001600020819055508273ffffffffffffffffffffffffffffffffffffffff168473ffffffffffffffffffffffffffffffffffffffff167fb3fd5071835887567a0671151121894ddccc2842f1d10bedad13e0d17cace9a78484604051610e19929190611768565b60405180910390a350505050565b600073ffffffffffffffffffffffffffffffffffffffff168373ffffffffffffffffffffffffffffffffffffffff161415610e97576040517f08c379a0000000000000000000000000000000000000000000000000000000008152600401610e8e90611803565b60405180910390fd5b600073ffffffffffffffffffffffffffffffffffffffff168273ffffffffffffffffffffffffffffffffffffffff161415610f07576040517f08c379a0000000000000000000000000000000000000000000000000000000008152600401610efe90611895565b60405180910390fd5b6000600160008573ffffffffffffffffffffffffffffffffffffffff1673ffffffffffffffffffffffffffffffffffffffff16815260200190815260200160002054905081811015610f8e576040517f08c379a0000000000000000000000000000000000000000000000000000000008152600401610f8590611927565b60405180910390fd5b610fa1828261107f90919063ffffffff16565b600160008673ffffffffffffffffffffffffffffffffffffffff1673ffffffffffffffffffffffffffffffffffffffff1681526020019081526020016000208190555061103682600160008673ffffffffffffffffffffffffffffffffffffffff1673ffffffffffffffffffffffffffffffffffffffff168152602001908152602001600020546110a690919063ffffffff16565b600160008573ffffffffffffffffffffffffffffffffffffffff1673ffffffffffffffffffffffffffffffffffffffff1681526020019081526020016000208190555050505050565b60008282111561109257611091611947565b5b818361109e91906119a5565b905092915050565b60008082846110b591906119d9565b9050838110156110c8576110c7611947565b5b8091505092915050565b600080fd5b600073ffffffffffffffffffffffffffffffffffffffff82169050919050565b6000611102826110d7565b9050919050565b611112816110f7565b811461111d57600080fd5b50565b60008135905061112f81611109565b92915050565b6000806040838503121561114c5761114b6110d2565b5b600061115a85828601611120565b925050602061116b85828601611120565b9150509250929050565b6000819050919050565b61118881611175565b82525050565b60006020820190506111a3600083018461117f565b92915050565b600081519050919050565b600082825260208201905092915050565b60005b838110156111e35780820151818401526020810190506111c8565b838111156111f2576000848401525b50505050565b6000601f19601f8301169050919050565b6000611214826111a9565b61121e81856111b4565b935061122e8185602086016111c5565b611237816111f8565b840191505092915050565b6000602082019050818103600083015261125c8184611209565b905092915050565b61126d81611175565b811461127857600080fd5b50565b60008135905061128a81611264565b92915050565b600080604083850312156112a7576112a66110d2565b5b60006112b585828601611120565b92505060206112c68582860161127b565b9150509250929050565b60008115159050919050565b6112e5816112d0565b82525050565b600060208201905061130060008301846112dc565b92915050565b60008060006060848603121561131f5761131e6110d2565b5b600061132d86828701611120565b935050602061133e86828701611120565b925050604061134f8682870161127b565b9150509250925092565b600060ff82169050919050565b61136f81611359565b82525050565b600060208201905061138a6000830184611366565b92915050565b6000602082840312156113a6576113a56110d2565b5b60006113b484828501611120565b91505092915050565b6113c6816110f7565b82525050565b60006020820190506113e160008301846113bd565b92915050565b7f4e487b7100000000000000000000000000000000000000000000000000000000600052602260045260246000fd5b6000600282049050600182168061142e57607f821691505b60208210811415611442576114416113e7565b5b50919050565b7f45524332303a205472616e7366657220616d6f756e742065786365656473206160008201527f6c6c6f77616e6365000000000000000000000000000000000000000000000000602082015250565b60006114a46028836111b4565b91506114af82611448565b604082019050919050565b600060208201905081810360008301526114d381611497565b9050919050565b7f45524332303a207472616e7366657220616d6f756e742065786365656473206160008201527f6c6c6f77616e6365000000000000000000000000000000000000000000000000602082015250565b60006115366028836111b4565b9150611541826114da565b604082019050919050565b6000602082019050818103600083015261156581611529565b9050919050565b7f4f776e657248656c7065723a2063616c6c6572206973206e6f74206f776e6572600082015250565b60006115a26020836111b4565b91506115ad8261156c565b602082019050919050565b600060208201905081810360008301526115d181611595565b9050919050565b7f45524332303a20617070726f76652066726f6d20746865207a65726f2061646460008201527f7265737300000000000000000000000000000000000000000000000000000000602082015250565b60006116346024836111b4565b915061163f826115d8565b604082019050919050565b6000602082019050818103600083015261166381611627565b9050919050565b7f45524332303a20617070726f766520746f20746865207a65726f20616464726560008201527f7373000000000000000000000000000000000000000000000000000000000000602082015250565b60006116c66022836111b4565b91506116d18261166a565b604082019050919050565b600060208201905081810360008301526116f5816116b9565b9050919050565b7f45524332303a20696e76616c69642063757272656e74416d6f756e7400000000600082015250565b6000611732601c836111b4565b915061173d826116fc565b602082019050919050565b6000602082019050818103600083015261176181611725565b9050919050565b600060408201905061177d600083018561117f565b61178a602083018461117f565b9392505050565b7f45524332303a207472616e736665722066726f6d20746865207a65726f20616460008201527f6472657373000000000000000000000000000000000000000000000000000000602082015250565b60006117ed6025836111b4565b91506117f882611791565b604082019050919050565b6000602082019050818103600083015261181c816117e0565b9050919050565b7f45524332303a207472616e7366657220746f20746865207a65726f206164647260008201527f6573730000000000000000000000000000000000000000000000000000000000602082015250565b600061187f6023836111b4565b915061188a82611823565b604082019050919050565b600060208201905081810360008301526118ae81611872565b9050919050565b7f45524332303a207472616e7366657220616d6f756e742065786365656473206260008201527f616c616e63650000000000000000000000000000000000000000000000000000602082015250565b60006119116026836111b4565b915061191c826118b5565b604082019050919050565b6000602082019050818103600083015261194081611904565b9050919050565b7f4e487b7100000000000000000000000000000000000000000000000000000000600052600160045260246000fd5b7f4e487b7100000000000000000000000000000000000000000000000000000000600052601160045260246000fd5b60006119b082611175565b91506119bb83611175565b9250828210156119ce576119cd611976565b5b828203905092915050565b60006119e482611175565b91506119ef83611175565b9250827fffffffffffffffffffffffffffffffffffffffffffffffffffffffffffffffff03821115611a2457611a23611976565b5b82820190509291505056fea2646970667358221220d52dfe10cee6dfec8d9c556cdb17973d95c13eadfca6a12f594d348b34765f1464736f6c634300080a0033",
					"opcodes": "PUSH1 0x80 PUSH1 0x40 MSTORE CALLVALUE DUP1 ISZERO PUSH3 0x11 JUMPI PUSH1 0x0 DUP1 REVERT JUMPDEST POP PUSH1 0x40 MLOAD PUSH3 0x1ED1 CODESIZE SUB DUP1 PUSH3 0x1ED1 DUP4 CODECOPY DUP2 DUP2 ADD PUSH1 0x40 MSTORE DUP2 ADD SWAP1 PUSH3 0x37 SWAP2 SWAP1 PUSH3 0x372 JUMP JUMPDEST CALLER PUSH1 0x0 DUP1 PUSH2 0x100 EXP DUP2 SLOAD DUP2 PUSH20 0xFFFFFFFFFFFFFFFFFFFFFFFFFFFFFFFFFFFFFFFF MUL NOT AND SWAP1 DUP4 PUSH20 0xFFFFFFFFFFFFFFFFFFFFFFFFFFFFFFFFFFFFFFFF AND MUL OR SWAP1 SSTORE POP DUP2 PUSH1 0x4 SWAP1 DUP1 MLOAD SWAP1 PUSH1 0x20 ADD SWAP1 PUSH3 0x8F SWAP3 SWAP2 SWAP1 PUSH3 0x125 JUMP JUMPDEST POP DUP1 PUSH1 0x5 SWAP1 DUP1 MLOAD SWAP1 PUSH1 0x20 ADD SWAP1 PUSH3 0xA8 SWAP3 SWAP2 SWAP1 PUSH3 0x125 JUMP JUMPDEST POP PUSH1 0x12 PUSH1 0x6 PUSH1 0x0 PUSH2 0x100 EXP DUP2 SLOAD DUP2 PUSH1 0xFF MUL NOT AND SWAP1 DUP4 PUSH1 0xFF AND MUL OR SWAP1 SSTORE POP PUSH11 0x52B7D2DCC80CD2E4000000 PUSH1 0x3 DUP2 SWAP1 SSTORE POP PUSH1 0x3 SLOAD PUSH1 0x1 PUSH1 0x0 CALLER PUSH20 0xFFFFFFFFFFFFFFFFFFFFFFFFFFFFFFFFFFFFFFFF AND PUSH20 0xFFFFFFFFFFFFFFFFFFFFFFFFFFFFFFFFFFFFFFFF AND DUP2 MSTORE PUSH1 0x20 ADD SWAP1 DUP2 MSTORE PUSH1 0x20 ADD PUSH1 0x0 KECCAK256 DUP2 SWAP1 SSTORE POP POP POP PUSH3 0x45C JUMP JUMPDEST DUP3 DUP1 SLOAD PUSH3 0x133 SWAP1 PUSH3 0x426 JUMP JUMPDEST SWAP1 PUSH1 0x0 MSTORE PUSH1 0x20 PUSH1 0x0 KECCAK256 SWAP1 PUSH1 0x1F ADD PUSH1 0x20 SWAP1 DIV DUP2 ADD SWAP3 DUP3 PUSH3 0x157 JUMPI PUSH1 0x0 DUP6 SSTORE PUSH3 0x1A3 JUMP JUMPDEST DUP3 PUSH1 0x1F LT PUSH3 0x172 JUMPI DUP1 MLOAD PUSH1 0xFF NOT AND DUP4 DUP1 ADD OR DUP6 SSTORE PUSH3 0x1A3 JUMP JUMPDEST DUP3 DUP1 ADD PUSH1 0x1 ADD DUP6 SSTORE DUP3 ISZERO PUSH3 0x1A3 JUMPI SWAP2 DUP3 ADD JUMPDEST DUP3 DUP2 GT ISZERO PUSH3 0x1A2 JUMPI DUP3 MLOAD DUP3 SSTORE SWAP2 PUSH1 0x20 ADD SWAP2 SWAP1 PUSH1 0x1 ADD SWAP1 PUSH3 0x185 JUMP JUMPDEST JUMPDEST POP SWAP1 POP PUSH3 0x1B2 SWAP2 SWAP1 PUSH3 0x1B6 JUMP JUMPDEST POP SWAP1 JUMP JUMPDEST JUMPDEST DUP1 DUP3 GT ISZERO PUSH3 0x1D1 JUMPI PUSH1 0x0 DUP2 PUSH1 0x0 SWAP1 SSTORE POP PUSH1 0x1 ADD PUSH3 0x1B7 JUMP JUMPDEST POP SWAP1 JUMP JUMPDEST PUSH1 0x0 PUSH1 0x40 MLOAD SWAP1 POP SWAP1 JUMP JUMPDEST PUSH1 0x0 DUP1 REVERT JUMPDEST PUSH1 0x0 DUP1 REVERT JUMPDEST PUSH1 0x0 DUP1 REVERT JUMPDEST PUSH1 0x0 DUP1 REVERT JUMPDEST PUSH1 0x0 PUSH1 0x1F NOT PUSH1 0x1F DUP4 ADD AND SWAP1 POP SWAP2 SWAP1 POP JUMP JUMPDEST PUSH32 0x4E487B7100000000000000000000000000000000000000000000000000000000 PUSH1 0x0 MSTORE PUSH1 0x41 PUSH1 0x4 MSTORE PUSH1 0x24 PUSH1 0x0 REVERT JUMPDEST PUSH3 0x23E DUP3 PUSH3 0x1F3 JUMP JUMPDEST DUP2 ADD DUP2 DUP2 LT PUSH8 0xFFFFFFFFFFFFFFFF DUP3 GT OR ISZERO PUSH3 0x260 JUMPI PUSH3 0x25F PUSH3 0x204 JUMP JUMPDEST JUMPDEST DUP1 PUSH1 0x40 MSTORE POP POP POP JUMP JUMPDEST PUSH1 0x0 PUSH3 0x275 PUSH3 0x1D5 JUMP JUMPDEST SWAP1 POP PUSH3 0x283 DUP3 DUP3 PUSH3 0x233 JUMP JUMPDEST SWAP2 SWAP1 POP JUMP JUMPDEST PUSH1 0x0 PUSH8 0xFFFFFFFFFFFFFFFF DUP3 GT ISZERO PUSH3 0x2A6 JUMPI PUSH3 0x2A5 PUSH3 0x204 JUMP JUMPDEST JUMPDEST PUSH3 0x2B1 DUP3 PUSH3 0x1F3 JUMP JUMPDEST SWAP1 POP PUSH1 0x20 DUP2 ADD SWAP1 POP SWAP2 SWAP1 POP JUMP JUMPDEST PUSH1 0x0 JUMPDEST DUP4 DUP2 LT ISZERO PUSH3 0x2DE JUMPI DUP1 DUP3 ADD MLOAD DUP2 DUP5 ADD MSTORE PUSH1 0x20 DUP2 ADD SWAP1 POP PUSH3 0x2C1 JUMP JUMPDEST DUP4 DUP2 GT ISZERO PUSH3 0x2EE JUMPI PUSH1 0x0 DUP5 DUP5 ADD MSTORE JUMPDEST POP POP POP POP JUMP JUMPDEST PUSH1 0x0 PUSH3 0x30B PUSH3 0x305 DUP5 PUSH3 0x288 JUMP JUMPDEST PUSH3 0x269 JUMP JUMPDEST SWAP1 POP DUP3 DUP2 MSTORE PUSH1 0x20 DUP2 ADD DUP5 DUP5 DUP5 ADD GT ISZERO PUSH3 0x32A JUMPI PUSH3 0x329 PUSH3 0x1EE JUMP JUMPDEST JUMPDEST PUSH3 0x337 DUP5 DUP3 DUP6 PUSH3 0x2BE JUMP JUMPDEST POP SWAP4 SWAP3 POP POP POP JUMP JUMPDEST PUSH1 0x0 DUP3 PUSH1 0x1F DUP4 ADD SLT PUSH3 0x357 JUMPI PUSH3 0x356 PUSH3 0x1E9 JUMP JUMPDEST JUMPDEST DUP2 MLOAD PUSH3 0x369 DUP5 DUP3 PUSH1 0x20 DUP7 ADD PUSH3 0x2F4 JUMP JUMPDEST SWAP2 POP POP SWAP3 SWAP2 POP POP JUMP JUMPDEST PUSH1 0x0 DUP1 PUSH1 0x40 DUP4 DUP6 SUB SLT ISZERO PUSH3 0x38C JUMPI PUSH3 0x38B PUSH3 0x1DF JUMP JUMPDEST JUMPDEST PUSH1 0x0 DUP4 ADD MLOAD PUSH8 0xFFFFFFFFFFFFFFFF DUP2 GT ISZERO PUSH3 0x3AD JUMPI PUSH3 0x3AC PUSH3 0x1E4 JUMP JUMPDEST JUMPDEST PUSH3 0x3BB DUP6 DUP3 DUP7 ADD PUSH3 0x33F JUMP JUMPDEST SWAP3 POP POP PUSH1 0x20 DUP4 ADD MLOAD PUSH8 0xFFFFFFFFFFFFFFFF DUP2 GT ISZERO PUSH3 0x3DF JUMPI PUSH3 0x3DE PUSH3 0x1E4 JUMP JUMPDEST JUMPDEST PUSH3 0x3ED DUP6 DUP3 DUP7 ADD PUSH3 0x33F JUMP JUMPDEST SWAP2 POP POP SWAP3 POP SWAP3 SWAP1 POP JUMP JUMPDEST PUSH32 0x4E487B7100000000000000000000000000000000000000000000000000000000 PUSH1 0x0 MSTORE PUSH1 0x22 PUSH1 0x4 MSTORE PUSH1 0x24 PUSH1 0x0 REVERT JUMPDEST PUSH1 0x0 PUSH1 0x2 DUP3 DIV SWAP1 POP PUSH1 0x1 DUP3 AND DUP1 PUSH3 0x43F JUMPI PUSH1 0x7F DUP3 AND SWAP2 POP JUMPDEST PUSH1 0x20 DUP3 LT DUP2 EQ ISZERO PUSH3 0x456 JUMPI PUSH3 0x455 PUSH3 0x3F7 JUMP JUMPDEST JUMPDEST POP SWAP2 SWAP1 POP JUMP JUMPDEST PUSH2 0x1A65 DUP1 PUSH3 0x46C PUSH1 0x0 CODECOPY PUSH1 0x0 RETURN INVALID PUSH1 0x80 PUSH1 0x40 MSTORE CALLVALUE DUP1 ISZERO PUSH2 0x10 JUMPI PUSH1 0x0 DUP1 REVERT JUMPDEST POP PUSH1 0x4 CALLDATASIZE LT PUSH2 0x100 JUMPI PUSH1 0x0 CALLDATALOAD PUSH1 0xE0 SHR DUP1 PUSH4 0x70A08231 GT PUSH2 0x97 JUMPI DUP1 PUSH4 0xB09F1266 GT PUSH2 0x66 JUMPI DUP1 PUSH4 0xB09F1266 EQ PUSH2 0x2C7 JUMPI DUP1 PUSH4 0xD28D8852 EQ PUSH2 0x2E5 JUMPI DUP1 PUSH4 0xDD62ED3E EQ PUSH2 0x303 JUMPI DUP1 PUSH4 0xF2FDE38B EQ PUSH2 0x333 JUMPI PUSH2 0x100 JUMP JUMPDEST DUP1 PUSH4 0x70A08231 EQ PUSH2 0x22B JUMPI DUP1 PUSH4 0x8DA5CB5B EQ PUSH2 0x25B JUMPI DUP1 PUSH4 0x95D89B41 EQ PUSH2 0x279 JUMPI DUP1 PUSH4 0xA9059CBB EQ PUSH2 0x297 JUMPI PUSH2 0x100 JUMP JUMPDEST DUP1 PUSH4 0x23B872DD GT PUSH2 0xD3 JUMPI DUP1 PUSH4 0x23B872DD EQ PUSH2 0x1A1 JUMPI DUP1 PUSH4 0x313CE567 EQ PUSH2 0x1D1 JUMPI DUP1 PUSH4 0x32424AA3 EQ PUSH2 0x1EF JUMPI DUP1 PUSH4 0x3EAAF86B EQ PUSH2 0x20D JUMPI PUSH2 0x100 JUMP JUMPDEST DUP1 PUSH4 0x24C2DDD EQ PUSH2 0x105 JUMPI DUP1 PUSH4 0x6FDDE03 EQ PUSH2 0x135 JUMPI DUP1 PUSH4 0x95EA7B3 EQ PUSH2 0x153 JUMPI DUP1 PUSH4 0x18160DDD EQ PUSH2 0x183 JUMPI JUMPDEST PUSH1 0x0 DUP1 REVERT JUMPDEST PUSH2 0x11F PUSH1 0x4 DUP1 CALLDATASIZE SUB DUP2 ADD SWAP1 PUSH2 0x11A SWAP2 SWAP1 PUSH2 0x1135 JUMP JUMPDEST PUSH2 0x34F JUMP JUMPDEST PUSH1 0x40 MLOAD PUSH2 0x12C SWAP2 SWAP1 PUSH2 0x118E JUMP JUMPDEST PUSH1 0x40 MLOAD DUP1 SWAP2 SUB SWAP1 RETURN JUMPDEST PUSH2 0x13D PUSH2 0x374 JUMP JUMPDEST PUSH1 0x40 MLOAD PUSH2 0x14A SWAP2 SWAP1 PUSH2 0x1242 JUMP JUMPDEST PUSH1 0x40 MLOAD DUP1 SWAP2 SUB SWAP1 RETURN JUMPDEST PUSH2 0x16D PUSH1 0x4 DUP1 CALLDATASIZE SUB DUP2 ADD SWAP1 PUSH2 0x168 SWAP2 SWAP1 PUSH2 0x1290 JUMP JUMPDEST PUSH2 0x406 JUMP JUMPDEST PUSH1 0x40 MLOAD PUSH2 0x17A SWAP2 SWAP1 PUSH2 0x12EB JUMP JUMPDEST PUSH1 0x40 MLOAD DUP1 SWAP2 SUB SWAP1 RETURN JUMPDEST PUSH2 0x18B PUSH2 0x4E2 JUMP JUMPDEST PUSH1 0x40 MLOAD PUSH2 0x198 SWAP2 SWAP1 PUSH2 0x118E JUMP JUMPDEST PUSH1 0x40 MLOAD DUP1 SWAP2 SUB SWAP1 RETURN JUMPDEST PUSH2 0x1BB PUSH1 0x4 DUP1 CALLDATASIZE SUB DUP2 ADD SWAP1 PUSH2 0x1B6 SWAP2 SWAP1 PUSH2 0x1306 JUMP JUMPDEST PUSH2 0x4EC JUMP JUMPDEST PUSH1 0x40 MLOAD PUSH2 0x1C8 SWAP2 SWAP1 PUSH2 0x12EB JUMP JUMPDEST PUSH1 0x40 MLOAD DUP1 SWAP2 SUB SWAP1 RETURN JUMPDEST PUSH2 0x1D9 PUSH2 0x663 JUMP JUMPDEST PUSH1 0x40 MLOAD PUSH2 0x1E6 SWAP2 SWAP1 PUSH2 0x1375 JUMP JUMPDEST PUSH1 0x40 MLOAD DUP1 SWAP2 SUB SWAP1 RETURN JUMPDEST PUSH2 0x1F7 PUSH2 0x67A JUMP JUMPDEST PUSH1 0x40 MLOAD PUSH2 0x204 SWAP2 SWAP1 PUSH2 0x1375 JUMP JUMPDEST PUSH1 0x40 MLOAD DUP1 SWAP2 SUB SWAP1 RETURN JUMPDEST PUSH2 0x215 PUSH2 0x68D JUMP JUMPDEST PUSH1 0x40 MLOAD PUSH2 0x222 SWAP2 SWAP1 PUSH2 0x118E JUMP JUMPDEST PUSH1 0x40 MLOAD DUP1 SWAP2 SUB SWAP1 RETURN JUMPDEST PUSH2 0x245 PUSH1 0x4 DUP1 CALLDATASIZE SUB DUP2 ADD SWAP1 PUSH2 0x240 SWAP2 SWAP1 PUSH2 0x1390 JUMP JUMPDEST PUSH2 0x693 JUMP JUMPDEST PUSH1 0x40 MLOAD PUSH2 0x252 SWAP2 SWAP1 PUSH2 0x118E JUMP JUMPDEST PUSH1 0x40 MLOAD DUP1 SWAP2 SUB SWAP1 RETURN JUMPDEST PUSH2 0x263 PUSH2 0x6DC JUMP JUMPDEST PUSH1 0x40 MLOAD PUSH2 0x270 SWAP2 SWAP1 PUSH2 0x13CC JUMP JUMPDEST PUSH1 0x40 MLOAD DUP1 SWAP2 SUB SWAP1 RETURN JUMPDEST PUSH2 0x281 PUSH2 0x705 JUMP JUMPDEST PUSH1 0x40 MLOAD PUSH2 0x28E SWAP2 SWAP1 PUSH2 0x1242 JUMP JUMPDEST PUSH1 0x40 MLOAD DUP1 SWAP2 SUB SWAP1 RETURN JUMPDEST PUSH2 0x2B1 PUSH1 0x4 DUP1 CALLDATASIZE SUB DUP2 ADD SWAP1 PUSH2 0x2AC SWAP2 SWAP1 PUSH2 0x1290 JUMP JUMPDEST PUSH2 0x797 JUMP JUMPDEST PUSH1 0x40 MLOAD PUSH2 0x2BE SWAP2 SWAP1 PUSH2 0x12EB JUMP JUMPDEST PUSH1 0x40 MLOAD DUP1 SWAP2 SUB SWAP1 RETURN JUMPDEST PUSH2 0x2CF PUSH2 0x813 JUMP JUMPDEST PUSH1 0x40 MLOAD PUSH2 0x2DC SWAP2 SWAP1 PUSH2 0x1242 JUMP JUMPDEST PUSH1 0x40 MLOAD DUP1 SWAP2 SUB SWAP1 RETURN JUMPDEST PUSH2 0x2ED PUSH2 0x8A1 JUMP JUMPDEST PUSH1 0x40 MLOAD PUSH2 0x2FA SWAP2 SWAP1 PUSH2 0x1242 JUMP JUMPDEST PUSH1 0x40 MLOAD DUP1 SWAP2 SUB SWAP1 RETURN JUMPDEST PUSH2 0x31D PUSH1 0x4 DUP1 CALLDATASIZE SUB DUP2 ADD SWAP1 PUSH2 0x318 SWAP2 SWAP1 PUSH2 0x1135 JUMP JUMPDEST PUSH2 0x92F JUMP JUMPDEST PUSH1 0x40 MLOAD PUSH2 0x32A SWAP2 SWAP1 PUSH2 0x118E JUMP JUMPDEST PUSH1 0x40 MLOAD DUP1 SWAP2 SUB SWAP1 RETURN JUMPDEST PUSH2 0x34D PUSH1 0x4 DUP1 CALLDATASIZE SUB DUP2 ADD SWAP1 PUSH2 0x348 SWAP2 SWAP1 PUSH2 0x1390 JUMP JUMPDEST PUSH2 0x9B6 JUMP JUMPDEST STOP JUMPDEST PUSH1 0x2 PUSH1 0x20 MSTORE DUP2 PUSH1 0x0 MSTORE PUSH1 0x40 PUSH1 0x0 KECCAK256 PUSH1 0x20 MSTORE DUP1 PUSH1 0x0 MSTORE PUSH1 0x40 PUSH1 0x0 KECCAK256 PUSH1 0x0 SWAP2 POP SWAP2 POP POP SLOAD DUP2 JUMP JUMPDEST PUSH1 0x60 PUSH1 0x4 DUP1 SLOAD PUSH2 0x383 SWAP1 PUSH2 0x1416 JUMP JUMPDEST DUP1 PUSH1 0x1F ADD PUSH1 0x20 DUP1 SWAP2 DIV MUL PUSH1 0x20 ADD PUSH1 0x40 MLOAD SWAP1 DUP2 ADD PUSH1 0x40 MSTORE DUP1 SWAP3 SWAP2 SWAP1 DUP2 DUP2 MSTORE PUSH1 0x20 ADD DUP3 DUP1 SLOAD PUSH2 0x3AF SWAP1 PUSH2 0x1416 JUMP JUMPDEST DUP1 ISZERO PUSH2 0x3FC JUMPI DUP1 PUSH1 0x1F LT PUSH2 0x3D1 JUMPI PUSH2 0x100 DUP1 DUP4 SLOAD DIV MUL DUP4 MSTORE SWAP2 PUSH1 0x20 ADD SWAP2 PUSH2 0x3FC JUMP JUMPDEST DUP3 ADD SWAP2 SWAP1 PUSH1 0x0 MSTORE PUSH1 0x20 PUSH1 0x0 KECCAK256 SWAP1 JUMPDEST DUP2 SLOAD DUP2 MSTORE SWAP1 PUSH1 0x1 ADD SWAP1 PUSH1 0x20 ADD DUP1 DUP4 GT PUSH2 0x3DF JUMPI DUP3 SWAP1 SUB PUSH1 0x1F AND DUP3 ADD SWAP2 JUMPDEST POP POP POP POP POP SWAP1 POP SWAP1 JUMP JUMPDEST PUSH1 0x0 DUP1 PUSH1 0x2 PUSH1 0x0 CALLER PUSH20 0xFFFFFFFFFFFFFFFFFFFFFFFFFFFFFFFFFFFFFFFF AND PUSH20 0xFFFFFFFFFFFFFFFFFFFFFFFFFFFFFFFFFFFFFFFF AND DUP2 MSTORE PUSH1 0x20 ADD SWAP1 DUP2 MSTORE PUSH1 0x20 ADD PUSH1 0x0 KECCAK256 PUSH1 0x0 DUP6 PUSH20 0xFFFFFFFFFFFFFFFFFFFFFFFFFFFFFFFFFFFFFFFF AND PUSH20 0xFFFFFFFFFFFFFFFFFFFFFFFFFFFFFFFFFFFFFFFF AND DUP2 MSTORE PUSH1 0x20 ADD SWAP1 DUP2 MSTORE PUSH1 0x20 ADD PUSH1 0x0 KECCAK256 SLOAD SWAP1 POP DUP3 DUP2 LT ISZERO PUSH2 0x4CB JUMPI PUSH1 0x40 MLOAD PUSH32 0x8C379A000000000000000000000000000000000000000000000000000000000 DUP2 MSTORE PUSH1 0x4 ADD PUSH2 0x4C2 SWAP1 PUSH2 0x14BA JUMP JUMPDEST PUSH1 0x40 MLOAD DUP1 SWAP2 SUB SWAP1 REVERT JUMPDEST PUSH2 0x4D7 CALLER DUP6 DUP4 DUP7 PUSH2 0xB9B JUMP JUMPDEST PUSH1 0x1 SWAP2 POP POP SWAP3 SWAP2 POP POP JUMP JUMPDEST PUSH1 0x0 PUSH1 0x3 SLOAD SWAP1 POP SWAP1 JUMP JUMPDEST PUSH1 0x0 PUSH2 0x4F9 DUP5 DUP5 DUP5 PUSH2 0xE27 JUMP JUMPDEST DUP3 PUSH20 0xFFFFFFFFFFFFFFFFFFFFFFFFFFFFFFFFFFFFFFFF AND DUP5 PUSH20 0xFFFFFFFFFFFFFFFFFFFFFFFFFFFFFFFFFFFFFFFF AND CALLER PUSH20 0xFFFFFFFFFFFFFFFFFFFFFFFFFFFFFFFFFFFFFFFF AND PUSH32 0xD1398BEE19313D6BF672CCB116E51F4A1A947E91C757907F51FBB5B5E56C698F DUP6 PUSH1 0x40 MLOAD PUSH2 0x56D SWAP2 SWAP1 PUSH2 0x118E JUMP JUMPDEST PUSH1 0x40 MLOAD DUP1 SWAP2 SUB SWAP1 LOG4 PUSH1 0x0 PUSH1 0x2 PUSH1 0x0 DUP7 PUSH20 0xFFFFFFFFFFFFFFFFFFFFFFFFFFFFFFFFFFFFFFFF AND PUSH20 0xFFFFFFFFFFFFFFFFFFFFFFFFFFFFFFFFFFFFFFFF AND DUP2 MSTORE PUSH1 0x20 ADD SWAP1 DUP2 MSTORE PUSH1 0x20 ADD PUSH1 0x0 KECCAK256 PUSH1 0x0 CALLER PUSH20 0xFFFFFFFFFFFFFFFFFFFFFFFFFFFFFFFFFFFFFFFF AND PUSH20 0xFFFFFFFFFFFFFFFFFFFFFFFFFFFFFFFFFFFFFFFF AND DUP2 MSTORE PUSH1 0x20 ADD SWAP1 DUP2 MSTORE PUSH1 0x20 ADD PUSH1 0x0 KECCAK256 SLOAD SWAP1 POP DUP3 DUP2 LT ISZERO PUSH2 0x639 JUMPI PUSH1 0x40 MLOAD PUSH32 0x8C379A000000000000000000000000000000000000000000000000000000000 DUP2 MSTORE PUSH1 0x4 ADD PUSH2 0x630 SWAP1 PUSH2 0x154C JUMP JUMPDEST PUSH1 0x40 MLOAD DUP1 SWAP2 SUB SWAP1 REVERT JUMPDEST PUSH2 0x657 DUP6 CALLER DUP4 PUSH2 0x652 DUP8 DUP7 PUSH2 0x107F SWAP1 SWAP2 SWAP1 PUSH4 0xFFFFFFFF AND JUMP JUMPDEST PUSH2 0xB9B JUMP JUMPDEST PUSH1 0x1 SWAP2 POP POP SWAP4 SWAP3 POP POP POP JUMP JUMPDEST PUSH1 0x0 PUSH1 0x6 PUSH1 0x0 SWAP1 SLOAD SWAP1 PUSH2 0x100 EXP SWAP1 DIV PUSH1 0xFF AND SWAP1 POP SWAP1 JUMP JUMPDEST PUSH1 0x6 PUSH1 0x0 SWAP1 SLOAD SWAP1 PUSH2 0x100 EXP SWAP1 DIV PUSH1 0xFF AND DUP2 JUMP JUMPDEST PUSH1 0x3 SLOAD DUP2 JUMP JUMPDEST PUSH1 0x0 PUSH1 0x1 PUSH1 0x0 DUP4 PUSH20 0xFFFFFFFFFFFFFFFFFFFFFFFFFFFFFFFFFFFFFFFF AND PUSH20 0xFFFFFFFFFFFFFFFFFFFFFFFFFFFFFFFFFFFFFFFF AND DUP2 MSTORE PUSH1 0x20 ADD SWAP1 DUP2 MSTORE PUSH1 0x20 ADD PUSH1 0x0 KECCAK256 SLOAD SWAP1 POP SWAP2 SWAP1 POP JUMP JUMPDEST PUSH1 0x0 DUP1 PUSH1 0x0 SWAP1 SLOAD SWAP1 PUSH2 0x100 EXP SWAP1 DIV PUSH20 0xFFFFFFFFFFFFFFFFFFFFFFFFFFFFFFFFFFFFFFFF AND SWAP1 POP SWAP1 JUMP JUMPDEST PUSH1 0x60 PUSH1 0x5 DUP1 SLOAD PUSH2 0x714 SWAP1 PUSH2 0x1416 JUMP JUMPDEST DUP1 PUSH1 0x1F ADD PUSH1 0x20 DUP1 SWAP2 DIV MUL PUSH1 0x20 ADD PUSH1 0x40 MLOAD SWAP1 DUP2 ADD PUSH1 0x40 MSTORE DUP1 SWAP3 SWAP2 SWAP1 DUP2 DUP2 MSTORE PUSH1 0x20 ADD DUP3 DUP1 SLOAD PUSH2 0x740 SWAP1 PUSH2 0x1416 JUMP JUMPDEST DUP1 ISZERO PUSH2 0x78D JUMPI DUP1 PUSH1 0x1F LT PUSH2 0x762 JUMPI PUSH2 0x100 DUP1 DUP4 SLOAD DIV MUL DUP4 MSTORE SWAP2 PUSH1 0x20 ADD SWAP2 PUSH2 0x78D JUMP JUMPDEST DUP3 ADD SWAP2 SWAP1 PUSH1 0x0 MSTORE PUSH1 0x20 PUSH1 0x0 KECCAK256 SWAP1 JUMPDEST DUP2 SLOAD DUP2 MSTORE SWAP1 PUSH1 0x1 ADD SWAP1 PUSH1 0x20 ADD DUP1 DUP4 GT PUSH2 0x770 JUMPI DUP3 SWAP1 SUB PUSH1 0x1F AND DUP3 ADD SWAP2 JUMPDEST POP POP POP POP POP SWAP1 POP SWAP1 JUMP JUMPDEST PUSH1 0x0 PUSH2 0x7A4 CALLER DUP5 DUP5 PUSH2 0xE27 JUMP JUMPDEST DUP3 PUSH20 0xFFFFFFFFFFFFFFFFFFFFFFFFFFFFFFFFFFFFFFFF AND CALLER PUSH20 0xFFFFFFFFFFFFFFFFFFFFFFFFFFFFFFFFFFFFFFFF AND PUSH32 0xDDF252AD1BE2C89B69C2B068FC378DAA952BA7F163C4A11628F55A4DF523B3EF DUP5 PUSH1 0x40 MLOAD PUSH2 0x801 SWAP2 SWAP1 PUSH2 0x118E JUMP JUMPDEST PUSH1 0x40 MLOAD DUP1 SWAP2 SUB SWAP1 LOG3 PUSH1 0x1 SWAP1 POP SWAP3 SWAP2 POP POP JUMP JUMPDEST PUSH1 0x5 DUP1 SLOAD PUSH2 0x820 SWAP1 PUSH2 0x1416 JUMP JUMPDEST DUP1 PUSH1 0x1F ADD PUSH1 0x20 DUP1 SWAP2 DIV MUL PUSH1 0x20 ADD PUSH1 0x40 MLOAD SWAP1 DUP2 ADD PUSH1 0x40 MSTORE DUP1 SWAP3 SWAP2 SWAP1 DUP2 DUP2 MSTORE PUSH1 0x20 ADD DUP3 DUP1 SLOAD PUSH2 0x84C SWAP1 PUSH2 0x1416 JUMP JUMPDEST DUP1 ISZERO PUSH2 0x899 JUMPI DUP1 PUSH1 0x1F LT PUSH2 0x86E JUMPI PUSH2 0x100 DUP1 DUP4 SLOAD DIV MUL DUP4 MSTORE SWAP2 PUSH1 0x20 ADD SWAP2 PUSH2 0x899 JUMP JUMPDEST DUP3 ADD SWAP2 SWAP1 PUSH1 0x0 MSTORE PUSH1 0x20 PUSH1 0x0 KECCAK256 SWAP1 JUMPDEST DUP2 SLOAD DUP2 MSTORE SWAP1 PUSH1 0x1 ADD SWAP1 PUSH1 0x20 ADD DUP1 DUP4 GT PUSH2 0x87C JUMPI DUP3 SWAP1 SUB PUSH1 0x1F AND DUP3 ADD SWAP2 JUMPDEST POP POP POP POP POP DUP2 JUMP JUMPDEST PUSH1 0x4 DUP1 SLOAD PUSH2 0x8AE SWAP1 PUSH2 0x1416 JUMP JUMPDEST DUP1 PUSH1 0x1F ADD PUSH1 0x20 DUP1 SWAP2 DIV MUL PUSH1 0x20 ADD PUSH1 0x40 MLOAD SWAP1 DUP2 ADD PUSH1 0x40 MSTORE DUP1 SWAP3 SWAP2 SWAP1 DUP2 DUP2 MSTORE PUSH1 0x20 ADD DUP3 DUP1 SLOAD PUSH2 0x8DA SWAP1 PUSH2 0x1416 JUMP JUMPDEST DUP1 ISZERO PUSH2 0x927 JUMPI DUP1 PUSH1 0x1F LT PUSH2 0x8FC JUMPI PUSH2 0x100 DUP1 DUP4 SLOAD DIV MUL DUP4 MSTORE SWAP2 PUSH1 0x20 ADD SWAP2 PUSH2 0x927 JUMP JUMPDEST DUP3 ADD SWAP2 SWAP1 PUSH1 0x0 MSTORE PUSH1 0x20 PUSH1 0x0 KECCAK256 SWAP1 JUMPDEST DUP2 SLOAD DUP2 MSTORE SWAP1 PUSH1 0x1 ADD SWAP1 PUSH1 0x20 ADD DUP1 DUP4 GT PUSH2 0x90A JUMPI DUP3 SWAP1 SUB PUSH1 0x1F AND DUP3 ADD SWAP2 JUMPDEST POP POP POP POP POP DUP2 JUMP JUMPDEST PUSH1 0x0 PUSH1 0x2 PUSH1 0x0 DUP5 PUSH20 0xFFFFFFFFFFFFFFFFFFFFFFFFFFFFFFFFFFFFFFFF AND PUSH20 0xFFFFFFFFFFFFFFFFFFFFFFFFFFFFFFFFFFFFFFFF AND DUP2 MSTORE PUSH1 0x20 ADD SWAP1 DUP2 MSTORE PUSH1 0x20 ADD PUSH1 0x0 KECCAK256 PUSH1 0x0 DUP4 PUSH20 0xFFFFFFFFFFFFFFFFFFFFFFFFFFFFFFFFFFFFFFFF AND PUSH20 0xFFFFFFFFFFFFFFFFFFFFFFFFFFFFFFFFFFFFFFFF AND DUP2 MSTORE PUSH1 0x20 ADD SWAP1 DUP2 MSTORE PUSH1 0x20 ADD PUSH1 0x0 KECCAK256 SLOAD SWAP1 POP SWAP3 SWAP2 POP POP JUMP JUMPDEST PUSH1 0x0 DUP1 SLOAD SWAP1 PUSH2 0x100 EXP SWAP1 DIV PUSH20 0xFFFFFFFFFFFFFFFFFFFFFFFFFFFFFFFFFFFFFFFF AND PUSH20 0xFFFFFFFFFFFFFFFFFFFFFFFFFFFFFFFFFFFFFFFF AND CALLER PUSH20 0xFFFFFFFFFFFFFFFFFFFFFFFFFFFFFFFFFFFFFFFF AND EQ PUSH2 0xA44 JUMPI PUSH1 0x40 MLOAD PUSH32 0x8C379A000000000000000000000000000000000000000000000000000000000 DUP2 MSTORE PUSH1 0x4 ADD PUSH2 0xA3B SWAP1 PUSH2 0x15B8 JUMP JUMPDEST PUSH1 0x40 MLOAD DUP1 SWAP2 SUB SWAP1 REVERT JUMPDEST PUSH1 0x0 DUP1 SLOAD SWAP1 PUSH2 0x100 EXP SWAP1 DIV PUSH20 0xFFFFFFFFFFFFFFFFFFFFFFFFFFFFFFFFFFFFFFFF AND PUSH20 0xFFFFFFFFFFFFFFFFFFFFFFFFFFFFFFFFFFFFFFFF AND DUP2 PUSH20 0xFFFFFFFFFFFFFFFFFFFFFFFFFFFFFFFFFFFFFFFF AND EQ ISZERO PUSH2 0xA9D JUMPI PUSH1 0x0 DUP1 REVERT JUMPDEST PUSH1 0x0 PUSH20 0xFFFFFFFFFFFFFFFFFFFFFFFFFFFFFFFFFFFFFFFF AND DUP2 PUSH20 0xFFFFFFFFFFFFFFFFFFFFFFFFFFFFFFFFFFFFFFFF AND EQ ISZERO PUSH2 0xAD7 JUMPI PUSH1 0x0 DUP1 REVERT JUMPDEST PUSH1 0x0 DUP1 PUSH1 0x0 SWAP1 SLOAD SWAP1 PUSH2 0x100 EXP SWAP1 DIV PUSH20 0xFFFFFFFFFFFFFFFFFFFFFFFFFFFFFFFFFFFFFFFF AND SWAP1 POP DUP2 PUSH1 0x0 DUP1 PUSH2 0x100 EXP DUP2 SLOAD DUP2 PUSH20 0xFFFFFFFFFFFFFFFFFFFFFFFFFFFFFFFFFFFFFFFF MUL NOT AND SWAP1 DUP4 PUSH20 0xFFFFFFFFFFFFFFFFFFFFFFFFFFFFFFFFFFFFFFFF AND MUL OR SWAP1 SSTORE POP DUP2 PUSH20 0xFFFFFFFFFFFFFFFFFFFFFFFFFFFFFFFFFFFFFFFF AND DUP2 PUSH20 0xFFFFFFFFFFFFFFFFFFFFFFFFFFFFFFFFFFFFFFFF AND PUSH32 0x8BE0079C531659141344CD1FD0A4F28419497F9722A3DAAFE3B4186F6B6457E0 PUSH1 0x40 MLOAD PUSH1 0x40 MLOAD DUP1 SWAP2 SUB SWAP1 LOG3 POP POP JUMP JUMPDEST PUSH1 0x0 PUSH20 0xFFFFFFFFFFFFFFFFFFFFFFFFFFFFFFFFFFFFFFFF AND DUP5 PUSH20 0xFFFFFFFFFFFFFFFFFFFFFFFFFFFFFFFFFFFFFFFF AND EQ ISZERO PUSH2 0xC0B JUMPI PUSH1 0x40 MLOAD PUSH32 0x8C379A000000000000000000000000000000000000000000000000000000000 DUP2 MSTORE PUSH1 0x4 ADD PUSH2 0xC02 SWAP1 PUSH2 0x164A JUMP JUMPDEST PUSH1 0x40 MLOAD DUP1 SWAP2 SUB SWAP1 REVERT JUMPDEST PUSH1 0x0 PUSH20 0xFFFFFFFFFFFFFFFFFFFFFFFFFFFFFFFFFFFFFFFF AND DUP4 PUSH20 0xFFFFFFFFFFFFFFFFFFFFFFFFFFFFFFFFFFFFFFFF AND EQ ISZERO PUSH2 0xC7B JUMPI PUSH1 0x40 MLOAD PUSH32 0x8C379A000000000000000000000000000000000000000000000000000000000 DUP2 MSTORE PUSH1 0x4 ADD PUSH2 0xC72 SWAP1 PUSH2 0x16DC JUMP JUMPDEST PUSH1 0x40 MLOAD DUP1 SWAP2 SUB SWAP1 REVERT JUMPDEST PUSH1 0x2 PUSH1 0x0 DUP6 PUSH20 0xFFFFFFFFFFFFFFFFFFFFFFFFFFFFFFFFFFFFFFFF AND PUSH20 0xFFFFFFFFFFFFFFFFFFFFFFFFFFFFFFFFFFFFFFFF AND DUP2 MSTORE PUSH1 0x20 ADD SWAP1 DUP2 MSTORE PUSH1 0x20 ADD PUSH1 0x0 KECCAK256 PUSH1 0x0 DUP5 PUSH20 0xFFFFFFFFFFFFFFFFFFFFFFFFFFFFFFFFFFFFFFFF AND PUSH20 0xFFFFFFFFFFFFFFFFFFFFFFFFFFFFFFFFFFFFFFFF AND DUP2 MSTORE PUSH1 0x20 ADD SWAP1 DUP2 MSTORE PUSH1 0x20 ADD PUSH1 0x0 KECCAK256 SLOAD DUP3 EQ PUSH2 0xD39 JUMPI PUSH1 0x40 MLOAD PUSH32 0x8C379A000000000000000000000000000000000000000000000000000000000 DUP2 MSTORE PUSH1 0x4 ADD PUSH2 0xD30 SWAP1 PUSH2 0x1748 JUMP JUMPDEST PUSH1 0x40 MLOAD DUP1 SWAP2 SUB SWAP1 REVERT JUMPDEST DUP1 PUSH1 0x2 PUSH1 0x0 DUP7 PUSH20 0xFFFFFFFFFFFFFFFFFFFFFFFFFFFFFFFFFFFFFFFF AND PUSH20 0xFFFFFFFFFFFFFFFFFFFFFFFFFFFFFFFFFFFFFFFF AND DUP2 MSTORE PUSH1 0x20 ADD SWAP1 DUP2 MSTORE PUSH1 0x20 ADD PUSH1 0x0 KECCAK256 PUSH1 0x0 DUP6 PUSH20 0xFFFFFFFFFFFFFFFFFFFFFFFFFFFFFFFFFFFFFFFF AND PUSH20 0xFFFFFFFFFFFFFFFFFFFFFFFFFFFFFFFFFFFFFFFF AND DUP2 MSTORE PUSH1 0x20 ADD SWAP1 DUP2 MSTORE PUSH1 0x20 ADD PUSH1 0x0 KECCAK256 DUP2 SWAP1 SSTORE POP DUP3 PUSH20 0xFFFFFFFFFFFFFFFFFFFFFFFFFFFFFFFFFFFFFFFF AND DUP5 PUSH20 0xFFFFFFFFFFFFFFFFFFFFFFFFFFFFFFFFFFFFFFFF AND PUSH32 0xB3FD5071835887567A0671151121894DDCCC2842F1D10BEDAD13E0D17CACE9A7 DUP5 DUP5 PUSH1 0x40 MLOAD PUSH2 0xE19 SWAP3 SWAP2 SWAP1 PUSH2 0x1768 JUMP JUMPDEST PUSH1 0x40 MLOAD DUP1 SWAP2 SUB SWAP1 LOG3 POP POP POP POP JUMP JUMPDEST PUSH1 0x0 PUSH20 0xFFFFFFFFFFFFFFFFFFFFFFFFFFFFFFFFFFFFFFFF AND DUP4 PUSH20 0xFFFFFFFFFFFFFFFFFFFFFFFFFFFFFFFFFFFFFFFF AND EQ ISZERO PUSH2 0xE97 JUMPI PUSH1 0x40 MLOAD PUSH32 0x8C379A000000000000000000000000000000000000000000000000000000000 DUP2 MSTORE PUSH1 0x4 ADD PUSH2 0xE8E SWAP1 PUSH2 0x1803 JUMP JUMPDEST PUSH1 0x40 MLOAD DUP1 SWAP2 SUB SWAP1 REVERT JUMPDEST PUSH1 0x0 PUSH20 0xFFFFFFFFFFFFFFFFFFFFFFFFFFFFFFFFFFFFFFFF AND DUP3 PUSH20 0xFFFFFFFFFFFFFFFFFFFFFFFFFFFFFFFFFFFFFFFF AND EQ ISZERO PUSH2 0xF07 JUMPI PUSH1 0x40 MLOAD PUSH32 0x8C379A000000000000000000000000000000000000000000000000000000000 DUP2 MSTORE PUSH1 0x4 ADD PUSH2 0xEFE SWAP1 PUSH2 0x1895 JUMP JUMPDEST PUSH1 0x40 MLOAD DUP1 SWAP2 SUB SWAP1 REVERT JUMPDEST PUSH1 0x0 PUSH1 0x1 PUSH1 0x0 DUP6 PUSH20 0xFFFFFFFFFFFFFFFFFFFFFFFFFFFFFFFFFFFFFFFF AND PUSH20 0xFFFFFFFFFFFFFFFFFFFFFFFFFFFFFFFFFFFFFFFF AND DUP2 MSTORE PUSH1 0x20 ADD SWAP1 DUP2 MSTORE PUSH1 0x20 ADD PUSH1 0x0 KECCAK256 SLOAD SWAP1 POP DUP2 DUP2 LT ISZERO PUSH2 0xF8E JUMPI PUSH1 0x40 MLOAD PUSH32 0x8C379A000000000000000000000000000000000000000000000000000000000 DUP2 MSTORE PUSH1 0x4 ADD PUSH2 0xF85 SWAP1 PUSH2 0x1927 JUMP JUMPDEST PUSH1 0x40 MLOAD DUP1 SWAP2 SUB SWAP1 REVERT JUMPDEST PUSH2 0xFA1 DUP3 DUP3 PUSH2 0x107F SWAP1 SWAP2 SWAP1 PUSH4 0xFFFFFFFF AND JUMP JUMPDEST PUSH1 0x1 PUSH1 0x0 DUP7 PUSH20 0xFFFFFFFFFFFFFFFFFFFFFFFFFFFFFFFFFFFFFFFF AND PUSH20 0xFFFFFFFFFFFFFFFFFFFFFFFFFFFFFFFFFFFFFFFF AND DUP2 MSTORE PUSH1 0x20 ADD SWAP1 DUP2 MSTORE PUSH1 0x20 ADD PUSH1 0x0 KECCAK256 DUP2 SWAP1 SSTORE POP PUSH2 0x1036 DUP3 PUSH1 0x1 PUSH1 0x0 DUP7 PUSH20 0xFFFFFFFFFFFFFFFFFFFFFFFFFFFFFFFFFFFFFFFF AND PUSH20 0xFFFFFFFFFFFFFFFFFFFFFFFFFFFFFFFFFFFFFFFF AND DUP2 MSTORE PUSH1 0x20 ADD SWAP1 DUP2 MSTORE PUSH1 0x20 ADD PUSH1 0x0 KECCAK256 SLOAD PUSH2 0x10A6 SWAP1 SWAP2 SWAP1 PUSH4 0xFFFFFFFF AND JUMP JUMPDEST PUSH1 0x1 PUSH1 0x0 DUP6 PUSH20 0xFFFFFFFFFFFFFFFFFFFFFFFFFFFFFFFFFFFFFFFF AND PUSH20 0xFFFFFFFFFFFFFFFFFFFFFFFFFFFFFFFFFFFFFFFF AND DUP2 MSTORE PUSH1 0x20 ADD SWAP1 DUP2 MSTORE PUSH1 0x20 ADD PUSH1 0x0 KECCAK256 DUP2 SWAP1 SSTORE POP POP POP POP POP JUMP JUMPDEST PUSH1 0x0 DUP3 DUP3 GT ISZERO PUSH2 0x1092 JUMPI PUSH2 0x1091 PUSH2 0x1947 JUMP JUMPDEST JUMPDEST DUP2 DUP4 PUSH2 0x109E SWAP2 SWAP1 PUSH2 0x19A5 JUMP JUMPDEST SWAP1 POP SWAP3 SWAP2 POP POP JUMP JUMPDEST PUSH1 0x0 DUP1 DUP3 DUP5 PUSH2 0x10B5 SWAP2 SWAP1 PUSH2 0x19D9 JUMP JUMPDEST SWAP1 POP DUP4 DUP2 LT ISZERO PUSH2 0x10C8 JUMPI PUSH2 0x10C7 PUSH2 0x1947 JUMP JUMPDEST JUMPDEST DUP1 SWAP2 POP POP SWAP3 SWAP2 POP POP JUMP JUMPDEST PUSH1 0x0 DUP1 REVERT JUMPDEST PUSH1 0x0 PUSH20 0xFFFFFFFFFFFFFFFFFFFFFFFFFFFFFFFFFFFFFFFF DUP3 AND SWAP1 POP SWAP2 SWAP1 POP JUMP JUMPDEST PUSH1 0x0 PUSH2 0x1102 DUP3 PUSH2 0x10D7 JUMP JUMPDEST SWAP1 POP SWAP2 SWAP1 POP JUMP JUMPDEST PUSH2 0x1112 DUP2 PUSH2 0x10F7 JUMP JUMPDEST DUP2 EQ PUSH2 0x111D JUMPI PUSH1 0x0 DUP1 REVERT JUMPDEST POP JUMP JUMPDEST PUSH1 0x0 DUP2 CALLDATALOAD SWAP1 POP PUSH2 0x112F DUP2 PUSH2 0x1109 JUMP JUMPDEST SWAP3 SWAP2 POP POP JUMP JUMPDEST PUSH1 0x0 DUP1 PUSH1 0x40 DUP4 DUP6 SUB SLT ISZERO PUSH2 0x114C JUMPI PUSH2 0x114B PUSH2 0x10D2 JUMP JUMPDEST JUMPDEST PUSH1 0x0 PUSH2 0x115A DUP6 DUP3 DUP7 ADD PUSH2 0x1120 JUMP JUMPDEST SWAP3 POP POP PUSH1 0x20 PUSH2 0x116B DUP6 DUP3 DUP7 ADD PUSH2 0x1120 JUMP JUMPDEST SWAP2 POP POP SWAP3 POP SWAP3 SWAP1 POP JUMP JUMPDEST PUSH1 0x0 DUP2 SWAP1 POP SWAP2 SWAP1 POP JUMP JUMPDEST PUSH2 0x1188 DUP2 PUSH2 0x1175 JUMP JUMPDEST DUP3 MSTORE POP POP JUMP JUMPDEST PUSH1 0x0 PUSH1 0x20 DUP3 ADD SWAP1 POP PUSH2 0x11A3 PUSH1 0x0 DUP4 ADD DUP5 PUSH2 0x117F JUMP JUMPDEST SWAP3 SWAP2 POP POP JUMP JUMPDEST PUSH1 0x0 DUP2 MLOAD SWAP1 POP SWAP2 SWAP1 POP JUMP JUMPDEST PUSH1 0x0 DUP3 DUP3 MSTORE PUSH1 0x20 DUP3 ADD SWAP1 POP SWAP3 SWAP2 POP POP JUMP JUMPDEST PUSH1 0x0 JUMPDEST DUP4 DUP2 LT ISZERO PUSH2 0x11E3 JUMPI DUP1 DUP3 ADD MLOAD DUP2 DUP5 ADD MSTORE PUSH1 0x20 DUP2 ADD SWAP1 POP PUSH2 0x11C8 JUMP JUMPDEST DUP4 DUP2 GT ISZERO PUSH2 0x11F2 JUMPI PUSH1 0x0 DUP5 DUP5 ADD MSTORE JUMPDEST POP POP POP POP JUMP JUMPDEST PUSH1 0x0 PUSH1 0x1F NOT PUSH1 0x1F DUP4 ADD AND SWAP1 POP SWAP2 SWAP1 POP JUMP JUMPDEST PUSH1 0x0 PUSH2 0x1214 DUP3 PUSH2 0x11A9 JUMP JUMPDEST PUSH2 0x121E DUP2 DUP6 PUSH2 0x11B4 JUMP JUMPDEST SWAP4 POP PUSH2 0x122E DUP2 DUP6 PUSH1 0x20 DUP7 ADD PUSH2 0x11C5 JUMP JUMPDEST PUSH2 0x1237 DUP2 PUSH2 0x11F8 JUMP JUMPDEST DUP5 ADD SWAP2 POP POP SWAP3 SWAP2 POP POP JUMP JUMPDEST PUSH1 0x0 PUSH1 0x20 DUP3 ADD SWAP1 POP DUP2 DUP2 SUB PUSH1 0x0 DUP4 ADD MSTORE PUSH2 0x125C DUP2 DUP5 PUSH2 0x1209 JUMP JUMPDEST SWAP1 POP SWAP3 SWAP2 POP POP JUMP JUMPDEST PUSH2 0x126D DUP2 PUSH2 0x1175 JUMP JUMPDEST DUP2 EQ PUSH2 0x1278 JUMPI PUSH1 0x0 DUP1 REVERT JUMPDEST POP JUMP JUMPDEST PUSH1 0x0 DUP2 CALLDATALOAD SWAP1 POP PUSH2 0x128A DUP2 PUSH2 0x1264 JUMP JUMPDEST SWAP3 SWAP2 POP POP JUMP JUMPDEST PUSH1 0x0 DUP1 PUSH1 0x40 DUP4 DUP6 SUB SLT ISZERO PUSH2 0x12A7 JUMPI PUSH2 0x12A6 PUSH2 0x10D2 JUMP JUMPDEST JUMPDEST PUSH1 0x0 PUSH2 0x12B5 DUP6 DUP3 DUP7 ADD PUSH2 0x1120 JUMP JUMPDEST SWAP3 POP POP PUSH1 0x20 PUSH2 0x12C6 DUP6 DUP3 DUP7 ADD PUSH2 0x127B JUMP JUMPDEST SWAP2 POP POP SWAP3 POP SWAP3 SWAP1 POP JUMP JUMPDEST PUSH1 0x0 DUP2 ISZERO ISZERO SWAP1 POP SWAP2 SWAP1 POP JUMP JUMPDEST PUSH2 0x12E5 DUP2 PUSH2 0x12D0 JUMP JUMPDEST DUP3 MSTORE POP POP JUMP JUMPDEST PUSH1 0x0 PUSH1 0x20 DUP3 ADD SWAP1 POP PUSH2 0x1300 PUSH1 0x0 DUP4 ADD DUP5 PUSH2 0x12DC JUMP JUMPDEST SWAP3 SWAP2 POP POP JUMP JUMPDEST PUSH1 0x0 DUP1 PUSH1 0x0 PUSH1 0x60 DUP5 DUP7 SUB SLT ISZERO PUSH2 0x131F JUMPI PUSH2 0x131E PUSH2 0x10D2 JUMP JUMPDEST JUMPDEST PUSH1 0x0 PUSH2 0x132D DUP7 DUP3 DUP8 ADD PUSH2 0x1120 JUMP JUMPDEST SWAP4 POP POP PUSH1 0x20 PUSH2 0x133E DUP7 DUP3 DUP8 ADD PUSH2 0x1120 JUMP JUMPDEST SWAP3 POP POP PUSH1 0x40 PUSH2 0x134F DUP7 DUP3 DUP8 ADD PUSH2 0x127B JUMP JUMPDEST SWAP2 POP POP SWAP3 POP SWAP3 POP SWAP3 JUMP JUMPDEST PUSH1 0x0 PUSH1 0xFF DUP3 AND SWAP1 POP SWAP2 SWAP1 POP JUMP JUMPDEST PUSH2 0x136F DUP2 PUSH2 0x1359 JUMP JUMPDEST DUP3 MSTORE POP POP JUMP JUMPDEST PUSH1 0x0 PUSH1 0x20 DUP3 ADD SWAP1 POP PUSH2 0x138A PUSH1 0x0 DUP4 ADD DUP5 PUSH2 0x1366 JUMP JUMPDEST SWAP3 SWAP2 POP POP JUMP JUMPDEST PUSH1 0x0 PUSH1 0x20 DUP3 DUP5 SUB SLT ISZERO PUSH2 0x13A6 JUMPI PUSH2 0x13A5 PUSH2 0x10D2 JUMP JUMPDEST JUMPDEST PUSH1 0x0 PUSH2 0x13B4 DUP5 DUP3 DUP6 ADD PUSH2 0x1120 JUMP JUMPDEST SWAP2 POP POP SWAP3 SWAP2 POP POP JUMP JUMPDEST PUSH2 0x13C6 DUP2 PUSH2 0x10F7 JUMP JUMPDEST DUP3 MSTORE POP POP JUMP JUMPDEST PUSH1 0x0 PUSH1 0x20 DUP3 ADD SWAP1 POP PUSH2 0x13E1 PUSH1 0x0 DUP4 ADD DUP5 PUSH2 0x13BD JUMP JUMPDEST SWAP3 SWAP2 POP POP JUMP JUMPDEST PUSH32 0x4E487B7100000000000000000000000000000000000000000000000000000000 PUSH1 0x0 MSTORE PUSH1 0x22 PUSH1 0x4 MSTORE PUSH1 0x24 PUSH1 0x0 REVERT JUMPDEST PUSH1 0x0 PUSH1 0x2 DUP3 DIV SWAP1 POP PUSH1 0x1 DUP3 AND DUP1 PUSH2 0x142E JUMPI PUSH1 0x7F DUP3 AND SWAP2 POP JUMPDEST PUSH1 0x20 DUP3 LT DUP2 EQ ISZERO PUSH2 0x1442 JUMPI PUSH2 0x1441 PUSH2 0x13E7 JUMP JUMPDEST JUMPDEST POP SWAP2 SWAP1 POP JUMP JUMPDEST PUSH32 0x45524332303A205472616E7366657220616D6F756E7420657863656564732061 PUSH1 0x0 DUP3 ADD MSTORE PUSH32 0x6C6C6F77616E6365000000000000000000000000000000000000000000000000 PUSH1 0x20 DUP3 ADD MSTORE POP JUMP JUMPDEST PUSH1 0x0 PUSH2 0x14A4 PUSH1 0x28 DUP4 PUSH2 0x11B4 JUMP JUMPDEST SWAP2 POP PUSH2 0x14AF DUP3 PUSH2 0x1448 JUMP JUMPDEST PUSH1 0x40 DUP3 ADD SWAP1 POP SWAP2 SWAP1 POP JUMP JUMPDEST PUSH1 0x0 PUSH1 0x20 DUP3 ADD SWAP1 POP DUP2 DUP2 SUB PUSH1 0x0 DUP4 ADD MSTORE PUSH2 0x14D3 DUP2 PUSH2 0x1497 JUMP JUMPDEST SWAP1 POP SWAP2 SWAP1 POP JUMP JUMPDEST PUSH32 0x45524332303A207472616E7366657220616D6F756E7420657863656564732061 PUSH1 0x0 DUP3 ADD MSTORE PUSH32 0x6C6C6F77616E6365000000000000000000000000000000000000000000000000 PUSH1 0x20 DUP3 ADD MSTORE POP JUMP JUMPDEST PUSH1 0x0 PUSH2 0x1536 PUSH1 0x28 DUP4 PUSH2 0x11B4 JUMP JUMPDEST SWAP2 POP PUSH2 0x1541 DUP3 PUSH2 0x14DA JUMP JUMPDEST PUSH1 0x40 DUP3 ADD SWAP1 POP SWAP2 SWAP1 POP JUMP JUMPDEST PUSH1 0x0 PUSH1 0x20 DUP3 ADD SWAP1 POP DUP2 DUP2 SUB PUSH1 0x0 DUP4 ADD MSTORE PUSH2 0x1565 DUP2 PUSH2 0x1529 JUMP JUMPDEST SWAP1 POP SWAP2 SWAP1 POP JUMP JUMPDEST PUSH32 0x4F776E657248656C7065723A2063616C6C6572206973206E6F74206F776E6572 PUSH1 0x0 DUP3 ADD MSTORE POP JUMP JUMPDEST PUSH1 0x0 PUSH2 0x15A2 PUSH1 0x20 DUP4 PUSH2 0x11B4 JUMP JUMPDEST SWAP2 POP PUSH2 0x15AD DUP3 PUSH2 0x156C JUMP JUMPDEST PUSH1 0x20 DUP3 ADD SWAP1 POP SWAP2 SWAP1 POP JUMP JUMPDEST PUSH1 0x0 PUSH1 0x20 DUP3 ADD SWAP1 POP DUP2 DUP2 SUB PUSH1 0x0 DUP4 ADD MSTORE PUSH2 0x15D1 DUP2 PUSH2 0x1595 JUMP JUMPDEST SWAP1 POP SWAP2 SWAP1 POP JUMP JUMPDEST PUSH32 0x45524332303A20617070726F76652066726F6D20746865207A65726F20616464 PUSH1 0x0 DUP3 ADD MSTORE PUSH32 0x7265737300000000000000000000000000000000000000000000000000000000 PUSH1 0x20 DUP3 ADD MSTORE POP JUMP JUMPDEST PUSH1 0x0 PUSH2 0x1634 PUSH1 0x24 DUP4 PUSH2 0x11B4 JUMP JUMPDEST SWAP2 POP PUSH2 0x163F DUP3 PUSH2 0x15D8 JUMP JUMPDEST PUSH1 0x40 DUP3 ADD SWAP1 POP SWAP2 SWAP1 POP JUMP JUMPDEST PUSH1 0x0 PUSH1 0x20 DUP3 ADD SWAP1 POP DUP2 DUP2 SUB PUSH1 0x0 DUP4 ADD MSTORE PUSH2 0x1663 DUP2 PUSH2 0x1627 JUMP JUMPDEST SWAP1 POP SWAP2 SWAP1 POP JUMP JUMPDEST PUSH32 0x45524332303A20617070726F766520746F20746865207A65726F206164647265 PUSH1 0x0 DUP3 ADD MSTORE PUSH32 0x7373000000000000000000000000000000000000000000000000000000000000 PUSH1 0x20 DUP3 ADD MSTORE POP JUMP JUMPDEST PUSH1 0x0 PUSH2 0x16C6 PUSH1 0x22 DUP4 PUSH2 0x11B4 JUMP JUMPDEST SWAP2 POP PUSH2 0x16D1 DUP3 PUSH2 0x166A JUMP JUMPDEST PUSH1 0x40 DUP3 ADD SWAP1 POP SWAP2 SWAP1 POP JUMP JUMPDEST PUSH1 0x0 PUSH1 0x20 DUP3 ADD SWAP1 POP DUP2 DUP2 SUB PUSH1 0x0 DUP4 ADD MSTORE PUSH2 0x16F5 DUP2 PUSH2 0x16B9 JUMP JUMPDEST SWAP1 POP SWAP2 SWAP1 POP JUMP JUMPDEST PUSH32 0x45524332303A20696E76616C69642063757272656E74416D6F756E7400000000 PUSH1 0x0 DUP3 ADD MSTORE POP JUMP JUMPDEST PUSH1 0x0 PUSH2 0x1732 PUSH1 0x1C DUP4 PUSH2 0x11B4 JUMP JUMPDEST SWAP2 POP PUSH2 0x173D DUP3 PUSH2 0x16FC JUMP JUMPDEST PUSH1 0x20 DUP3 ADD SWAP1 POP SWAP2 SWAP1 POP JUMP JUMPDEST PUSH1 0x0 PUSH1 0x20 DUP3 ADD SWAP1 POP DUP2 DUP2 SUB PUSH1 0x0 DUP4 ADD MSTORE PUSH2 0x1761 DUP2 PUSH2 0x1725 JUMP JUMPDEST SWAP1 POP SWAP2 SWAP1 POP JUMP JUMPDEST PUSH1 0x0 PUSH1 0x40 DUP3 ADD SWAP1 POP PUSH2 0x177D PUSH1 0x0 DUP4 ADD DUP6 PUSH2 0x117F JUMP JUMPDEST PUSH2 0x178A PUSH1 0x20 DUP4 ADD DUP5 PUSH2 0x117F JUMP JUMPDEST SWAP4 SWAP3 POP POP POP JUMP JUMPDEST PUSH32 0x45524332303A207472616E736665722066726F6D20746865207A65726F206164 PUSH1 0x0 DUP3 ADD MSTORE PUSH32 0x6472657373000000000000000000000000000000000000000000000000000000 PUSH1 0x20 DUP3 ADD MSTORE POP JUMP JUMPDEST PUSH1 0x0 PUSH2 0x17ED PUSH1 0x25 DUP4 PUSH2 0x11B4 JUMP JUMPDEST SWAP2 POP PUSH2 0x17F8 DUP3 PUSH2 0x1791 JUMP JUMPDEST PUSH1 0x40 DUP3 ADD SWAP1 POP SWAP2 SWAP1 POP JUMP JUMPDEST PUSH1 0x0 PUSH1 0x20 DUP3 ADD SWAP1 POP DUP2 DUP2 SUB PUSH1 0x0 DUP4 ADD MSTORE PUSH2 0x181C DUP2 PUSH2 0x17E0 JUMP JUMPDEST SWAP1 POP SWAP2 SWAP1 POP JUMP JUMPDEST PUSH32 0x45524332303A207472616E7366657220746F20746865207A65726F2061646472 PUSH1 0x0 DUP3 ADD MSTORE PUSH32 0x6573730000000000000000000000000000000000000000000000000000000000 PUSH1 0x20 DUP3 ADD MSTORE POP JUMP JUMPDEST PUSH1 0x0 PUSH2 0x187F PUSH1 0x23 DUP4 PUSH2 0x11B4 JUMP JUMPDEST SWAP2 POP PUSH2 0x188A DUP3 PUSH2 0x1823 JUMP JUMPDEST PUSH1 0x40 DUP3 ADD SWAP1 POP SWAP2 SWAP1 POP JUMP JUMPDEST PUSH1 0x0 PUSH1 0x20 DUP3 ADD SWAP1 POP DUP2 DUP2 SUB PUSH1 0x0 DUP4 ADD MSTORE PUSH2 0x18AE DUP2 PUSH2 0x1872 JUMP JUMPDEST SWAP1 POP SWAP2 SWAP1 POP JUMP JUMPDEST PUSH32 0x45524332303A207472616E7366657220616D6F756E7420657863656564732062 PUSH1 0x0 DUP3 ADD MSTORE PUSH32 0x616C616E63650000000000000000000000000000000000000000000000000000 PUSH1 0x20 DUP3 ADD MSTORE POP JUMP JUMPDEST PUSH1 0x0 PUSH2 0x1911 PUSH1 0x26 DUP4 PUSH2 0x11B4 JUMP JUMPDEST SWAP2 POP PUSH2 0x191C DUP3 PUSH2 0x18B5 JUMP JUMPDEST PUSH1 0x40 DUP3 ADD SWAP1 POP SWAP2 SWAP1 POP JUMP JUMPDEST PUSH1 0x0 PUSH1 0x20 DUP3 ADD SWAP1 POP DUP2 DUP2 SUB PUSH1 0x0 DUP4 ADD MSTORE PUSH2 0x1940 DUP2 PUSH2 0x1904 JUMP JUMPDEST SWAP1 POP SWAP2 SWAP1 POP JUMP JUMPDEST PUSH32 0x4E487B7100000000000000000000000000000000000000000000000000000000 PUSH1 0x0 MSTORE PUSH1 0x1 PUSH1 0x4 MSTORE PUSH1 0x24 PUSH1 0x0 REVERT JUMPDEST PUSH32 0x4E487B7100000000000000000000000000000000000000000000000000000000 PUSH1 0x0 MSTORE PUSH1 0x11 PUSH1 0x4 MSTORE PUSH1 0x24 PUSH1 0x0 REVERT JUMPDEST PUSH1 0x0 PUSH2 0x19B0 DUP3 PUSH2 0x1175 JUMP JUMPDEST SWAP2 POP PUSH2 0x19BB DUP4 PUSH2 0x1175 JUMP JUMPDEST SWAP3 POP DUP3 DUP3 LT ISZERO PUSH2 0x19CE JUMPI PUSH2 0x19CD PUSH2 0x1976 JUMP JUMPDEST JUMPDEST DUP3 DUP3 SUB SWAP1 POP SWAP3 SWAP2 POP POP JUMP JUMPDEST PUSH1 0x0 PUSH2 0x19E4 DUP3 PUSH2 0x1175 JUMP JUMPDEST SWAP2 POP PUSH2 0x19EF DUP4 PUSH2 0x1175 JUMP JUMPDEST SWAP3 POP DUP3 PUSH32 0xFFFFFFFFFFFFFFFFFFFFFFFFFFFFFFFFFFFFFFFFFFFFFFFFFFFFFFFFFFFFFFFF SUB DUP3 GT ISZERO PUSH2 0x1A24 JUMPI PUSH2 0x1A23 PUSH2 0x1976 JUMP JUMPDEST JUMPDEST DUP3 DUP3 ADD SWAP1 POP SWAP3 SWAP2 POP POP JUMP INVALID LOG2 PUSH5 0x6970667358 0x22 SLT KECCAK256 0xD5 0x2D INVALID LT 0xCE 0xE6 0xDF 0xEC DUP14 SWAP13 SSTORE PUSH13 0xDB17973D95C13EADFCA6A12F59 0x4D CALLVALUE DUP12 CALLVALUE PUSH23 0x5F1464736F6C634300080A003300000000000000000000 "
				},
				"gasEstimates": {
					"creation": {
						"codeDepositCost": "1351400",
						"executionCost": "infinite",
						"totalCost": "infinite"
					},
					"external": {
						"_allowances(address,address)": "infinite",
						"_decimals()": "2538",
						"_name()": "infinite",
						"_symbol()": "infinite",
						"_totalSupply()": "2518",
						"allowance(address,address)": "infinite",
						"approve(address,uint256)": "infinite",
						"balanceOf(address)": "2864",
						"decimals()": "2524",
						"name()": "infinite",
						"owner()": "2567",
						"symbol()": "infinite",
						"totalSupply()": "2527",
						"transfer(address,uint256)": "infinite",
						"transferFrom(address,address,uint256)": "infinite",
						"transferOwnership(address)": "32880"
					},
					"internal": {
						"_approve(address,address,uint256,uint256)": "infinite",
						"_transfer(address,address,uint256)": "infinite"
					}
				},
				"methodIdentifiers": {
					"_allowances(address,address)": "024c2ddd",
					"_decimals()": "32424aa3",
					"_name()": "d28d8852",
					"_symbol()": "b09f1266",
					"_totalSupply()": "3eaaf86b",
					"allowance(address,address)": "dd62ed3e",
					"approve(address,uint256)": "095ea7b3",
					"balanceOf(address)": "70a08231",
					"decimals()": "313ce567",
					"name()": "06fdde03",
					"owner()": "8da5cb5b",
					"symbol()": "95d89b41",
					"totalSupply()": "18160ddd",
					"transfer(address,uint256)": "a9059cbb",
					"transferFrom(address,address,uint256)": "23b872dd",
					"transferOwnership(address)": "f2fde38b"
				}
			},
			"userdoc": {
				"kind": "user",
				"methods": {},
				"version": 1
			}
		}
	}
}